{
  "_format": "hh-sol-artifact-1",
  "contractName": "MerkleAirdropLinearVesting",
  "sourceName": "contracts/templates/MerkleAirdropLinearVesting.sol",
  "abi": [
    {
      "inputs": [
        {
          "internalType": "address",
          "name": "factory_",
          "type": "address"
        },
        {
          "internalType": "address",
          "name": "feePool_",
          "type": "address"
        },
        {
          "internalType": "contract IPermit2",
          "name": "permit_",
          "type": "address"
        }
      ],
      "stateMutability": "nonpayable",
      "type": "constructor"
    },
    {
      "inputs": [],
      "name": "AlreadyClaimed",
      "type": "error"
    },
    {
      "inputs": [],
      "name": "AmountNotEnough",
      "type": "error"
    },
    {
      "inputs": [],
      "name": "IncorrectAmount",
      "type": "error"
    },
    {
      "inputs": [],
      "name": "InvalidProof",
      "type": "error"
    },
    {
      "inputs": [],
      "name": "NotZeroRequired",
      "type": "error"
    },
    {
      "inputs": [],
      "name": "NothingToClaim",
      "type": "error"
    },
    {
      "anonymous": false,
      "inputs": [
        {
          "indexed": true,
          "internalType": "uint256",
          "name": "index",
          "type": "uint256"
        },
        {
          "indexed": true,
          "internalType": "address",
          "name": "account",
          "type": "address"
        },
        {
          "indexed": false,
          "internalType": "uint256",
          "name": "amount",
          "type": "uint256"
        }
      ],
      "name": "Claimed",
      "type": "event"
    },
    {
      "anonymous": false,
      "inputs": [
        {
          "indexed": false,
          "internalType": "address",
          "name": "deployedAddress",
          "type": "address"
        },
        {
          "indexed": false,
          "internalType": "address",
          "name": "owner",
          "type": "address"
        },
        {
          "indexed": false,
          "internalType": "bytes32",
          "name": "merkleRoot",
          "type": "bytes32"
        },
        {
          "indexed": false,
          "internalType": "bytes",
          "name": "airdropTokens",
          "type": "bytes"
        },
        {
          "indexed": false,
          "internalType": "bytes",
          "name": "args",
          "type": "bytes"
        }
      ],
      "name": "Deployed",
      "type": "event"
    },
    {
      "inputs": [],
      "name": "Permit2",
      "outputs": [
        {
          "internalType": "contract IPermit2",
          "name": "",
          "type": "address"
        }
      ],
      "stateMutability": "view",
      "type": "function"
    },
    {
      "inputs": [
        {
          "internalType": "uint256",
          "name": "index_",
          "type": "uint256"
        },
        {
          "internalType": "address",
          "name": "account_",
          "type": "address"
        },
        {
          "internalType": "uint256",
          "name": "amount_",
          "type": "uint256"
        },
        {
          "internalType": "bytes32[]",
          "name": "merkleProof",
          "type": "bytes32[]"
        }
      ],
      "name": "claim",
      "outputs": [],
      "stateMutability": "payable",
      "type": "function"
    },
    {
      "inputs": [],
      "name": "claimFee",
      "outputs": [
        {
          "internalType": "uint256",
          "name": "",
          "type": "uint256"
        }
      ],
      "stateMutability": "view",
      "type": "function"
    },
    {
      "inputs": [
        {
          "internalType": "address",
          "name": "",
          "type": "address"
        }
      ],
      "name": "claimedAmount",
      "outputs": [
        {
          "internalType": "uint256",
          "name": "",
          "type": "uint256"
        }
      ],
      "stateMutability": "view",
      "type": "function"
    },
    {
      "inputs": [
        {
          "internalType": "uint256",
          "name": "depositAmount_",
          "type": "uint256"
        },
        {
          "internalType": "uint256",
          "name": "nonce_",
          "type": "uint256"
        },
        {
          "internalType": "uint256",
          "name": "deadline_",
          "type": "uint256"
        },
        {
          "internalType": "bytes",
          "name": "signature_",
          "type": "bytes"
        }
      ],
      "name": "depositAirdropToken",
      "outputs": [],
      "stateMutability": "nonpayable",
      "type": "function"
    },
    {
      "inputs": [],
      "name": "depositedAmount",
      "outputs": [
        {
          "internalType": "uint256",
          "name": "",
          "type": "uint256"
        }
      ],
      "stateMutability": "view",
      "type": "function"
    },
    {
      "inputs": [],
      "name": "factory",
      "outputs": [
        {
          "internalType": "address",
          "name": "",
          "type": "address"
        }
      ],
      "stateMutability": "view",
      "type": "function"
    },
    {
      "inputs": [],
      "name": "feePool",
      "outputs": [
        {
          "internalType": "address",
          "name": "",
          "type": "address"
        }
      ],
      "stateMutability": "view",
      "type": "function"
    },
    {
      "inputs": [],
      "name": "getAirdropInfo",
      "outputs": [
        {
          "components": [
            {
              "internalType": "address",
              "name": "token",
              "type": "address"
            },
            {
              "internalType": "address",
              "name": "owner",
              "type": "address"
            },
            {
              "internalType": "bytes32",
              "name": "merkleRoot",
              "type": "bytes32"
            },
            {
              "internalType": "uint256",
              "name": "depositedAmount",
              "type": "uint256"
            },
            {
              "internalType": "uint256",
              "name": "stockAmount",
              "type": "uint256"
            }
          ],
          "internalType": "struct MerkleAirdropLinearVesting.AirdopInfo",
          "name": "",
          "type": "tuple"
        }
      ],
      "stateMutability": "view",
      "type": "function"
    },
    {
      "inputs": [
        {
          "internalType": "address",
          "name": "owner_",
          "type": "address"
        },
        {
          "internalType": "bytes32",
          "name": "merkleRoot_",
          "type": "bytes32"
        },
        {
          "internalType": "address",
          "name": "token_",
          "type": "address"
        },
        {
          "internalType": "uint256",
          "name": "vestingDuration_",
          "type": "uint256"
        },
        {
          "internalType": "uint256",
          "name": "depositAmount_",
          "type": "uint256"
        },
        {
          "internalType": "uint256",
          "name": "nonce_",
          "type": "uint256"
        },
        {
          "internalType": "uint256",
          "name": "deadline_",
          "type": "uint256"
        },
        {
          "internalType": "bytes",
          "name": "signature_",
          "type": "bytes"
        }
      ],
      "name": "initialize",
      "outputs": [
        {
          "internalType": "address",
          "name": "",
          "type": "address"
        },
        {
          "internalType": "uint256",
          "name": "",
          "type": "uint256"
        },
        {
          "internalType": "uint256",
          "name": "",
          "type": "uint256"
        },
        {
          "internalType": "uint256",
          "name": "",
          "type": "uint256"
        },
        {
          "internalType": "bytes",
          "name": "",
          "type": "bytes"
        },
        {
          "internalType": "address",
          "name": "",
          "type": "address"
        }
      ],
      "stateMutability": "payable",
      "type": "function"
    },
    {
      "inputs": [
        {
          "internalType": "address",
          "name": "token_",
          "type": "address"
        },
        {
          "internalType": "uint256",
          "name": "amount_",
          "type": "uint256"
        },
        {
          "internalType": "uint256",
          "name": "nonce_",
          "type": "uint256"
        },
        {
          "internalType": "uint256",
          "name": "deadline_",
          "type": "uint256"
        },
        {
          "internalType": "bytes",
          "name": "signature_",
          "type": "bytes"
        },
        {
          "internalType": "address",
          "name": "to_",
          "type": "address"
        }
      ],
      "name": "initializeTransfer",
      "outputs": [],
      "stateMutability": "payable",
      "type": "function"
    },
    {
      "inputs": [
        {
          "internalType": "uint256",
          "name": "index_",
          "type": "uint256"
        }
      ],
      "name": "isClaimed",
      "outputs": [
        {
          "internalType": "bool",
          "name": "",
          "type": "bool"
        }
      ],
      "stateMutability": "view",
      "type": "function"
    },
    {
      "inputs": [],
      "name": "merkleRoot",
      "outputs": [
        {
          "internalType": "bytes32",
          "name": "",
          "type": "bytes32"
        }
      ],
      "stateMutability": "view",
      "type": "function"
    },
    {
      "inputs": [],
      "name": "owner",
      "outputs": [
        {
          "internalType": "address",
          "name": "",
          "type": "address"
        }
      ],
      "stateMutability": "view",
      "type": "function"
    },
    {
      "inputs": [],
      "name": "registrationFee",
      "outputs": [
        {
          "internalType": "uint256",
          "name": "",
          "type": "uint256"
        }
      ],
      "stateMutability": "view",
      "type": "function"
    },
    {
      "inputs": [],
      "name": "token",
      "outputs": [
        {
          "internalType": "address",
          "name": "",
          "type": "address"
        }
      ],
      "stateMutability": "view",
      "type": "function"
    },
    {
      "inputs": [],
      "name": "totalClaimed",
      "outputs": [
        {
          "internalType": "uint256",
          "name": "",
          "type": "uint256"
        }
      ],
      "stateMutability": "view",
      "type": "function"
    },
    {
      "inputs": [],
      "name": "vestingDuration",
      "outputs": [
        {
          "internalType": "uint256",
          "name": "",
          "type": "uint256"
        }
      ],
      "stateMutability": "view",
      "type": "function"
    },
    {
      "inputs": [],
      "name": "vestingStart",
      "outputs": [
        {
          "internalType": "uint256",
          "name": "",
          "type": "uint256"
        }
      ],
      "stateMutability": "view",
      "type": "function"
    },
    {
      "inputs": [],
      "name": "withdrawDepositedToken",
      "outputs": [],
      "stateMutability": "nonpayable",
      "type": "function"
    }
  ],
  "bytecode": "0x60e06040523480156200001157600080fd5b506040516200239a3803806200239a83398101604081905262000034916200006b565b6001600160a01b0392831660c05290821660a05216608052620000bf565b6001600160a01b03811681146200006857600080fd5b50565b6000806000606084860312156200008157600080fd5b83516200008e8162000052565b6020850151909350620000a18162000052565b6040850151909250620000b48162000052565b809150509250925092565b60805160a05160c051612281620001196000396000818161041101528181610e1a01526115100152600081816103dd01528181610bb201526110f90152600081816102c301528181611481015261161601526122816000f3fe60806040526004361061015f5760003560e01c80635f459c15116100c0578063ae2e933b11610074578063d54ad2a111610059578063d54ad2a114610433578063ed74188014610449578063fc0c546a1461045c57600080fd5b8063ae2e933b146103cb578063c45a0155146103ff57600080fd5b806399d32fc4116100a557806399d32fc4146103615780639e34070f1461037b5780639f7dd050146103ab57600080fd5b80635f459c151461030a5780638da5cb5b1461032f57600080fd5b8063254800d4116101175780632eb4a7ab116100fc5780632eb4a7ab1461022a57806332f088731461024057806339514480146102b157600080fd5b8063254800d4146102015780632e7ba6ef1461021757600080fd5b80631514617e116101485780631514617e146101bf5780631d01364c146101d55780631d9e8e12146101ea57600080fd5b806304e869031461016457806314c44e09146101a4575b600080fd5b34801561017057600080fd5b5061019161017f366004611b3e565b60066020526000908152604090205481565b6040519081526020015b60405180910390f35b3480156101b057600080fd5b50610191662386f26fc1000081565b3480156101cb57600080fd5b5061019160055481565b3480156101e157600080fd5b50610191610489565b3480156101f657600080fd5b506101ff61052f565b005b34801561020d57600080fd5b5061019160045481565b6101ff610225366004611b59565b61067c565b34801561023657600080fd5b5061019160015481565b34801561024c57600080fd5b50610255610ce3565b60405161019b9190600060a08201905073ffffffffffffffffffffffffffffffffffffffff8084511683528060208501511660208401525060408301516040830152606083015160608301526080830151608083015292915050565b3480156102bd57600080fd5b506102e57f000000000000000000000000000000000000000000000000000000000000000081565b60405173ffffffffffffffffffffffffffffffffffffffff909116815260200161019b565b61031d610318366004611c1f565b610dfa565b60405161019b96959493929190611dae565b34801561033b57600080fd5b506000546102e590610100900473ffffffffffffffffffffffffffffffffffffffff1681565b34801561036d57600080fd5b50610191655af3107a400081565b34801561038757600080fd5b5061039b610396366004611e06565b611340565b604051901515815260200161019b565b3480156103b757600080fd5b506101ff6103c6366004611e68565b611381565b3480156103d757600080fd5b506102e57f000000000000000000000000000000000000000000000000000000000000000081565b34801561040b57600080fd5b506102e57f000000000000000000000000000000000000000000000000000000000000000081565b34801561043f57600080fd5b5061019160035481565b6101ff610457366004611ec9565b6114f8565b34801561046857600080fd5b506002546102e59073ffffffffffffffffffffffffffffffffffffffff1681565b6003546002546040517f70a082310000000000000000000000000000000000000000000000000000000081523060048201526000929173ffffffffffffffffffffffffffffffffffffffff16906370a0823190602401602060405180830381865afa1580156104fc573d6000803e3d6000fd5b505050506040513d601f19601f820116820180604052508101906105209190611f4b565b61052a9190611f93565b905090565b600054610100900473ffffffffffffffffffffffffffffffffffffffff1633146105ba576040517f08c379a000000000000000000000000000000000000000000000000000000000815260206004820152601660248201527f596f7520617265206e6f7420746865206f776e65722e0000000000000000000060448201526064015b60405180910390fd5b6000546002546040517f70a0823100000000000000000000000000000000000000000000000000000000815230600482015261067a92610100900473ffffffffffffffffffffffffffffffffffffffff9081169216906370a0823190602401602060405180830381865afa158015610636573d6000803e3d6000fd5b505050506040513d601f19601f8201168201806040525081019061065a9190611f4b565b60025473ffffffffffffffffffffffffffffffffffffffff169190611690565b565b73ffffffffffffffffffffffffffffffffffffffff841660009081526006602052604090205483116106da576040517f646cf55800000000000000000000000000000000000000000000000000000000815260040160405180910390fd5b73ffffffffffffffffffffffffffffffffffffffff841660009081526006602052604090205415801561071d5750610719655af3107a40006002611fa6565b3414155b15610754576040517f69640e7200000000000000000000000000000000000000000000000000000000815260040160405180910390fd5b73ffffffffffffffffffffffffffffffffffffffff8416600090815260066020526040902054158015906107885750600034115b156107bf576040517f69640e7200000000000000000000000000000000000000000000000000000000815260040160405180910390fd5b60408051602081018790527fffffffffffffffffffffffffffffffffffffffff000000000000000000000000606087901b16918101919091526054810184905260009060740160405160208183030381529060405280519060200120905061085e838380806020026020016040519081016040528093929190818152602001838360200280828437600092019190915250506001549150849050611722565b610894576040517f09bde33900000000000000000000000000000000000000000000000000000000815260040160405180910390fd5b60006005546004546108a69190611f93565b42106108b35750836108dc565b60055485600454426108c59190611fbd565b6108cf9190611fa6565b6108d99190611fff565b90505b73ffffffffffffffffffffffffffffffffffffffff861660009081526006602052604081205461090c9083611fbd565b905080600003610948576040517f969bf72800000000000000000000000000000000000000000000000000000000815260040160405180910390fd5b6002546040517f70a08231000000000000000000000000000000000000000000000000000000008152306004820152829173ffffffffffffffffffffffffffffffffffffffff16906370a0823190602401602060405180830381865afa1580156109b6573d6000803e3d6000fd5b505050506040513d601f19601f820116820180604052508101906109da9190611f4b565b1015610a12576040517fcb6e851c00000000000000000000000000000000000000000000000000000000815260040160405180910390fd5b73ffffffffffffffffffffffffffffffffffffffff871660009081526006602052604081208054839290610a47908490611f93565b925050819055508060036000828254610a609190611f93565b909155505073ffffffffffffffffffffffffffffffffffffffff87166000908152600660205260409020548611610a9a57610a9a88611738565b600254610abe9073ffffffffffffffffffffffffffffffffffffffff168883611690565b3415610c88576000805460405161010090910473ffffffffffffffffffffffffffffffffffffffff1690655af3107a4000908381818185875af1925050503d8060008114610b28576040519150601f19603f3d011682016040523d82523d6000602084013e610b2d565b606091505b5050905080610b98576040517f08c379a000000000000000000000000000000000000000000000000000000000815260206004820152600f60248201527f7472616e73666572206661696c6564000000000000000000000000000000000060448201526064016105b1565b60405173ffffffffffffffffffffffffffffffffffffffff7f00000000000000000000000000000000000000000000000000000000000000001690655af3107a400090600081818185875af1925050503d8060008114610c14576040519150601f19603f3d011682016040523d82523d6000602084013e610c19565b606091505b50508091505080610c86576040517f08c379a000000000000000000000000000000000000000000000000000000000815260206004820152600f60248201527f7472616e73666572206661696c6564000000000000000000000000000000000060448201526064016105b1565b505b8673ffffffffffffffffffffffffffffffffffffffff16887f4ec90e965519d92681267467f775ada5bd214aa92c0dc93d90a5e880ce9ed02683604051610cd191815260200190565b60405180910390a35050505050505050565b6040805160a0810182526000808252602082018190529181018290526060810182905260808101919091526040805160a08101825260025473ffffffffffffffffffffffffffffffffffffffff908116825260005461010090041660208201526001549181019190915260608101610d59610489565b81526002546040517f70a0823100000000000000000000000000000000000000000000000000000000815230600482015260209092019173ffffffffffffffffffffffffffffffffffffffff909116906370a0823190602401602060405180830381865afa158015610dcf573d6000803e3d6000fd5b505050506040513d601f19601f82011682018060405250810190610df39190611f4b565b9052919050565b60008080806060813373ffffffffffffffffffffffffffffffffffffffff7f00000000000000000000000000000000000000000000000000000000000000001614610ea1576040517f08c379a000000000000000000000000000000000000000000000000000000000815260206004820152601860248201527f596f7520617265206e6f742074686520666163746f72792e000000000000000060448201526064016105b1565b60005460ff1615610f34576040517f08c379a000000000000000000000000000000000000000000000000000000000815260206004820152602a60248201527f5468697320636f6e74726163742068617320616c7265616479206265656e206960448201527f6e697469616c697a65640000000000000000000000000000000000000000000060648201526084016105b1565b600080547fffffffffffffffffffffffffffffffffffffffffffffffffffffffffffffff0016600117905573ffffffffffffffffffffffffffffffffffffffff8e16610fac576040517f87a873e800000000000000000000000000000000000000000000000000000000815260040160405180910390fd5b73ffffffffffffffffffffffffffffffffffffffff8c16610ff9576040517f87a873e800000000000000000000000000000000000000000000000000000000815260040160405180910390fd5b662386f26fc100003414611039576040517f69640e7200000000000000000000000000000000000000000000000000000000815260040160405180910390fd5b426004819055508a600581905550600060405180608001604052808c81526020018b81526020018a81526020018981525090508e600060016101000a81548173ffffffffffffffffffffffffffffffffffffffff021916908373ffffffffffffffffffffffffffffffffffffffff1602179055508c600260006101000a81548173ffffffffffffffffffffffffffffffffffffffff021916908373ffffffffffffffffffffffffffffffffffffffff1602179055508d60018190555060007f000000000000000000000000000000000000000000000000000000000000000073ffffffffffffffffffffffffffffffffffffffff163460405160006040518083038185875af1925050503d806000811461116f576040519150601f19603f3d011682016040523d82523d6000602084013e611174565b606091505b50509050806111df576040517f08c379a000000000000000000000000000000000000000000000000000000000815260206004820152600f60248201527f7472616e73666572206661696c6564000000000000000000000000000000000060448201526064016105b1565b6000546001546002546040517fffffffffffffffffffffffffffffffffffffffff00000000000000000000000060609290921b9190911660208201527f69687cbee57d8aff8295dedc40ac17fd4fe0130939898f42e899776217172f2a92309261010090910473ffffffffffffffffffffffffffffffffffffffff1691603401604080517fffffffffffffffffffffffffffffffffffffffffffffffffffffffffffffffe0818403018152828252885160208a810151938b015160608c015193956112ae959394919201612013565b604080517fffffffffffffffffffffffffffffffffffffffffffffffffffffffffffffffe0818403018152908290526112ea9594939291612042565b60405180910390a15060025481516020830151604084015160609094015173ffffffffffffffffffffffffffffffffffffffff909316995090975095509093509150309050985098509850985098509892505050565b60008061134f61010084611fff565b9050600061135f6101008561209f565b60009283526007602052604090922054600190921b9182169091149392505050565b600054610100900473ffffffffffffffffffffffffffffffffffffffff163314611407576040517f08c379a000000000000000000000000000000000000000000000000000000000815260206004820152601660248201527f596f7520617265206e6f7420746865206f776e65722e0000000000000000000060448201526064016105b1565b6040805160a08101825260025473ffffffffffffffffffffffffffffffffffffffff9081166060830190815260808301899052825260208083018890528284018790528351808501855230815290810189905292517f30f28b7a0000000000000000000000000000000000000000000000000000000081527f0000000000000000000000000000000000000000000000000000000000000000909116926330f28b7a926114bf929091903390889088906004016120b3565b600060405180830381600087803b1580156114d957600080fd5b505af11580156114ed573d6000803e3d6000fd5b505050505050505050565b3073ffffffffffffffffffffffffffffffffffffffff7f00000000000000000000000000000000000000000000000000000000000000001614611597576040517f08c379a000000000000000000000000000000000000000000000000000000000815260206004820152601860248201527f596f7520617265206e6f742074686520666163746f72792e000000000000000060448201526064016105b1565b8515611687576040805160a08101825273ffffffffffffffffffffffffffffffffffffffff89811660608301908152608083018a9052825260208083018990528284018890528351808501855285831681529081018a905292517f30f28b7a0000000000000000000000000000000000000000000000000000000081527f0000000000000000000000000000000000000000000000000000000000000000909116926330f28b7a92611654929091903390899089906004016120b3565b600060405180830381600087803b15801561166e57600080fd5b505af1158015611682573d6000803e3d6000fd5b505050505b50505050505050565b6040805173ffffffffffffffffffffffffffffffffffffffff8416602482015260448082018490528251808303909101815260649091019091526020810180517bffffffffffffffffffffffffffffffffffffffffffffffffffffffff167fa9059cbb0000000000000000000000000000000000000000000000000000000017905261171d908490611776565b505050565b60008261172f8584611885565b14949350505050565b600061174661010083611fff565b905060006117566101008461209f565b6000928352600760205260409092208054600190931b9092179091555050565b60006117d8826040518060400160405280602081526020017f5361666545524332303a206c6f772d6c6576656c2063616c6c206661696c65648152508573ffffffffffffffffffffffffffffffffffffffff166118d49092919063ffffffff16565b90508051600014806117f95750808060200190518101906117f99190612193565b61171d576040517f08c379a000000000000000000000000000000000000000000000000000000000815260206004820152602a60248201527f5361666545524332303a204552433230206f7065726174696f6e20646964206e60448201527f6f7420737563636565640000000000000000000000000000000000000000000060648201526084016105b1565b600081815b84518110156118ca576118b6828683815181106118a9576118a96121b5565b60200260200101516118eb565b9150806118c2816121e4565b91505061188a565b5090505b92915050565b60606118e3848460008561191d565b949350505050565b6000818310611907576000828152602084905260409020611916565b60008381526020839052604090205b9392505050565b6060824710156119af576040517f08c379a000000000000000000000000000000000000000000000000000000000815260206004820152602660248201527f416464726573733a20696e73756666696369656e742062616c616e636520666f60448201527f722063616c6c000000000000000000000000000000000000000000000000000060648201526084016105b1565b6000808673ffffffffffffffffffffffffffffffffffffffff1685876040516119d8919061221c565b60006040518083038185875af1925050503d8060008114611a15576040519150601f19603f3d011682016040523d82523d6000602084013e611a1a565b606091505b5091509150611a2b87838387611a36565b979650505050505050565b60608315611acc578251600003611ac55773ffffffffffffffffffffffffffffffffffffffff85163b611ac5576040517f08c379a000000000000000000000000000000000000000000000000000000000815260206004820152601d60248201527f416464726573733a2063616c6c20746f206e6f6e2d636f6e747261637400000060448201526064016105b1565b50816118e3565b6118e38383815115611ae15781518083602001fd5b806040517f08c379a00000000000000000000000000000000000000000000000000000000081526004016105b19190612238565b803573ffffffffffffffffffffffffffffffffffffffff81168114611b3957600080fd5b919050565b600060208284031215611b5057600080fd5b61191682611b15565b600080600080600060808688031215611b7157600080fd5b85359450611b8160208701611b15565b935060408601359250606086013567ffffffffffffffff80821115611ba557600080fd5b818801915088601f830112611bb957600080fd5b813581811115611bc857600080fd5b8960208260051b8501011115611bdd57600080fd5b9699959850939650602001949392505050565b7f4e487b7100000000000000000000000000000000000000000000000000000000600052604160045260246000fd5b600080600080600080600080610100898b031215611c3c57600080fd5b611c4589611b15565b975060208901359650611c5a60408a01611b15565b9550606089013594506080890135935060a0890135925060c0890135915060e089013567ffffffffffffffff80821115611c9357600080fd5b818b0191508b601f830112611ca757600080fd5b813581811115611cb957611cb9611bf0565b604051601f82017fffffffffffffffffffffffffffffffffffffffffffffffffffffffffffffffe0908116603f01168101908382118183101715611cff57611cff611bf0565b816040528281528e6020848701011115611d1857600080fd5b8260208601602083013760006020848301015280955050505050509295985092959890939650565b60005b83811015611d5b578181015183820152602001611d43565b50506000910152565b60008151808452611d7c816020860160208601611d40565b601f017fffffffffffffffffffffffffffffffffffffffffffffffffffffffffffffffe0169290920160200192915050565b600073ffffffffffffffffffffffffffffffffffffffff808916835287602084015286604084015285606084015260c06080840152611df060c0840186611d64565b915080841660a084015250979650505050505050565b600060208284031215611e1857600080fd5b5035919050565b60008083601f840112611e3157600080fd5b50813567ffffffffffffffff811115611e4957600080fd5b602083019150836020828501011115611e6157600080fd5b9250929050565b600080600080600060808688031215611e8057600080fd5b853594506020860135935060408601359250606086013567ffffffffffffffff811115611eac57600080fd5b611eb888828901611e1f565b969995985093965092949392505050565b600080600080600080600060c0888a031215611ee457600080fd5b611eed88611b15565b9650602088013595506040880135945060608801359350608088013567ffffffffffffffff811115611f1e57600080fd5b611f2a8a828b01611e1f565b9094509250611f3d905060a08901611b15565b905092959891949750929550565b600060208284031215611f5d57600080fd5b5051919050565b7f4e487b7100000000000000000000000000000000000000000000000000000000600052601160045260246000fd5b808201808211156118ce576118ce611f64565b80820281158282048414176118ce576118ce611f64565b818103818111156118ce576118ce611f64565b7f4e487b7100000000000000000000000000000000000000000000000000000000600052601260045260246000fd5b60008261200e5761200e611fd0565b500490565b8481528360208201528260408201526080606082015260006120386080830184611d64565b9695505050505050565b600073ffffffffffffffffffffffffffffffffffffffff808816835280871660208401525084604083015260a0606083015261208160a0830185611d64565b82810360808401526120938185611d64565b98975050505050505050565b6000826120ae576120ae611fd0565b500690565b60006101006120e3838951805173ffffffffffffffffffffffffffffffffffffffff168252602090810151910152565b60208801516040840152604088015160608401526121246080840188805173ffffffffffffffffffffffffffffffffffffffff168252602090810151910152565b73ffffffffffffffffffffffffffffffffffffffff861660c08401528060e08401528381840152506101208385828501376000838501820152601f9093017fffffffffffffffffffffffffffffffffffffffffffffffffffffffffffffffe01690910190910195945050505050565b6000602082840312156121a557600080fd5b8151801515811461191657600080fd5b7f4e487b7100000000000000000000000000000000000000000000000000000000600052603260045260246000fd5b60007fffffffffffffffffffffffffffffffffffffffffffffffffffffffffffffffff820361221557612215611f64565b5060010190565b6000825161222e818460208701611d40565b9190910192915050565b6020815260006119166020830184611d6456fea26469706673582212206ad38201db4d8056e496ae5d8d25764d24ccf38d97d92b1ca134bf8a7f7c57c864736f6c63430008120033",
  "linkReferences": {},
  "deployedLinkReferences": {}
}