{
  "_format": "hh-sol-artifact-1",
  "contractName": "MerkleAirdropLinearVesting",
  "sourceName": "contracts/templates/MerkleAirdropLinearVesting.sol",
  "abi": [
    {
      "inputs": [
        {
          "internalType": "address",
          "name": "factory_",
          "type": "address"
        },
        {
          "internalType": "address",
          "name": "feePool_",
          "type": "address"
        }
      ],
      "stateMutability": "nonpayable",
      "type": "constructor"
    },
    {
      "inputs": [],
      "name": "AlreadyClaimed",
      "type": "error"
    },
    {
      "inputs": [],
      "name": "AmountNotEnough",
      "type": "error"
    },
    {
      "inputs": [],
      "name": "IncorrectAmount",
      "type": "error"
    },
    {
      "inputs": [],
      "name": "InvalidProof",
      "type": "error"
    },
    {
      "inputs": [],
      "name": "NotZeroRequired",
      "type": "error"
    },
    {
      "inputs": [],
      "name": "NothingToClaim",
      "type": "error"
    },
    {
      "anonymous": false,
      "inputs": [
        {
          "indexed": true,
          "internalType": "uint256",
          "name": "index",
          "type": "uint256"
        },
        {
          "indexed": true,
          "internalType": "address",
          "name": "account",
          "type": "address"
        },
        {
          "indexed": false,
          "internalType": "uint256",
          "name": "amount",
          "type": "uint256"
        }
      ],
      "name": "Claimed",
      "type": "event"
    },
    {
      "anonymous": false,
      "inputs": [
        {
          "indexed": false,
          "internalType": "address",
          "name": "deployedAddress",
          "type": "address"
        },
        {
          "indexed": false,
          "internalType": "address",
          "name": "owner",
          "type": "address"
        },
        {
          "indexed": false,
          "internalType": "bytes32",
          "name": "merkleRoot",
          "type": "bytes32"
        },
        {
          "indexed": false,
          "internalType": "bytes",
          "name": "airdropTokens",
          "type": "bytes"
        },
        {
          "indexed": false,
          "internalType": "bytes",
          "name": "args",
          "type": "bytes"
        }
      ],
      "name": "Deployed",
      "type": "event"
    },
    {
      "anonymous": false,
      "inputs": [
        {
          "indexed": false,
          "internalType": "uint256",
          "name": "amount",
          "type": "uint256"
        }
      ],
      "name": "WithdrawnClaimFee",
      "type": "event"
    },
    {
      "anonymous": false,
      "inputs": [
        {
          "indexed": false,
          "internalType": "bytes",
          "name": "tokens",
          "type": "bytes"
        },
        {
          "indexed": false,
          "internalType": "bytes",
          "name": "amounts",
          "type": "bytes"
        }
      ],
      "name": "WithdrawnDepositedTokens",
      "type": "event"
    },
    {
      "inputs": [
        {
          "internalType": "uint256",
          "name": "index_",
          "type": "uint256"
        },
        {
          "internalType": "address",
          "name": "account_",
          "type": "address"
        },
        {
          "internalType": "uint256",
          "name": "amount_",
          "type": "uint256"
        },
        {
          "internalType": "bytes32[]",
          "name": "merkleProof",
          "type": "bytes32[]"
        }
      ],
      "name": "claim",
      "outputs": [],
      "stateMutability": "payable",
      "type": "function"
    },
    {
      "inputs": [],
      "name": "claimFee",
      "outputs": [
        {
          "internalType": "uint256",
          "name": "",
          "type": "uint256"
        }
      ],
      "stateMutability": "view",
      "type": "function"
    },
    {
      "inputs": [
        {
          "internalType": "address",
          "name": "",
          "type": "address"
        }
      ],
      "name": "claimedAmount",
      "outputs": [
        {
          "internalType": "uint256",
          "name": "",
          "type": "uint256"
        }
      ],
      "stateMutability": "view",
      "type": "function"
    },
    {
      "inputs": [],
      "name": "factory",
      "outputs": [
        {
          "internalType": "address",
          "name": "",
          "type": "address"
        }
      ],
      "stateMutability": "view",
      "type": "function"
    },
    {
      "inputs": [],
      "name": "feePool",
      "outputs": [
        {
          "internalType": "address",
          "name": "",
          "type": "address"
        }
      ],
      "stateMutability": "view",
      "type": "function"
    },
    {
      "inputs": [],
      "name": "getAirdropInfo",
      "outputs": [
        {
          "components": [
            {
              "internalType": "address",
              "name": "token",
              "type": "address"
            },
            {
              "internalType": "address",
              "name": "owner",
              "type": "address"
            },
            {
              "internalType": "bytes32",
              "name": "merkleRoot",
              "type": "bytes32"
            },
            {
              "internalType": "uint256",
              "name": "stockAmount",
              "type": "uint256"
            },
            {
              "internalType": "uint256",
              "name": "vestingStart",
              "type": "uint256"
            },
            {
              "internalType": "uint256",
              "name": "vestingDuration",
              "type": "uint256"
            }
          ],
          "internalType": "struct MerkleAirdropLinearVesting.AirdopInfo",
          "name": "",
          "type": "tuple"
        }
      ],
      "stateMutability": "view",
      "type": "function"
    },
    {
      "inputs": [
        {
          "internalType": "address",
          "name": "owner_",
          "type": "address"
        },
        {
          "internalType": "bytes32",
          "name": "merkleRoot_",
          "type": "bytes32"
        },
        {
          "internalType": "address",
          "name": "token_",
          "type": "address"
        },
        {
          "internalType": "uint256",
          "name": "vestingDuration_",
          "type": "uint256"
        },
        {
          "internalType": "uint256",
          "name": "depositAmount_",
          "type": "uint256"
        }
      ],
      "name": "initialize",
      "outputs": [
        {
          "internalType": "address",
          "name": "",
          "type": "address"
        },
        {
          "internalType": "uint256",
          "name": "",
          "type": "uint256"
        },
        {
          "internalType": "address",
          "name": "",
          "type": "address"
        }
      ],
      "stateMutability": "payable",
      "type": "function"
    },
    {
      "inputs": [
        {
          "internalType": "address",
          "name": "token_",
          "type": "address"
        },
        {
          "internalType": "uint256",
          "name": "amount_",
          "type": "uint256"
        },
        {
          "internalType": "address",
          "name": "to_",
          "type": "address"
        }
      ],
      "name": "initializeTransfer",
      "outputs": [],
      "stateMutability": "payable",
      "type": "function"
    },
    {
      "inputs": [
        {
          "internalType": "uint256",
          "name": "index_",
          "type": "uint256"
        }
      ],
      "name": "isClaimed",
      "outputs": [
        {
          "internalType": "bool",
          "name": "",
          "type": "bool"
        }
      ],
      "stateMutability": "view",
      "type": "function"
    },
    {
      "inputs": [],
      "name": "merkleRoot",
      "outputs": [
        {
          "internalType": "bytes32",
          "name": "",
          "type": "bytes32"
        }
      ],
      "stateMutability": "view",
      "type": "function"
    },
    {
      "inputs": [],
      "name": "owner",
      "outputs": [
        {
          "internalType": "address",
          "name": "",
          "type": "address"
        }
      ],
      "stateMutability": "view",
      "type": "function"
    },
    {
      "inputs": [],
      "name": "registrationFee",
      "outputs": [
        {
          "internalType": "uint256",
          "name": "",
          "type": "uint256"
        }
      ],
      "stateMutability": "view",
      "type": "function"
    },
    {
      "inputs": [],
      "name": "token",
      "outputs": [
        {
          "internalType": "address",
          "name": "",
          "type": "address"
        }
      ],
      "stateMutability": "view",
      "type": "function"
    },
    {
      "inputs": [],
      "name": "vestingDuration",
      "outputs": [
        {
          "internalType": "uint256",
          "name": "",
          "type": "uint256"
        }
      ],
      "stateMutability": "view",
      "type": "function"
    },
    {
      "inputs": [],
      "name": "vestingStart",
      "outputs": [
        {
          "internalType": "uint256",
          "name": "",
          "type": "uint256"
        }
      ],
      "stateMutability": "view",
      "type": "function"
    },
    {
      "inputs": [],
      "name": "withdrawClaimFee",
      "outputs": [],
      "stateMutability": "nonpayable",
      "type": "function"
    },
    {
      "inputs": [],
      "name": "withdrawDepositedToken",
      "outputs": [],
      "stateMutability": "nonpayable",
      "type": "function"
    }
  ],
  "bytecode": "0x60c06040523480156200001157600080fd5b5060405162001e4138038062001e41833981016040819052620000349162000069565b6001600160a01b0391821660a05216608052620000a1565b80516001600160a01b03811681146200006457600080fd5b919050565b600080604083850312156200007d57600080fd5b62000088836200004c565b915062000098602084016200004c565b90509250929050565b60805160a051611d5e620000e3600039600081816103ae015281816107c50152610f1601526000818161037a01528181610cac01526111bf0152611d5e6000f3fe60806040526004361061010e5760003560e01c80632eb4a7ab116100a557806399d32fc411610074578063ae2e933b11610059578063ae2e933b14610368578063c45a01551461039c578063fc0c546a146103d057600080fd5b806399d32fc41461031e5780639e34070f1461033857600080fd5b80632eb4a7ab146101ec57806332f088731461020257806355e6c0d01461027d5780638da5cb5b146102c757600080fd5b80631d9e8e12116100e15780631d9e8e121461019b578063254800d4146101b057806328fb0cfe146101c65780632e7ba6ef146101d957600080fd5b806304e86903146101135780630a6f3de51461015357806314c44e091461016a5780631514617e14610185575b600080fd5b34801561011f57600080fd5b5061014061012e366004611946565b60056020526000908152604090205481565b6040519081526020015b60405180910390f35b34801561015f57600080fd5b506101686103fd565b005b34801561017657600080fd5b50610140662386f26fc1000081565b34801561019157600080fd5b5061014060045481565b3480156101a757600080fd5b5061016861058f565b3480156101bc57600080fd5b5061014060035481565b6101686101d4366004611961565b6107ad565b6101686101e736600461199d565b610879565b3480156101f857600080fd5b5061014060015481565b34801561020e57600080fd5b50610217610df5565b60405161014a9190600060c08201905073ffffffffffffffffffffffffffffffffffffffff8084511683528060208501511660208401525060408301516040830152606083015160608301526080830151608083015260a083015160a083015292915050565b61029061028b366004611a34565b610efa565b6040805173ffffffffffffffffffffffffffffffffffffffff9485168152602081019390935292169181019190915260600161014a565b3480156102d357600080fd5b506000546102f990610100900473ffffffffffffffffffffffffffffffffffffffff1681565b60405173ffffffffffffffffffffffffffffffffffffffff909116815260200161014a565b34801561032a57600080fd5b50610140655af3107a400081565b34801561034457600080fd5b50610358610353366004611a82565b6113b1565b604051901515815260200161014a565b34801561037457600080fd5b506102f97f000000000000000000000000000000000000000000000000000000000000000081565b3480156103a857600080fd5b506102f97f000000000000000000000000000000000000000000000000000000000000000081565b3480156103dc57600080fd5b506002546102f99073ffffffffffffffffffffffffffffffffffffffff1681565b600054610100900473ffffffffffffffffffffffffffffffffffffffff163314610488576040517f08c379a000000000000000000000000000000000000000000000000000000000815260206004820152601660248201527f596f7520617265206e6f7420746865206f776e65722e0000000000000000000060448201526064015b60405180910390fd5b60008054604051479291610100900473ffffffffffffffffffffffffffffffffffffffff169083908381818185875af1925050503d80600081146104e8576040519150601f19603f3d011682016040523d82523d6000602084013e6104ed565b606091505b5050905080610558576040517f08c379a000000000000000000000000000000000000000000000000000000000815260206004820152600f60248201527f7472616e73666572206661696c65640000000000000000000000000000000000604482015260640161047f565b6040518281527fc826917a6ae5f60ff74f22aaae3b0a4cbd4211c8f3124e45fb1022f923e4de229060200160405180910390a15050565b600054610100900473ffffffffffffffffffffffffffffffffffffffff163314610615576040517f08c379a000000000000000000000000000000000000000000000000000000000815260206004820152601660248201527f596f7520617265206e6f7420746865206f776e65722e00000000000000000000604482015260640161047f565b6002546040517f70a0823100000000000000000000000000000000000000000000000000000000815230600482015260009173ffffffffffffffffffffffffffffffffffffffff16906370a0823190602401602060405180830381865afa158015610684573d6000803e3d6000fd5b505050506040513d601f19601f820116820180604052508101906106a89190611a9b565b6000546002549192506106da9173ffffffffffffffffffffffffffffffffffffffff90811691610100900416836113f2565b60025460405160609190911b7fffffffffffffffffffffffffffffffffffffffff0000000000000000000000001660208201527f10fdc0514e1fb0e46d51d3841247ac530b9646974579b5d84fb026eae8bdeedf90603401604080517fffffffffffffffffffffffffffffffffffffffffffffffffffffffffffffffe0818403018152828252602083018590529101604080517fffffffffffffffffffffffffffffffffffffffffffffffffffffffffffffffe0818403018152908290526107a29291611b22565b60405180910390a150565b3073ffffffffffffffffffffffffffffffffffffffff7f0000000000000000000000000000000000000000000000000000000000000000161461084c576040517f08c379a000000000000000000000000000000000000000000000000000000000815260206004820152601860248201527f596f7520617265206e6f742074686520666163746f72792e0000000000000000604482015260640161047f565b81156108745761087473ffffffffffffffffffffffffffffffffffffffff84163383856114c6565b505050565b73ffffffffffffffffffffffffffffffffffffffff841660009081526005602052604090205483116108d7576040517f646cf55800000000000000000000000000000000000000000000000000000000815260040160405180910390fd5b73ffffffffffffffffffffffffffffffffffffffff841660009081526005602052604090205415801561091a5750610916655af3107a40006002611b7f565b3414155b15610951576040517f69640e7200000000000000000000000000000000000000000000000000000000815260040160405180910390fd5b73ffffffffffffffffffffffffffffffffffffffff8416600090815260056020526040902054158015906109855750600034115b156109bc576040517f69640e7200000000000000000000000000000000000000000000000000000000815260040160405180910390fd5b60408051602081018790527fffffffffffffffffffffffffffffffffffffffff000000000000000000000000606087901b169181019190915260548101849052600090607401604051602081830303815290604052805190602001209050610a5b83838080602002602001604051908101604052809392919081815260200183836020028082843760009201919091525050600154915084905061152a565b610a91576040517f09bde33900000000000000000000000000000000000000000000000000000000815260040160405180910390fd5b6000600454600354610aa39190611b96565b4210610ab0575083610ad9565b6004548560035442610ac29190611ba9565b610acc9190611b7f565b610ad69190611beb565b90505b73ffffffffffffffffffffffffffffffffffffffff8616600090815260056020526040812054610b099083611ba9565b905080600003610b45576040517f969bf72800000000000000000000000000000000000000000000000000000000815260040160405180910390fd5b6002546040517f70a08231000000000000000000000000000000000000000000000000000000008152306004820152829173ffffffffffffffffffffffffffffffffffffffff16906370a0823190602401602060405180830381865afa158015610bb3573d6000803e3d6000fd5b505050506040513d601f19601f82011682018060405250810190610bd79190611a9b565b1015610c0f576040517fcb6e851c00000000000000000000000000000000000000000000000000000000815260040160405180910390fd5b73ffffffffffffffffffffffffffffffffffffffff871660009081526005602052604081208054839290610c44908490611b96565b909155505073ffffffffffffffffffffffffffffffffffffffff87166000908152600560205260409020548611610c7e57610c7e88611540565b600254610ca29073ffffffffffffffffffffffffffffffffffffffff1688836113f2565b3415610d9a5760007f000000000000000000000000000000000000000000000000000000000000000073ffffffffffffffffffffffffffffffffffffffff16655af3107a400060405160006040518083038185875af1925050503d8060008114610d28576040519150601f19603f3d011682016040523d82523d6000602084013e610d2d565b606091505b5050905080610d98576040517f08c379a000000000000000000000000000000000000000000000000000000000815260206004820152600f60248201527f7472616e73666572206661696c65640000000000000000000000000000000000604482015260640161047f565b505b8673ffffffffffffffffffffffffffffffffffffffff16887f4ec90e965519d92681267467f775ada5bd214aa92c0dc93d90a5e880ce9ed02683604051610de391815260200190565b60405180910390a35050505050505050565b6040805160c081018252600080825260208201819052918101829052606081018290526080810182905260a08101919091526040805160c08101825260025473ffffffffffffffffffffffffffffffffffffffff908116808352600054610100900490911660208301526001548284015291517f70a08231000000000000000000000000000000000000000000000000000000008152306004820152909160608301916370a0823190602401602060405180830381865afa158015610ebe573d6000803e3d6000fd5b505050506040513d601f19601f82011682018060405250810190610ee29190611a9b565b81526020016003548152602001600454815250905090565b600080803373ffffffffffffffffffffffffffffffffffffffff7f00000000000000000000000000000000000000000000000000000000000000001614610f9d576040517f08c379a000000000000000000000000000000000000000000000000000000000815260206004820152601860248201527f596f7520617265206e6f742074686520666163746f72792e0000000000000000604482015260640161047f565b60005460ff1615611030576040517f08c379a000000000000000000000000000000000000000000000000000000000815260206004820152602a60248201527f5468697320636f6e74726163742068617320616c7265616479206265656e206960448201527f6e697469616c697a656400000000000000000000000000000000000000000000606482015260840161047f565b600080547fffffffffffffffffffffffffffffffffffffffffffffffffffffffffffffff0016600117905573ffffffffffffffffffffffffffffffffffffffff88166110a8576040517f87a873e800000000000000000000000000000000000000000000000000000000815260040160405180910390fd5b73ffffffffffffffffffffffffffffffffffffffff86166110f5576040517f87a873e800000000000000000000000000000000000000000000000000000000815260040160405180910390fd5b662386f26fc100003414611135576040517f69640e7200000000000000000000000000000000000000000000000000000000815260040160405180910390fd5b426003556004859055600080547fffffffffffffffffffffff0000000000000000000000000000000000000000ff1661010073ffffffffffffffffffffffffffffffffffffffff8b811691909102919091178255600280547fffffffffffffffffffffffff00000000000000000000000000000000000000001689831617905560018990556040517f00000000000000000000000000000000000000000000000000000000000000009091169034908381818185875af1925050503d806000811461121c576040519150601f19603f3d011682016040523d82523d6000602084013e611221565b606091505b505090508061128c576040517f08c379a000000000000000000000000000000000000000000000000000000000815260206004820152600f60248201527f7472616e73666572206661696c65640000000000000000000000000000000000604482015260640161047f565b6000546001546002546040517fffffffffffffffffffffffffffffffffffffffff00000000000000000000000060609290921b9190911660208201527f69687cbee57d8aff8295dedc40ac17fd4fe0130939898f42e899776217172f2a92309261010090910473ffffffffffffffffffffffffffffffffffffffff1691603401604080517fffffffffffffffffffffffffffffffffffffffffffffffffffffffffffffffe0818403018152828252602083018c90529101604080517fffffffffffffffffffffffffffffffffffffffffffffffffffffffffffffffe08184030181529082905261137f9594939291611bff565b60405180910390a1505060025473ffffffffffffffffffffffffffffffffffffffff1697929650309550919350505050565b6000806113c061010084611beb565b905060006113d061010085611c5c565b60009283526006602052604090922054600190921b9182169091149392505050565b60405173ffffffffffffffffffffffffffffffffffffffff83166024820152604481018290526108749084907fa9059cbb00000000000000000000000000000000000000000000000000000000906064015b604080517fffffffffffffffffffffffffffffffffffffffffffffffffffffffffffffffe08184030181529190526020810180517bffffffffffffffffffffffffffffffffffffffffffffffffffffffff167fffffffff000000000000000000000000000000000000000000000000000000009093169290921790915261157e565b60405173ffffffffffffffffffffffffffffffffffffffff808516602483015283166044820152606481018290526115249085907f23b872dd0000000000000000000000000000000000000000000000000000000090608401611444565b50505050565b600082611537858461168d565b14949350505050565b600061154e61010083611beb565b9050600061155e61010084611c5c565b6000928352600660205260409092208054600190931b9092179091555050565b60006115e0826040518060400160405280602081526020017f5361666545524332303a206c6f772d6c6576656c2063616c6c206661696c65648152508573ffffffffffffffffffffffffffffffffffffffff166116dc9092919063ffffffff16565b90508051600014806116015750808060200190518101906116019190611c70565b610874576040517f08c379a000000000000000000000000000000000000000000000000000000000815260206004820152602a60248201527f5361666545524332303a204552433230206f7065726174696f6e20646964206e60448201527f6f74207375636365656400000000000000000000000000000000000000000000606482015260840161047f565b600081815b84518110156116d2576116be828683815181106116b1576116b1611c92565b60200260200101516116f3565b9150806116ca81611cc1565b915050611692565b5090505b92915050565b60606116eb8484600085611725565b949350505050565b600081831061170f57600082815260208490526040902061171e565b60008381526020839052604090205b9392505050565b6060824710156117b7576040517f08c379a000000000000000000000000000000000000000000000000000000000815260206004820152602660248201527f416464726573733a20696e73756666696369656e742062616c616e636520666f60448201527f722063616c6c0000000000000000000000000000000000000000000000000000606482015260840161047f565b6000808673ffffffffffffffffffffffffffffffffffffffff1685876040516117e09190611cf9565b60006040518083038185875af1925050503d806000811461181d576040519150601f19603f3d011682016040523d82523d6000602084013e611822565b606091505b50915091506118338783838761183e565b979650505050505050565b606083156118d45782516000036118cd5773ffffffffffffffffffffffffffffffffffffffff85163b6118cd576040517f08c379a000000000000000000000000000000000000000000000000000000000815260206004820152601d60248201527f416464726573733a2063616c6c20746f206e6f6e2d636f6e7472616374000000604482015260640161047f565b50816116eb565b6116eb83838151156118e95781518083602001fd5b806040517f08c379a000000000000000000000000000000000000000000000000000000000815260040161047f9190611d15565b803573ffffffffffffffffffffffffffffffffffffffff8116811461194157600080fd5b919050565b60006020828403121561195857600080fd5b61171e8261191d565b60008060006060848603121561197657600080fd5b61197f8461191d565b9250602084013591506119946040850161191d565b90509250925092565b6000806000806000608086880312156119b557600080fd5b853594506119c56020870161191d565b935060408601359250606086013567ffffffffffffffff808211156119e957600080fd5b818801915088601f8301126119fd57600080fd5b813581811115611a0c57600080fd5b8960208260051b8501011115611a2157600080fd5b9699959850939650602001949392505050565b600080600080600060a08688031215611a4c57600080fd5b611a558661191d565b945060208601359350611a6a6040870161191d565b94979396509394606081013594506080013592915050565b600060208284031215611a9457600080fd5b5035919050565b600060208284031215611aad57600080fd5b5051919050565b60005b83811015611acf578181015183820152602001611ab7565b50506000910152565b60008151808452611af0816020860160208601611ab4565b601f017fffffffffffffffffffffffffffffffffffffffffffffffffffffffffffffffe0169290920160200192915050565b604081526000611b356040830185611ad8565b8281036020840152611b478185611ad8565b95945050505050565b7f4e487b7100000000000000000000000000000000000000000000000000000000600052601160045260246000fd5b80820281158282048414176116d6576116d6611b50565b808201808211156116d6576116d6611b50565b818103818111156116d6576116d6611b50565b7f4e487b7100000000000000000000000000000000000000000000000000000000600052601260045260246000fd5b600082611bfa57611bfa611bbc565b500490565b600073ffffffffffffffffffffffffffffffffffffffff808816835280871660208401525084604083015260a06060830152611c3e60a0830185611ad8565b8281036080840152611c508185611ad8565b98975050505050505050565b600082611c6b57611c6b611bbc565b500690565b600060208284031215611c8257600080fd5b8151801515811461171e57600080fd5b7f4e487b7100000000000000000000000000000000000000000000000000000000600052603260045260246000fd5b60007fffffffffffffffffffffffffffffffffffffffffffffffffffffffffffffffff8203611cf257611cf2611b50565b5060010190565b60008251611d0b818460208701611ab4565b9190910192915050565b60208152600061171e6020830184611ad856fea2646970667358221220b7bc30233b5275b3204bcb3c1480eef3feb92092f9fbe183c77ee31e030be5ae64736f6c63430008120033",
  "linkReferences": {},
  "deployedLinkReferences": {}
}