{
  "_format": "hh-sol-artifact-1",
  "contractName": "MerkleAirdropLinearVesting",
  "sourceName": "contracts/templates/MerkleAirdropLinearVesting.sol",
  "abi": [
    {
      "inputs": [
        {
          "internalType": "address",
          "name": "factory_",
          "type": "address"
        },
        {
          "internalType": "address",
          "name": "feePool_",
          "type": "address"
        }
      ],
      "stateMutability": "nonpayable",
      "type": "constructor"
    },
    {
      "inputs": [],
      "name": "AlreadyClaimed",
      "type": "error"
    },
    {
      "inputs": [],
      "name": "AmountNotEnough",
      "type": "error"
    },
    {
      "inputs": [],
      "name": "IncorrectAmount",
      "type": "error"
    },
    {
      "inputs": [],
      "name": "InvalidProof",
      "type": "error"
    },
    {
      "inputs": [],
      "name": "NotZeroRequired",
      "type": "error"
    },
    {
      "inputs": [],
      "name": "NothingToClaim",
      "type": "error"
    },
    {
      "anonymous": false,
      "inputs": [
        {
          "indexed": true,
          "internalType": "uint256",
          "name": "index",
          "type": "uint256"
        },
        {
          "indexed": true,
          "internalType": "address",
          "name": "account",
          "type": "address"
        },
        {
          "indexed": false,
          "internalType": "uint256",
          "name": "amount",
          "type": "uint256"
        }
      ],
      "name": "Claimed",
      "type": "event"
    },
    {
      "anonymous": false,
      "inputs": [
        {
          "indexed": false,
          "internalType": "address",
          "name": "deployedAddress",
          "type": "address"
        },
        {
          "indexed": false,
          "internalType": "address",
          "name": "owner",
          "type": "address"
        },
        {
          "indexed": false,
          "internalType": "bytes32",
          "name": "merkleRoot",
          "type": "bytes32"
        },
        {
          "indexed": false,
          "internalType": "bytes",
          "name": "airdropTokens",
          "type": "bytes"
        },
        {
          "indexed": false,
          "internalType": "bytes",
          "name": "args",
          "type": "bytes"
        }
      ],
      "name": "Deployed",
      "type": "event"
    },
    {
      "anonymous": false,
      "inputs": [
        {
          "indexed": false,
          "internalType": "uint256",
          "name": "amount",
          "type": "uint256"
        }
      ],
      "name": "WithdrawnClaimFee",
      "type": "event"
    },
    {
      "anonymous": false,
      "inputs": [
        {
          "indexed": false,
          "internalType": "bytes",
          "name": "tokens",
          "type": "bytes"
        },
        {
          "indexed": false,
          "internalType": "bytes",
          "name": "amounts",
          "type": "bytes"
        }
      ],
      "name": "WithdrawnDepositedTokens",
      "type": "event"
    },
    {
      "inputs": [
        {
          "internalType": "uint256",
          "name": "index_",
          "type": "uint256"
        },
        {
          "internalType": "address",
          "name": "account_",
          "type": "address"
        },
        {
          "internalType": "uint256",
          "name": "amount_",
          "type": "uint256"
        },
        {
          "internalType": "bytes32[]",
          "name": "merkleProof",
          "type": "bytes32[]"
        }
      ],
      "name": "claim",
      "outputs": [],
      "stateMutability": "payable",
      "type": "function"
    },
    {
      "inputs": [],
      "name": "claimFee",
      "outputs": [
        {
          "internalType": "uint256",
          "name": "",
          "type": "uint256"
        }
      ],
      "stateMutability": "view",
      "type": "function"
    },
    {
      "inputs": [
        {
          "internalType": "address",
          "name": "",
          "type": "address"
        }
      ],
      "name": "claimedAmount",
      "outputs": [
        {
          "internalType": "uint256",
          "name": "",
          "type": "uint256"
        }
      ],
      "stateMutability": "view",
      "type": "function"
    },
    {
      "inputs": [],
      "name": "factory",
      "outputs": [
        {
          "internalType": "address",
          "name": "",
          "type": "address"
        }
      ],
      "stateMutability": "view",
      "type": "function"
    },
    {
      "inputs": [],
      "name": "feePool",
      "outputs": [
        {
          "internalType": "address",
          "name": "",
          "type": "address"
        }
      ],
      "stateMutability": "view",
      "type": "function"
    },
    {
      "inputs": [],
      "name": "getAirdropInfo",
      "outputs": [
        {
          "components": [
            {
              "internalType": "address",
              "name": "token",
              "type": "address"
            },
            {
              "internalType": "address",
              "name": "owner",
              "type": "address"
            },
            {
              "internalType": "bytes32",
              "name": "merkleRoot",
              "type": "bytes32"
            },
            {
              "internalType": "uint256",
              "name": "stockAmount",
              "type": "uint256"
            },
            {
              "internalType": "uint256",
              "name": "vestingStart",
              "type": "uint256"
            },
            {
              "internalType": "uint256",
              "name": "vestingDuration",
              "type": "uint256"
            }
          ],
          "internalType": "struct MerkleAirdropLinearVesting.AirdopInfo",
          "name": "",
          "type": "tuple"
        }
      ],
      "stateMutability": "view",
      "type": "function"
    },
    {
      "inputs": [
        {
          "internalType": "address",
          "name": "owner_",
          "type": "address"
        },
        {
          "internalType": "bytes32",
          "name": "merkleRoot_",
          "type": "bytes32"
        },
        {
          "internalType": "address",
          "name": "token_",
          "type": "address"
        },
        {
          "internalType": "uint256",
          "name": "vestingDuration_",
          "type": "uint256"
        },
        {
          "internalType": "uint256",
          "name": "depositAmount_",
          "type": "uint256"
        }
      ],
      "name": "initialize",
      "outputs": [
        {
          "internalType": "address",
          "name": "",
          "type": "address"
        },
        {
          "internalType": "uint256",
          "name": "",
          "type": "uint256"
        },
        {
          "internalType": "address",
          "name": "",
          "type": "address"
        }
      ],
      "stateMutability": "payable",
      "type": "function"
    },
    {
      "inputs": [
        {
          "internalType": "address",
          "name": "token_",
          "type": "address"
        },
        {
          "internalType": "uint256",
          "name": "amount_",
          "type": "uint256"
        },
        {
          "internalType": "address",
          "name": "to_",
          "type": "address"
        }
      ],
      "name": "initializeTransfer",
      "outputs": [],
      "stateMutability": "payable",
      "type": "function"
    },
    {
      "inputs": [],
      "name": "merkleRoot",
      "outputs": [
        {
          "internalType": "bytes32",
          "name": "",
          "type": "bytes32"
        }
      ],
      "stateMutability": "view",
      "type": "function"
    },
    {
      "inputs": [],
      "name": "owner",
      "outputs": [
        {
          "internalType": "address",
          "name": "",
          "type": "address"
        }
      ],
      "stateMutability": "view",
      "type": "function"
    },
    {
      "inputs": [],
      "name": "registrationFee",
      "outputs": [
        {
          "internalType": "uint256",
          "name": "",
          "type": "uint256"
        }
      ],
      "stateMutability": "view",
      "type": "function"
    },
    {
      "inputs": [],
      "name": "token",
      "outputs": [
        {
          "internalType": "address",
          "name": "",
          "type": "address"
        }
      ],
      "stateMutability": "view",
      "type": "function"
    },
    {
      "inputs": [],
      "name": "vestingDuration",
      "outputs": [
        {
          "internalType": "uint256",
          "name": "",
          "type": "uint256"
        }
      ],
      "stateMutability": "view",
      "type": "function"
    },
    {
      "inputs": [],
      "name": "vestingStart",
      "outputs": [
        {
          "internalType": "uint256",
          "name": "",
          "type": "uint256"
        }
      ],
      "stateMutability": "view",
      "type": "function"
    },
    {
      "inputs": [],
      "name": "withdrawClaimFee",
      "outputs": [],
      "stateMutability": "nonpayable",
      "type": "function"
    }
  ],
  "bytecode": "0x60c06040523480156200001157600080fd5b5060405162001aa138038062001aa1833981016040819052620000349162000069565b6001600160a01b0391821660a05216608052620000a1565b80516001600160a01b03811681146200006457600080fd5b919050565b600080604083850312156200007d57600080fd5b62000088836200004c565b915062000098602084016200004c565b90509250929050565b60805160a0516119be620000e3600039600081816103430152818161053c0152610c5801526000818161030f015281816109ee0152610f0101526119be6000f3fe6080604052600436106100e85760003560e01c80632eb4a7ab1161008a57806399d32fc41161005957806399d32fc4146102e3578063ae2e933b146102fd578063c45a015514610331578063fc0c546a1461036557600080fd5b80632eb4a7ab146101b157806332f08873146101c757806355e6c0d0146102425780638da5cb5b1461028c57600080fd5b80631514617e116100c65780631514617e1461015f578063254800d41461017557806328fb0cfe1461018b5780632e7ba6ef1461019e57600080fd5b806304e86903146100ed5780630a6f3de51461012d57806314c44e0914610144575b600080fd5b3480156100f957600080fd5b5061011a610108366004611609565b60056020526000908152604090205481565b6040519081526020015b60405180910390f35b34801561013957600080fd5b50610142610392565b005b34801561015057600080fd5b5061011a662386f26fc1000081565b34801561016b57600080fd5b5061011a60045481565b34801561018157600080fd5b5061011a60035481565b610142610199366004611624565b610524565b6101426101ac366004611660565b6105f0565b3480156101bd57600080fd5b5061011a60015481565b3480156101d357600080fd5b506101dc610b37565b6040516101249190600060c08201905073ffffffffffffffffffffffffffffffffffffffff8084511683528060208501511660208401525060408301516040830152606083015160608301526080830151608083015260a083015160a083015292915050565b6102556102503660046116f7565b610c3c565b6040805173ffffffffffffffffffffffffffffffffffffffff94851681526020810193909352921691810191909152606001610124565b34801561029857600080fd5b506000546102be90610100900473ffffffffffffffffffffffffffffffffffffffff1681565b60405173ffffffffffffffffffffffffffffffffffffffff9091168152602001610124565b3480156102ef57600080fd5b5061011a655af3107a400081565b34801561030957600080fd5b506102be7f000000000000000000000000000000000000000000000000000000000000000081565b34801561033d57600080fd5b506102be7f000000000000000000000000000000000000000000000000000000000000000081565b34801561037157600080fd5b506002546102be9073ffffffffffffffffffffffffffffffffffffffff1681565b600054610100900473ffffffffffffffffffffffffffffffffffffffff16331461041d576040517f08c379a000000000000000000000000000000000000000000000000000000000815260206004820152601660248201527f596f7520617265206e6f7420746865206f776e65722e0000000000000000000060448201526064015b60405180910390fd5b60008054604051479291610100900473ffffffffffffffffffffffffffffffffffffffff169083908381818185875af1925050503d806000811461047d576040519150601f19603f3d011682016040523d82523d6000602084013e610482565b606091505b50509050806104ed576040517f08c379a000000000000000000000000000000000000000000000000000000000815260206004820152600f60248201527f7472616e73666572206661696c656400000000000000000000000000000000006044820152606401610414565b6040518281527fc826917a6ae5f60ff74f22aaae3b0a4cbd4211c8f3124e45fb1022f923e4de229060200160405180910390a15050565b3073ffffffffffffffffffffffffffffffffffffffff7f000000000000000000000000000000000000000000000000000000000000000016146105c3576040517f08c379a000000000000000000000000000000000000000000000000000000000815260206004820152601860248201527f596f7520617265206e6f742074686520666163746f72792e00000000000000006044820152606401610414565b81156105eb576105eb73ffffffffffffffffffffffffffffffffffffffff84163383856110f3565b505050565b73ffffffffffffffffffffffffffffffffffffffff8416600090815260056020526040902054158015610633575061062f655af3107a40006002611774565b3414155b1561066a576040517f69640e7200000000000000000000000000000000000000000000000000000000815260040160405180910390fd5b73ffffffffffffffffffffffffffffffffffffffff84166000908152600560205260409020541580159061069e5750600034115b156106d5576040517f69640e7200000000000000000000000000000000000000000000000000000000815260040160405180910390fd5b60408051602081018790527fffffffffffffffffffffffffffffffffffffffff000000000000000000000000606087901b1691810191909152605481018490526000906074016040516020818303038152906040528051906020012090506107748383808060200260200160405190810160405280939291908181526020018383602002808284376000920191909152505060015491508490506111d5565b6107aa576040517f09bde33900000000000000000000000000000000000000000000000000000000815260040160405180910390fd5b73ffffffffffffffffffffffffffffffffffffffff85166000908152600560205260409020548411610808576040517f646cf55800000000000000000000000000000000000000000000000000000000815260040160405180910390fd5b600060045460035461081a919061178b565b4210610827575083610850565b6004548560035442610839919061179e565b6108439190611774565b61084d91906117b1565b90505b73ffffffffffffffffffffffffffffffffffffffff8616600090815260056020526040812054610880908361179e565b9050806000036108bc576040517f969bf72800000000000000000000000000000000000000000000000000000000815260040160405180910390fd5b6002546040517f70a08231000000000000000000000000000000000000000000000000000000008152306004820152829173ffffffffffffffffffffffffffffffffffffffff16906370a0823190602401602060405180830381865afa15801561092a573d6000803e3d6000fd5b505050506040513d601f19601f8201168201806040525081019061094e91906117ec565b1015610986576040517fcb6e851c00000000000000000000000000000000000000000000000000000000815260040160405180910390fd5b73ffffffffffffffffffffffffffffffffffffffff8716600090815260056020526040812080548392906109bb90849061178b565b90915550506002546109e49073ffffffffffffffffffffffffffffffffffffffff1688836111eb565b3415610adc5760007f000000000000000000000000000000000000000000000000000000000000000073ffffffffffffffffffffffffffffffffffffffff16655af3107a400060405160006040518083038185875af1925050503d8060008114610a6a576040519150601f19603f3d011682016040523d82523d6000602084013e610a6f565b606091505b5050905080610ada576040517f08c379a000000000000000000000000000000000000000000000000000000000815260206004820152600f60248201527f7472616e73666572206661696c656400000000000000000000000000000000006044820152606401610414565b505b8673ffffffffffffffffffffffffffffffffffffffff16887f4ec90e965519d92681267467f775ada5bd214aa92c0dc93d90a5e880ce9ed02683604051610b2591815260200190565b60405180910390a35050505050505050565b6040805160c081018252600080825260208201819052918101829052606081018290526080810182905260a08101919091526040805160c08101825260025473ffffffffffffffffffffffffffffffffffffffff908116808352600054610100900490911660208301526001548284015291517f70a08231000000000000000000000000000000000000000000000000000000008152306004820152909160608301916370a0823190602401602060405180830381865afa158015610c00573d6000803e3d6000fd5b505050506040513d601f19601f82011682018060405250810190610c2491906117ec565b81526020016003548152602001600454815250905090565b600080803373ffffffffffffffffffffffffffffffffffffffff7f00000000000000000000000000000000000000000000000000000000000000001614610cdf576040517f08c379a000000000000000000000000000000000000000000000000000000000815260206004820152601860248201527f596f7520617265206e6f742074686520666163746f72792e00000000000000006044820152606401610414565b60005460ff1615610d72576040517f08c379a000000000000000000000000000000000000000000000000000000000815260206004820152602a60248201527f5468697320636f6e74726163742068617320616c7265616479206265656e206960448201527f6e697469616c697a6564000000000000000000000000000000000000000000006064820152608401610414565b600080547fffffffffffffffffffffffffffffffffffffffffffffffffffffffffffffff0016600117905573ffffffffffffffffffffffffffffffffffffffff8816610dea576040517f87a873e800000000000000000000000000000000000000000000000000000000815260040160405180910390fd5b73ffffffffffffffffffffffffffffffffffffffff8616610e37576040517f87a873e800000000000000000000000000000000000000000000000000000000815260040160405180910390fd5b662386f26fc100003414610e77576040517f69640e7200000000000000000000000000000000000000000000000000000000815260040160405180910390fd5b426003556004859055600080547fffffffffffffffffffffff0000000000000000000000000000000000000000ff1661010073ffffffffffffffffffffffffffffffffffffffff8b811691909102919091178255600280547fffffffffffffffffffffffff00000000000000000000000000000000000000001689831617905560018990556040517f00000000000000000000000000000000000000000000000000000000000000009091169034908381818185875af1925050503d8060008114610f5e576040519150601f19603f3d011682016040523d82523d6000602084013e610f63565b606091505b5050905080610fce576040517f08c379a000000000000000000000000000000000000000000000000000000000815260206004820152600f60248201527f7472616e73666572206661696c656400000000000000000000000000000000006044820152606401610414565b6000546001546002546040517fffffffffffffffffffffffffffffffffffffffff00000000000000000000000060609290921b9190911660208201527f69687cbee57d8aff8295dedc40ac17fd4fe0130939898f42e899776217172f2a92309261010090910473ffffffffffffffffffffffffffffffffffffffff1691603401604080517fffffffffffffffffffffffffffffffffffffffffffffffffffffffffffffffe0818403018152828252602083018c90529101604080517fffffffffffffffffffffffffffffffffffffffffffffffffffffffffffffffe0818403018152908290526110c19594939291611873565b60405180910390a1505060025473ffffffffffffffffffffffffffffffffffffffff1697929650309550919350505050565b60405173ffffffffffffffffffffffffffffffffffffffff808516602483015283166044820152606481018290526111cf9085907f23b872dd00000000000000000000000000000000000000000000000000000000906084015b604080517fffffffffffffffffffffffffffffffffffffffffffffffffffffffffffffffe08184030181529190526020810180517bffffffffffffffffffffffffffffffffffffffffffffffffffffffff167fffffffff0000000000000000000000000000000000000000000000000000000090931692909217909152611241565b50505050565b6000826111e28584611350565b14949350505050565b60405173ffffffffffffffffffffffffffffffffffffffff83166024820152604481018290526105eb9084907fa9059cbb000000000000000000000000000000000000000000000000000000009060640161114d565b60006112a3826040518060400160405280602081526020017f5361666545524332303a206c6f772d6c6576656c2063616c6c206661696c65648152508573ffffffffffffffffffffffffffffffffffffffff1661139f9092919063ffffffff16565b90508051600014806112c45750808060200190518101906112c491906118d0565b6105eb576040517f08c379a000000000000000000000000000000000000000000000000000000000815260206004820152602a60248201527f5361666545524332303a204552433230206f7065726174696f6e20646964206e60448201527f6f742073756363656564000000000000000000000000000000000000000000006064820152608401610414565b600081815b84518110156113955761138182868381518110611374576113746118f2565b60200260200101516113b6565b91508061138d81611921565b915050611355565b5090505b92915050565b60606113ae84846000856113e8565b949350505050565b60008183106113d25760008281526020849052604090206113e1565b60008381526020839052604090205b9392505050565b60608247101561147a576040517f08c379a000000000000000000000000000000000000000000000000000000000815260206004820152602660248201527f416464726573733a20696e73756666696369656e742062616c616e636520666f60448201527f722063616c6c00000000000000000000000000000000000000000000000000006064820152608401610414565b6000808673ffffffffffffffffffffffffffffffffffffffff1685876040516114a39190611959565b60006040518083038185875af1925050503d80600081146114e0576040519150601f19603f3d011682016040523d82523d6000602084013e6114e5565b606091505b50915091506114f687838387611501565b979650505050505050565b606083156115975782516000036115905773ffffffffffffffffffffffffffffffffffffffff85163b611590576040517f08c379a000000000000000000000000000000000000000000000000000000000815260206004820152601d60248201527f416464726573733a2063616c6c20746f206e6f6e2d636f6e74726163740000006044820152606401610414565b50816113ae565b6113ae83838151156115ac5781518083602001fd5b806040517f08c379a00000000000000000000000000000000000000000000000000000000081526004016104149190611975565b803573ffffffffffffffffffffffffffffffffffffffff8116811461160457600080fd5b919050565b60006020828403121561161b57600080fd5b6113e1826115e0565b60008060006060848603121561163957600080fd5b611642846115e0565b925060208401359150611657604085016115e0565b90509250925092565b60008060008060006080868803121561167857600080fd5b85359450611688602087016115e0565b935060408601359250606086013567ffffffffffffffff808211156116ac57600080fd5b818801915088601f8301126116c057600080fd5b8135818111156116cf57600080fd5b8960208260051b85010111156116e457600080fd5b9699959850939650602001949392505050565b600080600080600060a0868803121561170f57600080fd5b611718866115e0565b94506020860135935061172d604087016115e0565b94979396509394606081013594506080013592915050565b7f4e487b7100000000000000000000000000000000000000000000000000000000600052601160045260246000fd5b808202811582820484141761139957611399611745565b8082018082111561139957611399611745565b8181038181111561139957611399611745565b6000826117e7577f4e487b7100000000000000000000000000000000000000000000000000000000600052601260045260246000fd5b500490565b6000602082840312156117fe57600080fd5b5051919050565b60005b83811015611820578181015183820152602001611808565b50506000910152565b60008151808452611841816020860160208601611805565b601f017fffffffffffffffffffffffffffffffffffffffffffffffffffffffffffffffe0169290920160200192915050565b600073ffffffffffffffffffffffffffffffffffffffff808816835280871660208401525084604083015260a060608301526118b260a0830185611829565b82810360808401526118c48185611829565b98975050505050505050565b6000602082840312156118e257600080fd5b815180151581146113e157600080fd5b7f4e487b7100000000000000000000000000000000000000000000000000000000600052603260045260246000fd5b60007fffffffffffffffffffffffffffffffffffffffffffffffffffffffffffffffff820361195257611952611745565b5060010190565b6000825161196b818460208701611805565b9190910192915050565b6020815260006113e1602083018461182956fea2646970667358221220ab5ab6637907afdea7f709c4b52039f3c54beb8d297632f737008e2c2e1dd5ef64736f6c63430008120033",
  "linkReferences": {},
  "deployedLinkReferences": {}
}