{
  "_format": "hh-sol-artifact-1",
  "contractName": "FeePool",
  "sourceName": "contracts/FeePool.sol",
  "abi": [
    {
      "inputs": [
        {
          "internalType": "address",
          "name": "initialOwner_",
          "type": "address"
        }
      ],
      "stateMutability": "nonpayable",
      "type": "constructor"
    },
    {
      "inputs": [
        {
          "internalType": "address",
          "name": "owner",
          "type": "address"
        }
      ],
      "name": "OwnableInvalidOwner",
      "type": "error"
    },
    {
      "inputs": [
        {
          "internalType": "address",
          "name": "account",
          "type": "address"
        }
      ],
      "name": "OwnableUnauthorizedAccount",
      "type": "error"
    },
    {
      "anonymous": false,
      "inputs": [
        {
          "indexed": true,
          "internalType": "address",
          "name": "previousOwner",
          "type": "address"
        },
        {
          "indexed": true,
          "internalType": "address",
          "name": "newOwner",
          "type": "address"
        }
      ],
      "name": "OwnershipTransferred",
      "type": "event"
    },
    {
      "anonymous": false,
      "inputs": [
        {
          "indexed": true,
          "internalType": "address",
          "name": "receiver",
          "type": "address"
        },
        {
          "indexed": false,
          "internalType": "uint256",
          "name": "amount",
          "type": "uint256"
        }
      ],
      "name": "WithdrawnEther",
      "type": "event"
    },
    {
      "inputs": [],
      "name": "owner",
      "outputs": [
        {
          "internalType": "address",
          "name": "",
          "type": "address"
        }
      ],
      "stateMutability": "view",
      "type": "function"
    },
    {
      "inputs": [],
      "name": "renounceOwnership",
      "outputs": [],
      "stateMutability": "nonpayable",
      "type": "function"
    },
    {
      "inputs": [
        {
          "internalType": "address",
          "name": "newOwner",
          "type": "address"
        }
      ],
      "name": "transferOwnership",
      "outputs": [],
      "stateMutability": "nonpayable",
      "type": "function"
    },
    {
      "inputs": [
        {
          "internalType": "address",
          "name": "to_",
          "type": "address"
        }
      ],
      "name": "withdrawEther",
      "outputs": [],
      "stateMutability": "nonpayable",
      "type": "function"
    },
    {
      "stateMutability": "payable",
      "type": "receive"
    }
  ],
  "bytecode": "0x608060405234801561001057600080fd5b5060405161053738038061053783398101604081905261002f916100be565b806001600160a01b03811661005e57604051631e4fbdf760e01b81526000600482015260240160405180910390fd5b6100678161006e565b50506100ee565b600080546001600160a01b038381166001600160a01b0319831681178455604051919092169283917f8be0079c531659141344cd1fd0a4f28419497f9722a3daafe3b4186f6b6457e09190a35050565b6000602082840312156100d057600080fd5b81516001600160a01b03811681146100e757600080fd5b9392505050565b61043a806100fd6000396000f3fe6080604052600436106100435760003560e01c8063715018a61461004f5780638da5cb5b14610066578063af933b571461009f578063f2fde38b146100bf57600080fd5b3661004a57005b600080fd5b34801561005b57600080fd5b506100646100df565b005b34801561007257600080fd5b506000546040805173ffffffffffffffffffffffffffffffffffffffff9092168252519081900360200190f35b3480156100ab57600080fd5b506100646100ba3660046103c7565b6100f3565b3480156100cb57600080fd5b506100646100da3660046103c7565b61029b565b6100e76102ff565b6100f16000610352565b565b6100fb6102ff565b73ffffffffffffffffffffffffffffffffffffffff811661017d576040517f08c379a000000000000000000000000000000000000000000000000000000000815260206004820152601760248201527f446f6e277420646973636172642074726561737572792100000000000000000060448201526064015b60405180910390fd5b604051479060009073ffffffffffffffffffffffffffffffffffffffff84169083908381818185875af1925050503d80600081146101d7576040519150601f19603f3d011682016040523d82523d6000602084013e6101dc565b606091505b5050905080610247576040517f08c379a000000000000000000000000000000000000000000000000000000000815260206004820152600f60248201527f7472616e73666572206661696c656400000000000000000000000000000000006044820152606401610174565b8273ffffffffffffffffffffffffffffffffffffffff167e427c0f965e4f144086694ed3a411df394e3dfa51cf4e74d9a70375bab91bb08360405161028e91815260200190565b60405180910390a2505050565b6102a36102ff565b73ffffffffffffffffffffffffffffffffffffffff81166102f3576040517f1e4fbdf700000000000000000000000000000000000000000000000000000000815260006004820152602401610174565b6102fc81610352565b50565b60005473ffffffffffffffffffffffffffffffffffffffff1633146100f1576040517f118cdaa7000000000000000000000000000000000000000000000000000000008152336004820152602401610174565b6000805473ffffffffffffffffffffffffffffffffffffffff8381167fffffffffffffffffffffffff0000000000000000000000000000000000000000831681178455604051919092169283917f8be0079c531659141344cd1fd0a4f28419497f9722a3daafe3b4186f6b6457e09190a35050565b6000602082840312156103d957600080fd5b813573ffffffffffffffffffffffffffffffffffffffff811681146103fd57600080fd5b939250505056fea26469706673582212209df053d8eb2d84050140e23e02f70b394f793b257bebc18e9c7a9c0e4f46692c64736f6c63430008140033",
  "linkReferences": {},
  "deployedLinkReferences": {}
}