{
  "_format": "hh-sol-artifact-1",
  "contractName": "LinearVesting",
  "sourceName": "contracts/templates/LinearVesting.sol",
  "abi": [
    {
      "inputs": [
        {
          "internalType": "address",
          "name": "factory_",
          "type": "address"
        },
        {
          "internalType": "address",
          "name": "feePool_",
          "type": "address"
        }
      ],
      "stateMutability": "nonpayable",
      "type": "constructor"
    },
    {
      "inputs": [],
      "name": "AlreadyClaimed",
      "type": "error"
    },
    {
      "inputs": [],
      "name": "AlreadyInitialized",
      "type": "error"
    },
    {
      "inputs": [],
      "name": "AmountNotEnough",
      "type": "error"
    },
    {
      "inputs": [],
      "name": "IncorrectAmount",
      "type": "error"
    },
    {
      "inputs": [],
      "name": "InvalidProof",
      "type": "error"
    },
    {
      "inputs": [],
      "name": "NotZeroRequired",
      "type": "error"
    },
    {
      "inputs": [],
      "name": "NothingToClaim",
      "type": "error"
    },
    {
      "inputs": [],
      "name": "TransferFailed",
      "type": "error"
    },
    {
      "anonymous": false,
      "inputs": [
        {
          "indexed": true,
          "internalType": "uint256",
          "name": "index",
          "type": "uint256"
        },
        {
          "indexed": true,
          "internalType": "address",
          "name": "account",
          "type": "address"
        },
        {
          "indexed": false,
          "internalType": "uint256",
          "name": "amount",
          "type": "uint256"
        }
      ],
      "name": "Claimed",
      "type": "event"
    },
    {
      "anonymous": false,
      "inputs": [
        {
          "indexed": false,
          "internalType": "address",
          "name": "deployedAddress",
          "type": "address"
        },
        {
          "indexed": false,
          "internalType": "address",
          "name": "owner",
          "type": "address"
        },
        {
          "indexed": false,
          "internalType": "bytes32",
          "name": "merkleRoot",
          "type": "bytes32"
        },
        {
          "indexed": false,
          "internalType": "bytes",
          "name": "airdropTokens",
          "type": "bytes"
        },
        {
          "indexed": false,
          "internalType": "bytes",
          "name": "args",
          "type": "bytes"
        }
      ],
      "name": "Deployed",
      "type": "event"
    },
    {
      "anonymous": false,
      "inputs": [
        {
          "indexed": false,
          "internalType": "uint256",
          "name": "amount",
          "type": "uint256"
        }
      ],
      "name": "WithdrawnClaimFee",
      "type": "event"
    },
    {
      "anonymous": false,
      "inputs": [
        {
          "indexed": false,
          "internalType": "bytes",
          "name": "tokens",
          "type": "bytes"
        },
        {
          "indexed": false,
          "internalType": "bytes",
          "name": "amounts",
          "type": "bytes"
        }
      ],
      "name": "WithdrawnDepositedTokens",
      "type": "event"
    },
    {
      "inputs": [
        {
          "internalType": "uint256",
          "name": "index_",
          "type": "uint256"
        },
        {
          "internalType": "address",
          "name": "account_",
          "type": "address"
        },
        {
          "internalType": "uint256",
          "name": "amount_",
          "type": "uint256"
        },
        {
          "internalType": "bytes32[]",
          "name": "merkleProof",
          "type": "bytes32[]"
        }
      ],
      "name": "claim",
      "outputs": [],
      "stateMutability": "payable",
      "type": "function"
    },
    {
      "inputs": [],
      "name": "claimFee",
      "outputs": [
        {
          "internalType": "uint256",
          "name": "",
          "type": "uint256"
        }
      ],
      "stateMutability": "view",
      "type": "function"
    },
    {
      "inputs": [
        {
          "internalType": "uint256",
          "name": "",
          "type": "uint256"
        }
      ],
      "name": "claimedAmount",
      "outputs": [
        {
          "internalType": "uint256",
          "name": "",
          "type": "uint256"
        }
      ],
      "stateMutability": "view",
      "type": "function"
    },
    {
      "inputs": [],
      "name": "factory",
      "outputs": [
        {
          "internalType": "address",
          "name": "",
          "type": "address"
        }
      ],
      "stateMutability": "view",
      "type": "function"
    },
    {
      "inputs": [],
      "name": "feePool",
      "outputs": [
        {
          "internalType": "address",
          "name": "",
          "type": "address"
        }
      ],
      "stateMutability": "view",
      "type": "function"
    },
    {
      "inputs": [],
      "name": "getAirdropInfo",
      "outputs": [
        {
          "components": [
            {
              "internalType": "address",
              "name": "token",
              "type": "address"
            },
            {
              "internalType": "uint256",
              "name": "vestingStart",
              "type": "uint256"
            },
            {
              "internalType": "uint256",
              "name": "vestingDuration",
              "type": "uint256"
            }
          ],
          "internalType": "struct LinearVesting.AirdopInfo",
          "name": "",
          "type": "tuple"
        }
      ],
      "stateMutability": "view",
      "type": "function"
    },
    {
      "inputs": [
        {
          "internalType": "address",
          "name": "owner_",
          "type": "address"
        },
        {
          "internalType": "bytes32",
          "name": "merkleRoot_",
          "type": "bytes32"
        },
        {
          "internalType": "address",
          "name": "token_",
          "type": "address"
        },
        {
          "internalType": "uint256",
          "name": "vestingDuration_",
          "type": "uint256"
        },
        {
          "internalType": "uint256",
          "name": "depositAmount_",
          "type": "uint256"
        }
      ],
      "name": "initialize",
      "outputs": [
        {
          "internalType": "address",
          "name": "",
          "type": "address"
        },
        {
          "internalType": "uint256",
          "name": "",
          "type": "uint256"
        },
        {
          "internalType": "address",
          "name": "",
          "type": "address"
        }
      ],
      "stateMutability": "payable",
      "type": "function"
    },
    {
      "inputs": [
        {
          "internalType": "address",
          "name": "token_",
          "type": "address"
        },
        {
          "internalType": "uint256",
          "name": "amount_",
          "type": "uint256"
        },
        {
          "internalType": "address",
          "name": "to_",
          "type": "address"
        }
      ],
      "name": "initializeTransfer",
      "outputs": [],
      "stateMutability": "payable",
      "type": "function"
    },
    {
      "inputs": [],
      "name": "merkleRoot",
      "outputs": [
        {
          "internalType": "bytes32",
          "name": "",
          "type": "bytes32"
        }
      ],
      "stateMutability": "view",
      "type": "function"
    },
    {
      "inputs": [],
      "name": "owner",
      "outputs": [
        {
          "internalType": "address",
          "name": "",
          "type": "address"
        }
      ],
      "stateMutability": "view",
      "type": "function"
    },
    {
      "inputs": [],
      "name": "registrationFee",
      "outputs": [
        {
          "internalType": "uint256",
          "name": "",
          "type": "uint256"
        }
      ],
      "stateMutability": "view",
      "type": "function"
    },
    {
      "inputs": [],
      "name": "token",
      "outputs": [
        {
          "internalType": "address",
          "name": "",
          "type": "address"
        }
      ],
      "stateMutability": "view",
      "type": "function"
    },
    {
      "inputs": [],
      "name": "vestingDuration",
      "outputs": [
        {
          "internalType": "uint256",
          "name": "",
          "type": "uint256"
        }
      ],
      "stateMutability": "view",
      "type": "function"
    },
    {
      "inputs": [],
      "name": "vestingStart",
      "outputs": [
        {
          "internalType": "uint256",
          "name": "",
          "type": "uint256"
        }
      ],
      "stateMutability": "view",
      "type": "function"
    },
    {
      "inputs": [],
      "name": "withdrawClaimFee",
      "outputs": [],
      "stateMutability": "nonpayable",
      "type": "function"
    }
  ],
  "bytecode": "0x60c060405234801561001057600080fd5b50604051620018423803806200184283398101604081905261003191610064565b6001600160a01b0391821660a05216608052610097565b80516001600160a01b038116811461005f57600080fd5b919050565b6000806040838503121561007757600080fd5b61008083610048565b915061008e60208401610048565b90509250929050565b60805160a051611769620000d960003960008181610314015281816104dd0152610a510152600081816102e0015281816108a80152610cde01526117696000f3fe6080604052600436106100e75760003560e01c80632eb4a7ab1161008a57806399d32fc41161005957806399d32fc4146102b4578063ae2e933b146102ce578063c45a015514610302578063fc0c546a1461033657600080fd5b80632eb4a7ab146101b057806332f08873146101c657806355e6c0d0146102135780638da5cb5b1461025d57600080fd5b80631514617e116100c65780631514617e1461015e578063254800d41461017457806328fb0cfe1461018a5780632e7ba6ef1461019d57600080fd5b80626cb883146100ec5780630a6f3de51461012c57806314c44e0914610143575b600080fd5b3480156100f857600080fd5b5061011961010736600461138d565b60056020526000908152604090205481565b6040519081526020015b60405180910390f35b34801561013857600080fd5b50610141610363565b005b34801561014f57600080fd5b50610119662386f26fc1000081565b34801561016a57600080fd5b5061011960045481565b34801561018057600080fd5b5061011960035481565b6101416101983660046113cf565b6104c5565b6101416101ab36600461140b565b610591565b3480156101bc57600080fd5b5061011960015481565b3480156101d257600080fd5b506101db6109c0565b60408051825173ffffffffffffffffffffffffffffffffffffffff168152602080840151908201529181015190820152606001610123565b6102266102213660046114a2565b610a35565b6040805173ffffffffffffffffffffffffffffffffffffffff94851681526020810193909352921691810191909152606001610123565b34801561026957600080fd5b5060005461028f90610100900473ffffffffffffffffffffffffffffffffffffffff1681565b60405173ffffffffffffffffffffffffffffffffffffffff9091168152602001610123565b3480156102c057600080fd5b50610119655af3107a400081565b3480156102da57600080fd5b5061028f7f000000000000000000000000000000000000000000000000000000000000000081565b34801561030e57600080fd5b5061028f7f000000000000000000000000000000000000000000000000000000000000000081565b34801561034257600080fd5b5060025461028f9073ffffffffffffffffffffffffffffffffffffffff1681565b600054610100900473ffffffffffffffffffffffffffffffffffffffff1633146103ee576040517f08c379a000000000000000000000000000000000000000000000000000000000815260206004820152601660248201527f596f7520617265206e6f7420746865206f776e65722e0000000000000000000060448201526064015b60405180910390fd5b60008054604051479291610100900473ffffffffffffffffffffffffffffffffffffffff169083908381818185875af1925050503d806000811461044e576040519150601f19603f3d011682016040523d82523d6000602084013e610453565b606091505b505090508061048e576040517f90b8ec1800000000000000000000000000000000000000000000000000000000815260040160405180910390fd5b6040518281527fc826917a6ae5f60ff74f22aaae3b0a4cbd4211c8f3124e45fb1022f923e4de229060200160405180910390a15050565b3073ffffffffffffffffffffffffffffffffffffffff7f00000000000000000000000000000000000000000000000000000000000000001614610564576040517f08c379a000000000000000000000000000000000000000000000000000000000815260206004820152601860248201527f596f7520617265206e6f742074686520666163746f72792e000000000000000060448201526064016103e5565b811561058c5761058c73ffffffffffffffffffffffffffffffffffffffff8416338385610ea0565b505050565b60008581526005602052604090205483116105d8576040517f646cf55800000000000000000000000000000000000000000000000000000000815260040160405180910390fd5b6105e9655af3107a4000600261151f565b3414610621576040517f69640e7200000000000000000000000000000000000000000000000000000000815260040160405180910390fd5b60408051602081018790527fffffffffffffffffffffffffffffffffffffffff000000000000000000000000606087901b1691810191909152605481018490526000906074016040516020818303038152906040528051906020012090506106c0838380806020026020016040519081016040528093929190818152602001838360200280828437600092019190915250506001549150849050610f82565b6106f6576040517f09bde33900000000000000000000000000000000000000000000000000000000815260040160405180910390fd5b60006004546003546107089190611536565b421061071557508361073e565b60045485600354426107279190611549565b610731919061151f565b61073b919061155c565b90505b6000878152600560205260408120546107579083611549565b905080600003610793576040517f969bf72800000000000000000000000000000000000000000000000000000000815260040160405180910390fd5b6002546040517f70a08231000000000000000000000000000000000000000000000000000000008152306004820152829173ffffffffffffffffffffffffffffffffffffffff16906370a0823190602401602060405180830381865afa158015610801573d6000803e3d6000fd5b505050506040513d601f19601f820116820180604052508101906108259190611597565b101561085d576040517fcb6e851c00000000000000000000000000000000000000000000000000000000815260040160405180910390fd5b6000888152600560205260408120805483929061087b908490611536565b90915550506002546108a49073ffffffffffffffffffffffffffffffffffffffff168883610f98565b60007f000000000000000000000000000000000000000000000000000000000000000073ffffffffffffffffffffffffffffffffffffffff16655af3107a400060405160006040518083038185875af1925050503d8060008114610924576040519150601f19603f3d011682016040523d82523d6000602084013e610929565b606091505b5050905080610964576040517f90b8ec1800000000000000000000000000000000000000000000000000000000815260040160405180910390fd5b8773ffffffffffffffffffffffffffffffffffffffff16897f4ec90e965519d92681267467f775ada5bd214aa92c0dc93d90a5e880ce9ed026846040516109ad91815260200190565b60405180910390a3505050505050505050565b6109fa6040518060600160405280600073ffffffffffffffffffffffffffffffffffffffff16815260200160008152602001600081525090565b506040805160608101825260025473ffffffffffffffffffffffffffffffffffffffff16815260035460208201526004549181019190915290565b600080803373ffffffffffffffffffffffffffffffffffffffff7f00000000000000000000000000000000000000000000000000000000000000001614610ad8576040517f08c379a000000000000000000000000000000000000000000000000000000000815260206004820152601860248201527f596f7520617265206e6f742074686520666163746f72792e000000000000000060448201526064016103e5565b60005460ff1615610b15576040517f0dc149f000000000000000000000000000000000000000000000000000000000815260040160405180910390fd5b600080547fffffffffffffffffffffffffffffffffffffffffffffffffffffffffffffff0016600117905573ffffffffffffffffffffffffffffffffffffffff8816610b8d576040517f87a873e800000000000000000000000000000000000000000000000000000000815260040160405180910390fd5b73ffffffffffffffffffffffffffffffffffffffff8616610bda576040517f87a873e800000000000000000000000000000000000000000000000000000000815260040160405180910390fd5b662386f26fc100003414610c1a576040517f69640e7200000000000000000000000000000000000000000000000000000000815260040160405180910390fd5b84600003610c54576040517f87a873e800000000000000000000000000000000000000000000000000000000815260040160405180910390fd5b426003556004859055600080547fffffffffffffffffffffff0000000000000000000000000000000000000000ff1661010073ffffffffffffffffffffffffffffffffffffffff8b811691909102919091178255600280547fffffffffffffffffffffffff00000000000000000000000000000000000000001689831617905560018990556040517f00000000000000000000000000000000000000000000000000000000000000009091169034908381818185875af1925050503d8060008114610d3b576040519150601f19603f3d011682016040523d82523d6000602084013e610d40565b606091505b5050905080610d7b576040517f90b8ec1800000000000000000000000000000000000000000000000000000000815260040160405180910390fd5b6000546001546002546040517fffffffffffffffffffffffffffffffffffffffff00000000000000000000000060609290921b9190911660208201527f69687cbee57d8aff8295dedc40ac17fd4fe0130939898f42e899776217172f2a92309261010090910473ffffffffffffffffffffffffffffffffffffffff1691603401604080517fffffffffffffffffffffffffffffffffffffffffffffffffffffffffffffffe0818403018152828252602083018c90529101604080517fffffffffffffffffffffffffffffffffffffffffffffffffffffffffffffffe081840301815290829052610e6e959493929161161e565b60405180910390a1505060025473ffffffffffffffffffffffffffffffffffffffff1697929650309550919350505050565b60405173ffffffffffffffffffffffffffffffffffffffff80851660248301528316604482015260648101829052610f7c9085907f23b872dd00000000000000000000000000000000000000000000000000000000906084015b604080517fffffffffffffffffffffffffffffffffffffffffffffffffffffffffffffffe08184030181529190526020810180517bffffffffffffffffffffffffffffffffffffffffffffffffffffffff167fffffffff0000000000000000000000000000000000000000000000000000000090931692909217909152610fee565b50505050565b600082610f8f85846110fd565b14949350505050565b60405173ffffffffffffffffffffffffffffffffffffffff831660248201526044810182905261058c9084907fa9059cbb0000000000000000000000000000000000000000000000000000000090606401610efa565b6000611050826040518060400160405280602081526020017f5361666545524332303a206c6f772d6c6576656c2063616c6c206661696c65648152508573ffffffffffffffffffffffffffffffffffffffff1661114c9092919063ffffffff16565b9050805160001480611071575080806020019051810190611071919061167b565b61058c576040517f08c379a000000000000000000000000000000000000000000000000000000000815260206004820152602a60248201527f5361666545524332303a204552433230206f7065726174696f6e20646964206e60448201527f6f7420737563636565640000000000000000000000000000000000000000000060648201526084016103e5565b600081815b84518110156111425761112e828683815181106111215761112161169d565b6020026020010151611163565b91508061113a816116cc565b915050611102565b5090505b92915050565b606061115b8484600085611195565b949350505050565b600081831061117f57600082815260208490526040902061118e565b60008381526020839052604090205b9392505050565b606082471015611227576040517f08c379a000000000000000000000000000000000000000000000000000000000815260206004820152602660248201527f416464726573733a20696e73756666696369656e742062616c616e636520666f60448201527f722063616c6c000000000000000000000000000000000000000000000000000060648201526084016103e5565b6000808673ffffffffffffffffffffffffffffffffffffffff1685876040516112509190611704565b60006040518083038185875af1925050503d806000811461128d576040519150601f19603f3d011682016040523d82523d6000602084013e611292565b606091505b50915091506112a3878383876112ae565b979650505050505050565b6060831561134457825160000361133d5773ffffffffffffffffffffffffffffffffffffffff85163b61133d576040517f08c379a000000000000000000000000000000000000000000000000000000000815260206004820152601d60248201527f416464726573733a2063616c6c20746f206e6f6e2d636f6e747261637400000060448201526064016103e5565b508161115b565b61115b83838151156113595781518083602001fd5b806040517f08c379a00000000000000000000000000000000000000000000000000000000081526004016103e59190611720565b60006020828403121561139f57600080fd5b5035919050565b803573ffffffffffffffffffffffffffffffffffffffff811681146113ca57600080fd5b919050565b6000806000606084860312156113e457600080fd5b6113ed846113a6565b925060208401359150611402604085016113a6565b90509250925092565b60008060008060006080868803121561142357600080fd5b85359450611433602087016113a6565b935060408601359250606086013567ffffffffffffffff8082111561145757600080fd5b818801915088601f83011261146b57600080fd5b81358181111561147a57600080fd5b8960208260051b850101111561148f57600080fd5b9699959850939650602001949392505050565b600080600080600060a086880312156114ba57600080fd5b6114c3866113a6565b9450602086013593506114d8604087016113a6565b94979396509394606081013594506080013592915050565b7f4e487b7100000000000000000000000000000000000000000000000000000000600052601160045260246000fd5b8082028115828204841417611146576111466114f0565b80820180821115611146576111466114f0565b81810381811115611146576111466114f0565b600082611592577f4e487b7100000000000000000000000000000000000000000000000000000000600052601260045260246000fd5b500490565b6000602082840312156115a957600080fd5b5051919050565b60005b838110156115cb5781810151838201526020016115b3565b50506000910152565b600081518084526115ec8160208601602086016115b0565b601f017fffffffffffffffffffffffffffffffffffffffffffffffffffffffffffffffe0169290920160200192915050565b600073ffffffffffffffffffffffffffffffffffffffff808816835280871660208401525084604083015260a0606083015261165d60a08301856115d4565b828103608084015261166f81856115d4565b98975050505050505050565b60006020828403121561168d57600080fd5b8151801515811461118e57600080fd5b7f4e487b7100000000000000000000000000000000000000000000000000000000600052603260045260246000fd5b60007fffffffffffffffffffffffffffffffffffffffffffffffffffffffffffffffff82036116fd576116fd6114f0565b5060010190565b600082516117168184602087016115b0565b9190910192915050565b60208152600061118e60208301846115d456fea264697066735822122005cc42e37b6b4d61286a2be11e4658eb2e276ca0073b2af8a4ae69c9be3984a064736f6c63430008120033",
  "linkReferences": {},
  "deployedLinkReferences": {}
}