{
  "_format": "hh-sol-artifact-1",
  "contractName": "LinearVesting",
  "sourceName": "contracts/templates/LinearVesting.sol",
  "abi": [
    {
      "inputs": [
        {
          "internalType": "address",
          "name": "factory_",
          "type": "address"
        },
        {
          "internalType": "address",
          "name": "feePool_",
          "type": "address"
        }
      ],
      "stateMutability": "nonpayable",
      "type": "constructor"
    },
    {
      "inputs": [
        {
          "internalType": "address",
          "name": "target",
          "type": "address"
        }
      ],
      "name": "AddressEmptyCode",
      "type": "error"
    },
    {
      "inputs": [
        {
          "internalType": "address",
          "name": "account",
          "type": "address"
        }
      ],
      "name": "AddressInsufficientBalance",
      "type": "error"
    },
    {
      "inputs": [],
      "name": "AlreadyClaimed",
      "type": "error"
    },
    {
      "inputs": [],
      "name": "AlreadyInitialized",
      "type": "error"
    },
    {
      "inputs": [],
      "name": "AmountNotEnough",
      "type": "error"
    },
    {
      "inputs": [],
      "name": "FailedInnerCall",
      "type": "error"
    },
    {
      "inputs": [],
      "name": "IncorrectAmount",
      "type": "error"
    },
    {
      "inputs": [],
      "name": "InvalidProof",
      "type": "error"
    },
    {
      "inputs": [],
      "name": "NotZeroRequired",
      "type": "error"
    },
    {
      "inputs": [],
      "name": "NothingToClaim",
      "type": "error"
    },
    {
      "inputs": [
        {
          "internalType": "address",
          "name": "token",
          "type": "address"
        }
      ],
      "name": "SafeERC20FailedOperation",
      "type": "error"
    },
    {
      "inputs": [],
      "name": "TransferFailed",
      "type": "error"
    },
    {
      "anonymous": false,
      "inputs": [
        {
          "indexed": true,
          "internalType": "uint256",
          "name": "index",
          "type": "uint256"
        },
        {
          "indexed": true,
          "internalType": "address",
          "name": "account",
          "type": "address"
        },
        {
          "indexed": false,
          "internalType": "uint256",
          "name": "amount",
          "type": "uint256"
        }
      ],
      "name": "Claimed",
      "type": "event"
    },
    {
      "anonymous": false,
      "inputs": [
        {
          "indexed": false,
          "internalType": "address",
          "name": "deployedAddress",
          "type": "address"
        },
        {
          "indexed": false,
          "internalType": "address",
          "name": "owner",
          "type": "address"
        },
        {
          "indexed": false,
          "internalType": "bytes32",
          "name": "merkleRoot",
          "type": "bytes32"
        },
        {
          "indexed": false,
          "internalType": "bytes",
          "name": "airdropTokens",
          "type": "bytes"
        },
        {
          "indexed": false,
          "internalType": "bytes",
          "name": "args",
          "type": "bytes"
        }
      ],
      "name": "Deployed",
      "type": "event"
    },
    {
      "anonymous": false,
      "inputs": [
        {
          "indexed": false,
          "internalType": "uint256",
          "name": "amount",
          "type": "uint256"
        }
      ],
      "name": "WithdrawnClaimFee",
      "type": "event"
    },
    {
      "anonymous": false,
      "inputs": [
        {
          "indexed": false,
          "internalType": "bytes",
          "name": "tokens",
          "type": "bytes"
        },
        {
          "indexed": false,
          "internalType": "bytes",
          "name": "amounts",
          "type": "bytes"
        }
      ],
      "name": "WithdrawnDepositedTokens",
      "type": "event"
    },
    {
      "inputs": [
        {
          "internalType": "uint256",
          "name": "index_",
          "type": "uint256"
        },
        {
          "internalType": "address",
          "name": "account_",
          "type": "address"
        },
        {
          "internalType": "uint256",
          "name": "amount_",
          "type": "uint256"
        },
        {
          "internalType": "bytes32[]",
          "name": "merkleProof",
          "type": "bytes32[]"
        }
      ],
      "name": "claim",
      "outputs": [],
      "stateMutability": "payable",
      "type": "function"
    },
    {
      "inputs": [],
      "name": "claimFee",
      "outputs": [
        {
          "internalType": "uint256",
          "name": "",
          "type": "uint256"
        }
      ],
      "stateMutability": "view",
      "type": "function"
    },
    {
      "inputs": [
        {
          "internalType": "uint256",
          "name": "",
          "type": "uint256"
        }
      ],
      "name": "claimedAmount",
      "outputs": [
        {
          "internalType": "uint256",
          "name": "",
          "type": "uint256"
        }
      ],
      "stateMutability": "view",
      "type": "function"
    },
    {
      "inputs": [],
      "name": "factory",
      "outputs": [
        {
          "internalType": "address",
          "name": "",
          "type": "address"
        }
      ],
      "stateMutability": "view",
      "type": "function"
    },
    {
      "inputs": [],
      "name": "feePool",
      "outputs": [
        {
          "internalType": "address",
          "name": "",
          "type": "address"
        }
      ],
      "stateMutability": "view",
      "type": "function"
    },
    {
      "inputs": [],
      "name": "getAirdropInfo",
      "outputs": [
        {
          "components": [
            {
              "internalType": "address",
              "name": "token",
              "type": "address"
            },
            {
              "internalType": "uint256",
              "name": "vestingStart",
              "type": "uint256"
            },
            {
              "internalType": "uint256",
              "name": "vestingDuration",
              "type": "uint256"
            }
          ],
          "internalType": "struct LinearVesting.AirdopInfo",
          "name": "",
          "type": "tuple"
        }
      ],
      "stateMutability": "view",
      "type": "function"
    },
    {
      "inputs": [
        {
          "internalType": "address",
          "name": "owner_",
          "type": "address"
        },
        {
          "internalType": "bytes32",
          "name": "merkleRoot_",
          "type": "bytes32"
        },
        {
          "internalType": "address",
          "name": "token_",
          "type": "address"
        },
        {
          "internalType": "uint256",
          "name": "vestingDuration_",
          "type": "uint256"
        },
        {
          "internalType": "uint256",
          "name": "depositAmount_",
          "type": "uint256"
        }
      ],
      "name": "initialize",
      "outputs": [
        {
          "internalType": "address",
          "name": "",
          "type": "address"
        },
        {
          "internalType": "uint256",
          "name": "",
          "type": "uint256"
        },
        {
          "internalType": "address",
          "name": "",
          "type": "address"
        }
      ],
      "stateMutability": "payable",
      "type": "function"
    },
    {
      "inputs": [
        {
          "internalType": "address",
          "name": "token_",
          "type": "address"
        },
        {
          "internalType": "uint256",
          "name": "amount_",
          "type": "uint256"
        },
        {
          "internalType": "address",
          "name": "to_",
          "type": "address"
        }
      ],
      "name": "initializeTransfer",
      "outputs": [],
      "stateMutability": "payable",
      "type": "function"
    },
    {
      "inputs": [],
      "name": "merkleRoot",
      "outputs": [
        {
          "internalType": "bytes32",
          "name": "",
          "type": "bytes32"
        }
      ],
      "stateMutability": "view",
      "type": "function"
    },
    {
      "inputs": [],
      "name": "owner",
      "outputs": [
        {
          "internalType": "address",
          "name": "",
          "type": "address"
        }
      ],
      "stateMutability": "view",
      "type": "function"
    },
    {
      "inputs": [],
      "name": "registrationFee",
      "outputs": [
        {
          "internalType": "uint256",
          "name": "",
          "type": "uint256"
        }
      ],
      "stateMutability": "view",
      "type": "function"
    },
    {
      "inputs": [],
      "name": "token",
      "outputs": [
        {
          "internalType": "address",
          "name": "",
          "type": "address"
        }
      ],
      "stateMutability": "view",
      "type": "function"
    },
    {
      "inputs": [],
      "name": "vestingDuration",
      "outputs": [
        {
          "internalType": "uint256",
          "name": "",
          "type": "uint256"
        }
      ],
      "stateMutability": "view",
      "type": "function"
    },
    {
      "inputs": [],
      "name": "vestingStart",
      "outputs": [
        {
          "internalType": "uint256",
          "name": "",
          "type": "uint256"
        }
      ],
      "stateMutability": "view",
      "type": "function"
    },
    {
      "inputs": [],
      "name": "withdrawClaimFee",
      "outputs": [],
      "stateMutability": "nonpayable",
      "type": "function"
    }
  ],
  "bytecode": "0x60c060405234801561001057600080fd5b50604051620016dd380380620016dd83398101604081905261003191610064565b6001600160a01b0391821660a05216608052610097565b80516001600160a01b038116811461005f57600080fd5b919050565b6000806040838503121561007757600080fd5b61008083610048565b915061008e60208401610048565b90509250929050565b60805160a051611604620000d960003960008181610314015281816104dd0152610a510152600081816102e0015281816108a80152610cde01526116046000f3fe6080604052600436106100e75760003560e01c80632eb4a7ab1161008a57806399d32fc41161005957806399d32fc4146102b4578063ae2e933b146102ce578063c45a015514610302578063fc0c546a1461033657600080fd5b80632eb4a7ab146101b057806332f08873146101c657806355e6c0d0146102135780638da5cb5b1461025d57600080fd5b80631514617e116100c65780631514617e1461015e578063254800d41461017457806328fb0cfe1461018a5780632e7ba6ef1461019d57600080fd5b80626cb883146100ec5780630a6f3de51461012c57806314c44e0914610143575b600080fd5b3480156100f857600080fd5b5061011961010736600461123b565b60056020526000908152604090205481565b6040519081526020015b60405180910390f35b34801561013857600080fd5b50610141610363565b005b34801561014f57600080fd5b50610119662386f26fc1000081565b34801561016a57600080fd5b5061011960045481565b34801561018057600080fd5b5061011960035481565b61014161019836600461127d565b6104c5565b6101416101ab3660046112b9565b610591565b3480156101bc57600080fd5b5061011960015481565b3480156101d257600080fd5b506101db6109c0565b60408051825173ffffffffffffffffffffffffffffffffffffffff168152602080840151908201529181015190820152606001610123565b610226610221366004611350565b610a35565b6040805173ffffffffffffffffffffffffffffffffffffffff94851681526020810193909352921691810191909152606001610123565b34801561026957600080fd5b5060005461028f90610100900473ffffffffffffffffffffffffffffffffffffffff1681565b60405173ffffffffffffffffffffffffffffffffffffffff9091168152602001610123565b3480156102c057600080fd5b50610119655af3107a400081565b3480156102da57600080fd5b5061028f7f000000000000000000000000000000000000000000000000000000000000000081565b34801561030e57600080fd5b5061028f7f000000000000000000000000000000000000000000000000000000000000000081565b34801561034257600080fd5b5060025461028f9073ffffffffffffffffffffffffffffffffffffffff1681565b600054610100900473ffffffffffffffffffffffffffffffffffffffff1633146103ee576040517f08c379a000000000000000000000000000000000000000000000000000000000815260206004820152601660248201527f596f7520617265206e6f7420746865206f776e65722e0000000000000000000060448201526064015b60405180910390fd5b60008054604051479291610100900473ffffffffffffffffffffffffffffffffffffffff169083908381818185875af1925050503d806000811461044e576040519150601f19603f3d011682016040523d82523d6000602084013e610453565b606091505b505090508061048e576040517f90b8ec1800000000000000000000000000000000000000000000000000000000815260040160405180910390fd5b6040518281527fc826917a6ae5f60ff74f22aaae3b0a4cbd4211c8f3124e45fb1022f923e4de229060200160405180910390a15050565b3073ffffffffffffffffffffffffffffffffffffffff7f00000000000000000000000000000000000000000000000000000000000000001614610564576040517f08c379a000000000000000000000000000000000000000000000000000000000815260206004820152601860248201527f596f7520617265206e6f742074686520666163746f72792e000000000000000060448201526064016103e5565b811561058c5761058c73ffffffffffffffffffffffffffffffffffffffff8416338385610ea0565b505050565b60008581526005602052604090205483116105d8576040517f646cf55800000000000000000000000000000000000000000000000000000000815260040160405180910390fd5b6105e9655af3107a400060026113cd565b3414610621576040517f69640e7200000000000000000000000000000000000000000000000000000000815260040160405180910390fd5b60408051602081018790527fffffffffffffffffffffffffffffffffffffffff000000000000000000000000606087901b1691810191909152605481018490526000906074016040516020818303038152906040528051906020012090506106c0838380806020026020016040519081016040528093929190818152602001838360200280828437600092019190915250506001549150849050610f2f565b6106f6576040517f09bde33900000000000000000000000000000000000000000000000000000000815260040160405180910390fd5b600060045460035461070891906113e4565b421061071557508361073e565b600454856003544261072791906113f7565b61073191906113cd565b61073b919061140a565b90505b60008781526005602052604081205461075790836113f7565b905080600003610793576040517f969bf72800000000000000000000000000000000000000000000000000000000815260040160405180910390fd5b6002546040517f70a08231000000000000000000000000000000000000000000000000000000008152306004820152829173ffffffffffffffffffffffffffffffffffffffff16906370a0823190602401602060405180830381865afa158015610801573d6000803e3d6000fd5b505050506040513d601f19601f820116820180604052508101906108259190611445565b101561085d576040517fcb6e851c00000000000000000000000000000000000000000000000000000000815260040160405180910390fd5b6000888152600560205260408120805483929061087b9084906113e4565b90915550506002546108a49073ffffffffffffffffffffffffffffffffffffffff168883610f47565b60007f000000000000000000000000000000000000000000000000000000000000000073ffffffffffffffffffffffffffffffffffffffff16655af3107a400060405160006040518083038185875af1925050503d8060008114610924576040519150601f19603f3d011682016040523d82523d6000602084013e610929565b606091505b5050905080610964576040517f90b8ec1800000000000000000000000000000000000000000000000000000000815260040160405180910390fd5b8773ffffffffffffffffffffffffffffffffffffffff16897f4ec90e965519d92681267467f775ada5bd214aa92c0dc93d90a5e880ce9ed026846040516109ad91815260200190565b60405180910390a3505050505050505050565b6109fa6040518060600160405280600073ffffffffffffffffffffffffffffffffffffffff16815260200160008152602001600081525090565b506040805160608101825260025473ffffffffffffffffffffffffffffffffffffffff16815260035460208201526004549181019190915290565b600080803373ffffffffffffffffffffffffffffffffffffffff7f00000000000000000000000000000000000000000000000000000000000000001614610ad8576040517f08c379a000000000000000000000000000000000000000000000000000000000815260206004820152601860248201527f596f7520617265206e6f742074686520666163746f72792e000000000000000060448201526064016103e5565b60005460ff1615610b15576040517f0dc149f000000000000000000000000000000000000000000000000000000000815260040160405180910390fd5b600080547fffffffffffffffffffffffffffffffffffffffffffffffffffffffffffffff0016600117905573ffffffffffffffffffffffffffffffffffffffff8816610b8d576040517f87a873e800000000000000000000000000000000000000000000000000000000815260040160405180910390fd5b73ffffffffffffffffffffffffffffffffffffffff8616610bda576040517f87a873e800000000000000000000000000000000000000000000000000000000815260040160405180910390fd5b662386f26fc100003414610c1a576040517f69640e7200000000000000000000000000000000000000000000000000000000815260040160405180910390fd5b84600003610c54576040517f87a873e800000000000000000000000000000000000000000000000000000000815260040160405180910390fd5b426003556004859055600080547fffffffffffffffffffffff0000000000000000000000000000000000000000ff1661010073ffffffffffffffffffffffffffffffffffffffff8b811691909102919091178255600280547fffffffffffffffffffffffff00000000000000000000000000000000000000001689831617905560018990556040517f00000000000000000000000000000000000000000000000000000000000000009091169034908381818185875af1925050503d8060008114610d3b576040519150601f19603f3d011682016040523d82523d6000602084013e610d40565b606091505b5050905080610d7b576040517f90b8ec1800000000000000000000000000000000000000000000000000000000815260040160405180910390fd5b6000546001546002546040517fffffffffffffffffffffffffffffffffffffffff00000000000000000000000060609290921b9190911660208201527f69687cbee57d8aff8295dedc40ac17fd4fe0130939898f42e899776217172f2a92309261010090910473ffffffffffffffffffffffffffffffffffffffff1691603401604080517fffffffffffffffffffffffffffffffffffffffffffffffffffffffffffffffe0818403018152828252602083018c90529101604080517fffffffffffffffffffffffffffffffffffffffffffffffffffffffffffffffe081840301815290829052610e6e95949392916114cc565b60405180910390a1505060025473ffffffffffffffffffffffffffffffffffffffff1697929650309550919350505050565b60405173ffffffffffffffffffffffffffffffffffffffff8481166024830152838116604483015260648201839052610f299186918216906323b872dd906084015b604051602081830303815290604052915060e01b6020820180517bffffffffffffffffffffffffffffffffffffffffffffffffffffffff8381831617835250505050610f85565b50505050565b600082610f3c858461101b565b1490505b9392505050565b60405173ffffffffffffffffffffffffffffffffffffffff83811660248301526044820183905261058c91859182169063a9059cbb90606401610ee2565b6000610fa773ffffffffffffffffffffffffffffffffffffffff84168361106a565b90508051600014158015610fcc575080806020019051810190610fca9190611529565b155b1561058c576040517f5274afe700000000000000000000000000000000000000000000000000000000815273ffffffffffffffffffffffffffffffffffffffff841660048201526024016103e5565b600081815b84518110156110605761104c8286838151811061103f5761103f61154b565b6020026020010151611078565b9150806110588161157a565b915050611020565b5090505b92915050565b6060610f40838360006110a7565b6000818310611094576000828152602084905260409020610f40565b6000838152602083905260409020610f40565b6060814710156110e5576040517fcd7860590000000000000000000000000000000000000000000000000000000081523060048201526024016103e5565b6000808573ffffffffffffffffffffffffffffffffffffffff16848660405161110e91906115b2565b60006040518083038185875af1925050503d806000811461114b576040519150601f19603f3d011682016040523d82523d6000602084013e611150565b606091505b509150915061116086838361116a565b9695505050505050565b60608261117f5761117a826111f9565b610f40565b81511580156111a3575073ffffffffffffffffffffffffffffffffffffffff84163b155b156111f2576040517f9996b31500000000000000000000000000000000000000000000000000000000815273ffffffffffffffffffffffffffffffffffffffff851660048201526024016103e5565b5080610f40565b8051156112095780518082602001fd5b6040517f1425ea4200000000000000000000000000000000000000000000000000000000815260040160405180910390fd5b60006020828403121561124d57600080fd5b5035919050565b803573ffffffffffffffffffffffffffffffffffffffff8116811461127857600080fd5b919050565b60008060006060848603121561129257600080fd5b61129b84611254565b9250602084013591506112b060408501611254565b90509250925092565b6000806000806000608086880312156112d157600080fd5b853594506112e160208701611254565b935060408601359250606086013567ffffffffffffffff8082111561130557600080fd5b818801915088601f83011261131957600080fd5b81358181111561132857600080fd5b8960208260051b850101111561133d57600080fd5b9699959850939650602001949392505050565b600080600080600060a0868803121561136857600080fd5b61137186611254565b94506020860135935061138660408701611254565b94979396509394606081013594506080013592915050565b7f4e487b7100000000000000000000000000000000000000000000000000000000600052601160045260246000fd5b80820281158282048414176110645761106461139e565b808201808211156110645761106461139e565b818103818111156110645761106461139e565b600082611440577f4e487b7100000000000000000000000000000000000000000000000000000000600052601260045260246000fd5b500490565b60006020828403121561145757600080fd5b5051919050565b60005b83811015611479578181015183820152602001611461565b50506000910152565b6000815180845261149a81602086016020860161145e565b601f017fffffffffffffffffffffffffffffffffffffffffffffffffffffffffffffffe0169290920160200192915050565b600073ffffffffffffffffffffffffffffffffffffffff808816835280871660208401525084604083015260a0606083015261150b60a0830185611482565b828103608084015261151d8185611482565b98975050505050505050565b60006020828403121561153b57600080fd5b81518015158114610f4057600080fd5b7f4e487b7100000000000000000000000000000000000000000000000000000000600052603260045260246000fd5b60007fffffffffffffffffffffffffffffffffffffffffffffffffffffffffffffffff82036115ab576115ab61139e565b5060010190565b600082516115c481846020870161145e565b919091019291505056fea26469706673582212203533cf83bacb2f7bb3914acddaace6913152198cdce4893076b4a226f90cebe764736f6c63430008140033",
  "linkReferences": {},
  "deployedLinkReferences": {}
}