{
  "_format": "hh-sol-artifact-1",
  "contractName": "LinearVesting",
  "sourceName": "contracts/templates/LinearVesting.sol",
  "abi": [
    {
      "inputs": [
        {
          "internalType": "address",
          "name": "factory_",
          "type": "address"
        },
        {
          "internalType": "address",
          "name": "feePool_",
          "type": "address"
        }
      ],
      "stateMutability": "nonpayable",
      "type": "constructor"
    },
    {
      "inputs": [],
      "name": "AlreadyClaimed",
      "type": "error"
    },
    {
      "inputs": [],
      "name": "AlreadyInitialized",
      "type": "error"
    },
    {
      "inputs": [],
      "name": "AmountNotEnough",
      "type": "error"
    },
    {
      "inputs": [],
      "name": "IncorrectAmount",
      "type": "error"
    },
    {
      "inputs": [],
      "name": "InvalidProof",
      "type": "error"
    },
    {
      "inputs": [],
      "name": "NotZeroRequired",
      "type": "error"
    },
    {
      "inputs": [],
      "name": "NothingToClaim",
      "type": "error"
    },
    {
      "inputs": [],
      "name": "TransferFailed",
      "type": "error"
    },
    {
      "anonymous": false,
      "inputs": [
        {
          "indexed": true,
          "internalType": "uint256",
          "name": "index",
          "type": "uint256"
        },
        {
          "indexed": true,
          "internalType": "address",
          "name": "account",
          "type": "address"
        },
        {
          "indexed": false,
          "internalType": "uint256",
          "name": "amount",
          "type": "uint256"
        }
      ],
      "name": "Claimed",
      "type": "event"
    },
    {
      "anonymous": false,
      "inputs": [
        {
          "indexed": false,
          "internalType": "address",
          "name": "deployedAddress",
          "type": "address"
        },
        {
          "indexed": false,
          "internalType": "address",
          "name": "owner",
          "type": "address"
        },
        {
          "indexed": false,
          "internalType": "bytes32",
          "name": "merkleRoot",
          "type": "bytes32"
        },
        {
          "indexed": false,
          "internalType": "bytes",
          "name": "airdropTokens",
          "type": "bytes"
        },
        {
          "indexed": false,
          "internalType": "bytes",
          "name": "args",
          "type": "bytes"
        }
      ],
      "name": "Deployed",
      "type": "event"
    },
    {
      "anonymous": false,
      "inputs": [
        {
          "indexed": false,
          "internalType": "uint256",
          "name": "amount",
          "type": "uint256"
        }
      ],
      "name": "WithdrawnClaimFee",
      "type": "event"
    },
    {
      "anonymous": false,
      "inputs": [
        {
          "indexed": false,
          "internalType": "bytes",
          "name": "tokens",
          "type": "bytes"
        },
        {
          "indexed": false,
          "internalType": "bytes",
          "name": "amounts",
          "type": "bytes"
        }
      ],
      "name": "WithdrawnDepositedTokens",
      "type": "event"
    },
    {
      "inputs": [
        {
          "internalType": "uint256",
          "name": "index_",
          "type": "uint256"
        },
        {
          "internalType": "address",
          "name": "account_",
          "type": "address"
        },
        {
          "internalType": "uint256",
          "name": "amount_",
          "type": "uint256"
        },
        {
          "internalType": "bytes32[]",
          "name": "merkleProof",
          "type": "bytes32[]"
        }
      ],
      "name": "claim",
      "outputs": [],
      "stateMutability": "payable",
      "type": "function"
    },
    {
      "inputs": [],
      "name": "claimFee",
      "outputs": [
        {
          "internalType": "uint256",
          "name": "",
          "type": "uint256"
        }
      ],
      "stateMutability": "view",
      "type": "function"
    },
    {
      "inputs": [
        {
          "internalType": "address",
          "name": "",
          "type": "address"
        }
      ],
      "name": "claimedAmount",
      "outputs": [
        {
          "internalType": "uint256",
          "name": "",
          "type": "uint256"
        }
      ],
      "stateMutability": "view",
      "type": "function"
    },
    {
      "inputs": [],
      "name": "factory",
      "outputs": [
        {
          "internalType": "address",
          "name": "",
          "type": "address"
        }
      ],
      "stateMutability": "view",
      "type": "function"
    },
    {
      "inputs": [],
      "name": "feePool",
      "outputs": [
        {
          "internalType": "address",
          "name": "",
          "type": "address"
        }
      ],
      "stateMutability": "view",
      "type": "function"
    },
    {
      "inputs": [],
      "name": "getAirdropInfo",
      "outputs": [
        {
          "components": [
            {
              "internalType": "address",
              "name": "token",
              "type": "address"
            },
            {
              "internalType": "address",
              "name": "owner",
              "type": "address"
            },
            {
              "internalType": "bytes32",
              "name": "merkleRoot",
              "type": "bytes32"
            },
            {
              "internalType": "uint256",
              "name": "stockAmount",
              "type": "uint256"
            },
            {
              "internalType": "uint256",
              "name": "vestingStart",
              "type": "uint256"
            },
            {
              "internalType": "uint256",
              "name": "vestingDuration",
              "type": "uint256"
            }
          ],
          "internalType": "struct LinearVesting.AirdopInfo",
          "name": "",
          "type": "tuple"
        }
      ],
      "stateMutability": "view",
      "type": "function"
    },
    {
      "inputs": [
        {
          "internalType": "address",
          "name": "owner_",
          "type": "address"
        },
        {
          "internalType": "bytes32",
          "name": "merkleRoot_",
          "type": "bytes32"
        },
        {
          "internalType": "address",
          "name": "token_",
          "type": "address"
        },
        {
          "internalType": "uint256",
          "name": "vestingDuration_",
          "type": "uint256"
        },
        {
          "internalType": "uint256",
          "name": "depositAmount_",
          "type": "uint256"
        }
      ],
      "name": "initialize",
      "outputs": [
        {
          "internalType": "address",
          "name": "",
          "type": "address"
        },
        {
          "internalType": "uint256",
          "name": "",
          "type": "uint256"
        },
        {
          "internalType": "address",
          "name": "",
          "type": "address"
        }
      ],
      "stateMutability": "payable",
      "type": "function"
    },
    {
      "inputs": [
        {
          "internalType": "address",
          "name": "token_",
          "type": "address"
        },
        {
          "internalType": "uint256",
          "name": "amount_",
          "type": "uint256"
        },
        {
          "internalType": "address",
          "name": "to_",
          "type": "address"
        }
      ],
      "name": "initializeTransfer",
      "outputs": [],
      "stateMutability": "payable",
      "type": "function"
    },
    {
      "inputs": [],
      "name": "merkleRoot",
      "outputs": [
        {
          "internalType": "bytes32",
          "name": "",
          "type": "bytes32"
        }
      ],
      "stateMutability": "view",
      "type": "function"
    },
    {
      "inputs": [],
      "name": "owner",
      "outputs": [
        {
          "internalType": "address",
          "name": "",
          "type": "address"
        }
      ],
      "stateMutability": "view",
      "type": "function"
    },
    {
      "inputs": [],
      "name": "registrationFee",
      "outputs": [
        {
          "internalType": "uint256",
          "name": "",
          "type": "uint256"
        }
      ],
      "stateMutability": "view",
      "type": "function"
    },
    {
      "inputs": [],
      "name": "token",
      "outputs": [
        {
          "internalType": "address",
          "name": "",
          "type": "address"
        }
      ],
      "stateMutability": "view",
      "type": "function"
    },
    {
      "inputs": [],
      "name": "vestingDuration",
      "outputs": [
        {
          "internalType": "uint256",
          "name": "",
          "type": "uint256"
        }
      ],
      "stateMutability": "view",
      "type": "function"
    },
    {
      "inputs": [],
      "name": "vestingStart",
      "outputs": [
        {
          "internalType": "uint256",
          "name": "",
          "type": "uint256"
        }
      ],
      "stateMutability": "view",
      "type": "function"
    },
    {
      "inputs": [],
      "name": "withdrawClaimFee",
      "outputs": [],
      "stateMutability": "nonpayable",
      "type": "function"
    }
  ],
  "bytecode": "0x60c06040523480156200001157600080fd5b506040516200195238038062001952833981016040819052620000349162000069565b6001600160a01b0391821660a05216608052620000a1565b80516001600160a01b03811681146200006457600080fd5b919050565b600080604083850312156200007d57600080fd5b62000088836200004c565b915062000098602084016200004c565b90509250929050565b60805160a05161186f620000e3600039600081816103430152818161050c0152610b5501526000818161030f0152818161091c0152610de2015261186f6000f3fe6080604052600436106100e85760003560e01c80632eb4a7ab1161008a57806399d32fc41161005957806399d32fc4146102e3578063ae2e933b146102fd578063c45a015514610331578063fc0c546a1461036557600080fd5b80632eb4a7ab146101b157806332f08873146101c757806355e6c0d0146102425780638da5cb5b1461028c57600080fd5b80631514617e116100c65780631514617e1461015f578063254800d41461017557806328fb0cfe1461018b5780632e7ba6ef1461019e57600080fd5b806304e86903146100ed5780630a6f3de51461012d57806314c44e0914610144575b600080fd5b3480156100f957600080fd5b5061011a6101083660046114ba565b60056020526000908152604090205481565b6040519081526020015b60405180910390f35b34801561013957600080fd5b50610142610392565b005b34801561015057600080fd5b5061011a662386f26fc1000081565b34801561016b57600080fd5b5061011a60045481565b34801561018157600080fd5b5061011a60035481565b6101426101993660046114d5565b6104f4565b6101426101ac366004611511565b6105c0565b3480156101bd57600080fd5b5061011a60015481565b3480156101d357600080fd5b506101dc610a34565b6040516101249190600060c08201905073ffffffffffffffffffffffffffffffffffffffff8084511683528060208501511660208401525060408301516040830152606083015160608301526080830151608083015260a083015160a083015292915050565b6102556102503660046115a8565b610b39565b6040805173ffffffffffffffffffffffffffffffffffffffff94851681526020810193909352921691810191909152606001610124565b34801561029857600080fd5b506000546102be90610100900473ffffffffffffffffffffffffffffffffffffffff1681565b60405173ffffffffffffffffffffffffffffffffffffffff9091168152602001610124565b3480156102ef57600080fd5b5061011a655af3107a400081565b34801561030957600080fd5b506102be7f000000000000000000000000000000000000000000000000000000000000000081565b34801561033d57600080fd5b506102be7f000000000000000000000000000000000000000000000000000000000000000081565b34801561037157600080fd5b506002546102be9073ffffffffffffffffffffffffffffffffffffffff1681565b600054610100900473ffffffffffffffffffffffffffffffffffffffff16331461041d576040517f08c379a000000000000000000000000000000000000000000000000000000000815260206004820152601660248201527f596f7520617265206e6f7420746865206f776e65722e0000000000000000000060448201526064015b60405180910390fd5b60008054604051479291610100900473ffffffffffffffffffffffffffffffffffffffff169083908381818185875af1925050503d806000811461047d576040519150601f19603f3d011682016040523d82523d6000602084013e610482565b606091505b50509050806104bd576040517f90b8ec1800000000000000000000000000000000000000000000000000000000815260040160405180910390fd5b6040518281527fc826917a6ae5f60ff74f22aaae3b0a4cbd4211c8f3124e45fb1022f923e4de229060200160405180910390a15050565b3073ffffffffffffffffffffffffffffffffffffffff7f00000000000000000000000000000000000000000000000000000000000000001614610593576040517f08c379a000000000000000000000000000000000000000000000000000000000815260206004820152601860248201527f596f7520617265206e6f742074686520666163746f72792e00000000000000006044820152606401610414565b81156105bb576105bb73ffffffffffffffffffffffffffffffffffffffff8416338385610fa4565b505050565b73ffffffffffffffffffffffffffffffffffffffff8416600090815260056020526040902054831161061e576040517f646cf55800000000000000000000000000000000000000000000000000000000815260040160405180910390fd5b61062f655af3107a40006002611625565b3414610667576040517f69640e7200000000000000000000000000000000000000000000000000000000815260040160405180910390fd5b60408051602081018790527fffffffffffffffffffffffffffffffffffffffff000000000000000000000000606087901b169181019190915260548101849052600090607401604051602081830303815290604052805190602001209050610706838380806020026020016040519081016040528093929190818152602001838360200280828437600092019190915250506001549150849050611086565b61073c576040517f09bde33900000000000000000000000000000000000000000000000000000000815260040160405180910390fd5b600060045460035461074e919061163c565b421061075b575083610784565b600454856003544261076d919061164f565b6107779190611625565b6107819190611662565b90505b73ffffffffffffffffffffffffffffffffffffffff86166000908152600560205260408120546107b4908361164f565b9050806000036107f0576040517f969bf72800000000000000000000000000000000000000000000000000000000815260040160405180910390fd5b6002546040517f70a08231000000000000000000000000000000000000000000000000000000008152306004820152829173ffffffffffffffffffffffffffffffffffffffff16906370a0823190602401602060405180830381865afa15801561085e573d6000803e3d6000fd5b505050506040513d601f19601f82011682018060405250810190610882919061169d565b10156108ba576040517fcb6e851c00000000000000000000000000000000000000000000000000000000815260040160405180910390fd5b73ffffffffffffffffffffffffffffffffffffffff8716600090815260056020526040812080548392906108ef90849061163c565b90915550506002546109189073ffffffffffffffffffffffffffffffffffffffff16888361109c565b60007f000000000000000000000000000000000000000000000000000000000000000073ffffffffffffffffffffffffffffffffffffffff16655af3107a400060405160006040518083038185875af1925050503d8060008114610998576040519150601f19603f3d011682016040523d82523d6000602084013e61099d565b606091505b50509050806109d8576040517f90b8ec1800000000000000000000000000000000000000000000000000000000815260040160405180910390fd5b8773ffffffffffffffffffffffffffffffffffffffff16897f4ec90e965519d92681267467f775ada5bd214aa92c0dc93d90a5e880ce9ed02684604051610a2191815260200190565b60405180910390a3505050505050505050565b6040805160c081018252600080825260208201819052918101829052606081018290526080810182905260a08101919091526040805160c08101825260025473ffffffffffffffffffffffffffffffffffffffff908116808352600054610100900490911660208301526001548284015291517f70a08231000000000000000000000000000000000000000000000000000000008152306004820152909160608301916370a0823190602401602060405180830381865afa158015610afd573d6000803e3d6000fd5b505050506040513d601f19601f82011682018060405250810190610b21919061169d565b81526020016003548152602001600454815250905090565b600080803373ffffffffffffffffffffffffffffffffffffffff7f00000000000000000000000000000000000000000000000000000000000000001614610bdc576040517f08c379a000000000000000000000000000000000000000000000000000000000815260206004820152601860248201527f596f7520617265206e6f742074686520666163746f72792e00000000000000006044820152606401610414565b60005460ff1615610c19576040517f0dc149f000000000000000000000000000000000000000000000000000000000815260040160405180910390fd5b600080547fffffffffffffffffffffffffffffffffffffffffffffffffffffffffffffff0016600117905573ffffffffffffffffffffffffffffffffffffffff8816610c91576040517f87a873e800000000000000000000000000000000000000000000000000000000815260040160405180910390fd5b73ffffffffffffffffffffffffffffffffffffffff8616610cde576040517f87a873e800000000000000000000000000000000000000000000000000000000815260040160405180910390fd5b662386f26fc100003414610d1e576040517f69640e7200000000000000000000000000000000000000000000000000000000815260040160405180910390fd5b84600003610d58576040517f87a873e800000000000000000000000000000000000000000000000000000000815260040160405180910390fd5b426003556004859055600080547fffffffffffffffffffffff0000000000000000000000000000000000000000ff1661010073ffffffffffffffffffffffffffffffffffffffff8b811691909102919091178255600280547fffffffffffffffffffffffff00000000000000000000000000000000000000001689831617905560018990556040517f00000000000000000000000000000000000000000000000000000000000000009091169034908381818185875af1925050503d8060008114610e3f576040519150601f19603f3d011682016040523d82523d6000602084013e610e44565b606091505b5050905080610e7f576040517f90b8ec1800000000000000000000000000000000000000000000000000000000815260040160405180910390fd5b6000546001546002546040517fffffffffffffffffffffffffffffffffffffffff00000000000000000000000060609290921b9190911660208201527f69687cbee57d8aff8295dedc40ac17fd4fe0130939898f42e899776217172f2a92309261010090910473ffffffffffffffffffffffffffffffffffffffff1691603401604080517fffffffffffffffffffffffffffffffffffffffffffffffffffffffffffffffe0818403018152828252602083018c90529101604080517fffffffffffffffffffffffffffffffffffffffffffffffffffffffffffffffe081840301815290829052610f729594939291611724565b60405180910390a1505060025473ffffffffffffffffffffffffffffffffffffffff1697929650309550919350505050565b60405173ffffffffffffffffffffffffffffffffffffffff808516602483015283166044820152606481018290526110809085907f23b872dd00000000000000000000000000000000000000000000000000000000906084015b604080517fffffffffffffffffffffffffffffffffffffffffffffffffffffffffffffffe08184030181529190526020810180517bffffffffffffffffffffffffffffffffffffffffffffffffffffffff167fffffffff00000000000000000000000000000000000000000000000000000000909316929092179091526110f2565b50505050565b6000826110938584611201565b14949350505050565b60405173ffffffffffffffffffffffffffffffffffffffff83166024820152604481018290526105bb9084907fa9059cbb0000000000000000000000000000000000000000000000000000000090606401610ffe565b6000611154826040518060400160405280602081526020017f5361666545524332303a206c6f772d6c6576656c2063616c6c206661696c65648152508573ffffffffffffffffffffffffffffffffffffffff166112509092919063ffffffff16565b90508051600014806111755750808060200190518101906111759190611781565b6105bb576040517f08c379a000000000000000000000000000000000000000000000000000000000815260206004820152602a60248201527f5361666545524332303a204552433230206f7065726174696f6e20646964206e60448201527f6f742073756363656564000000000000000000000000000000000000000000006064820152608401610414565b600081815b84518110156112465761123282868381518110611225576112256117a3565b6020026020010151611267565b91508061123e816117d2565b915050611206565b5090505b92915050565b606061125f8484600085611299565b949350505050565b6000818310611283576000828152602084905260409020611292565b60008381526020839052604090205b9392505050565b60608247101561132b576040517f08c379a000000000000000000000000000000000000000000000000000000000815260206004820152602660248201527f416464726573733a20696e73756666696369656e742062616c616e636520666f60448201527f722063616c6c00000000000000000000000000000000000000000000000000006064820152608401610414565b6000808673ffffffffffffffffffffffffffffffffffffffff168587604051611354919061180a565b60006040518083038185875af1925050503d8060008114611391576040519150601f19603f3d011682016040523d82523d6000602084013e611396565b606091505b50915091506113a7878383876113b2565b979650505050505050565b606083156114485782516000036114415773ffffffffffffffffffffffffffffffffffffffff85163b611441576040517f08c379a000000000000000000000000000000000000000000000000000000000815260206004820152601d60248201527f416464726573733a2063616c6c20746f206e6f6e2d636f6e74726163740000006044820152606401610414565b508161125f565b61125f838381511561145d5781518083602001fd5b806040517f08c379a00000000000000000000000000000000000000000000000000000000081526004016104149190611826565b803573ffffffffffffffffffffffffffffffffffffffff811681146114b557600080fd5b919050565b6000602082840312156114cc57600080fd5b61129282611491565b6000806000606084860312156114ea57600080fd5b6114f384611491565b92506020840135915061150860408501611491565b90509250925092565b60008060008060006080868803121561152957600080fd5b8535945061153960208701611491565b935060408601359250606086013567ffffffffffffffff8082111561155d57600080fd5b818801915088601f83011261157157600080fd5b81358181111561158057600080fd5b8960208260051b850101111561159557600080fd5b9699959850939650602001949392505050565b600080600080600060a086880312156115c057600080fd5b6115c986611491565b9450602086013593506115de60408701611491565b94979396509394606081013594506080013592915050565b7f4e487b7100000000000000000000000000000000000000000000000000000000600052601160045260246000fd5b808202811582820484141761124a5761124a6115f6565b8082018082111561124a5761124a6115f6565b8181038181111561124a5761124a6115f6565b600082611698577f4e487b7100000000000000000000000000000000000000000000000000000000600052601260045260246000fd5b500490565b6000602082840312156116af57600080fd5b5051919050565b60005b838110156116d15781810151838201526020016116b9565b50506000910152565b600081518084526116f28160208601602086016116b6565b601f017fffffffffffffffffffffffffffffffffffffffffffffffffffffffffffffffe0169290920160200192915050565b600073ffffffffffffffffffffffffffffffffffffffff808816835280871660208401525084604083015260a0606083015261176360a08301856116da565b828103608084015261177581856116da565b98975050505050505050565b60006020828403121561179357600080fd5b8151801515811461129257600080fd5b7f4e487b7100000000000000000000000000000000000000000000000000000000600052603260045260246000fd5b60007fffffffffffffffffffffffffffffffffffffffffffffffffffffffffffffffff8203611803576118036115f6565b5060010190565b6000825161181c8184602087016116b6565b9190910192915050565b60208152600061129260208301846116da56fea2646970667358221220434071ad39294995b2b555e0c007faab444628873e20eb4f3e75efbb1e6e8a9a64736f6c63430008120033",
  "linkReferences": {},
  "deployedLinkReferences": {}
}