{
  "_format": "hh-sol-artifact-1",
  "contractName": "TestERC20",
  "sourceName": "contracts/test/TestERC20.sol",
  "abi": [
    {
      "inputs": [
        {
          "internalType": "string",
          "name": "name_",
          "type": "string"
        },
        {
          "internalType": "string",
          "name": "symbol_",
          "type": "string"
        },
        {
          "internalType": "uint256",
          "name": "amountToMint",
          "type": "uint256"
        }
      ],
      "stateMutability": "nonpayable",
      "type": "constructor"
    },
    {
      "inputs": [
        {
          "internalType": "address",
          "name": "spender",
          "type": "address"
        },
        {
          "internalType": "uint256",
          "name": "allowance",
          "type": "uint256"
        },
        {
          "internalType": "uint256",
          "name": "needed",
          "type": "uint256"
        }
      ],
      "name": "ERC20InsufficientAllowance",
      "type": "error"
    },
    {
      "inputs": [
        {
          "internalType": "address",
          "name": "sender",
          "type": "address"
        },
        {
          "internalType": "uint256",
          "name": "balance",
          "type": "uint256"
        },
        {
          "internalType": "uint256",
          "name": "needed",
          "type": "uint256"
        }
      ],
      "name": "ERC20InsufficientBalance",
      "type": "error"
    },
    {
      "inputs": [
        {
          "internalType": "address",
          "name": "approver",
          "type": "address"
        }
      ],
      "name": "ERC20InvalidApprover",
      "type": "error"
    },
    {
      "inputs": [
        {
          "internalType": "address",
          "name": "receiver",
          "type": "address"
        }
      ],
      "name": "ERC20InvalidReceiver",
      "type": "error"
    },
    {
      "inputs": [
        {
          "internalType": "address",
          "name": "sender",
          "type": "address"
        }
      ],
      "name": "ERC20InvalidSender",
      "type": "error"
    },
    {
      "inputs": [
        {
          "internalType": "address",
          "name": "spender",
          "type": "address"
        }
      ],
      "name": "ERC20InvalidSpender",
      "type": "error"
    },
    {
      "anonymous": false,
      "inputs": [
        {
          "indexed": true,
          "internalType": "address",
          "name": "owner",
          "type": "address"
        },
        {
          "indexed": true,
          "internalType": "address",
          "name": "spender",
          "type": "address"
        },
        {
          "indexed": false,
          "internalType": "uint256",
          "name": "value",
          "type": "uint256"
        }
      ],
      "name": "Approval",
      "type": "event"
    },
    {
      "anonymous": false,
      "inputs": [
        {
          "indexed": true,
          "internalType": "address",
          "name": "from",
          "type": "address"
        },
        {
          "indexed": true,
          "internalType": "address",
          "name": "to",
          "type": "address"
        },
        {
          "indexed": false,
          "internalType": "uint256",
          "name": "value",
          "type": "uint256"
        }
      ],
      "name": "Transfer",
      "type": "event"
    },
    {
      "inputs": [
        {
          "internalType": "address",
          "name": "owner",
          "type": "address"
        },
        {
          "internalType": "address",
          "name": "spender",
          "type": "address"
        }
      ],
      "name": "allowance",
      "outputs": [
        {
          "internalType": "uint256",
          "name": "",
          "type": "uint256"
        }
      ],
      "stateMutability": "view",
      "type": "function"
    },
    {
      "inputs": [
        {
          "internalType": "address",
          "name": "spender",
          "type": "address"
        },
        {
          "internalType": "uint256",
          "name": "value",
          "type": "uint256"
        }
      ],
      "name": "approve",
      "outputs": [
        {
          "internalType": "bool",
          "name": "",
          "type": "bool"
        }
      ],
      "stateMutability": "nonpayable",
      "type": "function"
    },
    {
      "inputs": [
        {
          "internalType": "address",
          "name": "account",
          "type": "address"
        }
      ],
      "name": "balanceOf",
      "outputs": [
        {
          "internalType": "uint256",
          "name": "",
          "type": "uint256"
        }
      ],
      "stateMutability": "view",
      "type": "function"
    },
    {
      "inputs": [],
      "name": "decimals",
      "outputs": [
        {
          "internalType": "uint8",
          "name": "",
          "type": "uint8"
        }
      ],
      "stateMutability": "view",
      "type": "function"
    },
    {
      "inputs": [],
      "name": "name",
      "outputs": [
        {
          "internalType": "string",
          "name": "",
          "type": "string"
        }
      ],
      "stateMutability": "view",
      "type": "function"
    },
    {
      "inputs": [
        {
          "internalType": "address",
          "name": "to",
          "type": "address"
        },
        {
          "internalType": "uint256",
          "name": "amount",
          "type": "uint256"
        }
      ],
      "name": "setBalance",
      "outputs": [],
      "stateMutability": "nonpayable",
      "type": "function"
    },
    {
      "inputs": [],
      "name": "symbol",
      "outputs": [
        {
          "internalType": "string",
          "name": "",
          "type": "string"
        }
      ],
      "stateMutability": "view",
      "type": "function"
    },
    {
      "inputs": [],
      "name": "totalSupply",
      "outputs": [
        {
          "internalType": "uint256",
          "name": "",
          "type": "uint256"
        }
      ],
      "stateMutability": "view",
      "type": "function"
    },
    {
      "inputs": [
        {
          "internalType": "address",
          "name": "to",
          "type": "address"
        },
        {
          "internalType": "uint256",
          "name": "value",
          "type": "uint256"
        }
      ],
      "name": "transfer",
      "outputs": [
        {
          "internalType": "bool",
          "name": "",
          "type": "bool"
        }
      ],
      "stateMutability": "nonpayable",
      "type": "function"
    },
    {
      "inputs": [
        {
          "internalType": "address",
          "name": "from",
          "type": "address"
        },
        {
          "internalType": "address",
          "name": "to",
          "type": "address"
        },
        {
          "internalType": "uint256",
          "name": "value",
          "type": "uint256"
        }
      ],
      "name": "transferFrom",
      "outputs": [
        {
          "internalType": "bool",
          "name": "",
          "type": "bool"
        }
      ],
      "stateMutability": "nonpayable",
      "type": "function"
    }
  ],
  "bytecode": "0x60806040523480156200001157600080fd5b5060405162000ffe38038062000ffe83398101604081905262000034916200033e565b828260036200004483826200043f565b5060046200005382826200043f565b5050506200006833826200007160201b60201c565b50505062000553565b6001600160a01b03821660009081526020819052604090205481811015620000af57620000aa83620000a4838562000521565b620000cf565b505050565b81811115620000aa57620000aa83620000c9848462000521565b62000111565b6001600160a01b038216620000ff5760405163ec442f0560e01b8152600060048201526024015b60405180910390fd5b6200010d6000838362000146565b5050565b6001600160a01b0382166200013d57604051634b637e8f60e11b815260006004820152602401620000f6565b6200010d826000835b6001600160a01b038316620001755780600260008282546200016991906200053d565b90915550620001e99050565b6001600160a01b03831660009081526020819052604090205481811015620001ca5760405163391434e360e21b81526001600160a01b03851660048201526024810182905260448101839052606401620000f6565b6001600160a01b03841660009081526020819052604090209082900390555b6001600160a01b038216620002075760028054829003905562000226565b6001600160a01b03821660009081526020819052604090208054820190555b816001600160a01b0316836001600160a01b03167fddf252ad1be2c89b69c2b068fc378daa952ba7f163c4a11628f55a4df523b3ef836040516200026c91815260200190565b60405180910390a3505050565b634e487b7160e01b600052604160045260246000fd5b600082601f830112620002a157600080fd5b81516001600160401b0380821115620002be57620002be62000279565b604051601f8301601f19908116603f01168101908282118183101715620002e957620002e962000279565b816040528381526020925086838588010111156200030657600080fd5b600091505b838210156200032a57858201830151818301840152908201906200030b565b600093810190920192909252949350505050565b6000806000606084860312156200035457600080fd5b83516001600160401b03808211156200036c57600080fd5b6200037a878388016200028f565b945060208601519150808211156200039157600080fd5b50620003a0868287016200028f565b925050604084015190509250925092565b600181811c90821680620003c657607f821691505b602082108103620003e757634e487b7160e01b600052602260045260246000fd5b50919050565b601f821115620000aa57600081815260208120601f850160051c81016020861015620004165750805b601f850160051c820191505b81811015620004375782815560010162000422565b505050505050565b81516001600160401b038111156200045b576200045b62000279565b62000473816200046c8454620003b1565b84620003ed565b602080601f831160018114620004ab5760008415620004925750858301515b600019600386901b1c1916600185901b17855562000437565b600085815260208120601f198616915b82811015620004dc57888601518255948401946001909101908401620004bb565b5085821015620004fb5787850151600019600388901b60f8161c191681555b5050505050600190811b01905550565b634e487b7160e01b600052601160045260246000fd5b818103818111156200053757620005376200050b565b92915050565b808201808211156200053757620005376200050b565b610a9b80620005636000396000f3fe608060405234801561001057600080fd5b50600436106100be5760003560e01c806370a0823111610076578063a9059cbb1161005b578063a9059cbb14610176578063dd62ed3e14610189578063e30443bc146101cf57600080fd5b806370a082311461013857806395d89b411461016e57600080fd5b806318160ddd116100a757806318160ddd1461010457806323b872dd14610116578063313ce5671461012957600080fd5b806306fdde03146100c3578063095ea7b3146100e1575b600080fd5b6100cb6101e4565b6040516100d8919061086d565b60405180910390f35b6100f46100ef366004610902565b610276565b60405190151581526020016100d8565b6002545b6040519081526020016100d8565b6100f461012436600461092c565b610290565b604051601281526020016100d8565b610108610146366004610968565b73ffffffffffffffffffffffffffffffffffffffff1660009081526020819052604090205490565b6100cb6102b4565b6100f4610184366004610902565b6102c3565b61010861019736600461098a565b73ffffffffffffffffffffffffffffffffffffffff918216600090815260016020908152604080832093909416825291909152205490565b6101e26101dd366004610902565b6102d1565b005b6060600380546101f3906109bd565b80601f016020809104026020016040519081016040528092919081815260200182805461021f906109bd565b801561026c5780601f106102415761010080835404028352916020019161026c565b820191906000526020600020905b81548152906001019060200180831161024f57829003601f168201915b5050505050905090565b600033610284818585610332565b60019150505b92915050565b60003361029e85828561033f565b6102a9858585610413565b506001949350505050565b6060600480546101f3906109bd565b600033610284818585610413565b73ffffffffffffffffffffffffffffffffffffffff821660009081526020819052604090205481811015610317576103128361030d8385610a3f565b6104be565b505050565b81811115610312576103128361032d8484610a3f565b61051e565b610312838383600161057a565b73ffffffffffffffffffffffffffffffffffffffff8381166000908152600160209081526040808320938616835292905220547fffffffffffffffffffffffffffffffffffffffffffffffffffffffffffffffff811461040d57818110156103fe576040517ffb8f41b200000000000000000000000000000000000000000000000000000000815273ffffffffffffffffffffffffffffffffffffffff8416600482015260248101829052604481018390526064015b60405180910390fd5b61040d8484848403600061057a565b50505050565b73ffffffffffffffffffffffffffffffffffffffff8316610463576040517f96c6fd1e000000000000000000000000000000000000000000000000000000008152600060048201526024016103f5565b73ffffffffffffffffffffffffffffffffffffffff82166104b3576040517fec442f05000000000000000000000000000000000000000000000000000000008152600060048201526024016103f5565b6103128383836106c2565b73ffffffffffffffffffffffffffffffffffffffff821661050e576040517fec442f05000000000000000000000000000000000000000000000000000000008152600060048201526024016103f5565b61051a600083836106c2565b5050565b73ffffffffffffffffffffffffffffffffffffffff821661056e576040517f96c6fd1e000000000000000000000000000000000000000000000000000000008152600060048201526024016103f5565b61051a826000836106c2565b73ffffffffffffffffffffffffffffffffffffffff84166105ca576040517fe602df05000000000000000000000000000000000000000000000000000000008152600060048201526024016103f5565b73ffffffffffffffffffffffffffffffffffffffff831661061a576040517f94280d62000000000000000000000000000000000000000000000000000000008152600060048201526024016103f5565b73ffffffffffffffffffffffffffffffffffffffff8085166000908152600160209081526040808320938716835292905220829055801561040d578273ffffffffffffffffffffffffffffffffffffffff168473ffffffffffffffffffffffffffffffffffffffff167f8c5be1e5ebec7d5bd14f71427d1e84f3dd0314c0f7b2291e5b200ac8c7c3b925846040516106b491815260200190565b60405180910390a350505050565b73ffffffffffffffffffffffffffffffffffffffff83166106fa5780600260008282546106ef9190610a52565b909155506107ac9050565b73ffffffffffffffffffffffffffffffffffffffff831660009081526020819052604090205481811015610780576040517fe450d38c00000000000000000000000000000000000000000000000000000000815273ffffffffffffffffffffffffffffffffffffffff8516600482015260248101829052604481018390526064016103f5565b73ffffffffffffffffffffffffffffffffffffffff841660009081526020819052604090209082900390555b73ffffffffffffffffffffffffffffffffffffffff82166107d557600280548290039055610801565b73ffffffffffffffffffffffffffffffffffffffff821660009081526020819052604090208054820190555b8173ffffffffffffffffffffffffffffffffffffffff168373ffffffffffffffffffffffffffffffffffffffff167fddf252ad1be2c89b69c2b068fc378daa952ba7f163c4a11628f55a4df523b3ef8360405161086091815260200190565b60405180910390a3505050565b600060208083528351808285015260005b8181101561089a5785810183015185820160400152820161087e565b5060006040828601015260407fffffffffffffffffffffffffffffffffffffffffffffffffffffffffffffffe0601f8301168501019250505092915050565b803573ffffffffffffffffffffffffffffffffffffffff811681146108fd57600080fd5b919050565b6000806040838503121561091557600080fd5b61091e836108d9565b946020939093013593505050565b60008060006060848603121561094157600080fd5b61094a846108d9565b9250610958602085016108d9565b9150604084013590509250925092565b60006020828403121561097a57600080fd5b610983826108d9565b9392505050565b6000806040838503121561099d57600080fd5b6109a6836108d9565b91506109b4602084016108d9565b90509250929050565b600181811c908216806109d157607f821691505b602082108103610a0a577f4e487b7100000000000000000000000000000000000000000000000000000000600052602260045260246000fd5b50919050565b7f4e487b7100000000000000000000000000000000000000000000000000000000600052601160045260246000fd5b8181038181111561028a5761028a610a10565b8082018082111561028a5761028a610a1056fea2646970667358221220a6711a59bfb37542c3e619a076f7b0208d08cd7ad03f749bbd39810cc7b1ecde64736f6c63430008140033",
  "linkReferences": {},
  "deployedLinkReferences": {}
}