{
  "_format": "hh-sol-artifact-1",
  "contractName": "TestERC20",
  "sourceName": "contracts/test/TestERC20.sol",
  "abi": [
    {
      "inputs": [
        {
          "internalType": "string",
          "name": "name_",
          "type": "string"
        },
        {
          "internalType": "string",
          "name": "symbol_",
          "type": "string"
        },
        {
          "internalType": "uint256",
          "name": "amountToMint",
          "type": "uint256"
        }
      ],
      "stateMutability": "nonpayable",
      "type": "constructor"
    },
    {
      "anonymous": false,
      "inputs": [
        {
          "indexed": true,
          "internalType": "address",
          "name": "owner",
          "type": "address"
        },
        {
          "indexed": true,
          "internalType": "address",
          "name": "spender",
          "type": "address"
        },
        {
          "indexed": false,
          "internalType": "uint256",
          "name": "value",
          "type": "uint256"
        }
      ],
      "name": "Approval",
      "type": "event"
    },
    {
      "anonymous": false,
      "inputs": [
        {
          "indexed": true,
          "internalType": "address",
          "name": "from",
          "type": "address"
        },
        {
          "indexed": true,
          "internalType": "address",
          "name": "to",
          "type": "address"
        },
        {
          "indexed": false,
          "internalType": "uint256",
          "name": "value",
          "type": "uint256"
        }
      ],
      "name": "Transfer",
      "type": "event"
    },
    {
      "inputs": [
        {
          "internalType": "address",
          "name": "owner",
          "type": "address"
        },
        {
          "internalType": "address",
          "name": "spender",
          "type": "address"
        }
      ],
      "name": "allowance",
      "outputs": [
        {
          "internalType": "uint256",
          "name": "",
          "type": "uint256"
        }
      ],
      "stateMutability": "view",
      "type": "function"
    },
    {
      "inputs": [
        {
          "internalType": "address",
          "name": "spender",
          "type": "address"
        },
        {
          "internalType": "uint256",
          "name": "amount",
          "type": "uint256"
        }
      ],
      "name": "approve",
      "outputs": [
        {
          "internalType": "bool",
          "name": "",
          "type": "bool"
        }
      ],
      "stateMutability": "nonpayable",
      "type": "function"
    },
    {
      "inputs": [
        {
          "internalType": "address",
          "name": "account",
          "type": "address"
        }
      ],
      "name": "balanceOf",
      "outputs": [
        {
          "internalType": "uint256",
          "name": "",
          "type": "uint256"
        }
      ],
      "stateMutability": "view",
      "type": "function"
    },
    {
      "inputs": [],
      "name": "decimals",
      "outputs": [
        {
          "internalType": "uint8",
          "name": "",
          "type": "uint8"
        }
      ],
      "stateMutability": "view",
      "type": "function"
    },
    {
      "inputs": [
        {
          "internalType": "address",
          "name": "spender",
          "type": "address"
        },
        {
          "internalType": "uint256",
          "name": "subtractedValue",
          "type": "uint256"
        }
      ],
      "name": "decreaseAllowance",
      "outputs": [
        {
          "internalType": "bool",
          "name": "",
          "type": "bool"
        }
      ],
      "stateMutability": "nonpayable",
      "type": "function"
    },
    {
      "inputs": [
        {
          "internalType": "address",
          "name": "spender",
          "type": "address"
        },
        {
          "internalType": "uint256",
          "name": "addedValue",
          "type": "uint256"
        }
      ],
      "name": "increaseAllowance",
      "outputs": [
        {
          "internalType": "bool",
          "name": "",
          "type": "bool"
        }
      ],
      "stateMutability": "nonpayable",
      "type": "function"
    },
    {
      "inputs": [],
      "name": "name",
      "outputs": [
        {
          "internalType": "string",
          "name": "",
          "type": "string"
        }
      ],
      "stateMutability": "view",
      "type": "function"
    },
    {
      "inputs": [
        {
          "internalType": "address",
          "name": "to",
          "type": "address"
        },
        {
          "internalType": "uint256",
          "name": "amount",
          "type": "uint256"
        }
      ],
      "name": "setBalance",
      "outputs": [],
      "stateMutability": "nonpayable",
      "type": "function"
    },
    {
      "inputs": [],
      "name": "symbol",
      "outputs": [
        {
          "internalType": "string",
          "name": "",
          "type": "string"
        }
      ],
      "stateMutability": "view",
      "type": "function"
    },
    {
      "inputs": [],
      "name": "totalSupply",
      "outputs": [
        {
          "internalType": "uint256",
          "name": "",
          "type": "uint256"
        }
      ],
      "stateMutability": "view",
      "type": "function"
    },
    {
      "inputs": [
        {
          "internalType": "address",
          "name": "to",
          "type": "address"
        },
        {
          "internalType": "uint256",
          "name": "amount",
          "type": "uint256"
        }
      ],
      "name": "transfer",
      "outputs": [
        {
          "internalType": "bool",
          "name": "",
          "type": "bool"
        }
      ],
      "stateMutability": "nonpayable",
      "type": "function"
    },
    {
      "inputs": [
        {
          "internalType": "address",
          "name": "from",
          "type": "address"
        },
        {
          "internalType": "address",
          "name": "to",
          "type": "address"
        },
        {
          "internalType": "uint256",
          "name": "amount",
          "type": "uint256"
        }
      ],
      "name": "transferFrom",
      "outputs": [
        {
          "internalType": "bool",
          "name": "",
          "type": "bool"
        }
      ],
      "stateMutability": "nonpayable",
      "type": "function"
    }
  ],
  "bytecode": "0x60806040523480156200001157600080fd5b50604051620011c8380380620011c883398101604081905262000034916200037e565b828260036200004483826200047f565b5060046200005382826200047f565b5050506200006833826200007160201b60201c565b50505062000593565b6001600160a01b03821660009081526020819052604090205481811015620000af57620000aa83620000a4838562000561565b620000cf565b505050565b81811115620000aa57620000aa83620000c9848462000561565b62000185565b6001600160a01b0382166200012b5760405162461bcd60e51b815260206004820152601f60248201527f45524332303a206d696e7420746f20746865207a65726f20616464726573730060448201526064015b60405180910390fd5b80600260008282546200013f91906200057d565b90915550506001600160a01b03821660008181526020818152604080832080548601905551848152600080516020620011a8833981519152910160405180910390a35050565b6001600160a01b038216620001e75760405162461bcd60e51b815260206004820152602160248201527f45524332303a206275726e2066726f6d20746865207a65726f206164647265736044820152607360f81b606482015260840162000122565b6001600160a01b038216600090815260208190526040902054818110156200025d5760405162461bcd60e51b815260206004820152602260248201527f45524332303a206275726e20616d6f756e7420657863656564732062616c616e604482015261636560f01b606482015260840162000122565b6001600160a01b038316600081815260208181526040808320868603905560028054879003905551858152919291600080516020620011a8833981519152910160405180910390a3620000aa836000846001600160e01b038416565b634e487b7160e01b600052604160045260246000fd5b600082601f830112620002e157600080fd5b81516001600160401b0380821115620002fe57620002fe620002b9565b604051601f8301601f19908116603f01168101908282118183101715620003295762000329620002b9565b816040528381526020925086838588010111156200034657600080fd5b600091505b838210156200036a57858201830151818301840152908201906200034b565b600093810190920192909252949350505050565b6000806000606084860312156200039457600080fd5b83516001600160401b0380821115620003ac57600080fd5b620003ba87838801620002cf565b94506020860151915080821115620003d157600080fd5b50620003e086828701620002cf565b925050604084015190509250925092565b600181811c908216806200040657607f821691505b6020821081036200042757634e487b7160e01b600052602260045260246000fd5b50919050565b601f821115620000aa57600081815260208120601f850160051c81016020861015620004565750805b601f850160051c820191505b81811015620004775782815560010162000462565b505050505050565b81516001600160401b038111156200049b576200049b620002b9565b620004b381620004ac8454620003f1565b846200042d565b602080601f831160018114620004eb5760008415620004d25750858301515b600019600386901b1c1916600185901b17855562000477565b600085815260208120601f198616915b828110156200051c57888601518255948401946001909101908401620004fb565b50858210156200053b5787850151600019600388901b60f8161c191681555b5050505050600190811b01905550565b634e487b7160e01b600052601160045260246000fd5b818103818111156200057757620005776200054b565b92915050565b808201808211156200057757620005776200054b565b610c0580620005a36000396000f3fe608060405234801561001057600080fd5b50600436106100d45760003560e01c806370a0823111610081578063a9059cbb1161005b578063a9059cbb146101a5578063dd62ed3e146101b8578063e30443bc146101f157600080fd5b806370a082311461016157806395d89b411461018a578063a457c2d71461019257600080fd5b806323b872dd116100b257806323b872dd1461012c578063313ce5671461013f578063395093511461014e57600080fd5b806306fdde03146100d9578063095ea7b3146100f757806318160ddd1461011a575b600080fd5b6100e1610206565b6040516100ee9190610a34565b60405180910390f35b61010a610105366004610a9e565b610298565b60405190151581526020016100ee565b6002545b6040519081526020016100ee565b61010a61013a366004610ac8565b6102b2565b604051601281526020016100ee565b61010a61015c366004610a9e565b6102d6565b61011e61016f366004610b04565b6001600160a01b031660009081526020819052604090205490565b6100e1610315565b61010a6101a0366004610a9e565b610324565b61010a6101b3366004610a9e565b6103d3565b61011e6101c6366004610b26565b6001600160a01b03918216600090815260016020908152604080832093909416825291909152205490565b6102046101ff366004610a9e565b6103e1565b005b60606003805461021590610b59565b80601f016020809104026020016040519081016040528092919081815260200182805461024190610b59565b801561028e5780601f106102635761010080835404028352916020019161028e565b820191906000526020600020905b81548152906001019060200180831161027157829003601f168201915b5050505050905090565b6000336102a6818585610435565b60019150505b92915050565b6000336102c085828561058d565b6102cb85858561061f565b506001949350505050565b3360008181526001602090815260408083206001600160a01b03871684529091528120549091906102a69082908690610310908790610ba9565b610435565b60606004805461021590610b59565b3360008181526001602090815260408083206001600160a01b0387168452909152812054909190838110156103c65760405162461bcd60e51b815260206004820152602560248201527f45524332303a2064656372656173656420616c6c6f77616e63652062656c6f7760448201527f207a65726f00000000000000000000000000000000000000000000000000000060648201526084015b60405180910390fd5b6102cb8286868403610435565b6000336102a681858561061f565b6001600160a01b0382166000908152602081905260409020548181101561041a57610415836104108385610bbc565b61080c565b505050565b8181111561041557610415836104308484610bbc565b6108cb565b6001600160a01b0383166104b05760405162461bcd60e51b8152602060048201526024808201527f45524332303a20617070726f76652066726f6d20746865207a65726f2061646460448201527f726573730000000000000000000000000000000000000000000000000000000060648201526084016103bd565b6001600160a01b03821661052c5760405162461bcd60e51b815260206004820152602260248201527f45524332303a20617070726f766520746f20746865207a65726f20616464726560448201527f737300000000000000000000000000000000000000000000000000000000000060648201526084016103bd565b6001600160a01b0383811660008181526001602090815260408083209487168084529482529182902085905590518481527f8c5be1e5ebec7d5bd14f71427d1e84f3dd0314c0f7b2291e5b200ac8c7c3b925910160405180910390a3505050565b6001600160a01b038381166000908152600160209081526040808320938616835292905220546000198114610619578181101561060c5760405162461bcd60e51b815260206004820152601d60248201527f45524332303a20696e73756666696369656e7420616c6c6f77616e636500000060448201526064016103bd565b6106198484848403610435565b50505050565b6001600160a01b03831661069b5760405162461bcd60e51b815260206004820152602560248201527f45524332303a207472616e736665722066726f6d20746865207a65726f20616460448201527f647265737300000000000000000000000000000000000000000000000000000060648201526084016103bd565b6001600160a01b0382166107175760405162461bcd60e51b815260206004820152602360248201527f45524332303a207472616e7366657220746f20746865207a65726f206164647260448201527f657373000000000000000000000000000000000000000000000000000000000060648201526084016103bd565b6001600160a01b038316600090815260208190526040902054818110156107a65760405162461bcd60e51b815260206004820152602660248201527f45524332303a207472616e7366657220616d6f756e742065786365656473206260448201527f616c616e6365000000000000000000000000000000000000000000000000000060648201526084016103bd565b6001600160a01b03848116600081815260208181526040808320878703905593871680835291849020805487019055925185815290927fddf252ad1be2c89b69c2b068fc378daa952ba7f163c4a11628f55a4df523b3ef910160405180910390a3610619565b6001600160a01b0382166108625760405162461bcd60e51b815260206004820152601f60248201527f45524332303a206d696e7420746f20746865207a65726f20616464726573730060448201526064016103bd565b80600260008282546108749190610ba9565b90915550506001600160a01b038216600081815260208181526040808320805486019055518481527fddf252ad1be2c89b69c2b068fc378daa952ba7f163c4a11628f55a4df523b3ef910160405180910390a35050565b6001600160a01b0382166109475760405162461bcd60e51b815260206004820152602160248201527f45524332303a206275726e2066726f6d20746865207a65726f2061646472657360448201527f730000000000000000000000000000000000000000000000000000000000000060648201526084016103bd565b6001600160a01b038216600090815260208190526040902054818110156109d65760405162461bcd60e51b815260206004820152602260248201527f45524332303a206275726e20616d6f756e7420657863656564732062616c616e60448201527f636500000000000000000000000000000000000000000000000000000000000060648201526084016103bd565b6001600160a01b0383166000818152602081815260408083208686039055600280548790039055518581529192917fddf252ad1be2c89b69c2b068fc378daa952ba7f163c4a11628f55a4df523b3ef910160405180910390a3505050565b600060208083528351808285015260005b81811015610a6157858101830151858201604001528201610a45565b506000604082860101526040601f19601f8301168501019250505092915050565b80356001600160a01b0381168114610a9957600080fd5b919050565b60008060408385031215610ab157600080fd5b610aba83610a82565b946020939093013593505050565b600080600060608486031215610add57600080fd5b610ae684610a82565b9250610af460208501610a82565b9150604084013590509250925092565b600060208284031215610b1657600080fd5b610b1f82610a82565b9392505050565b60008060408385031215610b3957600080fd5b610b4283610a82565b9150610b5060208401610a82565b90509250929050565b600181811c90821680610b6d57607f821691505b602082108103610b8d57634e487b7160e01b600052602260045260246000fd5b50919050565b634e487b7160e01b600052601160045260246000fd5b808201808211156102ac576102ac610b93565b818103818111156102ac576102ac610b9356fea264697066735822122065853fa9dfd15303139ff3e6852a554a6e64f228e7e8c9cbad68190f58791b8764736f6c63430008110033ddf252ad1be2c89b69c2b068fc378daa952ba7f163c4a11628f55a4df523b3ef",
  "linkReferences": {},
  "deployedLinkReferences": {}
}