{
  "_format": "hh-sol-artifact-1",
  "contractName": "MerkleAirdrop",
  "sourceName": "contracts/MerkleAirdrop.sol",
  "abi": [
    {
      "inputs": [],
      "name": "AlreadyClaimed",
      "type": "error"
    },
    {
      "inputs": [],
      "name": "InvalidProof",
      "type": "error"
    },
    {
      "anonymous": false,
      "inputs": [
        {
          "indexed": false,
          "internalType": "string",
          "name": "name",
          "type": "string"
        },
        {
          "indexed": false,
          "internalType": "uint256",
          "name": "index",
          "type": "uint256"
        },
        {
          "indexed": false,
          "internalType": "address",
          "name": "account",
          "type": "address"
        },
        {
          "indexed": false,
          "internalType": "uint256",
          "name": "amount",
          "type": "uint256"
        }
      ],
      "name": "Claimed",
      "type": "event"
    },
    {
      "inputs": [
        {
          "internalType": "string",
          "name": "name",
          "type": "string"
        },
        {
          "internalType": "uint256",
          "name": "amount",
          "type": "uint256"
        }
      ],
      "name": "addAirdropTokenAmount",
      "outputs": [],
      "stateMutability": "nonpayable",
      "type": "function"
    },
    {
      "inputs": [
        {
          "internalType": "string",
          "name": "name",
          "type": "string"
        },
        {
          "internalType": "uint256",
          "name": "index",
          "type": "uint256"
        },
        {
          "internalType": "address",
          "name": "account",
          "type": "address"
        },
        {
          "internalType": "uint256",
          "name": "amount",
          "type": "uint256"
        },
        {
          "internalType": "bytes32[]",
          "name": "merkleProof",
          "type": "bytes32[]"
        }
      ],
      "name": "claim",
      "outputs": [],
      "stateMutability": "nonpayable",
      "type": "function"
    },
    {
      "inputs": [
        {
          "internalType": "string",
          "name": "name",
          "type": "string"
        }
      ],
      "name": "getAirdropInfo",
      "outputs": [
        {
          "components": [
            {
              "internalType": "address",
              "name": "token",
              "type": "address"
            },
            {
              "internalType": "uint256",
              "name": "depositedAmount",
              "type": "uint256"
            },
            {
              "internalType": "uint256",
              "name": "stockAmount",
              "type": "uint256"
            },
            {
              "internalType": "bytes32",
              "name": "merkleRoot",
              "type": "bytes32"
            },
            {
              "internalType": "address",
              "name": "owner",
              "type": "address"
            }
          ],
          "internalType": "struct MerkleAirdrop.airdopInfo",
          "name": "",
          "type": "tuple"
        }
      ],
      "stateMutability": "view",
      "type": "function"
    },
    {
      "inputs": [
        {
          "internalType": "string",
          "name": "name",
          "type": "string"
        }
      ],
      "name": "isAirdropInfoExists",
      "outputs": [
        {
          "internalType": "bool",
          "name": "",
          "type": "bool"
        }
      ],
      "stateMutability": "view",
      "type": "function"
    },
    {
      "inputs": [
        {
          "internalType": "string",
          "name": "name",
          "type": "string"
        },
        {
          "internalType": "uint256",
          "name": "index",
          "type": "uint256"
        }
      ],
      "name": "isClaimed",
      "outputs": [
        {
          "internalType": "bool",
          "name": "",
          "type": "bool"
        }
      ],
      "stateMutability": "view",
      "type": "function"
    },
    {
      "inputs": [
        {
          "internalType": "string",
          "name": "name",
          "type": "string"
        },
        {
          "internalType": "address",
          "name": "token",
          "type": "address"
        },
        {
          "internalType": "uint256",
          "name": "depositedAmount",
          "type": "uint256"
        },
        {
          "internalType": "bytes32",
          "name": "merkleRoot",
          "type": "bytes32"
        },
        {
          "internalType": "address",
          "name": "owner",
          "type": "address"
        }
      ],
      "name": "registAirdropInfo",
      "outputs": [],
      "stateMutability": "nonpayable",
      "type": "function"
    },
    {
      "inputs": [
        {
          "internalType": "string",
          "name": "name",
          "type": "string"
        }
      ],
      "name": "withdrawUnclaimedToken",
      "outputs": [],
      "stateMutability": "nonpayable",
      "type": "function"
    }
  ],
  "bytecode": "0x608060405234801561001057600080fd5b5061227e806100206000396000f3fe608060405234801561001057600080fd5b506004361061007d5760003560e01c806331c70d0d1161005b57806331c70d0d146100fe578063c260a0411461011a578063cc147c0314610136578063d9f88ca8146101665761007d565b8063103753e31461008257806328454c331461009e5780632f8c69bc146100ce575b600080fd5b61009c6004803603810190610097919061154e565b610182565b005b6100b860048036038101906100b3919061154e565b610395565b6040516100c59190611672565b60405180910390f35b6100e860048036038101906100e391906116b9565b6104e1565b6040516100f59190611730565b60405180910390f35b610118600480360381019061011391906116b9565b61059f565b005b610134600480360381019061012f91906117a3565b61074f565b005b610150600480360381019061014b919061154e565b610ab9565b60405161015d9190611730565b60405180910390f35b610180600480360381019061017b919061189a565b610b33565b005b8061018c81610ab9565b6101cb576040517f08c379a00000000000000000000000000000000000000000000000000000000081526004016101c2906119ad565b60405180910390fd5b600080836040516101dc9190611a3e565b90815260200160405180910390206040518060a00160405290816000820160009054906101000a900473ffffffffffffffffffffffffffffffffffffffff1673ffffffffffffffffffffffffffffffffffffffff1673ffffffffffffffffffffffffffffffffffffffff1681526020016001820154815260200160028201548152602001600382015481526020016004820160009054906101000a900473ffffffffffffffffffffffffffffffffffffffff1673ffffffffffffffffffffffffffffffffffffffff1673ffffffffffffffffffffffffffffffffffffffff16815250509050806080015173ffffffffffffffffffffffffffffffffffffffff163373ffffffffffffffffffffffffffffffffffffffff1614610333576040517f08c379a000000000000000000000000000000000000000000000000000000000815260040161032a90611ac7565b60405180910390fd5b600080846040516103449190611a3e565b90815260200160405180910390206002018190555061039081608001518260400151836000015173ffffffffffffffffffffffffffffffffffffffff16610e679092919063ffffffff16565b505050565b61039d611396565b816103a781610ab9565b6103e6576040517f08c379a00000000000000000000000000000000000000000000000000000000081526004016103dd906119ad565b60405180910390fd5b6000836040516103f69190611a3e565b90815260200160405180910390206040518060a00160405290816000820160009054906101000a900473ffffffffffffffffffffffffffffffffffffffff1673ffffffffffffffffffffffffffffffffffffffff1673ffffffffffffffffffffffffffffffffffffffff1681526020016001820154815260200160028201548152602001600382015481526020016004820160009054906101000a900473ffffffffffffffffffffffffffffffffffffffff1673ffffffffffffffffffffffffffffffffffffffff1673ffffffffffffffffffffffffffffffffffffffff1681525050915050919050565b6000826104ed81610ab9565b61052c576040517f08c379a0000000000000000000000000000000000000000000000000000000008152600401610523906119ad565b60405180910390fd5b60006101008461053c9190611b45565b905060006101008561054e9190611b76565b905060006001876040516105629190611a3e565b908152602001604051809103902060008481526020019081526020016000205490506000826001901b905080818316149550505050505092915050565b816105a981610ab9565b6105e8576040517f08c379a00000000000000000000000000000000000000000000000000000000081526004016105df906119ad565b60405180910390fd5b600080846040516105f99190611a3e565b908152602001604051809103902060000160009054906101000a900473ffffffffffffffffffffffffffffffffffffffff1690508073ffffffffffffffffffffffffffffffffffffffff1663095ea7b330856040518363ffffffff1660e01b8152600401610668929190611bc5565b6020604051808303816000875af1158015610687573d6000803e3d6000fd5b505050506040513d601f19601f820116820180604052508101906106ab9190611c1a565b506106d93330858473ffffffffffffffffffffffffffffffffffffffff16610eed909392919063ffffffff16565b826000856040516106ea9190611a3e565b9081526020016040518091039020600101600082825461070a9190611c47565b92505081905550826000856040516107229190611a3e565b908152602001604051809103902060020160008282546107429190611c47565b9250508190555050505050565b600073ffffffffffffffffffffffffffffffffffffffff166000866040516107779190611a3e565b908152602001604051809103902060000160009054906101000a900473ffffffffffffffffffffffffffffffffffffffff1673ffffffffffffffffffffffffffffffffffffffff16146107ff576040517f08c379a00000000000000000000000000000000000000000000000000000000081526004016107f690611cc7565b60405180910390fd5b600073ffffffffffffffffffffffffffffffffffffffff168473ffffffffffffffffffffffffffffffffffffffff160361086e576040517f08c379a000000000000000000000000000000000000000000000000000000000815260040161086590611d33565b60405180910390fd5b600073ffffffffffffffffffffffffffffffffffffffff168173ffffffffffffffffffffffffffffffffffffffff16036108dd576040517f08c379a00000000000000000000000000000000000000000000000000000000081526004016108d490611d9f565b60405180910390fd5b60008314610992578373ffffffffffffffffffffffffffffffffffffffff1663095ea7b330856040518363ffffffff1660e01b8152600401610920929190611bc5565b6020604051808303816000875af115801561093f573d6000803e3d6000fd5b505050506040513d601f19601f820116820180604052508101906109639190611c1a565b506109913330858773ffffffffffffffffffffffffffffffffffffffff16610eed909392919063ffffffff16565b5b6040518060a001604052808573ffffffffffffffffffffffffffffffffffffffff1681526020018481526020018481526020018381526020018273ffffffffffffffffffffffffffffffffffffffff168152506000866040516109f59190611a3e565b908152602001604051809103902060008201518160000160006101000a81548173ffffffffffffffffffffffffffffffffffffffff021916908373ffffffffffffffffffffffffffffffffffffffff16021790555060208201518160010155604082015181600201556060820151816003015560808201518160040160006101000a81548173ffffffffffffffffffffffffffffffffffffffff021916908373ffffffffffffffffffffffffffffffffffffffff1602179055509050505050505050565b60008073ffffffffffffffffffffffffffffffffffffffff16600083604051610ae29190611a3e565b908152602001604051809103902060000160009054906101000a900473ffffffffffffffffffffffffffffffffffffffff1673ffffffffffffffffffffffffffffffffffffffff1614159050919050565b85610b3d81610ab9565b610b7c576040517f08c379a0000000000000000000000000000000000000000000000000000000008152600401610b73906119ad565b60405180910390fd5b60008088604051610b8d9190611a3e565b90815260200160405180910390206040518060a00160405290816000820160009054906101000a900473ffffffffffffffffffffffffffffffffffffffff1673ffffffffffffffffffffffffffffffffffffffff1673ffffffffffffffffffffffffffffffffffffffff1681526020016001820154815260200160028201548152602001600382015481526020016004820160009054906101000a900473ffffffffffffffffffffffffffffffffffffffff1673ffffffffffffffffffffffffffffffffffffffff1673ffffffffffffffffffffffffffffffffffffffff16815250509050610c7c88886104e1565b15610cb3576040517f646cf55800000000000000000000000000000000000000000000000000000000815260040160405180910390fd5b84816040015111610cf9576040517f08c379a0000000000000000000000000000000000000000000000000000000008152600401610cf090611e0b565b60405180910390fd5b6000878787604051602001610d1093929190611e94565b604051602081830303815290604052805190602001209050610d78858580806020026020016040519081016040528093929190818152602001838360200280828437600081840152601f19601f82011690508083019250505050505050836060015183610f76565b610dae576040517f09bde33900000000000000000000000000000000000000000000000000000000815260040160405180910390fd5b610db88989610f8d565b8560008a604051610dc99190611a3e565b90815260200160405180910390206002016000828254610de99190611ed1565b92505081905550610e1f8787846000015173ffffffffffffffffffffffffffffffffffffffff16610e679092919063ffffffff16565b7fba3da1667c595a76bd74dc91a32e960d97a2e334a303dddc6e550b1d7a4ba9df89898989604051610e549493929190611f3e565b60405180910390a1505050505050505050565b610ee88363a9059cbb60e01b8484604051602401610e86929190611bc5565b604051602081830303815290604052907bffffffffffffffffffffffffffffffffffffffffffffffffffffffff19166020820180517bffffffffffffffffffffffffffffffffffffffffffffffffffffffff838183161783525050505061106a565b505050565b610f70846323b872dd60e01b858585604051602401610f0e93929190611f8a565b604051602081830303815290604052907bffffffffffffffffffffffffffffffffffffffffffffffffffffffff19166020820180517bffffffffffffffffffffffffffffffffffffffffffffffffffffffff838183161783525050505061106a565b50505050565b600082610f838584611131565b1490509392505050565b81610f9781610ab9565b610fd6576040517f08c379a0000000000000000000000000000000000000000000000000000000008152600401610fcd906119ad565b60405180910390fd5b600061010083610fe69190611b45565b9050600061010084610ff89190611b76565b9050806001901b60018660405161100f9190611a3e565b9081526020016040518091039020600084815260200190815260200160002054176001866040516110409190611a3e565b90815260200160405180910390206000848152602001908152602001600020819055505050505050565b60006110cc826040518060400160405280602081526020017f5361666545524332303a206c6f772d6c6576656c2063616c6c206661696c65648152508573ffffffffffffffffffffffffffffffffffffffff166111879092919063ffffffff16565b905060008151111561112c57808060200190518101906110ec9190611c1a565b61112b576040517f08c379a000000000000000000000000000000000000000000000000000000000815260040161112290612033565b60405180910390fd5b5b505050565b60008082905060005b845181101561117c576111678286838151811061115a57611159612053565b5b602002602001015161119f565b9150808061117490612082565b91505061113a565b508091505092915050565b606061119684846000856111ca565b90509392505050565b60008183106111b7576111b28284611297565b6111c2565b6111c18383611297565b5b905092915050565b60608247101561120f576040517f08c379a00000000000000000000000000000000000000000000000000000000081526004016112069061213c565b60405180910390fd5b6000808673ffffffffffffffffffffffffffffffffffffffff16858760405161123891906121a3565b60006040518083038185875af1925050503d8060008114611275576040519150601f19603f3d011682016040523d82523d6000602084013e61127a565b606091505b509150915061128b878383876112ae565b92505050949350505050565b600082600052816020526040600020905092915050565b60608315611310576000835103611308576112c885611323565b611307576040517f08c379a00000000000000000000000000000000000000000000000000000000081526004016112fe90612206565b60405180910390fd5b5b82905061131b565b61131a8383611346565b5b949350505050565b6000808273ffffffffffffffffffffffffffffffffffffffff163b119050919050565b6000825111156113595781518083602001fd5b806040517f08c379a000000000000000000000000000000000000000000000000000000000815260040161138d9190612226565b60405180910390fd5b6040518060a00160405280600073ffffffffffffffffffffffffffffffffffffffff168152602001600081526020016000815260200160008019168152602001600073ffffffffffffffffffffffffffffffffffffffff1681525090565b6000604051905090565b600080fd5b600080fd5b600080fd5b600080fd5b6000601f19601f8301169050919050565b7f4e487b7100000000000000000000000000000000000000000000000000000000600052604160045260246000fd5b61145b82611412565b810181811067ffffffffffffffff8211171561147a57611479611423565b5b80604052505050565b600061148d6113f4565b90506114998282611452565b919050565b600067ffffffffffffffff8211156114b9576114b8611423565b5b6114c282611412565b9050602081019050919050565b82818337600083830152505050565b60006114f16114ec8461149e565b611483565b90508281526020810184848401111561150d5761150c61140d565b5b6115188482856114cf565b509392505050565b600082601f83011261153557611534611408565b5b81356115458482602086016114de565b91505092915050565b600060208284031215611564576115636113fe565b5b600082013567ffffffffffffffff81111561158257611581611403565b5b61158e84828501611520565b91505092915050565b600073ffffffffffffffffffffffffffffffffffffffff82169050919050565b60006115c282611597565b9050919050565b6115d2816115b7565b82525050565b6000819050919050565b6115eb816115d8565b82525050565b6000819050919050565b611604816115f1565b82525050565b60a08201600082015161162060008501826115c9565b50602082015161163360208501826115e2565b50604082015161164660408501826115e2565b50606082015161165960608501826115fb565b50608082015161166c60808501826115c9565b50505050565b600060a082019050611687600083018461160a565b92915050565b611696816115d8565b81146116a157600080fd5b50565b6000813590506116b38161168d565b92915050565b600080604083850312156116d0576116cf6113fe565b5b600083013567ffffffffffffffff8111156116ee576116ed611403565b5b6116fa85828601611520565b925050602061170b858286016116a4565b9150509250929050565b60008115159050919050565b61172a81611715565b82525050565b60006020820190506117456000830184611721565b92915050565b611754816115b7565b811461175f57600080fd5b50565b6000813590506117718161174b565b92915050565b611780816115f1565b811461178b57600080fd5b50565b60008135905061179d81611777565b92915050565b600080600080600060a086880312156117bf576117be6113fe565b5b600086013567ffffffffffffffff8111156117dd576117dc611403565b5b6117e988828901611520565b95505060206117fa88828901611762565b945050604061180b888289016116a4565b935050606061181c8882890161178e565b925050608061182d88828901611762565b9150509295509295909350565b600080fd5b600080fd5b60008083601f84011261185a57611859611408565b5b8235905067ffffffffffffffff8111156118775761187661183a565b5b6020830191508360208202830111156118935761189261183f565b5b9250929050565b60008060008060008060a087890312156118b7576118b66113fe565b5b600087013567ffffffffffffffff8111156118d5576118d4611403565b5b6118e189828a01611520565b96505060206118f289828a016116a4565b955050604061190389828a01611762565b945050606061191489828a016116a4565b935050608087013567ffffffffffffffff81111561193557611934611403565b5b61194189828a01611844565b92509250509295509295509295565b600082825260208201905092915050565b7f6e616d6520646f6573206e6f7420657869737473000000000000000000000000600082015250565b6000611997601483611950565b91506119a282611961565b602082019050919050565b600060208201905081810360008301526119c68161198a565b9050919050565b600081519050919050565b600081905092915050565b60005b83811015611a015780820151818401526020810190506119e6565b60008484015250505050565b6000611a18826119cd565b611a2281856119d8565b9350611a328185602086016119e3565b80840191505092915050565b6000611a4a8284611a0d565b915081905092915050565b7f4f6e6c79206f776e6572206f662041697264726f70496e666f2063616e20776960008201527f7468647261772e00000000000000000000000000000000000000000000000000602082015250565b6000611ab1602783611950565b9150611abc82611a55565b604082019050919050565b60006020820190508181036000830152611ae081611aa4565b9050919050565b7f4e487b7100000000000000000000000000000000000000000000000000000000600052601260045260246000fd5b7f4e487b7100000000000000000000000000000000000000000000000000000000600052601160045260246000fd5b6000611b50826115d8565b9150611b5b836115d8565b925082611b6b57611b6a611ae7565b5b828204905092915050565b6000611b81826115d8565b9150611b8c836115d8565b925082611b9c57611b9b611ae7565b5b828206905092915050565b611bb0816115b7565b82525050565b611bbf816115d8565b82525050565b6000604082019050611bda6000830185611ba7565b611be76020830184611bb6565b9392505050565b611bf781611715565b8114611c0257600080fd5b50565b600081519050611c1481611bee565b92915050565b600060208284031215611c3057611c2f6113fe565b5b6000611c3e84828501611c05565b91505092915050565b6000611c52826115d8565b9150611c5d836115d8565b9250828201905080821115611c7557611c74611b16565b5b92915050565b7f6e616d6520616c72656164792065786973747300000000000000000000000000600082015250565b6000611cb1601383611950565b9150611cbc82611c7b565b602082019050919050565b60006020820190508181036000830152611ce081611ca4565b9050919050565b7f746f6b656e2073686f756c64206e6f74206265207a65726f0000000000000000600082015250565b6000611d1d601883611950565b9150611d2882611ce7565b602082019050919050565b60006020820190508181036000830152611d4c81611d10565b9050919050565b7f6f776e65722073686f756c64206e6f74206265207a65726f0000000000000000600082015250565b6000611d89601883611950565b9150611d9482611d53565b602082019050919050565b60006020820190508181036000830152611db881611d7c565b9050919050565b7f546f6b656e20616d6f756e74206973206e6f7420656e6f7567682e0000000000600082015250565b6000611df5601b83611950565b9150611e0082611dbf565b602082019050919050565b60006020820190508181036000830152611e2481611de8565b9050919050565b6000819050919050565b611e46611e41826115d8565b611e2b565b82525050565b60008160601b9050919050565b6000611e6482611e4c565b9050919050565b6000611e7682611e59565b9050919050565b611e8e611e89826115b7565b611e6b565b82525050565b6000611ea08286611e35565b602082019150611eb08285611e7d565b601482019150611ec08284611e35565b602082019150819050949350505050565b6000611edc826115d8565b9150611ee7836115d8565b9250828203905081811115611eff57611efe611b16565b5b92915050565b6000611f10826119cd565b611f1a8185611950565b9350611f2a8185602086016119e3565b611f3381611412565b840191505092915050565b60006080820190508181036000830152611f588187611f05565b9050611f676020830186611bb6565b611f746040830185611ba7565b611f816060830184611bb6565b95945050505050565b6000606082019050611f9f6000830186611ba7565b611fac6020830185611ba7565b611fb96040830184611bb6565b949350505050565b7f5361666545524332303a204552433230206f7065726174696f6e20646964206e60008201527f6f74207375636365656400000000000000000000000000000000000000000000602082015250565b600061201d602a83611950565b915061202882611fc1565b604082019050919050565b6000602082019050818103600083015261204c81612010565b9050919050565b7f4e487b7100000000000000000000000000000000000000000000000000000000600052603260045260246000fd5b600061208d826115d8565b91507fffffffffffffffffffffffffffffffffffffffffffffffffffffffffffffffff82036120bf576120be611b16565b5b600182019050919050565b7f416464726573733a20696e73756666696369656e742062616c616e636520666f60008201527f722063616c6c0000000000000000000000000000000000000000000000000000602082015250565b6000612126602683611950565b9150612131826120ca565b604082019050919050565b6000602082019050818103600083015261215581612119565b9050919050565b600081519050919050565b600081905092915050565b600061217d8261215c565b6121878185612167565b93506121978185602086016119e3565b80840191505092915050565b60006121af8284612172565b915081905092915050565b7f416464726573733a2063616c6c20746f206e6f6e2d636f6e7472616374000000600082015250565b60006121f0601d83611950565b91506121fb826121ba565b602082019050919050565b6000602082019050818103600083015261221f816121e3565b9050919050565b600060208201905081810360008301526122408184611f05565b90509291505056fea26469706673582212203c5a3101a7b958c786f1f6f68e6996a5ccbaffe23f5d8a30f6a008b0134e1b9064736f6c63430008110033",
  "linkReferences": {},
  "deployedLinkReferences": {}
}