{
  "_format": "hh-sol-artifact-1",
  "contractName": "MerkleAirdrop",
  "sourceName": "contracts/MerkleAirdrop.sol",
  "abi": [
    {
      "inputs": [],
      "name": "AlreadyClaimed",
      "type": "error"
    },
    {
      "inputs": [],
      "name": "InvalidProof",
      "type": "error"
    },
    {
      "anonymous": false,
      "inputs": [
        {
          "indexed": false,
          "internalType": "string",
          "name": "name",
          "type": "string"
        },
        {
          "indexed": false,
          "internalType": "uint256",
          "name": "index",
          "type": "uint256"
        },
        {
          "indexed": false,
          "internalType": "address",
          "name": "account",
          "type": "address"
        },
        {
          "indexed": false,
          "internalType": "uint256",
          "name": "amount",
          "type": "uint256"
        }
      ],
      "name": "Claimed",
      "type": "event"
    },
    {
      "inputs": [
        {
          "internalType": "string",
          "name": "name",
          "type": "string"
        },
        {
          "internalType": "uint256",
          "name": "amount",
          "type": "uint256"
        }
      ],
      "name": "addAirdropTokenAmount",
      "outputs": [],
      "stateMutability": "nonpayable",
      "type": "function"
    },
    {
      "inputs": [
        {
          "internalType": "string",
          "name": "name",
          "type": "string"
        },
        {
          "internalType": "uint256",
          "name": "index",
          "type": "uint256"
        },
        {
          "internalType": "address",
          "name": "account",
          "type": "address"
        },
        {
          "internalType": "uint256",
          "name": "amount",
          "type": "uint256"
        },
        {
          "internalType": "bytes32[]",
          "name": "merkleProof",
          "type": "bytes32[]"
        }
      ],
      "name": "claim",
      "outputs": [],
      "stateMutability": "nonpayable",
      "type": "function"
    },
    {
      "inputs": [
        {
          "internalType": "string",
          "name": "name",
          "type": "string"
        }
      ],
      "name": "getAirdropInfo",
      "outputs": [
        {
          "components": [
            {
              "internalType": "address",
              "name": "token",
              "type": "address"
            },
            {
              "internalType": "uint256",
              "name": "depositedAmount",
              "type": "uint256"
            },
            {
              "internalType": "uint256",
              "name": "stockAmount",
              "type": "uint256"
            },
            {
              "internalType": "bytes32",
              "name": "merkleRoot",
              "type": "bytes32"
            },
            {
              "internalType": "address",
              "name": "owner",
              "type": "address"
            }
          ],
          "internalType": "struct MerkleAirdrop.airdopInfo",
          "name": "",
          "type": "tuple"
        }
      ],
      "stateMutability": "view",
      "type": "function"
    },
    {
      "inputs": [
        {
          "internalType": "string",
          "name": "name",
          "type": "string"
        },
        {
          "internalType": "uint256",
          "name": "index",
          "type": "uint256"
        }
      ],
      "name": "isClaimed",
      "outputs": [
        {
          "internalType": "bool",
          "name": "",
          "type": "bool"
        }
      ],
      "stateMutability": "view",
      "type": "function"
    },
    {
      "inputs": [
        {
          "internalType": "string",
          "name": "name",
          "type": "string"
        },
        {
          "internalType": "address",
          "name": "token",
          "type": "address"
        },
        {
          "internalType": "uint256",
          "name": "depositedAmount",
          "type": "uint256"
        },
        {
          "internalType": "bytes32",
          "name": "merkleRoot",
          "type": "bytes32"
        },
        {
          "internalType": "address",
          "name": "owner",
          "type": "address"
        }
      ],
      "name": "registAirdropInfo",
      "outputs": [],
      "stateMutability": "nonpayable",
      "type": "function"
    },
    {
      "inputs": [
        {
          "internalType": "string",
          "name": "name",
          "type": "string"
        }
      ],
      "name": "withdrawUnclaimedToken",
      "outputs": [],
      "stateMutability": "nonpayable",
      "type": "function"
    }
  ],
  "bytecode": "0x608060405234801561001057600080fd5b50612429806100206000396000f3fe608060405234801561001057600080fd5b50600436106100625760003560e01c8063103753e31461006757806328454c33146100835780632f8c69bc146100b357806331c70d0d146100e3578063c260a041146100ff578063d9f88ca81461011b575b600080fd5b610081600480360381019061007c91906116f9565b610137565b005b61009d600480360381019061009891906116f9565b6103b2565b6040516100aa919061181d565b60405180910390f35b6100cd60048036038101906100c89190611864565b610566565b6040516100da91906118db565b60405180910390f35b6100fd60048036038101906100f89190611864565b61068c565b005b6101196004803603810190610114919061194e565b6108a4565b005b61013560048036038101906101309190611a45565b610c0e565b005b80600073ffffffffffffffffffffffffffffffffffffffff166000826040516101609190611b6c565b908152602001604051809103902060000160009054906101000a900473ffffffffffffffffffffffffffffffffffffffff1673ffffffffffffffffffffffffffffffffffffffff16036101e8576040517f08c379a00000000000000000000000000000000000000000000000000000000081526004016101df90611be0565b60405180910390fd5b600080836040516101f99190611b6c565b90815260200160405180910390206040518060a00160405290816000820160009054906101000a900473ffffffffffffffffffffffffffffffffffffffff1673ffffffffffffffffffffffffffffffffffffffff1673ffffffffffffffffffffffffffffffffffffffff1681526020016001820154815260200160028201548152602001600382015481526020016004820160009054906101000a900473ffffffffffffffffffffffffffffffffffffffff1673ffffffffffffffffffffffffffffffffffffffff1673ffffffffffffffffffffffffffffffffffffffff16815250509050806080015173ffffffffffffffffffffffffffffffffffffffff163373ffffffffffffffffffffffffffffffffffffffff1614610350576040517f08c379a000000000000000000000000000000000000000000000000000000000815260040161034790611c72565b60405180910390fd5b600080846040516103619190611b6c565b9081526020016040518091039020600201819055506103ad81608001518260400151836000015173ffffffffffffffffffffffffffffffffffffffff16610faa9092919063ffffffff16565b505050565b6103ba611541565b81600073ffffffffffffffffffffffffffffffffffffffff166000826040516103e39190611b6c565b908152602001604051809103902060000160009054906101000a900473ffffffffffffffffffffffffffffffffffffffff1673ffffffffffffffffffffffffffffffffffffffff160361046b576040517f08c379a000000000000000000000000000000000000000000000000000000000815260040161046290611be0565b60405180910390fd5b60008360405161047b9190611b6c565b90815260200160405180910390206040518060a00160405290816000820160009054906101000a900473ffffffffffffffffffffffffffffffffffffffff1673ffffffffffffffffffffffffffffffffffffffff1673ffffffffffffffffffffffffffffffffffffffff1681526020016001820154815260200160028201548152602001600382015481526020016004820160009054906101000a900473ffffffffffffffffffffffffffffffffffffffff1673ffffffffffffffffffffffffffffffffffffffff1673ffffffffffffffffffffffffffffffffffffffff1681525050915050919050565b600082600073ffffffffffffffffffffffffffffffffffffffff166000826040516105919190611b6c565b908152602001604051809103902060000160009054906101000a900473ffffffffffffffffffffffffffffffffffffffff1673ffffffffffffffffffffffffffffffffffffffff1603610619576040517f08c379a000000000000000000000000000000000000000000000000000000000815260040161061090611be0565b60405180910390fd5b6000610100846106299190611cf0565b905060006101008561063b9190611d21565b9050600060018760405161064f9190611b6c565b908152602001604051809103902060008481526020019081526020016000205490506000826001901b905080818316149550505050505092915050565b81600073ffffffffffffffffffffffffffffffffffffffff166000826040516106b59190611b6c565b908152602001604051809103902060000160009054906101000a900473ffffffffffffffffffffffffffffffffffffffff1673ffffffffffffffffffffffffffffffffffffffff160361073d576040517f08c379a000000000000000000000000000000000000000000000000000000000815260040161073490611be0565b60405180910390fd5b6000808460405161074e9190611b6c565b908152602001604051809103902060000160009054906101000a900473ffffffffffffffffffffffffffffffffffffffff1690508073ffffffffffffffffffffffffffffffffffffffff1663095ea7b330856040518363ffffffff1660e01b81526004016107bd929190611d70565b6020604051808303816000875af11580156107dc573d6000803e3d6000fd5b505050506040513d601f19601f820116820180604052508101906108009190611dc5565b5061082e3330858473ffffffffffffffffffffffffffffffffffffffff16611030909392919063ffffffff16565b8260008560405161083f9190611b6c565b9081526020016040518091039020600101600082825461085f9190611df2565b92505081905550826000856040516108779190611b6c565b908152602001604051809103902060020160008282546108979190611df2565b9250508190555050505050565b600073ffffffffffffffffffffffffffffffffffffffff166000866040516108cc9190611b6c565b908152602001604051809103902060000160009054906101000a900473ffffffffffffffffffffffffffffffffffffffff1673ffffffffffffffffffffffffffffffffffffffff1614610954576040517f08c379a000000000000000000000000000000000000000000000000000000000815260040161094b90611e72565b60405180910390fd5b600073ffffffffffffffffffffffffffffffffffffffff168473ffffffffffffffffffffffffffffffffffffffff16036109c3576040517f08c379a00000000000000000000000000000000000000000000000000000000081526004016109ba90611ede565b60405180910390fd5b600073ffffffffffffffffffffffffffffffffffffffff168173ffffffffffffffffffffffffffffffffffffffff1603610a32576040517f08c379a0000000000000000000000000000000000000000000000000000000008152600401610a2990611f4a565b60405180910390fd5b60008314610ae7578373ffffffffffffffffffffffffffffffffffffffff1663095ea7b330856040518363ffffffff1660e01b8152600401610a75929190611d70565b6020604051808303816000875af1158015610a94573d6000803e3d6000fd5b505050506040513d601f19601f82011682018060405250810190610ab89190611dc5565b50610ae63330858773ffffffffffffffffffffffffffffffffffffffff16611030909392919063ffffffff16565b5b6040518060a001604052808573ffffffffffffffffffffffffffffffffffffffff1681526020018481526020018481526020018381526020018273ffffffffffffffffffffffffffffffffffffffff16815250600086604051610b4a9190611b6c565b908152602001604051809103902060008201518160000160006101000a81548173ffffffffffffffffffffffffffffffffffffffff021916908373ffffffffffffffffffffffffffffffffffffffff16021790555060208201518160010155604082015181600201556060820151816003015560808201518160040160006101000a81548173ffffffffffffffffffffffffffffffffffffffff021916908373ffffffffffffffffffffffffffffffffffffffff1602179055509050505050505050565b85600073ffffffffffffffffffffffffffffffffffffffff16600082604051610c379190611b6c565b908152602001604051809103902060000160009054906101000a900473ffffffffffffffffffffffffffffffffffffffff1673ffffffffffffffffffffffffffffffffffffffff1603610cbf576040517f08c379a0000000000000000000000000000000000000000000000000000000008152600401610cb690611be0565b60405180910390fd5b60008088604051610cd09190611b6c565b90815260200160405180910390206040518060a00160405290816000820160009054906101000a900473ffffffffffffffffffffffffffffffffffffffff1673ffffffffffffffffffffffffffffffffffffffff1673ffffffffffffffffffffffffffffffffffffffff1681526020016001820154815260200160028201548152602001600382015481526020016004820160009054906101000a900473ffffffffffffffffffffffffffffffffffffffff1673ffffffffffffffffffffffffffffffffffffffff1673ffffffffffffffffffffffffffffffffffffffff16815250509050610dbf8888610566565b15610df6576040517f646cf55800000000000000000000000000000000000000000000000000000000815260040160405180910390fd5b84816040015111610e3c576040517f08c379a0000000000000000000000000000000000000000000000000000000008152600401610e3390611fb6565b60405180910390fd5b6000878787604051602001610e539392919061203f565b604051602081830303815290604052805190602001209050610ebb858580806020026020016040519081016040528093929190818152602001838360200280828437600081840152601f19601f820116905080830192505050505050508360600151836110b9565b610ef1576040517f09bde33900000000000000000000000000000000000000000000000000000000815260040160405180910390fd5b610efb89896110d0565b8560008a604051610f0c9190611b6c565b90815260200160405180910390206002016000828254610f2c919061207c565b92505081905550610f628787846000015173ffffffffffffffffffffffffffffffffffffffff16610faa9092919063ffffffff16565b7fba3da1667c595a76bd74dc91a32e960d97a2e334a303dddc6e550b1d7a4ba9df89898989604051610f9794939291906120e9565b60405180910390a1505050505050505050565b61102b8363a9059cbb60e01b8484604051602401610fc9929190611d70565b604051602081830303815290604052907bffffffffffffffffffffffffffffffffffffffffffffffffffffffff19166020820180517bffffffffffffffffffffffffffffffffffffffffffffffffffffffff8381831617835250505050611215565b505050565b6110b3846323b872dd60e01b85858560405160240161105193929190612135565b604051602081830303815290604052907bffffffffffffffffffffffffffffffffffffffffffffffffffffffff19166020820180517bffffffffffffffffffffffffffffffffffffffffffffffffffffffff8381831617835250505050611215565b50505050565b6000826110c685846112dc565b1490509392505050565b81600073ffffffffffffffffffffffffffffffffffffffff166000826040516110f99190611b6c565b908152602001604051809103902060000160009054906101000a900473ffffffffffffffffffffffffffffffffffffffff1673ffffffffffffffffffffffffffffffffffffffff1603611181576040517f08c379a000000000000000000000000000000000000000000000000000000000815260040161117890611be0565b60405180910390fd5b6000610100836111919190611cf0565b90506000610100846111a39190611d21565b9050806001901b6001866040516111ba9190611b6c565b9081526020016040518091039020600084815260200190815260200160002054176001866040516111eb9190611b6c565b90815260200160405180910390206000848152602001908152602001600020819055505050505050565b6000611277826040518060400160405280602081526020017f5361666545524332303a206c6f772d6c6576656c2063616c6c206661696c65648152508573ffffffffffffffffffffffffffffffffffffffff166113329092919063ffffffff16565b90506000815111156112d757808060200190518101906112979190611dc5565b6112d6576040517f08c379a00000000000000000000000000000000000000000000000000000000081526004016112cd906121de565b60405180910390fd5b5b505050565b60008082905060005b84518110156113275761131282868381518110611305576113046121fe565b5b602002602001015161134a565b9150808061131f9061222d565b9150506112e5565b508091505092915050565b60606113418484600085611375565b90509392505050565b60008183106113625761135d8284611442565b61136d565b61136c8383611442565b5b905092915050565b6060824710156113ba576040517f08c379a00000000000000000000000000000000000000000000000000000000081526004016113b1906122e7565b60405180910390fd5b6000808673ffffffffffffffffffffffffffffffffffffffff1685876040516113e3919061234e565b60006040518083038185875af1925050503d8060008114611420576040519150601f19603f3d011682016040523d82523d6000602084013e611425565b606091505b509150915061143687838387611459565b92505050949350505050565b600082600052816020526040600020905092915050565b606083156114bb5760008351036114b357611473856114ce565b6114b2576040517f08c379a00000000000000000000000000000000000000000000000000000000081526004016114a9906123b1565b60405180910390fd5b5b8290506114c6565b6114c583836114f1565b5b949350505050565b6000808273ffffffffffffffffffffffffffffffffffffffff163b119050919050565b6000825111156115045781518083602001fd5b806040517f08c379a000000000000000000000000000000000000000000000000000000000815260040161153891906123d1565b60405180910390fd5b6040518060a00160405280600073ffffffffffffffffffffffffffffffffffffffff168152602001600081526020016000815260200160008019168152602001600073ffffffffffffffffffffffffffffffffffffffff1681525090565b6000604051905090565b600080fd5b600080fd5b600080fd5b600080fd5b6000601f19601f8301169050919050565b7f4e487b7100000000000000000000000000000000000000000000000000000000600052604160045260246000fd5b611606826115bd565b810181811067ffffffffffffffff82111715611625576116246115ce565b5b80604052505050565b600061163861159f565b905061164482826115fd565b919050565b600067ffffffffffffffff821115611664576116636115ce565b5b61166d826115bd565b9050602081019050919050565b82818337600083830152505050565b600061169c61169784611649565b61162e565b9050828152602081018484840111156116b8576116b76115b8565b5b6116c384828561167a565b509392505050565b600082601f8301126116e0576116df6115b3565b5b81356116f0848260208601611689565b91505092915050565b60006020828403121561170f5761170e6115a9565b5b600082013567ffffffffffffffff81111561172d5761172c6115ae565b5b611739848285016116cb565b91505092915050565b600073ffffffffffffffffffffffffffffffffffffffff82169050919050565b600061176d82611742565b9050919050565b61177d81611762565b82525050565b6000819050919050565b61179681611783565b82525050565b6000819050919050565b6117af8161179c565b82525050565b60a0820160008201516117cb6000850182611774565b5060208201516117de602085018261178d565b5060408201516117f1604085018261178d565b50606082015161180460608501826117a6565b5060808201516118176080850182611774565b50505050565b600060a08201905061183260008301846117b5565b92915050565b61184181611783565b811461184c57600080fd5b50565b60008135905061185e81611838565b92915050565b6000806040838503121561187b5761187a6115a9565b5b600083013567ffffffffffffffff811115611899576118986115ae565b5b6118a5858286016116cb565b92505060206118b68582860161184f565b9150509250929050565b60008115159050919050565b6118d5816118c0565b82525050565b60006020820190506118f060008301846118cc565b92915050565b6118ff81611762565b811461190a57600080fd5b50565b60008135905061191c816118f6565b92915050565b61192b8161179c565b811461193657600080fd5b50565b60008135905061194881611922565b92915050565b600080600080600060a0868803121561196a576119696115a9565b5b600086013567ffffffffffffffff811115611988576119876115ae565b5b611994888289016116cb565b95505060206119a58882890161190d565b94505060406119b68882890161184f565b93505060606119c788828901611939565b92505060806119d88882890161190d565b9150509295509295909350565b600080fd5b600080fd5b60008083601f840112611a0557611a046115b3565b5b8235905067ffffffffffffffff811115611a2257611a216119e5565b5b602083019150836020820283011115611a3e57611a3d6119ea565b5b9250929050565b60008060008060008060a08789031215611a6257611a616115a9565b5b600087013567ffffffffffffffff811115611a8057611a7f6115ae565b5b611a8c89828a016116cb565b9650506020611a9d89828a0161184f565b9550506040611aae89828a0161190d565b9450506060611abf89828a0161184f565b935050608087013567ffffffffffffffff811115611ae057611adf6115ae565b5b611aec89828a016119ef565b92509250509295509295509295565b600081519050919050565b600081905092915050565b60005b83811015611b2f578082015181840152602081019050611b14565b60008484015250505050565b6000611b4682611afb565b611b508185611b06565b9350611b60818560208601611b11565b80840191505092915050565b6000611b788284611b3b565b915081905092915050565b600082825260208201905092915050565b7f6e616d6520646f6573206e6f7420657869737473000000000000000000000000600082015250565b6000611bca601483611b83565b9150611bd582611b94565b602082019050919050565b60006020820190508181036000830152611bf981611bbd565b9050919050565b7f4f6e6c79206f776e6572206f662041697264726f70496e666f2063616e20776960008201527f7468647261772e00000000000000000000000000000000000000000000000000602082015250565b6000611c5c602783611b83565b9150611c6782611c00565b604082019050919050565b60006020820190508181036000830152611c8b81611c4f565b9050919050565b7f4e487b7100000000000000000000000000000000000000000000000000000000600052601260045260246000fd5b7f4e487b7100000000000000000000000000000000000000000000000000000000600052601160045260246000fd5b6000611cfb82611783565b9150611d0683611783565b925082611d1657611d15611c92565b5b828204905092915050565b6000611d2c82611783565b9150611d3783611783565b925082611d4757611d46611c92565b5b828206905092915050565b611d5b81611762565b82525050565b611d6a81611783565b82525050565b6000604082019050611d856000830185611d52565b611d926020830184611d61565b9392505050565b611da2816118c0565b8114611dad57600080fd5b50565b600081519050611dbf81611d99565b92915050565b600060208284031215611ddb57611dda6115a9565b5b6000611de984828501611db0565b91505092915050565b6000611dfd82611783565b9150611e0883611783565b9250828201905080821115611e2057611e1f611cc1565b5b92915050565b7f6e616d6520616c72656164792065786973747300000000000000000000000000600082015250565b6000611e5c601383611b83565b9150611e6782611e26565b602082019050919050565b60006020820190508181036000830152611e8b81611e4f565b9050919050565b7f746f6b656e2073686f756c64206e6f74206265207a65726f0000000000000000600082015250565b6000611ec8601883611b83565b9150611ed382611e92565b602082019050919050565b60006020820190508181036000830152611ef781611ebb565b9050919050565b7f6f776e65722073686f756c64206e6f74206265207a65726f0000000000000000600082015250565b6000611f34601883611b83565b9150611f3f82611efe565b602082019050919050565b60006020820190508181036000830152611f6381611f27565b9050919050565b7f546f6b656e20616d6f756e74206973206e6f7420656e6f7567682e0000000000600082015250565b6000611fa0601b83611b83565b9150611fab82611f6a565b602082019050919050565b60006020820190508181036000830152611fcf81611f93565b9050919050565b6000819050919050565b611ff1611fec82611783565b611fd6565b82525050565b60008160601b9050919050565b600061200f82611ff7565b9050919050565b600061202182612004565b9050919050565b61203961203482611762565b612016565b82525050565b600061204b8286611fe0565b60208201915061205b8285612028565b60148201915061206b8284611fe0565b602082019150819050949350505050565b600061208782611783565b915061209283611783565b92508282039050818111156120aa576120a9611cc1565b5b92915050565b60006120bb82611afb565b6120c58185611b83565b93506120d5818560208601611b11565b6120de816115bd565b840191505092915050565b6000608082019050818103600083015261210381876120b0565b90506121126020830186611d61565b61211f6040830185611d52565b61212c6060830184611d61565b95945050505050565b600060608201905061214a6000830186611d52565b6121576020830185611d52565b6121646040830184611d61565b949350505050565b7f5361666545524332303a204552433230206f7065726174696f6e20646964206e60008201527f6f74207375636365656400000000000000000000000000000000000000000000602082015250565b60006121c8602a83611b83565b91506121d38261216c565b604082019050919050565b600060208201905081810360008301526121f7816121bb565b9050919050565b7f4e487b7100000000000000000000000000000000000000000000000000000000600052603260045260246000fd5b600061223882611783565b91507fffffffffffffffffffffffffffffffffffffffffffffffffffffffffffffffff820361226a57612269611cc1565b5b600182019050919050565b7f416464726573733a20696e73756666696369656e742062616c616e636520666f60008201527f722063616c6c0000000000000000000000000000000000000000000000000000602082015250565b60006122d1602683611b83565b91506122dc82612275565b604082019050919050565b60006020820190508181036000830152612300816122c4565b9050919050565b600081519050919050565b600081905092915050565b600061232882612307565b6123328185612312565b9350612342818560208601611b11565b80840191505092915050565b600061235a828461231d565b915081905092915050565b7f416464726573733a2063616c6c20746f206e6f6e2d636f6e7472616374000000600082015250565b600061239b601d83611b83565b91506123a682612365565b602082019050919050565b600060208201905081810360008301526123ca8161238e565b9050919050565b600060208201905081810360008301526123eb81846120b0565b90509291505056fea2646970667358221220223e17bced25c37f3901ced71fd04b65e39dd7bb55113f15b8bd69d9a452f79064736f6c63430008110033",
  "linkReferences": {},
  "deployedLinkReferences": {}
}