{
  "_format": "hh-sol-artifact-1",
  "contractName": "MerkleAirdrop",
  "sourceName": "contracts/MerkleAirdrop.sol",
  "abi": [
    {
      "inputs": [
        {
          "internalType": "contract IPermit2",
          "name": "permit_",
          "type": "address"
        }
      ],
      "stateMutability": "nonpayable",
      "type": "constructor"
    },
    {
      "inputs": [],
      "name": "AirDropInfoExist",
      "type": "error"
    },
    {
      "inputs": [],
      "name": "AirDropInfoNotExist",
      "type": "error"
    },
    {
      "inputs": [],
      "name": "AlreadyClaimed",
      "type": "error"
    },
    {
      "inputs": [],
      "name": "AmountNotEnough",
      "type": "error"
    },
    {
      "inputs": [],
      "name": "IncorrectAmount",
      "type": "error"
    },
    {
      "inputs": [],
      "name": "InvalidProof",
      "type": "error"
    },
    {
      "inputs": [],
      "name": "NotOwner",
      "type": "error"
    },
    {
      "inputs": [],
      "name": "NotZeroRequired",
      "type": "error"
    },
    {
      "anonymous": false,
      "inputs": [
        {
          "indexed": true,
          "internalType": "bytes32",
          "name": "name",
          "type": "bytes32"
        },
        {
          "indexed": true,
          "internalType": "uint256",
          "name": "index",
          "type": "uint256"
        },
        {
          "indexed": true,
          "internalType": "address",
          "name": "account",
          "type": "address"
        },
        {
          "indexed": false,
          "internalType": "uint256",
          "name": "amount",
          "type": "uint256"
        }
      ],
      "name": "Claimed",
      "type": "event"
    },
    {
      "anonymous": false,
      "inputs": [
        {
          "indexed": true,
          "internalType": "address",
          "name": "previousOwner",
          "type": "address"
        },
        {
          "indexed": true,
          "internalType": "address",
          "name": "newOwner",
          "type": "address"
        }
      ],
      "name": "OwnershipTransferred",
      "type": "event"
    },
    {
      "inputs": [],
      "name": "Permit2",
      "outputs": [
        {
          "internalType": "contract IPermit2",
          "name": "",
          "type": "address"
        }
      ],
      "stateMutability": "view",
      "type": "function"
    },
    {
      "inputs": [
        {
          "internalType": "bytes32",
          "name": "name",
          "type": "bytes32"
        },
        {
          "internalType": "uint256",
          "name": "index",
          "type": "uint256"
        },
        {
          "internalType": "address",
          "name": "account",
          "type": "address"
        },
        {
          "internalType": "uint256",
          "name": "amount",
          "type": "uint256"
        },
        {
          "internalType": "bytes32[]",
          "name": "merkleProof",
          "type": "bytes32[]"
        }
      ],
      "name": "claim",
      "outputs": [],
      "stateMutability": "payable",
      "type": "function"
    },
    {
      "inputs": [],
      "name": "claimFee",
      "outputs": [
        {
          "internalType": "uint256",
          "name": "",
          "type": "uint256"
        }
      ],
      "stateMutability": "view",
      "type": "function"
    },
    {
      "inputs": [
        {
          "internalType": "bytes32",
          "name": "name",
          "type": "bytes32"
        },
        {
          "internalType": "uint256",
          "name": "depositAmount",
          "type": "uint256"
        },
        {
          "internalType": "uint256",
          "name": "nonce",
          "type": "uint256"
        },
        {
          "internalType": "uint256",
          "name": "deadline",
          "type": "uint256"
        },
        {
          "internalType": "bytes",
          "name": "signature",
          "type": "bytes"
        }
      ],
      "name": "depositAirdropToken",
      "outputs": [],
      "stateMutability": "nonpayable",
      "type": "function"
    },
    {
      "inputs": [
        {
          "internalType": "bytes32",
          "name": "name",
          "type": "bytes32"
        }
      ],
      "name": "getAirdropInfo",
      "outputs": [
        {
          "components": [
            {
              "internalType": "address",
              "name": "token",
              "type": "address"
            },
            {
              "internalType": "address",
              "name": "owner",
              "type": "address"
            },
            {
              "internalType": "bytes32",
              "name": "merkleRoot",
              "type": "bytes32"
            },
            {
              "internalType": "uint256",
              "name": "depositedAmount",
              "type": "uint256"
            },
            {
              "internalType": "uint256",
              "name": "stockAmount",
              "type": "uint256"
            }
          ],
          "internalType": "struct MerkleAirdrop.airdopInfo",
          "name": "",
          "type": "tuple"
        }
      ],
      "stateMutability": "view",
      "type": "function"
    },
    {
      "inputs": [
        {
          "internalType": "bytes32",
          "name": "name",
          "type": "bytes32"
        }
      ],
      "name": "isAirdropInfoExist",
      "outputs": [
        {
          "internalType": "bool",
          "name": "",
          "type": "bool"
        }
      ],
      "stateMutability": "view",
      "type": "function"
    },
    {
      "inputs": [
        {
          "internalType": "bytes32",
          "name": "name",
          "type": "bytes32"
        },
        {
          "internalType": "uint256",
          "name": "index",
          "type": "uint256"
        }
      ],
      "name": "isClaimed",
      "outputs": [
        {
          "internalType": "bool",
          "name": "",
          "type": "bool"
        }
      ],
      "stateMutability": "view",
      "type": "function"
    },
    {
      "inputs": [],
      "name": "owner",
      "outputs": [
        {
          "internalType": "address",
          "name": "",
          "type": "address"
        }
      ],
      "stateMutability": "view",
      "type": "function"
    },
    {
      "inputs": [
        {
          "internalType": "bytes32",
          "name": "name",
          "type": "bytes32"
        },
        {
          "internalType": "address",
          "name": "token",
          "type": "address"
        },
        {
          "internalType": "bytes32",
          "name": "merkleRoot",
          "type": "bytes32"
        }
      ],
      "name": "registAirdropInfo",
      "outputs": [],
      "stateMutability": "payable",
      "type": "function"
    },
    {
      "inputs": [
        {
          "internalType": "bytes32",
          "name": "name",
          "type": "bytes32"
        },
        {
          "internalType": "address",
          "name": "token",
          "type": "address"
        },
        {
          "internalType": "bytes32",
          "name": "merkleRoot",
          "type": "bytes32"
        },
        {
          "internalType": "uint256",
          "name": "depositAmount",
          "type": "uint256"
        },
        {
          "internalType": "uint256",
          "name": "nonce",
          "type": "uint256"
        },
        {
          "internalType": "uint256",
          "name": "deadline",
          "type": "uint256"
        },
        {
          "internalType": "bytes",
          "name": "signature",
          "type": "bytes"
        }
      ],
      "name": "registAirdropInfoWithDeposit",
      "outputs": [],
      "stateMutability": "payable",
      "type": "function"
    },
    {
      "inputs": [],
      "name": "registFee",
      "outputs": [
        {
          "internalType": "uint256",
          "name": "",
          "type": "uint256"
        }
      ],
      "stateMutability": "view",
      "type": "function"
    },
    {
      "inputs": [],
      "name": "renounceOwnership",
      "outputs": [],
      "stateMutability": "nonpayable",
      "type": "function"
    },
    {
      "inputs": [
        {
          "internalType": "address",
          "name": "newOwner",
          "type": "address"
        }
      ],
      "name": "transferOwnership",
      "outputs": [],
      "stateMutability": "nonpayable",
      "type": "function"
    },
    {
      "inputs": [],
      "name": "withdrawCollectedEther",
      "outputs": [],
      "stateMutability": "nonpayable",
      "type": "function"
    },
    {
      "inputs": [
        {
          "internalType": "bytes32",
          "name": "name",
          "type": "bytes32"
        }
      ],
      "name": "withdrawDepositedToken",
      "outputs": [],
      "stateMutability": "nonpayable",
      "type": "function"
    }
  ],
  "bytecode": "0x60a060405234801561001057600080fd5b5060405162001b8f38038062001b8f8339810160408190526100319161009b565b61003a3361004b565b6001600160a01b03166080526100cb565b600080546001600160a01b038381166001600160a01b0319831681178455604051919092169283917f8be0079c531659141344cd1fd0a4f28419497f9722a3daafe3b4186f6b6457e09190a35050565b6000602082840312156100ad57600080fd5b81516001600160a01b03811681146100c457600080fd5b9392505050565b608051611a9a620000f560003960008181610235015281816109fe0152610ea20152611a9a6000f3fe6080604052600436106100e85760003560e01c806399d32fc41161008a578063ea72a36d11610059578063ea72a36d146103a0578063ea99b40a146103b5578063f2fde38b146103c8578063f7722778146103e857600080fd5b806399d32fc414610301578063aae968231461031b578063bd0bd30014610360578063dc87d1b71461038057600080fd5b8063715018a6116100c6578063715018a61461027c5780637e22b75a1461029357806385f5276f146102a65780638da5cb5b146102d657600080fd5b806315617cd8146100ed578063368c0891146101fa5780633951448014610223575b600080fd5b3480156100f957600080fd5b50610195610108366004611536565b6040805160a08082018352600080835260208084018290528385018290526060808501839052608094850183905295825260018082529185902085519384018652805473ffffffffffffffffffffffffffffffffffffffff908116855292810154909216908301526002810154938201939093526003830154938101939093526004909101549082015290565b6040516101f19190600060a08201905073ffffffffffffffffffffffffffffffffffffffff8084511683528060208501511660208401525060408301516040830152606083015160608301526080830151608083015292915050565b60405180910390f35b34801561020657600080fd5b50610215662386f26fc1000081565b6040519081526020016101f1565b34801561022f57600080fd5b506102577f000000000000000000000000000000000000000000000000000000000000000081565b60405173ffffffffffffffffffffffffffffffffffffffff90911681526020016101f1565b34801561028857600080fd5b506102916103fb565b005b6102916102a1366004611578565b61040f565b3480156102b257600080fd5b506102c66102c136600461161a565b610769565b60405190151581526020016101f1565b3480156102e257600080fd5b5060005473ffffffffffffffffffffffffffffffffffffffff16610257565b34801561030d57600080fd5b50610215655af3107a400081565b34801561032757600080fd5b506102c6610336366004611536565b60009081526001602052604090205473ffffffffffffffffffffffffffffffffffffffff16151590565b34801561036c57600080fd5b5061029161037b366004611536565b6107ae565b34801561038c57600080fd5b5061029161039b366004611685565b61091b565b3480156103ac57600080fd5b50610291610ac4565b6102916103c33660046116ef565b610afb565b3480156103d457600080fd5b506102916103e3366004611724565b610c89565b6102916103f636600461173f565b610d42565b610403610fc2565b61040d6000611043565b565b600086815260016020526040902054869073ffffffffffffffffffffffffffffffffffffffff1661046c576040517f8289313a00000000000000000000000000000000000000000000000000000000815260040160405180910390fd5b600087815260016020818152604092839020835160a081018552815473ffffffffffffffffffffffffffffffffffffffff908116825293820154909316918301919091526002810154928201929092526003820154606082015260049091015460808201526104db8888610769565b15610512576040517f646cf55800000000000000000000000000000000000000000000000000000000815260040160405180910390fd5b8481608001511015610550576040517fcb6e851c00000000000000000000000000000000000000000000000000000000815260040160405180910390fd5b610561655af3107a400060026117f2565b3414610599576040517f69640e7200000000000000000000000000000000000000000000000000000000815260040160405180910390fd5b60408051602081018990527fffffffffffffffffffffffffffffffffffffffff000000000000000000000000606089901b1691810191909152605481018690526000906074016040516020818303038152906040528051906020012090506106388585808060200260200160405190810160405280939291908181526020018383602002808284376000920191909152505050506040840151836110b8565b61066e576040517f09bde33900000000000000000000000000000000000000000000000000000000815260040160405180910390fd5b61067889896110ce565b60008981526001602052604081206004018054889290610699908490611809565b909155505081516106c19073ffffffffffffffffffffffffffffffffffffffff16888861110c565b602082015160405173ffffffffffffffffffffffffffffffffffffffff90911690600090655af3107a40009082818181858883f1935050505015801561070b573d6000803e3d6000fd5b508673ffffffffffffffffffffffffffffffffffffffff16888a7f53e1382837b65097f1436df00ad198ee1ef46d20d3209d9d951b2c5560e9e6238960405161075691815260200190565b60405180910390a4505050505050505050565b6000600882901c8161077d6101008561181c565b60008681526002602090815260408083209583529490529290922054600190921b9182169091149150505b92915050565b600081815260016020526040902054819073ffffffffffffffffffffffffffffffffffffffff1661080b576040517f8289313a00000000000000000000000000000000000000000000000000000000815260040160405180910390fd5b600082815260016020818152604092839020835160a081018552815473ffffffffffffffffffffffffffffffffffffffff9081168252938201549093169183018290526002810154938301939093526003830154606083015260049092015460808201529033146108a8576040517f30cd747100000000000000000000000000000000000000000000000000000000815260040160405180910390fd5b6080810151600084815260016020526040812060030180549091906108ce908490611809565b90915550506000838152600160209081526040822060040191909155810151608082015182516109169273ffffffffffffffffffffffffffffffffffffffff9091169161110c565b505050565b600086815260016020526040902054869073ffffffffffffffffffffffffffffffffffffffff16610978576040517f8289313a00000000000000000000000000000000000000000000000000000000815260040160405180910390fd5b6040805160a081018252600089815260016020908152908390205473ffffffffffffffffffffffffffffffffffffffff90811660608401908152608084018b90528352818301899052828401889052835180850185523081529182018a905292517f30f28b7a0000000000000000000000000000000000000000000000000000000081527f0000000000000000000000000000000000000000000000000000000000000000909316926330f28b7a92610a3b929091339089908990600401611857565b600060405180830381600087803b158015610a5557600080fd5b505af1158015610a69573d6000803e3d6000fd5b50505060008881526001602052604081206003018054899350909190610a90908490611937565b909155505060008781526001602052604081206004018054889290610ab6908490611937565b909155505050505050505050565b610acc610fc2565b60405133904780156108fc02916000818181858888f19350505050158015610af8573d6000803e3d6000fd5b50565b60008381526001602052604090205473ffffffffffffffffffffffffffffffffffffffff1615610b57576040517f87ecff6c00000000000000000000000000000000000000000000000000000000815260040160405180910390fd5b73ffffffffffffffffffffffffffffffffffffffff8216610ba4576040517f87a873e800000000000000000000000000000000000000000000000000000000815260040160405180910390fd5b662386f26fc100003414610be4576040517f69640e7200000000000000000000000000000000000000000000000000000000815260040160405180910390fd5b6040805160a08101825273ffffffffffffffffffffffffffffffffffffffff938416815233602080830191825282840194855260006060840181815260808501828152988252600192839052949020925183549087167fffffffffffffffffffffffff00000000000000000000000000000000000000009182161784559151908301805491909616911617909355905160028301555160038201559051600490910155565b610c91610fc2565b73ffffffffffffffffffffffffffffffffffffffff8116610d39576040517f08c379a000000000000000000000000000000000000000000000000000000000815260206004820152602660248201527f4f776e61626c653a206e6577206f776e657220697320746865207a65726f206160448201527f646472657373000000000000000000000000000000000000000000000000000060648201526084015b60405180910390fd5b610af881611043565b60008881526001602052604090205473ffffffffffffffffffffffffffffffffffffffff1615610d9e576040517f87ecff6c00000000000000000000000000000000000000000000000000000000815260040160405180910390fd5b73ffffffffffffffffffffffffffffffffffffffff8716610deb576040517f87a873e800000000000000000000000000000000000000000000000000000000815260040160405180910390fd5b662386f26fc100003414610e2b576040517f69640e7200000000000000000000000000000000000000000000000000000000815260040160405180910390fd5b6040805160a08101825273ffffffffffffffffffffffffffffffffffffffff8981166060830190815260808301899052825260208083018890528284018790528351808501855230815290810189905292517f30f28b7a0000000000000000000000000000000000000000000000000000000081527f0000000000000000000000000000000000000000000000000000000000000000909116926330f28b7a92610ee092909190339088908890600401611857565b600060405180830381600087803b158015610efa57600080fd5b505af1158015610f0e573d6000803e3d6000fd5b50506040805160a08101825273ffffffffffffffffffffffffffffffffffffffff9a8b1681523360208083019182528284019b8c52606083018b8152608084019b8c5260009e8f5260019182905293909d2091518254908d167fffffffffffffffffffffffff000000000000000000000000000000000000000091821617835590519c820180549d909c169c169b909b17909955505094516002880155505092516003850155516004909301929092555050565b60005473ffffffffffffffffffffffffffffffffffffffff16331461040d576040517f08c379a000000000000000000000000000000000000000000000000000000000815260206004820181905260248201527f4f776e61626c653a2063616c6c6572206973206e6f7420746865206f776e65726044820152606401610d30565b6000805473ffffffffffffffffffffffffffffffffffffffff8381167fffffffffffffffffffffffff0000000000000000000000000000000000000000831681178455604051919092169283917f8be0079c531659141344cd1fd0a4f28419497f9722a3daafe3b4186f6b6457e09190a35050565b6000826110c58584611199565b14949350505050565b600881901c60006110e16101008461181c565b6000948552600260209081526040808720948752939052919093208054600190921b90911790555050565b6040805173ffffffffffffffffffffffffffffffffffffffff8416602482015260448082018490528251808303909101815260649091019091526020810180517bffffffffffffffffffffffffffffffffffffffffffffffffffffffff167fa9059cbb000000000000000000000000000000000000000000000000000000001790526109169084906111e6565b600081815b84518110156111de576111ca828683815181106111bd576111bd61194a565b60200260200101516112f5565b9150806111d681611979565b91505061119e565b509392505050565b6000611248826040518060400160405280602081526020017f5361666545524332303a206c6f772d6c6576656c2063616c6c206661696c65648152508573ffffffffffffffffffffffffffffffffffffffff166113279092919063ffffffff16565b905080516000148061126957508080602001905181019061126991906119b1565b610916576040517f08c379a000000000000000000000000000000000000000000000000000000000815260206004820152602a60248201527f5361666545524332303a204552433230206f7065726174696f6e20646964206e60448201527f6f742073756363656564000000000000000000000000000000000000000000006064820152608401610d30565b6000818310611311576000828152602084905260409020611320565b60008381526020839052604090205b9392505050565b6060611336848460008561133e565b949350505050565b6060824710156113d0576040517f08c379a000000000000000000000000000000000000000000000000000000000815260206004820152602660248201527f416464726573733a20696e73756666696369656e742062616c616e636520666f60448201527f722063616c6c00000000000000000000000000000000000000000000000000006064820152608401610d30565b6000808673ffffffffffffffffffffffffffffffffffffffff1685876040516113f991906119f7565b60006040518083038185875af1925050503d8060008114611436576040519150601f19603f3d011682016040523d82523d6000602084013e61143b565b606091505b509150915061144c87838387611457565b979650505050505050565b606083156114ed5782516000036114e65773ffffffffffffffffffffffffffffffffffffffff85163b6114e6576040517f08c379a000000000000000000000000000000000000000000000000000000000815260206004820152601d60248201527f416464726573733a2063616c6c20746f206e6f6e2d636f6e74726163740000006044820152606401610d30565b5081611336565b61133683838151156115025781518083602001fd5b806040517f08c379a0000000000000000000000000000000000000000000000000000000008152600401610d309190611a13565b60006020828403121561154857600080fd5b5035919050565b803573ffffffffffffffffffffffffffffffffffffffff8116811461157357600080fd5b919050565b60008060008060008060a0878903121561159157600080fd5b86359550602087013594506115a86040880161154f565b935060608701359250608087013567ffffffffffffffff808211156115cc57600080fd5b818901915089601f8301126115e057600080fd5b8135818111156115ef57600080fd5b8a60208260051b850101111561160457600080fd5b6020830194508093505050509295509295509295565b6000806040838503121561162d57600080fd5b50508035926020909101359150565b60008083601f84011261164e57600080fd5b50813567ffffffffffffffff81111561166657600080fd5b60208301915083602082850101111561167e57600080fd5b9250929050565b60008060008060008060a0878903121561169e57600080fd5b86359550602087013594506040870135935060608701359250608087013567ffffffffffffffff8111156116d157600080fd5b6116dd89828a0161163c565b979a9699509497509295939492505050565b60008060006060848603121561170457600080fd5b833592506117146020850161154f565b9150604084013590509250925092565b60006020828403121561173657600080fd5b6113208261154f565b60008060008060008060008060e0898b03121561175b57600080fd5b8835975061176b60208a0161154f565b965060408901359550606089013594506080890135935060a0890135925060c089013567ffffffffffffffff8111156117a357600080fd5b6117af8b828c0161163c565b999c989b5096995094979396929594505050565b7f4e487b7100000000000000000000000000000000000000000000000000000000600052601160045260246000fd5b80820281158282048414176107a8576107a86117c3565b818103818111156107a8576107a86117c3565b600082611852577f4e487b7100000000000000000000000000000000000000000000000000000000600052601260045260246000fd5b500690565b6000610100611887838951805173ffffffffffffffffffffffffffffffffffffffff168252602090810151910152565b60208801516040840152604088015160608401526118c86080840188805173ffffffffffffffffffffffffffffffffffffffff168252602090810151910152565b73ffffffffffffffffffffffffffffffffffffffff861660c08401528060e08401528381840152506101208385828501376000838501820152601f9093017fffffffffffffffffffffffffffffffffffffffffffffffffffffffffffffffe01690910190910195945050505050565b808201808211156107a8576107a86117c3565b7f4e487b7100000000000000000000000000000000000000000000000000000000600052603260045260246000fd5b60007fffffffffffffffffffffffffffffffffffffffffffffffffffffffffffffffff82036119aa576119aa6117c3565b5060010190565b6000602082840312156119c357600080fd5b8151801515811461132057600080fd5b60005b838110156119ee5781810151838201526020016119d6565b50506000910152565b60008251611a098184602087016119d3565b9190910192915050565b6020815260008251806020840152611a328160408501602087016119d3565b601f017fffffffffffffffffffffffffffffffffffffffffffffffffffffffffffffffe016919091016040019291505056fea2646970667358221220b785917a2c604b0211c2637a783f38c97c7a97c8b2c1946b5203407c07d3d8ce64736f6c63430008120033",
  "linkReferences": {},
  "deployedLinkReferences": {}
}