{
  "_format": "hh-sol-artifact-1",
  "contractName": "MerkleAirdrop",
  "sourceName": "contracts/MerkleAirdrop.sol",
  "abi": [
    {
      "inputs": [
        {
          "internalType": "contract IPermit2",
          "name": "permit_",
          "type": "address"
        }
      ],
      "stateMutability": "nonpayable",
      "type": "constructor"
    },
    {
      "inputs": [],
      "name": "AirDropInfoExist",
      "type": "error"
    },
    {
      "inputs": [],
      "name": "AirDropInfoNotExist",
      "type": "error"
    },
    {
      "inputs": [],
      "name": "AlreadyClaimed",
      "type": "error"
    },
    {
      "inputs": [],
      "name": "AmountNotEnough",
      "type": "error"
    },
    {
      "inputs": [],
      "name": "InvalidProof",
      "type": "error"
    },
    {
      "inputs": [],
      "name": "NotOwner",
      "type": "error"
    },
    {
      "inputs": [],
      "name": "NotZeroRequired",
      "type": "error"
    },
    {
      "anonymous": false,
      "inputs": [
        {
          "indexed": true,
          "internalType": "bytes32",
          "name": "name",
          "type": "bytes32"
        },
        {
          "indexed": true,
          "internalType": "uint256",
          "name": "index",
          "type": "uint256"
        },
        {
          "indexed": true,
          "internalType": "address",
          "name": "account",
          "type": "address"
        },
        {
          "indexed": false,
          "internalType": "uint256",
          "name": "amount",
          "type": "uint256"
        }
      ],
      "name": "Claimed",
      "type": "event"
    },
    {
      "inputs": [],
      "name": "Permit2",
      "outputs": [
        {
          "internalType": "contract IPermit2",
          "name": "",
          "type": "address"
        }
      ],
      "stateMutability": "view",
      "type": "function"
    },
    {
      "inputs": [
        {
          "internalType": "bytes32",
          "name": "name",
          "type": "bytes32"
        },
        {
          "internalType": "uint256",
          "name": "index",
          "type": "uint256"
        },
        {
          "internalType": "address",
          "name": "account",
          "type": "address"
        },
        {
          "internalType": "uint256",
          "name": "amount",
          "type": "uint256"
        },
        {
          "internalType": "bytes32[]",
          "name": "merkleProof",
          "type": "bytes32[]"
        }
      ],
      "name": "claim",
      "outputs": [],
      "stateMutability": "nonpayable",
      "type": "function"
    },
    {
      "inputs": [
        {
          "internalType": "bytes32",
          "name": "name",
          "type": "bytes32"
        },
        {
          "internalType": "uint256",
          "name": "depositAmount",
          "type": "uint256"
        },
        {
          "internalType": "uint256",
          "name": "nonce",
          "type": "uint256"
        },
        {
          "internalType": "uint256",
          "name": "deadline",
          "type": "uint256"
        },
        {
          "internalType": "bytes",
          "name": "signature",
          "type": "bytes"
        }
      ],
      "name": "depositAirdropToken",
      "outputs": [],
      "stateMutability": "nonpayable",
      "type": "function"
    },
    {
      "inputs": [
        {
          "internalType": "bytes32",
          "name": "name",
          "type": "bytes32"
        }
      ],
      "name": "getAirdropInfo",
      "outputs": [
        {
          "components": [
            {
              "internalType": "address",
              "name": "token",
              "type": "address"
            },
            {
              "internalType": "address",
              "name": "owner",
              "type": "address"
            },
            {
              "internalType": "bytes32",
              "name": "merkleRoot",
              "type": "bytes32"
            },
            {
              "internalType": "uint256",
              "name": "depositedAmount",
              "type": "uint256"
            },
            {
              "internalType": "uint256",
              "name": "stockAmount",
              "type": "uint256"
            }
          ],
          "internalType": "struct MerkleAirdrop.airdopInfo",
          "name": "",
          "type": "tuple"
        }
      ],
      "stateMutability": "view",
      "type": "function"
    },
    {
      "inputs": [
        {
          "internalType": "bytes32",
          "name": "name",
          "type": "bytes32"
        }
      ],
      "name": "isAirdropInfoExist",
      "outputs": [
        {
          "internalType": "bool",
          "name": "",
          "type": "bool"
        }
      ],
      "stateMutability": "view",
      "type": "function"
    },
    {
      "inputs": [
        {
          "internalType": "bytes32",
          "name": "name",
          "type": "bytes32"
        },
        {
          "internalType": "uint256",
          "name": "index",
          "type": "uint256"
        }
      ],
      "name": "isClaimed",
      "outputs": [
        {
          "internalType": "bool",
          "name": "",
          "type": "bool"
        }
      ],
      "stateMutability": "view",
      "type": "function"
    },
    {
      "inputs": [
        {
          "internalType": "bytes32",
          "name": "name",
          "type": "bytes32"
        },
        {
          "internalType": "address",
          "name": "token",
          "type": "address"
        },
        {
          "internalType": "bytes32",
          "name": "merkleRoot",
          "type": "bytes32"
        }
      ],
      "name": "registAirdropInfo",
      "outputs": [],
      "stateMutability": "nonpayable",
      "type": "function"
    },
    {
      "inputs": [
        {
          "internalType": "bytes32",
          "name": "name",
          "type": "bytes32"
        },
        {
          "internalType": "address",
          "name": "token",
          "type": "address"
        },
        {
          "internalType": "bytes32",
          "name": "merkleRoot",
          "type": "bytes32"
        },
        {
          "internalType": "uint256",
          "name": "depositAmount",
          "type": "uint256"
        },
        {
          "internalType": "uint256",
          "name": "nonce",
          "type": "uint256"
        },
        {
          "internalType": "uint256",
          "name": "deadline",
          "type": "uint256"
        },
        {
          "internalType": "bytes",
          "name": "signature",
          "type": "bytes"
        }
      ],
      "name": "registAirdropInfoWithDeposit",
      "outputs": [],
      "stateMutability": "nonpayable",
      "type": "function"
    },
    {
      "inputs": [
        {
          "internalType": "bytes32",
          "name": "name",
          "type": "bytes32"
        }
      ],
      "name": "withdrawDepositedToken",
      "outputs": [],
      "stateMutability": "nonpayable",
      "type": "function"
    }
  ],
  "bytecode": "0x60a060405234801561001057600080fd5b5060405161131b38038061131b83398101604081905261002f91610040565b6001600160a01b0316608052610070565b60006020828403121561005257600080fd5b81516001600160a01b038116811461006957600080fd5b9392505050565b60805161128261009960003960008181610197015281816106df015261093f01526112826000f3fe608060405234801561001057600080fd5b50600436106100a35760003560e01c8063aae9682311610076578063dc87d1b71161005b578063dc87d1b714610247578063ea99b40a1461025a578063f77227781461026d57600080fd5b8063aae9682314610209578063bd0bd3001461023457600080fd5b806315617cd8146100a857806339514480146101925780637e22b75a146101d157806385f5276f146101e6575b600080fd5b61013a6100b6366004610e2a565b6040805160a0810182526000808252602082018190529181018290526060810182905260808101919091525060009081526020818152604091829020825160a08101845281546001600160a01b0390811682526001830154169281019290925260028101549282019290925260038201546060820152600490910154608082015290565b6040516101899190600060a0820190506001600160a01b038084511683528060208501511660208401525060408301516040830152606083015160608301526080830151608083015292915050565b60405180910390f35b6101b97f000000000000000000000000000000000000000000000000000000000000000081565b6040516001600160a01b039091168152602001610189565b6101e46101df366004610e5f565b610280565b005b6101f96101f4366004610f01565b6104e3565b6040519015158152602001610189565b6101f9610217366004610e2a565b6000908152602081905260409020546001600160a01b0316151590565b6101e4610242366004610e2a565b610525565b6101e4610255366004610f6c565b61064a565b6101e4610268366004610fd6565b6107a7565b6101e461027b36600461100b565b610891565b60008681526020819052604090205486906001600160a01b03166102b757604051634144989d60e11b815260040160405180910390fd5b60008781526020818152604091829020825160a08101845281546001600160a01b0390811682526001830154169281019290925260028101549282019290925260038201546060820152600490910154608082015261031688886104e3565b1561034d576040517f646cf55800000000000000000000000000000000000000000000000000000000815260040160405180910390fd5b848160800151101561038b576040517fcb6e851c00000000000000000000000000000000000000000000000000000000815260040160405180910390fd5b60408051602081018990526bffffffffffffffffffffffff19606089901b169181019190915260548101869052600090607401604051602081830303815290604052805190602001209050610417858580806020026020016040519081016040528093929190818152602001838360200280828437600092019190915250505050604084015183610a46565b61044d576040517f09bde33900000000000000000000000000000000000000000000000000000000815260040160405180910390fd5b6104578989610a5c565b600089815260208190526040812060040180548892906104789084906110a5565b90915550508151610493906001600160a01b03168888610a9a565b866001600160a01b0316888a7f53e1382837b65097f1436df00ad198ee1ef46d20d3209d9d951b2c5560e9e623896040516104d091815260200190565b60405180910390a4505050505050505050565b6000600882901c816104f7610100856110b8565b60008681526001602081815260408084209684529590529390205492901b9182169091149150505b92915050565b60008181526020819052604090205481906001600160a01b031661055c57604051634144989d60e11b815260040160405180910390fd5b60008281526020818152604091829020825160a08101845281546001600160a01b0390811682526001830154169281018390526002820154938101939093526003810154606084015260040154608083015233146105e6576040517f30cd747100000000000000000000000000000000000000000000000000000000815260040160405180910390fd5b60808101516000848152602081905260408120600301805490919061060c9084906110a5565b909155505060008381526020818152604082206004019190915581015160808201518251610645926001600160a01b0390911691610a9a565b505050565b60008681526020819052604090205486906001600160a01b031661068157604051634144989d60e11b815260040160405180910390fd5b6040805160a0810182526000898152602081815290839020546001600160a01b0390811660608401908152608084018b90528352818301899052828401889052835180850185523081529182018a9052925163187945bd60e11b81527f0000000000000000000000000000000000000000000000000000000000000000909316926330f28b7a9261071c9290913390899089906004016110da565b600060405180830381600087803b15801561073657600080fd5b505af115801561074a573d6000803e3d6000fd5b505050508560008089815260200190815260200160002060030160008282546107739190611175565b909155505060008781526020819052604081206004018054889290610799908490611175565b909155505050505050505050565b6000838152602081905260409020546001600160a01b0316156107dd576040516321fb3fdb60e21b815260040160405180910390fd5b6001600160a01b038216610804576040516310f50e7d60e31b815260040160405180910390fd5b6040805160a0810182526001600160a01b0393841681523360208083019182528284019485526000606084018181526080850182815298825291819052939093209151825490861673ffffffffffffffffffffffffffffffffffffffff19918216178355905160018301805491909616911617909355905160028301555160038201559051600490910155565b6000888152602081905260409020546001600160a01b0316156108c7576040516321fb3fdb60e21b815260040160405180910390fd5b6001600160a01b0387166108ee576040516310f50e7d60e31b815260040160405180910390fd5b6040805160a0810182526001600160a01b0389811660608301908152608083018990528252602080830188905282840187905283518085018552308152908101899052925163187945bd60e11b81527f0000000000000000000000000000000000000000000000000000000000000000909116926330f28b7a9261097d929091903390889088906004016110da565b600060405180830381600087803b15801561099757600080fd5b505af11580156109ab573d6000803e3d6000fd5b50506040805160a0810182526001600160a01b039a8b1681523360208083019182528284019b8c52606083018b8152608084019b8c5260009e8f52908e905292909c2090518154908c1673ffffffffffffffffffffffffffffffffffffffff199182161782559b5160018201805491909c169c169b909b17909955505094516002880155505092516003850155516004909301929092555050565b600082610a538584610b1a565b14949350505050565b600881901c6000610a6f610100846110b8565b60009485526001602081815260408088209588529490529290942080549290941b9091179092555050565b604080516001600160a01b038416602482015260448082018490528251808303909101815260649091019091526020810180517bffffffffffffffffffffffffffffffffffffffffffffffffffffffff167fa9059cbb00000000000000000000000000000000000000000000000000000000179052610645908490610b67565b600081815b8451811015610b5f57610b4b82868381518110610b3e57610b3e611188565b6020026020010151610c51565b915080610b578161119e565b915050610b1f565b509392505050565b6000610bbc826040518060400160405280602081526020017f5361666545524332303a206c6f772d6c6576656c2063616c6c206661696c6564815250856001600160a01b0316610c839092919063ffffffff16565b8051909150156106455780806020019051810190610bda91906111b7565b6106455760405162461bcd60e51b815260206004820152602a60248201527f5361666545524332303a204552433230206f7065726174696f6e20646964206e60448201527f6f7420737563636565640000000000000000000000000000000000000000000060648201526084015b60405180910390fd5b6000818310610c6d576000828152602084905260409020610c7c565b60008381526020839052604090205b9392505050565b6060610c928484600085610c9a565b949350505050565b606082471015610d125760405162461bcd60e51b815260206004820152602660248201527f416464726573733a20696e73756666696369656e742062616c616e636520666f60448201527f722063616c6c00000000000000000000000000000000000000000000000000006064820152608401610c48565b600080866001600160a01b03168587604051610d2e91906111fd565b60006040518083038185875af1925050503d8060008114610d6b576040519150601f19603f3d011682016040523d82523d6000602084013e610d70565b606091505b5091509150610d8187838387610d8c565b979650505050505050565b60608315610dfb578251600003610df4576001600160a01b0385163b610df45760405162461bcd60e51b815260206004820152601d60248201527f416464726573733a2063616c6c20746f206e6f6e2d636f6e74726163740000006044820152606401610c48565b5081610c92565b610c928383815115610e105781518083602001fd5b8060405162461bcd60e51b8152600401610c489190611219565b600060208284031215610e3c57600080fd5b5035919050565b80356001600160a01b0381168114610e5a57600080fd5b919050565b60008060008060008060a08789031215610e7857600080fd5b8635955060208701359450610e8f60408801610e43565b935060608701359250608087013567ffffffffffffffff80821115610eb357600080fd5b818901915089601f830112610ec757600080fd5b813581811115610ed657600080fd5b8a60208260051b8501011115610eeb57600080fd5b6020830194508093505050509295509295509295565b60008060408385031215610f1457600080fd5b50508035926020909101359150565b60008083601f840112610f3557600080fd5b50813567ffffffffffffffff811115610f4d57600080fd5b602083019150836020828501011115610f6557600080fd5b9250929050565b60008060008060008060a08789031215610f8557600080fd5b86359550602087013594506040870135935060608701359250608087013567ffffffffffffffff811115610fb857600080fd5b610fc489828a01610f23565b979a9699509497509295939492505050565b600080600060608486031215610feb57600080fd5b83359250610ffb60208501610e43565b9150604084013590509250925092565b60008060008060008060008060e0898b03121561102757600080fd5b8835975061103760208a01610e43565b965060408901359550606089013594506080890135935060a0890135925060c089013567ffffffffffffffff81111561106f57600080fd5b61107b8b828c01610f23565b999c989b5096995094979396929594505050565b634e487b7160e01b600052601160045260246000fd5b8181038181111561051f5761051f61108f565b6000826110d557634e487b7160e01b600052601260045260246000fd5b500690565b60006101006110fd83895180516001600160a01b03168252602090810151910152565b6020880151604084015260408801516060840152611131608084018880516001600160a01b03168252602090810151910152565b6001600160a01b03861660c08401528060e08401528381840152506101208385828501376000838501820152601f909301601f191690910190910195945050505050565b8082018082111561051f5761051f61108f565b634e487b7160e01b600052603260045260246000fd5b6000600182016111b0576111b061108f565b5060010190565b6000602082840312156111c957600080fd5b81518015158114610c7c57600080fd5b60005b838110156111f45781810151838201526020016111dc565b50506000910152565b6000825161120f8184602087016111d9565b9190910192915050565b60208152600082518060208401526112388160408501602087016111d9565b601f01601f1916919091016040019291505056fea26469706673582212208e183bf4a3e0e8b6c1116d1162b44993018ff8dece414645168224c95183de6a64736f6c63430008110033",
  "linkReferences": {},
  "deployedLinkReferences": {}
}