{
  "_format": "hh-sol-artifact-1",
  "contractName": "MerkleAirdrop",
  "sourceName": "contracts/MerkleAirdrop.sol",
  "abi": [
    {
      "inputs": [],
      "name": "AirDropInfoExist",
      "type": "error"
    },
    {
      "inputs": [],
      "name": "AirDropInfoNotExist",
      "type": "error"
    },
    {
      "inputs": [],
      "name": "AlreadyClaimed",
      "type": "error"
    },
    {
      "inputs": [],
      "name": "AmountNotEnough",
      "type": "error"
    },
    {
      "inputs": [],
      "name": "InvalidProof",
      "type": "error"
    },
    {
      "inputs": [],
      "name": "NotOwner",
      "type": "error"
    },
    {
      "inputs": [],
      "name": "NotZeroRequired",
      "type": "error"
    },
    {
      "anonymous": false,
      "inputs": [
        {
          "indexed": true,
          "internalType": "bytes32",
          "name": "name",
          "type": "bytes32"
        },
        {
          "indexed": false,
          "internalType": "uint256",
          "name": "index",
          "type": "uint256"
        },
        {
          "indexed": true,
          "internalType": "address",
          "name": "account",
          "type": "address"
        },
        {
          "indexed": false,
          "internalType": "uint256",
          "name": "amount",
          "type": "uint256"
        }
      ],
      "name": "Claimed",
      "type": "event"
    },
    {
      "inputs": [
        {
          "internalType": "bytes32",
          "name": "name",
          "type": "bytes32"
        },
        {
          "internalType": "uint256",
          "name": "amount",
          "type": "uint256"
        }
      ],
      "name": "addAirdropTokenAmount",
      "outputs": [],
      "stateMutability": "nonpayable",
      "type": "function"
    },
    {
      "inputs": [
        {
          "internalType": "bytes32",
          "name": "name",
          "type": "bytes32"
        },
        {
          "internalType": "uint256",
          "name": "index",
          "type": "uint256"
        },
        {
          "internalType": "address",
          "name": "account",
          "type": "address"
        },
        {
          "internalType": "uint256",
          "name": "amount",
          "type": "uint256"
        },
        {
          "internalType": "bytes32[]",
          "name": "merkleProof",
          "type": "bytes32[]"
        }
      ],
      "name": "claim",
      "outputs": [],
      "stateMutability": "nonpayable",
      "type": "function"
    },
    {
      "inputs": [
        {
          "internalType": "bytes32",
          "name": "name",
          "type": "bytes32"
        }
      ],
      "name": "getAirdropInfo",
      "outputs": [
        {
          "components": [
            {
              "internalType": "address",
              "name": "token",
              "type": "address"
            },
            {
              "internalType": "uint256",
              "name": "depositedAmount",
              "type": "uint256"
            },
            {
              "internalType": "uint256",
              "name": "stockAmount",
              "type": "uint256"
            },
            {
              "internalType": "bytes32",
              "name": "merkleRoot",
              "type": "bytes32"
            },
            {
              "internalType": "address",
              "name": "owner",
              "type": "address"
            }
          ],
          "internalType": "struct MerkleAirdrop.airdopInfo",
          "name": "",
          "type": "tuple"
        }
      ],
      "stateMutability": "view",
      "type": "function"
    },
    {
      "inputs": [
        {
          "internalType": "bytes32",
          "name": "name",
          "type": "bytes32"
        }
      ],
      "name": "isAirdropInfoNotExist",
      "outputs": [
        {
          "internalType": "bool",
          "name": "",
          "type": "bool"
        }
      ],
      "stateMutability": "view",
      "type": "function"
    },
    {
      "inputs": [
        {
          "internalType": "bytes32",
          "name": "name",
          "type": "bytes32"
        },
        {
          "internalType": "uint256",
          "name": "index",
          "type": "uint256"
        }
      ],
      "name": "isClaimed",
      "outputs": [
        {
          "internalType": "bool",
          "name": "",
          "type": "bool"
        }
      ],
      "stateMutability": "view",
      "type": "function"
    },
    {
      "inputs": [
        {
          "internalType": "bytes32",
          "name": "name",
          "type": "bytes32"
        },
        {
          "internalType": "address",
          "name": "token",
          "type": "address"
        },
        {
          "internalType": "uint256",
          "name": "depositedAmount",
          "type": "uint256"
        },
        {
          "internalType": "bytes32",
          "name": "merkleRoot",
          "type": "bytes32"
        },
        {
          "internalType": "address",
          "name": "owner",
          "type": "address"
        }
      ],
      "name": "registAirdropInfo",
      "outputs": [],
      "stateMutability": "nonpayable",
      "type": "function"
    },
    {
      "inputs": [
        {
          "internalType": "bytes32",
          "name": "name",
          "type": "bytes32"
        }
      ],
      "name": "withdrawUnclaimedToken",
      "outputs": [],
      "stateMutability": "nonpayable",
      "type": "function"
    }
  ],
  "bytecode": "0x608060405234801561001057600080fd5b50611c68806100206000396000f3fe608060405234801561001057600080fd5b506004361061007d5760003560e01c80637a0c388a1161005b5780637a0c388a146100ea5780637e22b75a1461011a57806385f5276f14610136578063aec85f9f146101665761007d565b806304f600351461008257806315617cd81461009e57806337c128f5146100ce575b600080fd5b61009c600480360381019061009791906113b1565b610182565b005b6100b860048036038101906100b3919061142c565b6104b0565b6040516100c591906114ee565b60405180910390f35b6100e860048036038101906100e3919061142c565b6105e8565b005b61010460048036038101906100ff919061142c565b610804565b6040516101119190611524565b60405180910390f35b610134600480360381019061012f91906115a4565b610871565b005b610150600480360381019061014b919061163e565b610b92565b60405161015d9190611524565b60405180910390f35b610180600480360381019061017b919061163e565b610c34565b005b600073ffffffffffffffffffffffffffffffffffffffff1660008087815260200190815260200160002060000160009054906101000a900473ffffffffffffffffffffffffffffffffffffffff1673ffffffffffffffffffffffffffffffffffffffff161461021d576040517f87ecff6c00000000000000000000000000000000000000000000000000000000815260040160405180910390fd5b600073ffffffffffffffffffffffffffffffffffffffff168473ffffffffffffffffffffffffffffffffffffffff1603610283576040517f87a873e800000000000000000000000000000000000000000000000000000000815260040160405180910390fd5b600073ffffffffffffffffffffffffffffffffffffffff168173ffffffffffffffffffffffffffffffffffffffff16036102e9576040517f87a873e800000000000000000000000000000000000000000000000000000000815260040160405180910390fd5b8373ffffffffffffffffffffffffffffffffffffffff1663095ea7b330856040518363ffffffff1660e01b815260040161032492919061169c565b6020604051808303816000875af1158015610343573d6000803e3d6000fd5b505050506040513d601f19601f8201168201806040525081019061036791906116f1565b506103953330858773ffffffffffffffffffffffffffffffffffffffff16610db9909392919063ffffffff16565b6040518060a001604052808573ffffffffffffffffffffffffffffffffffffffff1681526020018481526020018481526020018381526020018273ffffffffffffffffffffffffffffffffffffffff1681525060008087815260200190815260200160002060008201518160000160006101000a81548173ffffffffffffffffffffffffffffffffffffffff021916908373ffffffffffffffffffffffffffffffffffffffff16021790555060208201518160010155604082015181600201556060820151816003015560808201518160040160006101000a81548173ffffffffffffffffffffffffffffffffffffffff021916908373ffffffffffffffffffffffffffffffffffffffff1602179055509050505050505050565b6104b861127f565b816104c281610804565b156104f9576040517f8289313a00000000000000000000000000000000000000000000000000000000815260040160405180910390fd5b6000808481526020019081526020016000206040518060a00160405290816000820160009054906101000a900473ffffffffffffffffffffffffffffffffffffffff1673ffffffffffffffffffffffffffffffffffffffff1673ffffffffffffffffffffffffffffffffffffffff1681526020016001820154815260200160028201548152602001600382015481526020016004820160009054906101000a900473ffffffffffffffffffffffffffffffffffffffff1673ffffffffffffffffffffffffffffffffffffffff1673ffffffffffffffffffffffffffffffffffffffff1681525050915050919050565b806105f281610804565b15610629576040517f8289313a00000000000000000000000000000000000000000000000000000000815260040160405180910390fd5b60008060008481526020019081526020016000206040518060a00160405290816000820160009054906101000a900473ffffffffffffffffffffffffffffffffffffffff1673ffffffffffffffffffffffffffffffffffffffff1673ffffffffffffffffffffffffffffffffffffffff1681526020016001820154815260200160028201548152602001600382015481526020016004820160009054906101000a900473ffffffffffffffffffffffffffffffffffffffff1673ffffffffffffffffffffffffffffffffffffffff1673ffffffffffffffffffffffffffffffffffffffff16815250509050806080015173ffffffffffffffffffffffffffffffffffffffff163373ffffffffffffffffffffffffffffffffffffffff161461077d576040517f30cd747100000000000000000000000000000000000000000000000000000000815260040160405180910390fd5b806040015160008085815260200190815260200160002060010160008282546107a6919061174d565b925050819055506000806000858152602001908152602001600020600201819055506107ff81608001518260400151836000015173ffffffffffffffffffffffffffffffffffffffff16610e429092919063ffffffff16565b505050565b60008073ffffffffffffffffffffffffffffffffffffffff1660008084815260200190815260200160002060000160009054906101000a900473ffffffffffffffffffffffffffffffffffffffff1673ffffffffffffffffffffffffffffffffffffffff16149050919050565b8561087b81610804565b156108b2576040517f8289313a00000000000000000000000000000000000000000000000000000000815260040160405180910390fd5b60008060008981526020019081526020016000206040518060a00160405290816000820160009054906101000a900473ffffffffffffffffffffffffffffffffffffffff1673ffffffffffffffffffffffffffffffffffffffff1673ffffffffffffffffffffffffffffffffffffffff1681526020016001820154815260200160028201548152602001600382015481526020016004820160009054906101000a900473ffffffffffffffffffffffffffffffffffffffff1673ffffffffffffffffffffffffffffffffffffffff1673ffffffffffffffffffffffffffffffffffffffff168152505090506109a78888610b92565b156109de576040517f646cf55800000000000000000000000000000000000000000000000000000000815260040160405180910390fd5b8481604001511015610a1c576040517fcb6e851c00000000000000000000000000000000000000000000000000000000815260040160405180910390fd5b6000878787604051602001610a33939291906117ea565b604051602081830303815290604052805190602001209050610a9b858580806020026020016040519081016040528093929190818152602001838360200280828437600081840152601f19601f82011690508083019250505050505050836060015183610ec8565b610ad1576040517f09bde33900000000000000000000000000000000000000000000000000000000815260040160405180910390fd5b610adb8989610edf565b856000808b81526020019081526020016000206002016000828254610b00919061174d565b92505081905550610b368787846000015173ffffffffffffffffffffffffffffffffffffffff16610e429092919063ffffffff16565b8673ffffffffffffffffffffffffffffffffffffffff16897f53e1382837b65097f1436df00ad198ee1ef46d20d3209d9d951b2c5560e9e6238a89604051610b7f929190611827565b60405180910390a3505050505050505050565b600082610b9e81610804565b15610bd5576040517f8289313a00000000000000000000000000000000000000000000000000000000815260040160405180910390fd5b6000600884901c9050600061010085610bee919061187f565b905060006001600088815260200190815260200160002060008481526020019081526020016000205490506000826001901b905080818316149550505050505092915050565b81610c3e81610804565b15610c75576040517f8289313a00000000000000000000000000000000000000000000000000000000815260040160405180910390fd5b600080600085815260200190815260200160002060000160009054906101000a900473ffffffffffffffffffffffffffffffffffffffff1690508073ffffffffffffffffffffffffffffffffffffffff1663095ea7b330856040518363ffffffff1660e01b8152600401610cea92919061169c565b6020604051808303816000875af1158015610d09573d6000803e3d6000fd5b505050506040513d601f19601f82011682018060405250810190610d2d91906116f1565b50610d5b3330858473ffffffffffffffffffffffffffffffffffffffff16610db9909392919063ffffffff16565b826000808681526020019081526020016000206001016000828254610d8091906118b0565b92505081905550826000808681526020019081526020016000206002016000828254610dac91906118b0565b9250508190555050505050565b610e3c846323b872dd60e01b858585604051602401610dda939291906118e4565b604051602081830303815290604052907bffffffffffffffffffffffffffffffffffffffffffffffffffffffff19166020820180517bffffffffffffffffffffffffffffffffffffffffffffffffffffffff8381831617835250505050610f53565b50505050565b610ec38363a9059cbb60e01b8484604051602401610e6192919061169c565b604051602081830303815290604052907bffffffffffffffffffffffffffffffffffffffffffffffffffffffff19166020820180517bffffffffffffffffffffffffffffffffffffffffffffffffffffffff8381831617835250505050610f53565b505050565b600082610ed5858461101a565b1490509392505050565b6000600882901c9050600061010083610ef8919061187f565b9050806001901b60016000868152602001908152602001600020600084815260200190815260200160002054176001600086815260200190815260200160002060008481526020019081526020016000208190555050505050565b6000610fb5826040518060400160405280602081526020017f5361666545524332303a206c6f772d6c6576656c2063616c6c206661696c65648152508573ffffffffffffffffffffffffffffffffffffffff166110709092919063ffffffff16565b90506000815111156110155780806020019051810190610fd591906116f1565b611014576040517f08c379a000000000000000000000000000000000000000000000000000000000815260040161100b9061199e565b60405180910390fd5b5b505050565b60008082905060005b84518110156110655761105082868381518110611043576110426119be565b5b6020026020010151611088565b9150808061105d906119ed565b915050611023565b508091505092915050565b606061107f84846000856110b3565b90509392505050565b60008183106110a05761109b8284611180565b6110ab565b6110aa8383611180565b5b905092915050565b6060824710156110f8576040517f08c379a00000000000000000000000000000000000000000000000000000000081526004016110ef90611aa7565b60405180910390fd5b6000808673ffffffffffffffffffffffffffffffffffffffff1685876040516111219190611b38565b60006040518083038185875af1925050503d806000811461115e576040519150601f19603f3d011682016040523d82523d6000602084013e611163565b606091505b509150915061117487838387611197565b92505050949350505050565b600082600052816020526040600020905092915050565b606083156111f95760008351036111f1576111b18561120c565b6111f0576040517f08c379a00000000000000000000000000000000000000000000000000000000081526004016111e790611b9b565b60405180910390fd5b5b829050611204565b611203838361122f565b5b949350505050565b6000808273ffffffffffffffffffffffffffffffffffffffff163b119050919050565b6000825111156112425781518083602001fd5b806040517f08c379a00000000000000000000000000000000000000000000000000000000081526004016112769190611c10565b60405180910390fd5b6040518060a00160405280600073ffffffffffffffffffffffffffffffffffffffff168152602001600081526020016000815260200160008019168152602001600073ffffffffffffffffffffffffffffffffffffffff1681525090565b600080fd5b600080fd5b6000819050919050565b6112fa816112e7565b811461130557600080fd5b50565b600081359050611317816112f1565b92915050565b600073ffffffffffffffffffffffffffffffffffffffff82169050919050565b60006113488261131d565b9050919050565b6113588161133d565b811461136357600080fd5b50565b6000813590506113758161134f565b92915050565b6000819050919050565b61138e8161137b565b811461139957600080fd5b50565b6000813590506113ab81611385565b92915050565b600080600080600060a086880312156113cd576113cc6112dd565b5b60006113db88828901611308565b95505060206113ec88828901611366565b94505060406113fd8882890161139c565b935050606061140e88828901611308565b925050608061141f88828901611366565b9150509295509295909350565b600060208284031215611442576114416112dd565b5b600061145084828501611308565b91505092915050565b6114628161133d565b82525050565b6114718161137b565b82525050565b611480816112e7565b82525050565b60a08201600082015161149c6000850182611459565b5060208201516114af6020850182611468565b5060408201516114c26040850182611468565b5060608201516114d56060850182611477565b5060808201516114e86080850182611459565b50505050565b600060a0820190506115036000830184611486565b92915050565b60008115159050919050565b61151e81611509565b82525050565b60006020820190506115396000830184611515565b92915050565b600080fd5b600080fd5b600080fd5b60008083601f8401126115645761156361153f565b5b8235905067ffffffffffffffff81111561158157611580611544565b5b60208301915083602082028301111561159d5761159c611549565b5b9250929050565b60008060008060008060a087890312156115c1576115c06112dd565b5b60006115cf89828a01611308565b96505060206115e089828a0161139c565b95505060406115f189828a01611366565b945050606061160289828a0161139c565b935050608087013567ffffffffffffffff811115611623576116226112e2565b5b61162f89828a0161154e565b92509250509295509295509295565b60008060408385031215611655576116546112dd565b5b600061166385828601611308565b92505060206116748582860161139c565b9150509250929050565b6116878161133d565b82525050565b6116968161137b565b82525050565b60006040820190506116b1600083018561167e565b6116be602083018461168d565b9392505050565b6116ce81611509565b81146116d957600080fd5b50565b6000815190506116eb816116c5565b92915050565b600060208284031215611707576117066112dd565b5b6000611715848285016116dc565b91505092915050565b7f4e487b7100000000000000000000000000000000000000000000000000000000600052601160045260246000fd5b60006117588261137b565b91506117638361137b565b925082820390508181111561177b5761177a61171e565b5b92915050565b6000819050919050565b61179c6117978261137b565b611781565b82525050565b60008160601b9050919050565b60006117ba826117a2565b9050919050565b60006117cc826117af565b9050919050565b6117e46117df8261133d565b6117c1565b82525050565b60006117f6828661178b565b60208201915061180682856117d3565b601482019150611816828461178b565b602082019150819050949350505050565b600060408201905061183c600083018561168d565b611849602083018461168d565b9392505050565b7f4e487b7100000000000000000000000000000000000000000000000000000000600052601260045260246000fd5b600061188a8261137b565b91506118958361137b565b9250826118a5576118a4611850565b5b828206905092915050565b60006118bb8261137b565b91506118c68361137b565b92508282019050808211156118de576118dd61171e565b5b92915050565b60006060820190506118f9600083018661167e565b611906602083018561167e565b611913604083018461168d565b949350505050565b600082825260208201905092915050565b7f5361666545524332303a204552433230206f7065726174696f6e20646964206e60008201527f6f74207375636365656400000000000000000000000000000000000000000000602082015250565b6000611988602a8361191b565b91506119938261192c565b604082019050919050565b600060208201905081810360008301526119b78161197b565b9050919050565b7f4e487b7100000000000000000000000000000000000000000000000000000000600052603260045260246000fd5b60006119f88261137b565b91507fffffffffffffffffffffffffffffffffffffffffffffffffffffffffffffffff8203611a2a57611a2961171e565b5b600182019050919050565b7f416464726573733a20696e73756666696369656e742062616c616e636520666f60008201527f722063616c6c0000000000000000000000000000000000000000000000000000602082015250565b6000611a9160268361191b565b9150611a9c82611a35565b604082019050919050565b60006020820190508181036000830152611ac081611a84565b9050919050565b600081519050919050565b600081905092915050565b60005b83811015611afb578082015181840152602081019050611ae0565b60008484015250505050565b6000611b1282611ac7565b611b1c8185611ad2565b9350611b2c818560208601611add565b80840191505092915050565b6000611b448284611b07565b915081905092915050565b7f416464726573733a2063616c6c20746f206e6f6e2d636f6e7472616374000000600082015250565b6000611b85601d8361191b565b9150611b9082611b4f565b602082019050919050565b60006020820190508181036000830152611bb481611b78565b9050919050565b600081519050919050565b6000601f19601f8301169050919050565b6000611be282611bbb565b611bec818561191b565b9350611bfc818560208601611add565b611c0581611bc6565b840191505092915050565b60006020820190508181036000830152611c2a8184611bd7565b90509291505056fea26469706673582212205a3f62127749f19021f405399c2089de3691ddbb4eb9653e04426457820f9b0b64736f6c63430008110033",
  "linkReferences": {},
  "deployedLinkReferences": {}
}