{
  "_format": "hh-sol-artifact-1",
  "contractName": "MerkleAirdrop",
  "sourceName": "contracts/MerkleAirdrop.sol",
  "abi": [
    {
      "inputs": [],
      "name": "AirDropInfoExist",
      "type": "error"
    },
    {
      "inputs": [],
      "name": "AirDropInfoNotExist",
      "type": "error"
    },
    {
      "inputs": [],
      "name": "AlreadyClaimed",
      "type": "error"
    },
    {
      "inputs": [],
      "name": "AmountNotEnough",
      "type": "error"
    },
    {
      "inputs": [],
      "name": "InvalidProof",
      "type": "error"
    },
    {
      "inputs": [],
      "name": "NotOwner",
      "type": "error"
    },
    {
      "inputs": [],
      "name": "NotZeroRequired",
      "type": "error"
    },
    {
      "anonymous": false,
      "inputs": [
        {
          "indexed": true,
          "internalType": "bytes32",
          "name": "name",
          "type": "bytes32"
        },
        {
          "indexed": false,
          "internalType": "uint256",
          "name": "index",
          "type": "uint256"
        },
        {
          "indexed": true,
          "internalType": "address",
          "name": "account",
          "type": "address"
        },
        {
          "indexed": false,
          "internalType": "uint256",
          "name": "amount",
          "type": "uint256"
        }
      ],
      "name": "Claimed",
      "type": "event"
    },
    {
      "inputs": [
        {
          "internalType": "bytes32",
          "name": "name",
          "type": "bytes32"
        },
        {
          "internalType": "uint256",
          "name": "amount",
          "type": "uint256"
        }
      ],
      "name": "addAirdropTokenAmount",
      "outputs": [],
      "stateMutability": "nonpayable",
      "type": "function"
    },
    {
      "inputs": [
        {
          "internalType": "bytes32",
          "name": "name",
          "type": "bytes32"
        },
        {
          "internalType": "uint256",
          "name": "index",
          "type": "uint256"
        },
        {
          "internalType": "address",
          "name": "account",
          "type": "address"
        },
        {
          "internalType": "uint256",
          "name": "amount",
          "type": "uint256"
        },
        {
          "internalType": "bytes32[]",
          "name": "merkleProof",
          "type": "bytes32[]"
        }
      ],
      "name": "claim",
      "outputs": [],
      "stateMutability": "nonpayable",
      "type": "function"
    },
    {
      "inputs": [
        {
          "internalType": "bytes32",
          "name": "name",
          "type": "bytes32"
        }
      ],
      "name": "getAirdropInfo",
      "outputs": [
        {
          "components": [
            {
              "internalType": "address",
              "name": "token",
              "type": "address"
            },
            {
              "internalType": "uint256",
              "name": "depositedAmount",
              "type": "uint256"
            },
            {
              "internalType": "uint256",
              "name": "stockAmount",
              "type": "uint256"
            },
            {
              "internalType": "bytes32",
              "name": "merkleRoot",
              "type": "bytes32"
            },
            {
              "internalType": "address",
              "name": "owner",
              "type": "address"
            }
          ],
          "internalType": "struct MerkleAirdrop.airdopInfo",
          "name": "",
          "type": "tuple"
        }
      ],
      "stateMutability": "view",
      "type": "function"
    },
    {
      "inputs": [
        {
          "internalType": "bytes32",
          "name": "name",
          "type": "bytes32"
        }
      ],
      "name": "isAirdropInfoExist",
      "outputs": [
        {
          "internalType": "bool",
          "name": "",
          "type": "bool"
        }
      ],
      "stateMutability": "view",
      "type": "function"
    },
    {
      "inputs": [
        {
          "internalType": "bytes32",
          "name": "name",
          "type": "bytes32"
        },
        {
          "internalType": "uint256",
          "name": "index",
          "type": "uint256"
        }
      ],
      "name": "isClaimed",
      "outputs": [
        {
          "internalType": "bool",
          "name": "",
          "type": "bool"
        }
      ],
      "stateMutability": "view",
      "type": "function"
    },
    {
      "inputs": [
        {
          "internalType": "bytes32",
          "name": "name",
          "type": "bytes32"
        },
        {
          "internalType": "address",
          "name": "token",
          "type": "address"
        },
        {
          "internalType": "uint256",
          "name": "depositedAmount",
          "type": "uint256"
        },
        {
          "internalType": "bytes32",
          "name": "merkleRoot",
          "type": "bytes32"
        },
        {
          "internalType": "address",
          "name": "owner",
          "type": "address"
        }
      ],
      "name": "registAirdropInfo",
      "outputs": [],
      "stateMutability": "nonpayable",
      "type": "function"
    },
    {
      "inputs": [
        {
          "internalType": "bytes32",
          "name": "name",
          "type": "bytes32"
        }
      ],
      "name": "withdrawUnclaimedToken",
      "outputs": [],
      "stateMutability": "nonpayable",
      "type": "function"
    }
  ],
  "bytecode": "0x608060405234801561001057600080fd5b50610dcf806100206000396000f3fe608060405234801561001057600080fd5b506004361061007d5760003560e01c80637e22b75a1161005b5780637e22b75a1461010f57806385f5276f14610122578063aae9682314610145578063aec85f9f1461015857600080fd5b806304f600351461008257806315617cd81461009757806337c128f5146100fc575b600080fd5b610095610090366004610b4a565b61016b565b005b6100aa6100a5366004610b9a565b61027a565b6040516100f3919081516001600160a01b039081168252602080840151908301526040808401519083015260608084015190830152608092830151169181019190915260a00190565b60405180910390f35b61009561010a366004610b9a565b610324565b61009561011d366004610bb3565b610428565b610135610130366004610c55565b61062f565b60405190151581526020016100f3565b610135610153366004610b9a565b610697565b610095610166366004610c55565b6106b4565b61017485610697565b15610192576040516321fb3fdb60e21b815260040160405180910390fd5b6001600160a01b0384166101b9576040516310f50e7d60e31b815260040160405180910390fd5b6001600160a01b0381166101e0576040516310f50e7d60e31b815260040160405180910390fd5b6101f56001600160a01b038516333086610751565b6040805160a0810182526001600160a01b0395861681526020808201868152828401968752606083019586529387166080830190815260009889529088905291909620955186549086166001600160a01b0319918216178755915160018701559251600286015590516003850155905160049093018054939092169216919091179055565b6040805160a081018252600080825260208201819052918101829052606081018290526080810191909152816102af81610697565b6102cc57604051634144989d60e11b815260040160405180910390fd5b505060009081526020818152604091829020825160a08101845281546001600160a01b039081168252600183015493820193909352600282015493810193909352600381015460608401526004015416608082015290565b8061032e81610697565b61034b57604051634144989d60e11b815260040160405180910390fd5b60008281526020818152604091829020825160a08101845281546001600160a01b0390811682526001830154938201939093526002820154938101939093526003810154606084015260040154166080820181905233146103bf576040516330cd747160e01b815260040160405180910390fd5b806040015160008085815260200190815260200160002060010160008282546103e89190610c8d565b9091555050600083815260208190526040808220600201919091556080820151908201518251610423926001600160a01b03909116916107c2565b505050565b8561043281610697565b61044f57604051634144989d60e11b815260040160405180910390fd5b60008781526020818152604091829020825160a08101845281546001600160a01b03908116825260018301549382019390935260028201549381019390935260038101546060840152600401541660808201526104ac888861062f565b156104ca57604051630c8d9eab60e31b815260040160405180910390fd5b84816040015110156104ef576040516332dba14760e21b815260040160405180910390fd5b60408051602081018990526bffffffffffffffffffffffff19606089901b16918101919091526054810186905260009060740160405160208183030381529060405280519060200120905061057b8585808060200260200160405190810160405280939291908181526020018383602002808284376000920191909152505050506060840151836107f2565b610598576040516309bde33960e01b815260040160405180910390fd5b6105a28989610808565b600089815260208190526040812060020180548892906105c3908490610c8d565b909155505081516105de906001600160a01b031688886107c2565b60408051898152602081018890526001600160a01b038916918b917f53e1382837b65097f1436df00ad198ee1ef46d20d3209d9d951b2c5560e9e623910160405180910390a3505050505050505050565b60008261063b81610697565b61065857604051634144989d60e11b815260040160405180910390fd5b600883901c600061066b61010086610ca0565b6000968752600160208181526040808a20958a5294905292909620549190951b90811614949350505050565b6000908152602081905260409020546001600160a01b0316151590565b816106be81610697565b6106db57604051634144989d60e11b815260040160405180910390fd5b6000838152602081905260409020546001600160a01b03166106ff81333086610751565b60008481526020819052604081206001018054859290610720908490610cc2565b909155505060008481526020819052604081206002018054859290610746908490610cc2565b909155505050505050565b6040516001600160a01b03808516602483015283166044820152606481018290526107bc9085906323b872dd60e01b906084015b60408051601f198184030181529190526020810180516001600160e01b03166001600160e01b031990931692909217909152610846565b50505050565b6040516001600160a01b03831660248201526044810182905261042390849063a9059cbb60e01b90606401610785565b6000826107ff858461091d565b14949350505050565b600881901c600061081b61010084610ca0565b60009485526001602081815260408088209588529490529290942080549290941b9091179092555050565b600061089b826040518060400160405280602081526020017f5361666545524332303a206c6f772d6c6576656c2063616c6c206661696c6564815250856001600160a01b031661096c9092919063ffffffff16565b80519091501561042357808060200190518101906108b99190610cd5565b6104235760405162461bcd60e51b815260206004820152602a60248201527f5361666545524332303a204552433230206f7065726174696f6e20646964206e6044820152691bdd081cdd58d8d9595960b21b60648201526084015b60405180910390fd5b600081815b84518110156109625761094e8286838151811061094157610941610cf7565b6020026020010151610983565b91508061095a81610d0d565b915050610922565b5090505b92915050565b606061097b84846000856109b5565b949350505050565b600081831061099f5760008281526020849052604090206109ae565b60008381526020839052604090205b9392505050565b606082471015610a165760405162461bcd60e51b815260206004820152602660248201527f416464726573733a20696e73756666696369656e742062616c616e636520666f6044820152651c8818d85b1b60d21b6064820152608401610914565b600080866001600160a01b03168587604051610a329190610d4a565b60006040518083038185875af1925050503d8060008114610a6f576040519150601f19603f3d011682016040523d82523d6000602084013e610a74565b606091505b5091509150610a8587838387610a90565b979650505050505050565b60608315610aff578251600003610af8576001600160a01b0385163b610af85760405162461bcd60e51b815260206004820152601d60248201527f416464726573733a2063616c6c20746f206e6f6e2d636f6e74726163740000006044820152606401610914565b508161097b565b61097b8383815115610b145781518083602001fd5b8060405162461bcd60e51b81526004016109149190610d66565b80356001600160a01b0381168114610b4557600080fd5b919050565b600080600080600060a08688031215610b6257600080fd5b85359450610b7260208701610b2e565b93506040860135925060608601359150610b8e60808701610b2e565b90509295509295909350565b600060208284031215610bac57600080fd5b5035919050565b60008060008060008060a08789031215610bcc57600080fd5b8635955060208701359450610be360408801610b2e565b935060608701359250608087013567ffffffffffffffff80821115610c0757600080fd5b818901915089601f830112610c1b57600080fd5b813581811115610c2a57600080fd5b8a60208260051b8501011115610c3f57600080fd5b6020830194508093505050509295509295509295565b60008060408385031215610c6857600080fd5b50508035926020909101359150565b634e487b7160e01b600052601160045260246000fd5b8181038181111561096657610966610c77565b600082610cbd57634e487b7160e01b600052601260045260246000fd5b500690565b8082018082111561096657610966610c77565b600060208284031215610ce757600080fd5b815180151581146109ae57600080fd5b634e487b7160e01b600052603260045260246000fd5b600060018201610d1f57610d1f610c77565b5060010190565b60005b83811015610d41578181015183820152602001610d29565b50506000910152565b60008251610d5c818460208701610d26565b9190910192915050565b6020815260008251806020840152610d85816040850160208701610d26565b601f01601f1916919091016040019291505056fea2646970667358221220bb75603809f08e06dcce3b8f24d13851ee89db6cb5d48bd6dda1bceb06827c5864736f6c63430008110033",
  "linkReferences": {},
  "deployedLinkReferences": {}
}