{
  "_format": "hh-sol-artifact-1",
  "contractName": "MerkleAirdrop",
  "sourceName": "contracts/MerkleAirdrop.sol",
  "abi": [
    {
      "inputs": [],
      "name": "AirDropInfoExist",
      "type": "error"
    },
    {
      "inputs": [],
      "name": "AirDropInfoNotExist",
      "type": "error"
    },
    {
      "inputs": [],
      "name": "AlreadyClaimed",
      "type": "error"
    },
    {
      "inputs": [],
      "name": "AmountNotEnough",
      "type": "error"
    },
    {
      "inputs": [],
      "name": "InvalidProof",
      "type": "error"
    },
    {
      "inputs": [],
      "name": "NotOwner",
      "type": "error"
    },
    {
      "inputs": [],
      "name": "NotZeroRequired",
      "type": "error"
    },
    {
      "anonymous": false,
      "inputs": [
        {
          "indexed": true,
          "internalType": "bytes32",
          "name": "name",
          "type": "bytes32"
        },
        {
          "indexed": false,
          "internalType": "uint256",
          "name": "index",
          "type": "uint256"
        },
        {
          "indexed": true,
          "internalType": "address",
          "name": "account",
          "type": "address"
        },
        {
          "indexed": false,
          "internalType": "uint256",
          "name": "amount",
          "type": "uint256"
        }
      ],
      "name": "Claimed",
      "type": "event"
    },
    {
      "inputs": [
        {
          "internalType": "bytes32",
          "name": "name",
          "type": "bytes32"
        },
        {
          "internalType": "uint256",
          "name": "amount",
          "type": "uint256"
        }
      ],
      "name": "addAirdropTokenAmount",
      "outputs": [],
      "stateMutability": "nonpayable",
      "type": "function"
    },
    {
      "inputs": [
        {
          "internalType": "bytes32",
          "name": "name",
          "type": "bytes32"
        },
        {
          "internalType": "uint256",
          "name": "index",
          "type": "uint256"
        },
        {
          "internalType": "address",
          "name": "account",
          "type": "address"
        },
        {
          "internalType": "uint256",
          "name": "amount",
          "type": "uint256"
        },
        {
          "internalType": "bytes32[]",
          "name": "merkleProof",
          "type": "bytes32[]"
        }
      ],
      "name": "claim",
      "outputs": [],
      "stateMutability": "nonpayable",
      "type": "function"
    },
    {
      "inputs": [
        {
          "internalType": "bytes32",
          "name": "name",
          "type": "bytes32"
        }
      ],
      "name": "getAirdropInfo",
      "outputs": [
        {
          "components": [
            {
              "internalType": "address",
              "name": "token",
              "type": "address"
            },
            {
              "internalType": "uint256",
              "name": "depositedAmount",
              "type": "uint256"
            },
            {
              "internalType": "uint256",
              "name": "stockAmount",
              "type": "uint256"
            },
            {
              "internalType": "bytes32",
              "name": "merkleRoot",
              "type": "bytes32"
            },
            {
              "internalType": "address",
              "name": "owner",
              "type": "address"
            }
          ],
          "internalType": "struct MerkleAirdrop.airdopInfo",
          "name": "",
          "type": "tuple"
        }
      ],
      "stateMutability": "view",
      "type": "function"
    },
    {
      "inputs": [
        {
          "internalType": "bytes32",
          "name": "name",
          "type": "bytes32"
        }
      ],
      "name": "isAirdropInfoExist",
      "outputs": [
        {
          "internalType": "bool",
          "name": "",
          "type": "bool"
        }
      ],
      "stateMutability": "view",
      "type": "function"
    },
    {
      "inputs": [
        {
          "internalType": "bytes32",
          "name": "name",
          "type": "bytes32"
        },
        {
          "internalType": "uint256",
          "name": "index",
          "type": "uint256"
        }
      ],
      "name": "isClaimed",
      "outputs": [
        {
          "internalType": "bool",
          "name": "",
          "type": "bool"
        }
      ],
      "stateMutability": "view",
      "type": "function"
    },
    {
      "inputs": [
        {
          "internalType": "bytes32",
          "name": "name",
          "type": "bytes32"
        },
        {
          "internalType": "address",
          "name": "token",
          "type": "address"
        },
        {
          "internalType": "uint256",
          "name": "depositedAmount",
          "type": "uint256"
        },
        {
          "internalType": "bytes32",
          "name": "merkleRoot",
          "type": "bytes32"
        },
        {
          "internalType": "address",
          "name": "owner",
          "type": "address"
        }
      ],
      "name": "registAirdropInfo",
      "outputs": [],
      "stateMutability": "nonpayable",
      "type": "function"
    },
    {
      "inputs": [
        {
          "internalType": "bytes32",
          "name": "name",
          "type": "bytes32"
        }
      ],
      "name": "withdrawUnclaimedToken",
      "outputs": [],
      "stateMutability": "nonpayable",
      "type": "function"
    }
  ],
  "bytecode": "0x608060405234801561001057600080fd5b50611b0b806100206000396000f3fe608060405234801561001057600080fd5b506004361061007d5760003560e01c80637e22b75a1161005b5780637e22b75a146100ea57806385f5276f14610106578063aae9682314610136578063aec85f9f146101665761007d565b806304f600351461008257806315617cd81461009e57806337c128f5146100ce575b600080fd5b61009c60048036038101906100979190611254565b610182565b005b6100b860048036038101906100b391906112cf565b6103d6565b6040516100c59190611391565b60405180910390f35b6100e860048036038101906100e391906112cf565b61050d565b005b61010460048036038101906100ff9190611411565b610728565b005b610120600480360381019061011b91906114ab565b610a48565b60405161012d9190611506565b60405180910390f35b610150600480360381019061014b91906112cf565b610ae9565b60405161015d9190611506565b60405180910390f35b610180600480360381019061017b91906114ab565b610b57565b005b61018b85610ae9565b156101c2576040517f87ecff6c00000000000000000000000000000000000000000000000000000000815260040160405180910390fd5b600073ffffffffffffffffffffffffffffffffffffffff168473ffffffffffffffffffffffffffffffffffffffff1603610228576040517f87a873e800000000000000000000000000000000000000000000000000000000815260040160405180910390fd5b600073ffffffffffffffffffffffffffffffffffffffff168173ffffffffffffffffffffffffffffffffffffffff160361028e576040517f87a873e800000000000000000000000000000000000000000000000000000000815260040160405180910390fd5b6102bb3330858773ffffffffffffffffffffffffffffffffffffffff16610c5c909392919063ffffffff16565b6040518060a001604052808573ffffffffffffffffffffffffffffffffffffffff1681526020018481526020018481526020018381526020018273ffffffffffffffffffffffffffffffffffffffff1681525060008087815260200190815260200160002060008201518160000160006101000a81548173ffffffffffffffffffffffffffffffffffffffff021916908373ffffffffffffffffffffffffffffffffffffffff16021790555060208201518160010155604082015181600201556060820151816003015560808201518160040160006101000a81548173ffffffffffffffffffffffffffffffffffffffff021916908373ffffffffffffffffffffffffffffffffffffffff1602179055509050505050505050565b6103de611122565b816103e881610ae9565b61041e576040517f8289313a00000000000000000000000000000000000000000000000000000000815260040160405180910390fd5b6000808481526020019081526020016000206040518060a00160405290816000820160009054906101000a900473ffffffffffffffffffffffffffffffffffffffff1673ffffffffffffffffffffffffffffffffffffffff1673ffffffffffffffffffffffffffffffffffffffff1681526020016001820154815260200160028201548152602001600382015481526020016004820160009054906101000a900473ffffffffffffffffffffffffffffffffffffffff1673ffffffffffffffffffffffffffffffffffffffff1673ffffffffffffffffffffffffffffffffffffffff1681525050915050919050565b8061051781610ae9565b61054d576040517f8289313a00000000000000000000000000000000000000000000000000000000815260040160405180910390fd5b60008060008481526020019081526020016000206040518060a00160405290816000820160009054906101000a900473ffffffffffffffffffffffffffffffffffffffff1673ffffffffffffffffffffffffffffffffffffffff1673ffffffffffffffffffffffffffffffffffffffff1681526020016001820154815260200160028201548152602001600382015481526020016004820160009054906101000a900473ffffffffffffffffffffffffffffffffffffffff1673ffffffffffffffffffffffffffffffffffffffff1673ffffffffffffffffffffffffffffffffffffffff16815250509050806080015173ffffffffffffffffffffffffffffffffffffffff163373ffffffffffffffffffffffffffffffffffffffff16146106a1576040517f30cd747100000000000000000000000000000000000000000000000000000000815260040160405180910390fd5b806040015160008085815260200190815260200160002060010160008282546106ca9190611550565b9250508190555060008060008581526020019081526020016000206002018190555061072381608001518260400151836000015173ffffffffffffffffffffffffffffffffffffffff16610ce59092919063ffffffff16565b505050565b8561073281610ae9565b610768576040517f8289313a00000000000000000000000000000000000000000000000000000000815260040160405180910390fd5b60008060008981526020019081526020016000206040518060a00160405290816000820160009054906101000a900473ffffffffffffffffffffffffffffffffffffffff1673ffffffffffffffffffffffffffffffffffffffff1673ffffffffffffffffffffffffffffffffffffffff1681526020016001820154815260200160028201548152602001600382015481526020016004820160009054906101000a900473ffffffffffffffffffffffffffffffffffffffff1673ffffffffffffffffffffffffffffffffffffffff1673ffffffffffffffffffffffffffffffffffffffff1681525050905061085d8888610a48565b15610894576040517f646cf55800000000000000000000000000000000000000000000000000000000815260040160405180910390fd5b84816040015110156108d2576040517fcb6e851c00000000000000000000000000000000000000000000000000000000815260040160405180910390fd5b60008787876040516020016108e9939291906115ed565b604051602081830303815290604052805190602001209050610951858580806020026020016040519081016040528093929190818152602001838360200280828437600081840152601f19601f82011690508083019250505050505050836060015183610d6b565b610987576040517f09bde33900000000000000000000000000000000000000000000000000000000815260040160405180910390fd5b6109918989610d82565b856000808b815260200190815260200160002060020160008282546109b69190611550565b925050819055506109ec8787846000015173ffffffffffffffffffffffffffffffffffffffff16610ce59092919063ffffffff16565b8673ffffffffffffffffffffffffffffffffffffffff16897f53e1382837b65097f1436df00ad198ee1ef46d20d3209d9d951b2c5560e9e6238a89604051610a35929190611639565b60405180910390a3505050505050505050565b600082610a5481610ae9565b610a8a576040517f8289313a00000000000000000000000000000000000000000000000000000000815260040160405180910390fd5b6000600884901c9050600061010085610aa39190611691565b905060006001600088815260200190815260200160002060008481526020019081526020016000205490506000826001901b905080818316149550505050505092915050565b60008073ffffffffffffffffffffffffffffffffffffffff1660008084815260200190815260200160002060000160009054906101000a900473ffffffffffffffffffffffffffffffffffffffff1673ffffffffffffffffffffffffffffffffffffffff1614159050919050565b81610b6181610ae9565b610b97576040517f8289313a00000000000000000000000000000000000000000000000000000000815260040160405180910390fd5b600080600085815260200190815260200160002060000160009054906101000a900473ffffffffffffffffffffffffffffffffffffffff169050610bfe3330858473ffffffffffffffffffffffffffffffffffffffff16610c5c909392919063ffffffff16565b826000808681526020019081526020016000206001016000828254610c2391906116c2565b92505081905550826000808681526020019081526020016000206002016000828254610c4f91906116c2565b9250508190555050505050565b610cdf846323b872dd60e01b858585604051602401610c7d93929190611705565b604051602081830303815290604052907bffffffffffffffffffffffffffffffffffffffffffffffffffffffff19166020820180517bffffffffffffffffffffffffffffffffffffffffffffffffffffffff8381831617835250505050610df6565b50505050565b610d668363a9059cbb60e01b8484604051602401610d0492919061173c565b604051602081830303815290604052907bffffffffffffffffffffffffffffffffffffffffffffffffffffffff19166020820180517bffffffffffffffffffffffffffffffffffffffffffffffffffffffff8381831617835250505050610df6565b505050565b600082610d788584610ebd565b1490509392505050565b6000600882901c9050600061010083610d9b9190611691565b9050806001901b60016000868152602001908152602001600020600084815260200190815260200160002054176001600086815260200190815260200160002060008481526020019081526020016000208190555050505050565b6000610e58826040518060400160405280602081526020017f5361666545524332303a206c6f772d6c6576656c2063616c6c206661696c65648152508573ffffffffffffffffffffffffffffffffffffffff16610f139092919063ffffffff16565b9050600081511115610eb85780806020019051810190610e789190611791565b610eb7576040517f08c379a0000000000000000000000000000000000000000000000000000000008152600401610eae90611841565b60405180910390fd5b5b505050565b60008082905060005b8451811015610f0857610ef382868381518110610ee657610ee5611861565b5b6020026020010151610f2b565b91508080610f0090611890565b915050610ec6565b508091505092915050565b6060610f228484600085610f56565b90509392505050565b6000818310610f4357610f3e8284611023565b610f4e565b610f4d8383611023565b5b905092915050565b606082471015610f9b576040517f08c379a0000000000000000000000000000000000000000000000000000000008152600401610f929061194a565b60405180910390fd5b6000808673ffffffffffffffffffffffffffffffffffffffff168587604051610fc491906119db565b60006040518083038185875af1925050503d8060008114611001576040519150601f19603f3d011682016040523d82523d6000602084013e611006565b606091505b50915091506110178783838761103a565b92505050949350505050565b600082600052816020526040600020905092915050565b6060831561109c57600083510361109457611054856110af565b611093576040517f08c379a000000000000000000000000000000000000000000000000000000000815260040161108a90611a3e565b60405180910390fd5b5b8290506110a7565b6110a683836110d2565b5b949350505050565b6000808273ffffffffffffffffffffffffffffffffffffffff163b119050919050565b6000825111156110e55781518083602001fd5b806040517f08c379a00000000000000000000000000000000000000000000000000000000081526004016111199190611ab3565b60405180910390fd5b6040518060a00160405280600073ffffffffffffffffffffffffffffffffffffffff168152602001600081526020016000815260200160008019168152602001600073ffffffffffffffffffffffffffffffffffffffff1681525090565b600080fd5b600080fd5b6000819050919050565b61119d8161118a565b81146111a857600080fd5b50565b6000813590506111ba81611194565b92915050565b600073ffffffffffffffffffffffffffffffffffffffff82169050919050565b60006111eb826111c0565b9050919050565b6111fb816111e0565b811461120657600080fd5b50565b600081359050611218816111f2565b92915050565b6000819050919050565b6112318161121e565b811461123c57600080fd5b50565b60008135905061124e81611228565b92915050565b600080600080600060a086880312156112705761126f611180565b5b600061127e888289016111ab565b955050602061128f88828901611209565b94505060406112a08882890161123f565b93505060606112b1888289016111ab565b92505060806112c288828901611209565b9150509295509295909350565b6000602082840312156112e5576112e4611180565b5b60006112f3848285016111ab565b91505092915050565b611305816111e0565b82525050565b6113148161121e565b82525050565b6113238161118a565b82525050565b60a08201600082015161133f60008501826112fc565b506020820151611352602085018261130b565b506040820151611365604085018261130b565b506060820151611378606085018261131a565b50608082015161138b60808501826112fc565b50505050565b600060a0820190506113a66000830184611329565b92915050565b600080fd5b600080fd5b600080fd5b60008083601f8401126113d1576113d06113ac565b5b8235905067ffffffffffffffff8111156113ee576113ed6113b1565b5b60208301915083602082028301111561140a576114096113b6565b5b9250929050565b60008060008060008060a0878903121561142e5761142d611180565b5b600061143c89828a016111ab565b965050602061144d89828a0161123f565b955050604061145e89828a01611209565b945050606061146f89828a0161123f565b935050608087013567ffffffffffffffff8111156114905761148f611185565b5b61149c89828a016113bb565b92509250509295509295509295565b600080604083850312156114c2576114c1611180565b5b60006114d0858286016111ab565b92505060206114e18582860161123f565b9150509250929050565b60008115159050919050565b611500816114eb565b82525050565b600060208201905061151b60008301846114f7565b92915050565b7f4e487b7100000000000000000000000000000000000000000000000000000000600052601160045260246000fd5b600061155b8261121e565b91506115668361121e565b925082820390508181111561157e5761157d611521565b5b92915050565b6000819050919050565b61159f61159a8261121e565b611584565b82525050565b60008160601b9050919050565b60006115bd826115a5565b9050919050565b60006115cf826115b2565b9050919050565b6115e76115e2826111e0565b6115c4565b82525050565b60006115f9828661158e565b60208201915061160982856115d6565b601482019150611619828461158e565b602082019150819050949350505050565b6116338161121e565b82525050565b600060408201905061164e600083018561162a565b61165b602083018461162a565b9392505050565b7f4e487b7100000000000000000000000000000000000000000000000000000000600052601260045260246000fd5b600061169c8261121e565b91506116a78361121e565b9250826116b7576116b6611662565b5b828206905092915050565b60006116cd8261121e565b91506116d88361121e565b92508282019050808211156116f0576116ef611521565b5b92915050565b6116ff816111e0565b82525050565b600060608201905061171a60008301866116f6565b61172760208301856116f6565b611734604083018461162a565b949350505050565b600060408201905061175160008301856116f6565b61175e602083018461162a565b9392505050565b61176e816114eb565b811461177957600080fd5b50565b60008151905061178b81611765565b92915050565b6000602082840312156117a7576117a6611180565b5b60006117b58482850161177c565b91505092915050565b600082825260208201905092915050565b7f5361666545524332303a204552433230206f7065726174696f6e20646964206e60008201527f6f74207375636365656400000000000000000000000000000000000000000000602082015250565b600061182b602a836117be565b9150611836826117cf565b604082019050919050565b6000602082019050818103600083015261185a8161181e565b9050919050565b7f4e487b7100000000000000000000000000000000000000000000000000000000600052603260045260246000fd5b600061189b8261121e565b91507fffffffffffffffffffffffffffffffffffffffffffffffffffffffffffffffff82036118cd576118cc611521565b5b600182019050919050565b7f416464726573733a20696e73756666696369656e742062616c616e636520666f60008201527f722063616c6c0000000000000000000000000000000000000000000000000000602082015250565b60006119346026836117be565b915061193f826118d8565b604082019050919050565b6000602082019050818103600083015261196381611927565b9050919050565b600081519050919050565b600081905092915050565b60005b8381101561199e578082015181840152602081019050611983565b60008484015250505050565b60006119b58261196a565b6119bf8185611975565b93506119cf818560208601611980565b80840191505092915050565b60006119e782846119aa565b915081905092915050565b7f416464726573733a2063616c6c20746f206e6f6e2d636f6e7472616374000000600082015250565b6000611a28601d836117be565b9150611a33826119f2565b602082019050919050565b60006020820190508181036000830152611a5781611a1b565b9050919050565b600081519050919050565b6000601f19601f8301169050919050565b6000611a8582611a5e565b611a8f81856117be565b9350611a9f818560208601611980565b611aa881611a69565b840191505092915050565b60006020820190508181036000830152611acd8184611a7a565b90509291505056fea2646970667358221220dfe2539688798e22067e08f4f3e6f352ee08f9f88fb1e4fec9799d3c1252b05c64736f6c63430008110033",
  "linkReferences": {},
  "deployedLinkReferences": {}
}