{
  "_format": "hh-sol-artifact-1",
  "contractName": "MerkleAirdrop",
  "sourceName": "contracts/MerkleAirdrop.sol",
  "abi": [
    {
      "inputs": [
        {
          "internalType": "contract IPermit2",
          "name": "permit_",
          "type": "address"
        }
      ],
      "stateMutability": "nonpayable",
      "type": "constructor"
    },
    {
      "inputs": [],
      "name": "AirDropInfoExist",
      "type": "error"
    },
    {
      "inputs": [],
      "name": "AirDropInfoNotExist",
      "type": "error"
    },
    {
      "inputs": [],
      "name": "AlreadyClaimed",
      "type": "error"
    },
    {
      "inputs": [],
      "name": "AmountNotEnough",
      "type": "error"
    },
    {
      "inputs": [],
      "name": "InvalidProof",
      "type": "error"
    },
    {
      "inputs": [],
      "name": "NotOwner",
      "type": "error"
    },
    {
      "anonymous": false,
      "inputs": [
        {
          "indexed": true,
          "internalType": "bytes32",
          "name": "name",
          "type": "bytes32"
        },
        {
          "indexed": false,
          "internalType": "uint256",
          "name": "index",
          "type": "uint256"
        },
        {
          "indexed": true,
          "internalType": "address",
          "name": "account",
          "type": "address"
        },
        {
          "indexed": false,
          "internalType": "uint256",
          "name": "amount",
          "type": "uint256"
        }
      ],
      "name": "Claimed",
      "type": "event"
    },
    {
      "inputs": [],
      "name": "Permit2",
      "outputs": [
        {
          "internalType": "contract IPermit2",
          "name": "",
          "type": "address"
        }
      ],
      "stateMutability": "view",
      "type": "function"
    },
    {
      "inputs": [
        {
          "internalType": "bytes32",
          "name": "name",
          "type": "bytes32"
        },
        {
          "internalType": "uint256",
          "name": "index",
          "type": "uint256"
        },
        {
          "internalType": "address",
          "name": "account",
          "type": "address"
        },
        {
          "internalType": "uint256",
          "name": "amount",
          "type": "uint256"
        },
        {
          "internalType": "bytes32[]",
          "name": "merkleProof",
          "type": "bytes32[]"
        }
      ],
      "name": "claim",
      "outputs": [],
      "stateMutability": "nonpayable",
      "type": "function"
    },
    {
      "inputs": [
        {
          "internalType": "bytes32",
          "name": "name",
          "type": "bytes32"
        },
        {
          "internalType": "uint256",
          "name": "depositAmount",
          "type": "uint256"
        },
        {
          "internalType": "uint256",
          "name": "nonce",
          "type": "uint256"
        },
        {
          "internalType": "uint256",
          "name": "deadline",
          "type": "uint256"
        },
        {
          "internalType": "bytes",
          "name": "signature",
          "type": "bytes"
        }
      ],
      "name": "depositAirdropToken",
      "outputs": [],
      "stateMutability": "nonpayable",
      "type": "function"
    },
    {
      "inputs": [
        {
          "internalType": "bytes32",
          "name": "name",
          "type": "bytes32"
        }
      ],
      "name": "getAirdropInfo",
      "outputs": [
        {
          "components": [
            {
              "internalType": "address",
              "name": "token",
              "type": "address"
            },
            {
              "internalType": "address",
              "name": "owner",
              "type": "address"
            },
            {
              "internalType": "bytes32",
              "name": "merkleRoot",
              "type": "bytes32"
            },
            {
              "internalType": "uint256",
              "name": "depositedAmount",
              "type": "uint256"
            },
            {
              "internalType": "uint256",
              "name": "stockAmount",
              "type": "uint256"
            }
          ],
          "internalType": "struct MerkleAirdrop.airdopInfo",
          "name": "",
          "type": "tuple"
        }
      ],
      "stateMutability": "view",
      "type": "function"
    },
    {
      "inputs": [
        {
          "internalType": "bytes32",
          "name": "name",
          "type": "bytes32"
        }
      ],
      "name": "isAirdropInfoExist",
      "outputs": [
        {
          "internalType": "bool",
          "name": "",
          "type": "bool"
        }
      ],
      "stateMutability": "view",
      "type": "function"
    },
    {
      "inputs": [
        {
          "internalType": "bytes32",
          "name": "name",
          "type": "bytes32"
        },
        {
          "internalType": "uint256",
          "name": "index",
          "type": "uint256"
        }
      ],
      "name": "isClaimed",
      "outputs": [
        {
          "internalType": "bool",
          "name": "",
          "type": "bool"
        }
      ],
      "stateMutability": "view",
      "type": "function"
    },
    {
      "inputs": [
        {
          "internalType": "bytes32",
          "name": "name",
          "type": "bytes32"
        },
        {
          "internalType": "address",
          "name": "token",
          "type": "address"
        },
        {
          "internalType": "bytes32",
          "name": "merkleRoot",
          "type": "bytes32"
        }
      ],
      "name": "registAirdropInfo",
      "outputs": [],
      "stateMutability": "nonpayable",
      "type": "function"
    },
    {
      "inputs": [
        {
          "internalType": "bytes32",
          "name": "name",
          "type": "bytes32"
        },
        {
          "internalType": "address",
          "name": "token",
          "type": "address"
        },
        {
          "internalType": "bytes32",
          "name": "merkleRoot",
          "type": "bytes32"
        },
        {
          "internalType": "uint256",
          "name": "depositAmount",
          "type": "uint256"
        },
        {
          "internalType": "uint256",
          "name": "nonce",
          "type": "uint256"
        },
        {
          "internalType": "uint256",
          "name": "deadline",
          "type": "uint256"
        },
        {
          "internalType": "bytes",
          "name": "signature",
          "type": "bytes"
        }
      ],
      "name": "registAirdropInfoWithDeposit",
      "outputs": [],
      "stateMutability": "nonpayable",
      "type": "function"
    },
    {
      "inputs": [
        {
          "internalType": "bytes32",
          "name": "name",
          "type": "bytes32"
        }
      ],
      "name": "withdrawDepositedToken",
      "outputs": [],
      "stateMutability": "nonpayable",
      "type": "function"
    }
  ],
  "bytecode": "0x60a060405234801561001057600080fd5b506040516112ce3803806112ce83398101604081905261002f91610040565b6001600160a01b0316608052610070565b60006020828403121561005257600080fd5b81516001600160a01b038116811461006957600080fd5b9392505050565b60805161123561009960003960008181610197015281816106e001526108f201526112356000f3fe608060405234801561001057600080fd5b50600436106100a35760003560e01c8063aae9682311610076578063dc87d1b71161005b578063dc87d1b714610247578063ea99b40a1461025a578063f77227781461026d57600080fd5b8063aae9682314610209578063bd0bd3001461023457600080fd5b806315617cd8146100a857806339514480146101925780637e22b75a146101d157806385f5276f146101e6575b600080fd5b61013a6100b6366004610ddd565b6040805160a0810182526000808252602082018190529181018290526060810182905260808101919091525060009081526020818152604091829020825160a08101845281546001600160a01b0390811682526001830154169281019290925260028101549282019290925260038201546060820152600490910154608082015290565b6040516101899190600060a0820190506001600160a01b038084511683528060208501511660208401525060408301516040830152606083015160608301526080830151608083015292915050565b60405180910390f35b6101b97f000000000000000000000000000000000000000000000000000000000000000081565b6040516001600160a01b039091168152602001610189565b6101e46101df366004610e12565b610280565b005b6101f96101f4366004610eb4565b6104e4565b6040519015158152602001610189565b6101f9610217366004610ddd565b6000908152602081905260409020546001600160a01b0316151590565b6101e4610242366004610ddd565b610526565b6101e4610255366004610f1f565b61064b565b6101e4610268366004610f89565b6107a8565b6101e461027b366004610fbe565b61086b565b60008681526020819052604090205486906001600160a01b03166102b757604051634144989d60e11b815260040160405180910390fd5b60008781526020818152604091829020825160a08101845281546001600160a01b0390811682526001830154169281019290925260028101549282019290925260038201546060820152600490910154608082015261031688886104e4565b1561034d576040517f646cf55800000000000000000000000000000000000000000000000000000000815260040160405180910390fd5b848160800151101561038b576040517fcb6e851c00000000000000000000000000000000000000000000000000000000815260040160405180910390fd5b60408051602081018990526bffffffffffffffffffffffff19606089901b1691810191909152605481018690526000906074016040516020818303038152906040528051906020012090506104178585808060200260200160405190810160405280939291908181526020018383602002808284376000920191909152505050506040840151836109f9565b61044d576040517f09bde33900000000000000000000000000000000000000000000000000000000815260040160405180910390fd5b6104578989610a0f565b60008981526020819052604081206004018054889290610478908490611058565b90915550508151610493906001600160a01b03168888610a4d565b60408051898152602081018890526001600160a01b038916918b917f53e1382837b65097f1436df00ad198ee1ef46d20d3209d9d951b2c5560e9e623910160405180910390a3505050505050505050565b6000600882901c816104f86101008561106b565b60008681526001602081815260408084209684529590529390205492901b9182169091149150505b92915050565b60008181526020819052604090205481906001600160a01b031661055d57604051634144989d60e11b815260040160405180910390fd5b60008281526020818152604091829020825160a08101845281546001600160a01b0390811682526001830154169281018390526002820154938101939093526003810154606084015260040154608083015233146105e7576040517f30cd747100000000000000000000000000000000000000000000000000000000815260040160405180910390fd5b60808101516000848152602081905260408120600301805490919061060d908490611058565b909155505060008381526020818152604082206004019190915581015160808201518251610646926001600160a01b0390911691610a4d565b505050565b60008681526020819052604090205486906001600160a01b031661068257604051634144989d60e11b815260040160405180910390fd5b6040805160a0810182526000898152602081815290839020546001600160a01b0390811660608401908152608084018b90528352818301899052828401889052835180850185523081529182018a9052925163187945bd60e11b81527f0000000000000000000000000000000000000000000000000000000000000000909316926330f28b7a9261071d92909133908990899060040161108d565b600060405180830381600087803b15801561073757600080fd5b505af115801561074b573d6000803e3d6000fd5b505050508560008089815260200190815260200160002060030160008282546107749190611128565b90915550506000878152602081905260408120600401805488929061079a908490611128565b909155505050505050505050565b6000838152602081905260409020546001600160a01b0316156107de576040516321fb3fdb60e21b815260040160405180910390fd5b6040805160a0810182526001600160a01b0393841681523360208083019182528284019485526000606084018181526080850182815298825291819052939093209151825490861673ffffffffffffffffffffffffffffffffffffffff19918216178355905160018301805491909616911617909355905160028301555160038201559051600490910155565b6000888152602081905260409020546001600160a01b0316156108a1576040516321fb3fdb60e21b815260040160405180910390fd5b6040805160a0810182526001600160a01b0389811660608301908152608083018990528252602080830188905282840187905283518085018552308152908101899052925163187945bd60e11b81527f0000000000000000000000000000000000000000000000000000000000000000909116926330f28b7a926109309290919033908890889060040161108d565b600060405180830381600087803b15801561094a57600080fd5b505af115801561095e573d6000803e3d6000fd5b50506040805160a0810182526001600160a01b039a8b1681523360208083019182528284019b8c52606083018b8152608084019b8c5260009e8f52908e905292909c2090518154908c1673ffffffffffffffffffffffffffffffffffffffff199182161782559b5160018201805491909c169c169b909b17909955505094516002880155505092516003850155516004909301929092555050565b600082610a068584610acd565b14949350505050565b600881901c6000610a226101008461106b565b60009485526001602081815260408088209588529490529290942080549290941b9091179092555050565b604080516001600160a01b038416602482015260448082018490528251808303909101815260649091019091526020810180517bffffffffffffffffffffffffffffffffffffffffffffffffffffffff167fa9059cbb00000000000000000000000000000000000000000000000000000000179052610646908490610b1a565b600081815b8451811015610b1257610afe82868381518110610af157610af161113b565b6020026020010151610c04565b915080610b0a81611151565b915050610ad2565b509392505050565b6000610b6f826040518060400160405280602081526020017f5361666545524332303a206c6f772d6c6576656c2063616c6c206661696c6564815250856001600160a01b0316610c369092919063ffffffff16565b8051909150156106465780806020019051810190610b8d919061116a565b6106465760405162461bcd60e51b815260206004820152602a60248201527f5361666545524332303a204552433230206f7065726174696f6e20646964206e60448201527f6f7420737563636565640000000000000000000000000000000000000000000060648201526084015b60405180910390fd5b6000818310610c20576000828152602084905260409020610c2f565b60008381526020839052604090205b9392505050565b6060610c458484600085610c4d565b949350505050565b606082471015610cc55760405162461bcd60e51b815260206004820152602660248201527f416464726573733a20696e73756666696369656e742062616c616e636520666f60448201527f722063616c6c00000000000000000000000000000000000000000000000000006064820152608401610bfb565b600080866001600160a01b03168587604051610ce191906111b0565b60006040518083038185875af1925050503d8060008114610d1e576040519150601f19603f3d011682016040523d82523d6000602084013e610d23565b606091505b5091509150610d3487838387610d3f565b979650505050505050565b60608315610dae578251600003610da7576001600160a01b0385163b610da75760405162461bcd60e51b815260206004820152601d60248201527f416464726573733a2063616c6c20746f206e6f6e2d636f6e74726163740000006044820152606401610bfb565b5081610c45565b610c458383815115610dc35781518083602001fd5b8060405162461bcd60e51b8152600401610bfb91906111cc565b600060208284031215610def57600080fd5b5035919050565b80356001600160a01b0381168114610e0d57600080fd5b919050565b60008060008060008060a08789031215610e2b57600080fd5b8635955060208701359450610e4260408801610df6565b935060608701359250608087013567ffffffffffffffff80821115610e6657600080fd5b818901915089601f830112610e7a57600080fd5b813581811115610e8957600080fd5b8a60208260051b8501011115610e9e57600080fd5b6020830194508093505050509295509295509295565b60008060408385031215610ec757600080fd5b50508035926020909101359150565b60008083601f840112610ee857600080fd5b50813567ffffffffffffffff811115610f0057600080fd5b602083019150836020828501011115610f1857600080fd5b9250929050565b60008060008060008060a08789031215610f3857600080fd5b86359550602087013594506040870135935060608701359250608087013567ffffffffffffffff811115610f6b57600080fd5b610f7789828a01610ed6565b979a9699509497509295939492505050565b600080600060608486031215610f9e57600080fd5b83359250610fae60208501610df6565b9150604084013590509250925092565b60008060008060008060008060e0898b031215610fda57600080fd5b88359750610fea60208a01610df6565b965060408901359550606089013594506080890135935060a0890135925060c089013567ffffffffffffffff81111561102257600080fd5b61102e8b828c01610ed6565b999c989b5096995094979396929594505050565b634e487b7160e01b600052601160045260246000fd5b8181038181111561052057610520611042565b60008261108857634e487b7160e01b600052601260045260246000fd5b500690565b60006101006110b083895180516001600160a01b03168252602090810151910152565b60208801516040840152604088015160608401526110e4608084018880516001600160a01b03168252602090810151910152565b6001600160a01b03861660c08401528060e08401528381840152506101208385828501376000838501820152601f909301601f191690910190910195945050505050565b8082018082111561052057610520611042565b634e487b7160e01b600052603260045260246000fd5b60006001820161116357611163611042565b5060010190565b60006020828403121561117c57600080fd5b81518015158114610c2f57600080fd5b60005b838110156111a757818101518382015260200161118f565b50506000910152565b600082516111c281846020870161118c565b9190910192915050565b60208152600082518060208401526111eb81604085016020870161118c565b601f01601f1916919091016040019291505056fea26469706673582212204f8e1e5885b2e1e91f4200626df2cb254c40d814a7d591ba66d38d6f933ebecc64736f6c63430008110033",
  "linkReferences": {},
  "deployedLinkReferences": {}
}