{
  "_format": "hh-sol-artifact-1",
  "contractName": "TemplateV1",
  "sourceName": "contracts/templates/TemplateV1.sol",
  "abi": [
    {
      "inputs": [
        {
          "internalType": "address",
          "name": "factory_",
          "type": "address"
        },
        {
          "internalType": "address",
          "name": "feePool_",
          "type": "address"
        },
        {
          "internalType": "contract IPermit2",
          "name": "permit_",
          "type": "address"
        }
      ],
      "stateMutability": "nonpayable",
      "type": "constructor"
    },
    {
      "inputs": [],
      "name": "AlreadyClaimed",
      "type": "error"
    },
    {
      "inputs": [],
      "name": "AmountNotEnough",
      "type": "error"
    },
    {
      "inputs": [],
      "name": "IncorrectAmount",
      "type": "error"
    },
    {
      "inputs": [],
      "name": "InvalidProof",
      "type": "error"
    },
    {
      "inputs": [],
      "name": "NotOwner",
      "type": "error"
    },
    {
      "inputs": [],
      "name": "NotZeroRequired",
      "type": "error"
    },
    {
      "anonymous": false,
      "inputs": [
        {
          "indexed": true,
          "internalType": "uint256",
          "name": "index",
          "type": "uint256"
        },
        {
          "indexed": true,
          "internalType": "address",
          "name": "account",
          "type": "address"
        },
        {
          "indexed": false,
          "internalType": "uint256",
          "name": "amount",
          "type": "uint256"
        }
      ],
      "name": "Claimed",
      "type": "event"
    },
    {
      "anonymous": false,
      "inputs": [
        {
          "indexed": false,
          "internalType": "address",
          "name": "deployedAddress",
          "type": "address"
        },
        {
          "indexed": false,
          "internalType": "address",
          "name": "owner",
          "type": "address"
        },
        {
          "indexed": false,
          "internalType": "bytes32",
          "name": "merkleRoot",
          "type": "bytes32"
        },
        {
          "indexed": false,
          "internalType": "address",
          "name": "token",
          "type": "address"
        },
        {
          "indexed": false,
          "internalType": "bytes",
          "name": "args",
          "type": "bytes"
        }
      ],
      "name": "Deployed",
      "type": "event"
    },
    {
      "inputs": [],
      "name": "Permit2",
      "outputs": [
        {
          "internalType": "contract IPermit2",
          "name": "",
          "type": "address"
        }
      ],
      "stateMutability": "view",
      "type": "function"
    },
    {
      "inputs": [
        {
          "internalType": "uint256",
          "name": "index_",
          "type": "uint256"
        },
        {
          "internalType": "address",
          "name": "account_",
          "type": "address"
        },
        {
          "internalType": "uint256",
          "name": "amount_",
          "type": "uint256"
        },
        {
          "internalType": "bytes32[]",
          "name": "merkleProof",
          "type": "bytes32[]"
        }
      ],
      "name": "claim",
      "outputs": [],
      "stateMutability": "payable",
      "type": "function"
    },
    {
      "inputs": [],
      "name": "claimFee",
      "outputs": [
        {
          "internalType": "uint256",
          "name": "",
          "type": "uint256"
        }
      ],
      "stateMutability": "view",
      "type": "function"
    },
    {
      "inputs": [
        {
          "internalType": "uint256",
          "name": "depositAmount_",
          "type": "uint256"
        },
        {
          "internalType": "uint256",
          "name": "nonce_",
          "type": "uint256"
        },
        {
          "internalType": "uint256",
          "name": "deadline_",
          "type": "uint256"
        },
        {
          "internalType": "bytes",
          "name": "signature_",
          "type": "bytes"
        }
      ],
      "name": "deposit",
      "outputs": [],
      "stateMutability": "nonpayable",
      "type": "function"
    },
    {
      "inputs": [],
      "name": "depositedAmount",
      "outputs": [
        {
          "internalType": "uint256",
          "name": "",
          "type": "uint256"
        }
      ],
      "stateMutability": "view",
      "type": "function"
    },
    {
      "inputs": [],
      "name": "factory",
      "outputs": [
        {
          "internalType": "address",
          "name": "",
          "type": "address"
        }
      ],
      "stateMutability": "view",
      "type": "function"
    },
    {
      "inputs": [],
      "name": "feePool",
      "outputs": [
        {
          "internalType": "address",
          "name": "",
          "type": "address"
        }
      ],
      "stateMutability": "view",
      "type": "function"
    },
    {
      "inputs": [],
      "name": "getAirdropInfo",
      "outputs": [
        {
          "components": [
            {
              "internalType": "address",
              "name": "token",
              "type": "address"
            },
            {
              "internalType": "address",
              "name": "owner",
              "type": "address"
            },
            {
              "internalType": "bytes32",
              "name": "merkleRoot",
              "type": "bytes32"
            },
            {
              "internalType": "uint256",
              "name": "depositedAmount",
              "type": "uint256"
            },
            {
              "internalType": "uint256",
              "name": "stockAmount",
              "type": "uint256"
            }
          ],
          "internalType": "struct TemplateV1.airdopInfo",
          "name": "",
          "type": "tuple"
        }
      ],
      "stateMutability": "view",
      "type": "function"
    },
    {
      "inputs": [
        {
          "internalType": "address",
          "name": "owner_",
          "type": "address"
        },
        {
          "internalType": "bytes32",
          "name": "merkleRoot_",
          "type": "bytes32"
        },
        {
          "internalType": "address",
          "name": "token_",
          "type": "address"
        },
        {
          "internalType": "uint32",
          "name": "depositAmount_",
          "type": "uint32"
        }
      ],
      "name": "initialize",
      "outputs": [
        {
          "internalType": "address",
          "name": "",
          "type": "address"
        },
        {
          "internalType": "uint256",
          "name": "",
          "type": "uint256"
        }
      ],
      "stateMutability": "payable",
      "type": "function"
    },
    {
      "inputs": [
        {
          "internalType": "address",
          "name": "token_",
          "type": "address"
        },
        {
          "internalType": "uint256",
          "name": "amount_",
          "type": "uint256"
        },
        {
          "internalType": "address",
          "name": "to_",
          "type": "address"
        },
        {
          "internalType": "uint256",
          "name": "nonce_",
          "type": "uint256"
        },
        {
          "internalType": "uint256",
          "name": "deadline_",
          "type": "uint256"
        },
        {
          "internalType": "bytes",
          "name": "signature_",
          "type": "bytes"
        }
      ],
      "name": "initializeTransfer",
      "outputs": [],
      "stateMutability": "nonpayable",
      "type": "function"
    },
    {
      "inputs": [
        {
          "internalType": "uint256",
          "name": "index_",
          "type": "uint256"
        }
      ],
      "name": "isClaimed",
      "outputs": [
        {
          "internalType": "bool",
          "name": "",
          "type": "bool"
        }
      ],
      "stateMutability": "view",
      "type": "function"
    },
    {
      "inputs": [],
      "name": "merkleRoot",
      "outputs": [
        {
          "internalType": "bytes32",
          "name": "",
          "type": "bytes32"
        }
      ],
      "stateMutability": "view",
      "type": "function"
    },
    {
      "inputs": [],
      "name": "owner",
      "outputs": [
        {
          "internalType": "address",
          "name": "",
          "type": "address"
        }
      ],
      "stateMutability": "view",
      "type": "function"
    },
    {
      "inputs": [],
      "name": "registrationFee",
      "outputs": [
        {
          "internalType": "uint256",
          "name": "",
          "type": "uint256"
        }
      ],
      "stateMutability": "view",
      "type": "function"
    },
    {
      "inputs": [],
      "name": "stockAmount",
      "outputs": [
        {
          "internalType": "uint256",
          "name": "",
          "type": "uint256"
        }
      ],
      "stateMutability": "view",
      "type": "function"
    },
    {
      "inputs": [],
      "name": "token",
      "outputs": [
        {
          "internalType": "address",
          "name": "",
          "type": "address"
        }
      ],
      "stateMutability": "view",
      "type": "function"
    },
    {
      "inputs": [],
      "name": "withdrawCollectedEther",
      "outputs": [],
      "stateMutability": "nonpayable",
      "type": "function"
    },
    {
      "inputs": [],
      "name": "withdrawDepositedToken",
      "outputs": [],
      "stateMutability": "nonpayable",
      "type": "function"
    }
  ],
  "bytecode": "0x60e06040523480156200001157600080fd5b5060405162001a0038038062001a0083398101604081905262000034916200006b565b6001600160a01b0392831660c05290821660a05216608052620000bf565b6001600160a01b03811681146200006857600080fd5b50565b6000806000606084860312156200008157600080fd5b83516200008e8162000052565b6020850151909350620000a18162000052565b6040850151909250620000b48162000052565b809150509250925092565b60805160a05160c0516118f56200010b6000396000818161044c015281816109d30152610b67015260006104180152600081816102ce015281816106910152610ad301526118f56000f3fe6080604052600436106101295760003560e01c80638b1ccada116100a55780639e34070f11610074578063c45a015511610059578063c45a01551461043a578063ea72a36d1461046e578063fc0c546a1461048357600080fd5b80639e34070f146103d6578063ae2e933b1461040657600080fd5b80638b1ccada1461032b5780638da5cb5b1461034b57806398cdbe5b1461037d57806399d32fc4146103bc57600080fd5b80632e7ba6ef116100fc57806332f08873116100e157806332f08873146101d257806339514480146102bc5780635a540f2c1461031557600080fd5b80632e7ba6ef146101a95780632eb4a7ab146101bc57600080fd5b806314c44e091461012e5780631d01364c1461015c5780631d9e8e121461017257806327cc37b014610189575b600080fd5b34801561013a57600080fd5b50610149662386f26fc1000081565b6040519081526020015b60405180910390f35b34801561016857600080fd5b5061014960035481565b34801561017e57600080fd5b506101876104b0565b005b34801561019557600080fd5b506101876101a436600461139b565b610591565b6101876101b7366004611425565b610738565b3480156101c857600080fd5b5061014960015481565b3480156101de57600080fd5b506102606040805160a081018252600080825260208201819052918101829052606081018290526080810191909152506040805160a08101825260025473ffffffffffffffffffffffffffffffffffffffff90811682526000546101009004166020820152600154918101919091526003546060820152600454608082015290565b6040516101539190600060a08201905073ffffffffffffffffffffffffffffffffffffffff8084511683528060208501511660208401525060408301516040830152606083015160608301526080830151608083015292915050565b3480156102c857600080fd5b506102f07f000000000000000000000000000000000000000000000000000000000000000081565b60405173ffffffffffffffffffffffffffffffffffffffff9091168152602001610153565b34801561032157600080fd5b5061014960045481565b34801561033757600080fd5b506101876103463660046114bc565b6109bb565b34801561035757600080fd5b506000546102f090610100900473ffffffffffffffffffffffffffffffffffffffff1681565b61039061038b36600461153e565b610b4c565b6040805173ffffffffffffffffffffffffffffffffffffffff9093168352602083019190915201610153565b3480156103c857600080fd5b50610149655af3107a400081565b3480156103e257600080fd5b506103f66103f1366004611596565b610dda565b6040519015158152602001610153565b34801561041257600080fd5b506102f07f000000000000000000000000000000000000000000000000000000000000000081565b34801561044657600080fd5b506102f07f000000000000000000000000000000000000000000000000000000000000000081565b34801561047a57600080fd5b50610187610e1b565b34801561048f57600080fd5b506002546102f09073ffffffffffffffffffffffffffffffffffffffff1681565b600054610100900473ffffffffffffffffffffffffffffffffffffffff16331461053b576040517f08c379a000000000000000000000000000000000000000000000000000000000815260206004820152601660248201527f596f7520617265206e6f7420746865206f776e65722e0000000000000000000060448201526064015b60405180910390fd5b60006004549050806003600082825461055491906115de565b9091555050600060048190555460025461058e9173ffffffffffffffffffffffffffffffffffffffff918216916101009091041683610ecd565b50565b600054610100900473ffffffffffffffffffffffffffffffffffffffff163314610617576040517f08c379a000000000000000000000000000000000000000000000000000000000815260206004820152601660248201527f596f7520617265206e6f7420746865206f776e65722e000000000000000000006044820152606401610532565b6040805160a08101825260025473ffffffffffffffffffffffffffffffffffffffff9081166060830190815260808301899052825260208083018890528284018790528351808501855230815290810189905292517f30f28b7a0000000000000000000000000000000000000000000000000000000081527f0000000000000000000000000000000000000000000000000000000000000000909116926330f28b7a926106cf929091903390889088906004016115f1565b600060405180830381600087803b1580156106e957600080fd5b505af11580156106fd573d6000803e3d6000fd5b50505050846003600082825461071391906116d1565b92505081905550846004600082825461072c91906116d1565b90915550505050505050565b61074185610dda565b15610778576040517f646cf55800000000000000000000000000000000000000000000000000000000815260040160405180910390fd5b8260045410156107b4576040517fcb6e851c00000000000000000000000000000000000000000000000000000000815260040160405180910390fd5b6107c5655af3107a400060026116e4565b34146107fd576040517f69640e7200000000000000000000000000000000000000000000000000000000815260040160405180910390fd5b60408051602081018790527fffffffffffffffffffffffffffffffffffffffff000000000000000000000000606087901b16918101919091526054810184905260009060740160405160208183030381529060405280519060200120905061089c838380806020026020016040519081016040528093929190818152602001838360200280828437600092019190915250506001549150849050610f5f565b6108d2576040517f09bde33900000000000000000000000000000000000000000000000000000000815260040160405180910390fd5b6108db86610f75565b83600460008282546108ed91906115de565b90915550506002546109169073ffffffffffffffffffffffffffffffffffffffff168686610ecd565b6000805460405161010090910473ffffffffffffffffffffffffffffffffffffffff169190655af3107a40009082818181858883f19350505050158015610961573d6000803e3d6000fd5b508473ffffffffffffffffffffffffffffffffffffffff16867f4ec90e965519d92681267467f775ada5bd214aa92c0dc93d90a5e880ce9ed026866040516109ab91815260200190565b60405180910390a3505050505050565b3073ffffffffffffffffffffffffffffffffffffffff7f00000000000000000000000000000000000000000000000000000000000000001614610a5a576040517f08c379a000000000000000000000000000000000000000000000000000000000815260206004820152601860248201527f596f7520617265206e6f742074686520666163746f72792e00000000000000006044820152606401610532565b6040805160a08101825273ffffffffffffffffffffffffffffffffffffffff89811660608301908152608083018a9052825260208083018890528284018790528351808501855289831681529081018a905292517f30f28b7a0000000000000000000000000000000000000000000000000000000081527f0000000000000000000000000000000000000000000000000000000000000000909116926330f28b7a92610b11929091903390889088906004016115f1565b600060405180830381600087803b158015610b2b57600080fd5b505af1158015610b3f573d6000803e3d6000fd5b5050505050505050505050565b6000803373ffffffffffffffffffffffffffffffffffffffff7f00000000000000000000000000000000000000000000000000000000000000001614610bee576040517f08c379a000000000000000000000000000000000000000000000000000000000815260206004820152601860248201527f596f7520617265206e6f742074686520666163746f72792e00000000000000006044820152606401610532565b73ffffffffffffffffffffffffffffffffffffffff8616610c3b576040517f87a873e800000000000000000000000000000000000000000000000000000000815260040160405180910390fd5b73ffffffffffffffffffffffffffffffffffffffff8416610c88576040517f87a873e800000000000000000000000000000000000000000000000000000000815260040160405180910390fd5b662386f26fc100003414610cc8576040517f69640e7200000000000000000000000000000000000000000000000000000000815260040160405180910390fd5b600080547fffffffffffffffffffffff0000000000000000000000000000000000000000ff1661010073ffffffffffffffffffffffffffffffffffffffff8981169190910291909117909155600280547fffffffffffffffffffffffff00000000000000000000000000000000000000001691861691909117905560018590556040805163ffffffff851660208201527fb84db08a76b059148df92a1d44c04aa21873a91cf4e1e11377ac4856b2d88efd91309189918991899101604080517fffffffffffffffffffffffffffffffffffffffffffffffffffffffffffffffe081840301815290829052610dbf9594939291611769565b60405180910390a150919463ffffffff919091169350915050565b600080610de9610100846117df565b90506000610df9610100856117f3565b60009283526005602052604090922054600190921b9182169091149392505050565b600054610100900473ffffffffffffffffffffffffffffffffffffffff163314610ea1576040517f08c379a000000000000000000000000000000000000000000000000000000000815260206004820152601660248201527f596f7520617265206e6f7420746865206f776e65722e000000000000000000006044820152606401610532565b60405133904780156108fc02916000818181858888f1935050505015801561058e573d6000803e3d6000fd5b6040805173ffffffffffffffffffffffffffffffffffffffff8416602482015260448082018490528251808303909101815260649091019091526020810180517bffffffffffffffffffffffffffffffffffffffffffffffffffffffff167fa9059cbb00000000000000000000000000000000000000000000000000000000179052610f5a908490610fb3565b505050565b600082610f6c85846110c2565b14949350505050565b6000610f83610100836117df565b90506000610f93610100846117f3565b6000928352600560205260409092208054600190931b9092179091555050565b6000611015826040518060400160405280602081526020017f5361666545524332303a206c6f772d6c6576656c2063616c6c206661696c65648152508573ffffffffffffffffffffffffffffffffffffffff166111119092919063ffffffff16565b90508051600014806110365750808060200190518101906110369190611807565b610f5a576040517f08c379a000000000000000000000000000000000000000000000000000000000815260206004820152602a60248201527f5361666545524332303a204552433230206f7065726174696f6e20646964206e60448201527f6f742073756363656564000000000000000000000000000000000000000000006064820152608401610532565b600081815b8451811015611107576110f3828683815181106110e6576110e6611829565b6020026020010151611128565b9150806110ff81611858565b9150506110c7565b5090505b92915050565b6060611120848460008561115a565b949350505050565b6000818310611144576000828152602084905260409020611153565b60008381526020839052604090205b9392505050565b6060824710156111ec576040517f08c379a000000000000000000000000000000000000000000000000000000000815260206004820152602660248201527f416464726573733a20696e73756666696369656e742062616c616e636520666f60448201527f722063616c6c00000000000000000000000000000000000000000000000000006064820152608401610532565b6000808673ffffffffffffffffffffffffffffffffffffffff1685876040516112159190611890565b60006040518083038185875af1925050503d8060008114611252576040519150601f19603f3d011682016040523d82523d6000602084013e611257565b606091505b509150915061126887838387611273565b979650505050505050565b606083156113095782516000036113025773ffffffffffffffffffffffffffffffffffffffff85163b611302576040517f08c379a000000000000000000000000000000000000000000000000000000000815260206004820152601d60248201527f416464726573733a2063616c6c20746f206e6f6e2d636f6e74726163740000006044820152606401610532565b5081611120565b611120838381511561131e5781518083602001fd5b806040517f08c379a000000000000000000000000000000000000000000000000000000000815260040161053291906118ac565b60008083601f84011261136457600080fd5b50813567ffffffffffffffff81111561137c57600080fd5b60208301915083602082850101111561139457600080fd5b9250929050565b6000806000806000608086880312156113b357600080fd5b853594506020860135935060408601359250606086013567ffffffffffffffff8111156113df57600080fd5b6113eb88828901611352565b969995985093965092949392505050565b803573ffffffffffffffffffffffffffffffffffffffff8116811461142057600080fd5b919050565b60008060008060006080868803121561143d57600080fd5b8535945061144d602087016113fc565b935060408601359250606086013567ffffffffffffffff8082111561147157600080fd5b818801915088601f83011261148557600080fd5b81358181111561149457600080fd5b8960208260051b85010111156114a957600080fd5b9699959850939650602001949392505050565b600080600080600080600060c0888a0312156114d757600080fd5b6114e0886113fc565b9650602088013595506114f5604089016113fc565b9450606088013593506080880135925060a088013567ffffffffffffffff81111561151f57600080fd5b61152b8a828b01611352565b989b979a50959850939692959293505050565b6000806000806080858703121561155457600080fd5b61155d856113fc565b935060208501359250611572604086016113fc565b9150606085013563ffffffff8116811461158b57600080fd5b939692955090935050565b6000602082840312156115a857600080fd5b5035919050565b7f4e487b7100000000000000000000000000000000000000000000000000000000600052601160045260246000fd5b8181038181111561110b5761110b6115af565b6000610100611621838951805173ffffffffffffffffffffffffffffffffffffffff168252602090810151910152565b60208801516040840152604088015160608401526116626080840188805173ffffffffffffffffffffffffffffffffffffffff168252602090810151910152565b73ffffffffffffffffffffffffffffffffffffffff861660c08401528060e08401528381840152506101208385828501376000838501820152601f9093017fffffffffffffffffffffffffffffffffffffffffffffffffffffffffffffffe01690910190910195945050505050565b8082018082111561110b5761110b6115af565b808202811582820484141761110b5761110b6115af565b60005b838110156117165781810151838201526020016116fe565b50506000910152565b600081518084526117378160208601602086016116fb565b601f017fffffffffffffffffffffffffffffffffffffffffffffffffffffffffffffffe0169290920160200192915050565b600073ffffffffffffffffffffffffffffffffffffffff8088168352808716602084015285604084015280851660608401525060a0608083015261126860a083018461171f565b7f4e487b7100000000000000000000000000000000000000000000000000000000600052601260045260246000fd5b6000826117ee576117ee6117b0565b500490565b600082611802576118026117b0565b500690565b60006020828403121561181957600080fd5b8151801515811461115357600080fd5b7f4e487b7100000000000000000000000000000000000000000000000000000000600052603260045260246000fd5b60007fffffffffffffffffffffffffffffffffffffffffffffffffffffffffffffffff8203611889576118896115af565b5060010190565b600082516118a28184602087016116fb565b9190910192915050565b602081526000611153602083018461171f56fea2646970667358221220270996f0189a70e25c3ae1267469d24903ce84d7939287cc4ad3eb19b29180b664736f6c63430008120033",
  "linkReferences": {},
  "deployedLinkReferences": {}
}