{
  "_format": "hh-sol-artifact-1",
  "contractName": "Standard",
  "sourceName": "contracts/templates/Standard.sol",
  "abi": [
    {
      "inputs": [
        {
          "internalType": "address",
          "name": "factory_",
          "type": "address"
        },
        {
          "internalType": "address",
          "name": "feePool_",
          "type": "address"
        }
      ],
      "stateMutability": "nonpayable",
      "type": "constructor"
    },
    {
      "inputs": [
        {
          "internalType": "address",
          "name": "target",
          "type": "address"
        }
      ],
      "name": "AddressEmptyCode",
      "type": "error"
    },
    {
      "inputs": [
        {
          "internalType": "address",
          "name": "account",
          "type": "address"
        }
      ],
      "name": "AddressInsufficientBalance",
      "type": "error"
    },
    {
      "inputs": [],
      "name": "AlreadyClaimed",
      "type": "error"
    },
    {
      "inputs": [],
      "name": "AlreadyInitialized",
      "type": "error"
    },
    {
      "inputs": [],
      "name": "AmountNotEnough",
      "type": "error"
    },
    {
      "inputs": [],
      "name": "FailedInnerCall",
      "type": "error"
    },
    {
      "inputs": [],
      "name": "IncorrectAmount",
      "type": "error"
    },
    {
      "inputs": [],
      "name": "InvalidProof",
      "type": "error"
    },
    {
      "inputs": [],
      "name": "NotZeroRequired",
      "type": "error"
    },
    {
      "inputs": [
        {
          "internalType": "address",
          "name": "token",
          "type": "address"
        }
      ],
      "name": "SafeERC20FailedOperation",
      "type": "error"
    },
    {
      "inputs": [],
      "name": "TransferFailed",
      "type": "error"
    },
    {
      "anonymous": false,
      "inputs": [
        {
          "indexed": true,
          "internalType": "uint256",
          "name": "index",
          "type": "uint256"
        },
        {
          "indexed": true,
          "internalType": "address",
          "name": "account",
          "type": "address"
        },
        {
          "indexed": false,
          "internalType": "uint256",
          "name": "amount",
          "type": "uint256"
        }
      ],
      "name": "Claimed",
      "type": "event"
    },
    {
      "anonymous": false,
      "inputs": [
        {
          "indexed": false,
          "internalType": "address",
          "name": "deployedAddress",
          "type": "address"
        },
        {
          "indexed": false,
          "internalType": "address",
          "name": "owner",
          "type": "address"
        },
        {
          "indexed": false,
          "internalType": "bytes32",
          "name": "merkleRoot",
          "type": "bytes32"
        },
        {
          "indexed": false,
          "internalType": "bytes",
          "name": "airdropTokens",
          "type": "bytes"
        },
        {
          "indexed": false,
          "internalType": "bytes",
          "name": "args",
          "type": "bytes"
        }
      ],
      "name": "Deployed",
      "type": "event"
    },
    {
      "anonymous": false,
      "inputs": [
        {
          "indexed": false,
          "internalType": "uint256",
          "name": "amount",
          "type": "uint256"
        }
      ],
      "name": "WithdrawnClaimFee",
      "type": "event"
    },
    {
      "anonymous": false,
      "inputs": [
        {
          "indexed": false,
          "internalType": "bytes",
          "name": "tokens",
          "type": "bytes"
        },
        {
          "indexed": false,
          "internalType": "bytes",
          "name": "amounts",
          "type": "bytes"
        }
      ],
      "name": "WithdrawnDepositedTokens",
      "type": "event"
    },
    {
      "inputs": [
        {
          "internalType": "uint256",
          "name": "index_",
          "type": "uint256"
        },
        {
          "internalType": "address",
          "name": "account_",
          "type": "address"
        },
        {
          "internalType": "uint256",
          "name": "amount_",
          "type": "uint256"
        },
        {
          "internalType": "bytes32[]",
          "name": "merkleProof_",
          "type": "bytes32[]"
        }
      ],
      "name": "claim",
      "outputs": [],
      "stateMutability": "payable",
      "type": "function"
    },
    {
      "inputs": [],
      "name": "claimFee",
      "outputs": [
        {
          "internalType": "uint256",
          "name": "",
          "type": "uint256"
        }
      ],
      "stateMutability": "view",
      "type": "function"
    },
    {
      "inputs": [],
      "name": "factory",
      "outputs": [
        {
          "internalType": "address",
          "name": "",
          "type": "address"
        }
      ],
      "stateMutability": "view",
      "type": "function"
    },
    {
      "inputs": [],
      "name": "feePool",
      "outputs": [
        {
          "internalType": "address",
          "name": "",
          "type": "address"
        }
      ],
      "stateMutability": "view",
      "type": "function"
    },
    {
      "inputs": [
        {
          "internalType": "address",
          "name": "owner_",
          "type": "address"
        },
        {
          "internalType": "bytes32",
          "name": "merkleRoot_",
          "type": "bytes32"
        },
        {
          "internalType": "address",
          "name": "token_",
          "type": "address"
        },
        {
          "internalType": "uint256",
          "name": "depositAmount_",
          "type": "uint256"
        }
      ],
      "name": "initialize",
      "outputs": [
        {
          "internalType": "address",
          "name": "",
          "type": "address"
        },
        {
          "internalType": "uint256",
          "name": "",
          "type": "uint256"
        },
        {
          "internalType": "address",
          "name": "",
          "type": "address"
        }
      ],
      "stateMutability": "payable",
      "type": "function"
    },
    {
      "inputs": [
        {
          "internalType": "address",
          "name": "token_",
          "type": "address"
        },
        {
          "internalType": "uint256",
          "name": "amount_",
          "type": "uint256"
        },
        {
          "internalType": "address",
          "name": "to_",
          "type": "address"
        }
      ],
      "name": "initializeTransfer",
      "outputs": [],
      "stateMutability": "payable",
      "type": "function"
    },
    {
      "inputs": [
        {
          "internalType": "uint256",
          "name": "index_",
          "type": "uint256"
        }
      ],
      "name": "isClaimed",
      "outputs": [
        {
          "internalType": "bool",
          "name": "",
          "type": "bool"
        }
      ],
      "stateMutability": "view",
      "type": "function"
    },
    {
      "inputs": [],
      "name": "merkleRoot",
      "outputs": [
        {
          "internalType": "bytes32",
          "name": "",
          "type": "bytes32"
        }
      ],
      "stateMutability": "view",
      "type": "function"
    },
    {
      "inputs": [],
      "name": "owner",
      "outputs": [
        {
          "internalType": "address",
          "name": "",
          "type": "address"
        }
      ],
      "stateMutability": "view",
      "type": "function"
    },
    {
      "inputs": [],
      "name": "registrationFee",
      "outputs": [
        {
          "internalType": "uint256",
          "name": "",
          "type": "uint256"
        }
      ],
      "stateMutability": "view",
      "type": "function"
    },
    {
      "inputs": [],
      "name": "token",
      "outputs": [
        {
          "internalType": "address",
          "name": "",
          "type": "address"
        }
      ],
      "stateMutability": "view",
      "type": "function"
    },
    {
      "inputs": [],
      "name": "withdrawClaimFee",
      "outputs": [],
      "stateMutability": "nonpayable",
      "type": "function"
    },
    {
      "inputs": [],
      "name": "withdrawDepositedToken",
      "outputs": [],
      "stateMutability": "nonpayable",
      "type": "function"
    }
  ],
  "bytecode": "0x60c060405234801561001057600080fd5b50604051620017a5380380620017a583398101604081905261003191610064565b6001600160a01b0391821660a05216608052610097565b80516001600160a01b038116811461005f57600080fd5b919050565b6000806040838503121561007757600080fd5b61008083610048565b915061008e60208401610048565b90509250929050565b60805160a0516116cc620000d960003960008181610254015281816106850152610b05015260008181610220015281816109920152610d4f01526116cc6000f3fe6080604052600436106100d25760003560e01c80638da5cb5b1161007f578063ae2e933b11610059578063ae2e933b1461020e578063c45a015514610242578063e2b4b2f714610276578063fc0c546a146102c057600080fd5b80638da5cb5b1461016d57806399d32fc4146101c45780639e34070f146101de57600080fd5b806328fb0cfe116100b057806328fb0cfe146101315780632e7ba6ef146101445780632eb4a7ab1461015757600080fd5b80630a6f3de5146100d757806314c44e09146100ee5780631d9e8e121461011c575b600080fd5b3480156100e357600080fd5b506100ec6102ed565b005b3480156100fa57600080fd5b50610109662386f26fc1000081565b6040519081526020015b60405180910390f35b34801561012857600080fd5b506100ec61044f565b6100ec61013f366004611312565b61066d565b6100ec61015236600461134e565b610739565b34801561016357600080fd5b5061010960015481565b34801561017957600080fd5b5060005461019f90610100900473ffffffffffffffffffffffffffffffffffffffff1681565b60405173ffffffffffffffffffffffffffffffffffffffff9091168152602001610113565b3480156101d057600080fd5b50610109655af3107a400081565b3480156101ea57600080fd5b506101fe6101f93660046113e5565b610aa8565b6040519015158152602001610113565b34801561021a57600080fd5b5061019f7f000000000000000000000000000000000000000000000000000000000000000081565b34801561024e57600080fd5b5061019f7f000000000000000000000000000000000000000000000000000000000000000081565b6102896102843660046113fe565b610ae9565b6040805173ffffffffffffffffffffffffffffffffffffffff94851681526020810193909352921691810191909152606001610113565b3480156102cc57600080fd5b5060025461019f9073ffffffffffffffffffffffffffffffffffffffff1681565b600054610100900473ffffffffffffffffffffffffffffffffffffffff163314610378576040517f08c379a000000000000000000000000000000000000000000000000000000000815260206004820152601660248201527f596f7520617265206e6f7420746865206f776e65722e0000000000000000000060448201526064015b60405180910390fd5b60008054604051479291610100900473ffffffffffffffffffffffffffffffffffffffff169083908381818185875af1925050503d80600081146103d8576040519150601f19603f3d011682016040523d82523d6000602084013e6103dd565b606091505b5050905080610418576040517f90b8ec1800000000000000000000000000000000000000000000000000000000815260040160405180910390fd5b6040518281527fc826917a6ae5f60ff74f22aaae3b0a4cbd4211c8f3124e45fb1022f923e4de229060200160405180910390a15050565b600054610100900473ffffffffffffffffffffffffffffffffffffffff1633146104d5576040517f08c379a000000000000000000000000000000000000000000000000000000000815260206004820152601660248201527f596f7520617265206e6f7420746865206f776e65722e00000000000000000000604482015260640161036f565b6002546040517f70a0823100000000000000000000000000000000000000000000000000000000815230600482015260009173ffffffffffffffffffffffffffffffffffffffff16906370a0823190602401602060405180830381865afa158015610544573d6000803e3d6000fd5b505050506040513d601f19601f820116820180604052508101906105689190611442565b60005460025491925061059a9173ffffffffffffffffffffffffffffffffffffffff9081169161010090041683610f10565b60025460405160609190911b7fffffffffffffffffffffffffffffffffffffffff0000000000000000000000001660208201527f10fdc0514e1fb0e46d51d3841247ac530b9646974579b5d84fb026eae8bdeedf90603401604080517fffffffffffffffffffffffffffffffffffffffffffffffffffffffffffffffe0818403018152828252602083018590529101604080517fffffffffffffffffffffffffffffffffffffffffffffffffffffffffffffffe08184030181529082905261066292916114c9565b60405180910390a150565b3073ffffffffffffffffffffffffffffffffffffffff7f0000000000000000000000000000000000000000000000000000000000000000161461070c576040517f08c379a000000000000000000000000000000000000000000000000000000000815260206004820152601860248201527f596f7520617265206e6f742074686520666163746f72792e0000000000000000604482015260640161036f565b81156107345761073473ffffffffffffffffffffffffffffffffffffffff8416338385610f91565b505050565b61074285610aa8565b15610779576040517f646cf55800000000000000000000000000000000000000000000000000000000815260040160405180910390fd5b6002546040517f70a08231000000000000000000000000000000000000000000000000000000008152306004820152849173ffffffffffffffffffffffffffffffffffffffff16906370a0823190602401602060405180830381865afa1580156107e7573d6000803e3d6000fd5b505050506040513d601f19601f8201168201806040525081019061080b9190611442565b1015610843576040517fcb6e851c00000000000000000000000000000000000000000000000000000000815260040160405180910390fd5b610854655af3107a40006002611526565b341461088c576040517f69640e7200000000000000000000000000000000000000000000000000000000815260040160405180910390fd5b60408051602081018790527fffffffffffffffffffffffffffffffffffffffff000000000000000000000000606087901b16918101919091526054810184905260009060740160405160208183030381529060405280519060200120905061092b838380806020026020016040519081016040528093929190818152602001838360200280828437600092019190915250506001549150849050610fdd565b610961576040517f09bde33900000000000000000000000000000000000000000000000000000000815260040160405180910390fd5b61096a86610ff5565b60025461098e9073ffffffffffffffffffffffffffffffffffffffff168686610f10565b60007f000000000000000000000000000000000000000000000000000000000000000073ffffffffffffffffffffffffffffffffffffffff16655af3107a400060405160006040518083038185875af1925050503d8060008114610a0e576040519150601f19603f3d011682016040523d82523d6000602084013e610a13565b606091505b5050905080610a4e576040517f90b8ec1800000000000000000000000000000000000000000000000000000000815260040160405180910390fd5b8573ffffffffffffffffffffffffffffffffffffffff16877f4ec90e965519d92681267467f775ada5bd214aa92c0dc93d90a5e880ce9ed02687604051610a9791815260200190565b60405180910390a350505050505050565b600080610ab76101008461156c565b90506000610ac761010085611580565b60009283526003602052604090922054600190921b9182169091149392505050565b600080803373ffffffffffffffffffffffffffffffffffffffff7f00000000000000000000000000000000000000000000000000000000000000001614610b8c576040517f08c379a000000000000000000000000000000000000000000000000000000000815260206004820152601860248201527f596f7520617265206e6f742074686520666163746f72792e0000000000000000604482015260640161036f565b60005460ff1615610bc9576040517f0dc149f000000000000000000000000000000000000000000000000000000000815260040160405180910390fd5b600080547fffffffffffffffffffffffffffffffffffffffffffffffffffffffffffffff0016600117905573ffffffffffffffffffffffffffffffffffffffff8716610c41576040517f87a873e800000000000000000000000000000000000000000000000000000000815260040160405180910390fd5b73ffffffffffffffffffffffffffffffffffffffff8516610c8e576040517f87a873e800000000000000000000000000000000000000000000000000000000815260040160405180910390fd5b662386f26fc100003414610cce576040517f69640e7200000000000000000000000000000000000000000000000000000000815260040160405180910390fd5b600080547fffffffffffffffffffffff0000000000000000000000000000000000000000ff1661010073ffffffffffffffffffffffffffffffffffffffff8a811691909102919091178255600280547fffffffffffffffffffffffff00000000000000000000000000000000000000001688831617905560018890556040517f00000000000000000000000000000000000000000000000000000000000000009091169034908381818185875af1925050503d8060008114610dac576040519150601f19603f3d011682016040523d82523d6000602084013e610db1565b606091505b5050905080610dec576040517f90b8ec1800000000000000000000000000000000000000000000000000000000815260040160405180910390fd5b6000546001546002546040517fffffffffffffffffffffffffffffffffffffffff00000000000000000000000060609290921b9190911660208201527f69687cbee57d8aff8295dedc40ac17fd4fe0130939898f42e899776217172f2a92309261010090910473ffffffffffffffffffffffffffffffffffffffff1691603401604080517fffffffffffffffffffffffffffffffffffffffffffffffffffffffffffffffe0818403018152828252602083018c90529101604080517fffffffffffffffffffffffffffffffffffffffffffffffffffffffffffffffe081840301815290829052610edf9594939291611594565b60405180910390a1505060025473ffffffffffffffffffffffffffffffffffffffff16969295503094509192505050565b60405173ffffffffffffffffffffffffffffffffffffffff83811660248301526044820183905261073491859182169063a9059cbb906064015b604051602081830303815290604052915060e01b6020820180517bffffffffffffffffffffffffffffffffffffffffffffffffffffffff8381831617835250505050611033565b60405173ffffffffffffffffffffffffffffffffffffffff8481166024830152838116604483015260648201839052610fd79186918216906323b872dd90608401610f4a565b50505050565b600082610fea85846110c9565b1490505b9392505050565b60006110036101008361156c565b9050600061101361010084611580565b6000928352600360205260409092208054600190931b9092179091555050565b600061105573ffffffffffffffffffffffffffffffffffffffff841683611118565b9050805160001415801561107a57508080602001905181019061107891906115f1565b155b15610734576040517f5274afe700000000000000000000000000000000000000000000000000000000815273ffffffffffffffffffffffffffffffffffffffff8416600482015260240161036f565b600081815b845181101561110e576110fa828683815181106110ed576110ed611613565b6020026020010151611126565b91508061110681611642565b9150506110ce565b5090505b92915050565b6060610fee83836000611155565b6000818310611142576000828152602084905260409020610fee565b6000838152602083905260409020610fee565b606081471015611193576040517fcd78605900000000000000000000000000000000000000000000000000000000815230600482015260240161036f565b6000808573ffffffffffffffffffffffffffffffffffffffff1684866040516111bc919061167a565b60006040518083038185875af1925050503d80600081146111f9576040519150601f19603f3d011682016040523d82523d6000602084013e6111fe565b606091505b509150915061120e868383611218565b9695505050505050565b60608261122d57611228826112a7565b610fee565b8151158015611251575073ffffffffffffffffffffffffffffffffffffffff84163b155b156112a0576040517f9996b31500000000000000000000000000000000000000000000000000000000815273ffffffffffffffffffffffffffffffffffffffff8516600482015260240161036f565b5080610fee565b8051156112b75780518082602001fd5b6040517f1425ea4200000000000000000000000000000000000000000000000000000000815260040160405180910390fd5b803573ffffffffffffffffffffffffffffffffffffffff8116811461130d57600080fd5b919050565b60008060006060848603121561132757600080fd5b611330846112e9565b925060208401359150611345604085016112e9565b90509250925092565b60008060008060006080868803121561136657600080fd5b85359450611376602087016112e9565b935060408601359250606086013567ffffffffffffffff8082111561139a57600080fd5b818801915088601f8301126113ae57600080fd5b8135818111156113bd57600080fd5b8960208260051b85010111156113d257600080fd5b9699959850939650602001949392505050565b6000602082840312156113f757600080fd5b5035919050565b6000806000806080858703121561141457600080fd5b61141d856112e9565b935060208501359250611432604086016112e9565b9396929550929360600135925050565b60006020828403121561145457600080fd5b5051919050565b60005b8381101561147657818101518382015260200161145e565b50506000910152565b6000815180845261149781602086016020860161145b565b601f017fffffffffffffffffffffffffffffffffffffffffffffffffffffffffffffffe0169290920160200192915050565b6040815260006114dc604083018561147f565b82810360208401526114ee818561147f565b95945050505050565b7f4e487b7100000000000000000000000000000000000000000000000000000000600052601160045260246000fd5b8082028115828204841417611112576111126114f7565b7f4e487b7100000000000000000000000000000000000000000000000000000000600052601260045260246000fd5b60008261157b5761157b61153d565b500490565b60008261158f5761158f61153d565b500690565b600073ffffffffffffffffffffffffffffffffffffffff808816835280871660208401525084604083015260a060608301526115d360a083018561147f565b82810360808401526115e5818561147f565b98975050505050505050565b60006020828403121561160357600080fd5b81518015158114610fee57600080fd5b7f4e487b7100000000000000000000000000000000000000000000000000000000600052603260045260246000fd5b60007fffffffffffffffffffffffffffffffffffffffffffffffffffffffffffffffff8203611673576116736114f7565b5060010190565b6000825161168c81846020870161145b565b919091019291505056fea26469706673582212202e45ccfac6e49e3353b3f52ebcc6246c20738efc00d783912bf9fd2e4c3ea72664736f6c63430008140033",
  "linkReferences": {},
  "deployedLinkReferences": {}
}