{
  "_format": "hh-sol-artifact-1",
  "contractName": "Standard",
  "sourceName": "contracts/templates/Standard.sol",
  "abi": [
    {
      "inputs": [
        {
          "internalType": "address",
          "name": "factory_",
          "type": "address"
        },
        {
          "internalType": "address",
          "name": "feePool_",
          "type": "address"
        }
      ],
      "stateMutability": "nonpayable",
      "type": "constructor"
    },
    {
      "inputs": [],
      "name": "AlreadyClaimed",
      "type": "error"
    },
    {
      "inputs": [],
      "name": "AmountNotEnough",
      "type": "error"
    },
    {
      "inputs": [],
      "name": "IncorrectAmount",
      "type": "error"
    },
    {
      "inputs": [],
      "name": "InvalidProof",
      "type": "error"
    },
    {
      "inputs": [],
      "name": "NotZeroRequired",
      "type": "error"
    },
    {
      "anonymous": false,
      "inputs": [
        {
          "indexed": true,
          "internalType": "uint256",
          "name": "index",
          "type": "uint256"
        },
        {
          "indexed": true,
          "internalType": "address",
          "name": "account",
          "type": "address"
        },
        {
          "indexed": false,
          "internalType": "uint256",
          "name": "amount",
          "type": "uint256"
        }
      ],
      "name": "Claimed",
      "type": "event"
    },
    {
      "anonymous": false,
      "inputs": [
        {
          "indexed": false,
          "internalType": "address",
          "name": "deployedAddress",
          "type": "address"
        },
        {
          "indexed": false,
          "internalType": "address",
          "name": "owner",
          "type": "address"
        },
        {
          "indexed": false,
          "internalType": "bytes32",
          "name": "merkleRoot",
          "type": "bytes32"
        },
        {
          "indexed": false,
          "internalType": "bytes",
          "name": "airdropTokens",
          "type": "bytes"
        },
        {
          "indexed": false,
          "internalType": "bytes",
          "name": "args",
          "type": "bytes"
        }
      ],
      "name": "Deployed",
      "type": "event"
    },
    {
      "anonymous": false,
      "inputs": [
        {
          "indexed": false,
          "internalType": "uint256",
          "name": "amount",
          "type": "uint256"
        }
      ],
      "name": "WithdrawnClaimFee",
      "type": "event"
    },
    {
      "anonymous": false,
      "inputs": [
        {
          "indexed": false,
          "internalType": "bytes",
          "name": "tokens",
          "type": "bytes"
        },
        {
          "indexed": false,
          "internalType": "bytes",
          "name": "amounts",
          "type": "bytes"
        }
      ],
      "name": "WithdrawnDepositedTokens",
      "type": "event"
    },
    {
      "inputs": [
        {
          "internalType": "uint256",
          "name": "index_",
          "type": "uint256"
        },
        {
          "internalType": "address",
          "name": "account_",
          "type": "address"
        },
        {
          "internalType": "uint256",
          "name": "amount_",
          "type": "uint256"
        },
        {
          "internalType": "bytes32[]",
          "name": "merkleProof_",
          "type": "bytes32[]"
        }
      ],
      "name": "claim",
      "outputs": [],
      "stateMutability": "payable",
      "type": "function"
    },
    {
      "inputs": [],
      "name": "claimFee",
      "outputs": [
        {
          "internalType": "uint256",
          "name": "",
          "type": "uint256"
        }
      ],
      "stateMutability": "view",
      "type": "function"
    },
    {
      "inputs": [],
      "name": "factory",
      "outputs": [
        {
          "internalType": "address",
          "name": "",
          "type": "address"
        }
      ],
      "stateMutability": "view",
      "type": "function"
    },
    {
      "inputs": [],
      "name": "feePool",
      "outputs": [
        {
          "internalType": "address",
          "name": "",
          "type": "address"
        }
      ],
      "stateMutability": "view",
      "type": "function"
    },
    {
      "inputs": [],
      "name": "getAirdropInfo",
      "outputs": [
        {
          "components": [
            {
              "internalType": "address",
              "name": "token",
              "type": "address"
            },
            {
              "internalType": "address",
              "name": "owner",
              "type": "address"
            },
            {
              "internalType": "bytes32",
              "name": "merkleRoot",
              "type": "bytes32"
            },
            {
              "internalType": "uint256",
              "name": "stockAmount",
              "type": "uint256"
            }
          ],
          "internalType": "struct Standard.AirdopInfo",
          "name": "",
          "type": "tuple"
        }
      ],
      "stateMutability": "view",
      "type": "function"
    },
    {
      "inputs": [
        {
          "internalType": "address",
          "name": "owner_",
          "type": "address"
        },
        {
          "internalType": "bytes32",
          "name": "merkleRoot_",
          "type": "bytes32"
        },
        {
          "internalType": "address",
          "name": "token_",
          "type": "address"
        },
        {
          "internalType": "uint256",
          "name": "depositAmount_",
          "type": "uint256"
        }
      ],
      "name": "initialize",
      "outputs": [
        {
          "internalType": "address",
          "name": "",
          "type": "address"
        },
        {
          "internalType": "uint256",
          "name": "",
          "type": "uint256"
        },
        {
          "internalType": "address",
          "name": "",
          "type": "address"
        }
      ],
      "stateMutability": "payable",
      "type": "function"
    },
    {
      "inputs": [
        {
          "internalType": "address",
          "name": "token_",
          "type": "address"
        },
        {
          "internalType": "uint256",
          "name": "amount_",
          "type": "uint256"
        },
        {
          "internalType": "address",
          "name": "to_",
          "type": "address"
        }
      ],
      "name": "initializeTransfer",
      "outputs": [],
      "stateMutability": "payable",
      "type": "function"
    },
    {
      "inputs": [
        {
          "internalType": "uint256",
          "name": "index_",
          "type": "uint256"
        }
      ],
      "name": "isClaimed",
      "outputs": [
        {
          "internalType": "bool",
          "name": "",
          "type": "bool"
        }
      ],
      "stateMutability": "view",
      "type": "function"
    },
    {
      "inputs": [],
      "name": "merkleRoot",
      "outputs": [
        {
          "internalType": "bytes32",
          "name": "",
          "type": "bytes32"
        }
      ],
      "stateMutability": "view",
      "type": "function"
    },
    {
      "inputs": [],
      "name": "owner",
      "outputs": [
        {
          "internalType": "address",
          "name": "",
          "type": "address"
        }
      ],
      "stateMutability": "view",
      "type": "function"
    },
    {
      "inputs": [],
      "name": "registrationFee",
      "outputs": [
        {
          "internalType": "uint256",
          "name": "",
          "type": "uint256"
        }
      ],
      "stateMutability": "view",
      "type": "function"
    },
    {
      "inputs": [],
      "name": "token",
      "outputs": [
        {
          "internalType": "address",
          "name": "",
          "type": "address"
        }
      ],
      "stateMutability": "view",
      "type": "function"
    },
    {
      "inputs": [],
      "name": "withdrawClaimFee",
      "outputs": [],
      "stateMutability": "nonpayable",
      "type": "function"
    },
    {
      "inputs": [],
      "name": "withdrawDepositedToken",
      "outputs": [],
      "stateMutability": "nonpayable",
      "type": "function"
    }
  ],
  "bytecode": "0x60c06040523480156200001157600080fd5b5060405162001b5238038062001b52833981016040819052620000349162000069565b6001600160a01b0391821660a05216608052620000a1565b80516001600160a01b03811681146200006457600080fd5b919050565b600080604083850312156200007d57600080fd5b62000088836200004c565b915062000098602084016200004c565b90509250929050565b60805160a051611a6f620000e3600039600081816102c6015281816107270152610cbd01526000818161029201528181610a340152610f5d0152611a6f6000f3fe6080604052600436106100dd5760003560e01c80638da5cb5b1161007f578063ae2e933b11610059578063ae2e933b14610280578063c45a0155146102b4578063e2b4b2f7146102e8578063fc0c546a1461033257600080fd5b80638da5cb5b146101df57806399d32fc4146102365780639e34070f1461025057600080fd5b806328fb0cfe116100bb57806328fb0cfe1461013c5780632e7ba6ef1461014f5780632eb4a7ab1461016257806332f088731461017857600080fd5b80630a6f3de5146100e257806314c44e09146100f95780631d9e8e1214610127575b600080fd5b3480156100ee57600080fd5b506100f761035f565b005b34801561010557600080fd5b50610114662386f26fc1000081565b6040519081526020015b60405180910390f35b34801561013357600080fd5b506100f76104f1565b6100f761014a3660046116a2565b61070f565b6100f761015d3660046116de565b6107db565b34801561016e57600080fd5b5061011460015481565b34801561018457600080fd5b5061018d610b7a565b60405161011e9190600060808201905073ffffffffffffffffffffffffffffffffffffffff80845116835280602085015116602084015250604083015160408301526060830151606083015292915050565b3480156101eb57600080fd5b5060005461021190610100900473ffffffffffffffffffffffffffffffffffffffff1681565b60405173ffffffffffffffffffffffffffffffffffffffff909116815260200161011e565b34801561024257600080fd5b50610114655af3107a400081565b34801561025c57600080fd5b5061027061026b366004611775565b610c60565b604051901515815260200161011e565b34801561028c57600080fd5b506102117f000000000000000000000000000000000000000000000000000000000000000081565b3480156102c057600080fd5b506102117f000000000000000000000000000000000000000000000000000000000000000081565b6102fb6102f636600461178e565b610ca1565b6040805173ffffffffffffffffffffffffffffffffffffffff9485168152602081019390935292169181019190915260600161011e565b34801561033e57600080fd5b506002546102119073ffffffffffffffffffffffffffffffffffffffff1681565b600054610100900473ffffffffffffffffffffffffffffffffffffffff1633146103ea576040517f08c379a000000000000000000000000000000000000000000000000000000000815260206004820152601660248201527f596f7520617265206e6f7420746865206f776e65722e0000000000000000000060448201526064015b60405180910390fd5b60008054604051479291610100900473ffffffffffffffffffffffffffffffffffffffff169083908381818185875af1925050503d806000811461044a576040519150601f19603f3d011682016040523d82523d6000602084013e61044f565b606091505b50509050806104ba576040517f08c379a000000000000000000000000000000000000000000000000000000000815260206004820152600f60248201527f7472616e73666572206661696c6564000000000000000000000000000000000060448201526064016103e1565b6040518281527fc826917a6ae5f60ff74f22aaae3b0a4cbd4211c8f3124e45fb1022f923e4de229060200160405180910390a15050565b600054610100900473ffffffffffffffffffffffffffffffffffffffff163314610577576040517f08c379a000000000000000000000000000000000000000000000000000000000815260206004820152601660248201527f596f7520617265206e6f7420746865206f776e65722e0000000000000000000060448201526064016103e1565b6002546040517f70a0823100000000000000000000000000000000000000000000000000000000815230600482015260009173ffffffffffffffffffffffffffffffffffffffff16906370a0823190602401602060405180830381865afa1580156105e6573d6000803e3d6000fd5b505050506040513d601f19601f8201168201806040525081019061060a91906117d2565b60005460025491925061063c9173ffffffffffffffffffffffffffffffffffffffff908116916101009004168361114e565b60025460405160609190911b7fffffffffffffffffffffffffffffffffffffffff0000000000000000000000001660208201527f10fdc0514e1fb0e46d51d3841247ac530b9646974579b5d84fb026eae8bdeedf90603401604080517fffffffffffffffffffffffffffffffffffffffffffffffffffffffffffffffe0818403018152828252602083018590529101604080517fffffffffffffffffffffffffffffffffffffffffffffffffffffffffffffffe0818403018152908290526107049291611859565b60405180910390a150565b3073ffffffffffffffffffffffffffffffffffffffff7f000000000000000000000000000000000000000000000000000000000000000016146107ae576040517f08c379a000000000000000000000000000000000000000000000000000000000815260206004820152601860248201527f596f7520617265206e6f742074686520666163746f72792e000000000000000060448201526064016103e1565b81156107d6576107d673ffffffffffffffffffffffffffffffffffffffff8416338385611222565b505050565b6107e485610c60565b1561081b576040517f646cf55800000000000000000000000000000000000000000000000000000000815260040160405180910390fd5b6002546040517f70a08231000000000000000000000000000000000000000000000000000000008152306004820152849173ffffffffffffffffffffffffffffffffffffffff16906370a0823190602401602060405180830381865afa158015610889573d6000803e3d6000fd5b505050506040513d601f19601f820116820180604052508101906108ad91906117d2565b10156108e5576040517fcb6e851c00000000000000000000000000000000000000000000000000000000815260040160405180910390fd5b6108f6655af3107a400060026118b6565b341461092e576040517f69640e7200000000000000000000000000000000000000000000000000000000815260040160405180910390fd5b60408051602081018790527fffffffffffffffffffffffffffffffffffffffff000000000000000000000000606087901b1691810191909152605481018490526000906074016040516020818303038152906040528051906020012090506109cd838380806020026020016040519081016040528093929190818152602001838360200280828437600092019190915250506001549150849050611286565b610a03576040517f09bde33900000000000000000000000000000000000000000000000000000000815260040160405180910390fd5b610a0c8661129c565b600254610a309073ffffffffffffffffffffffffffffffffffffffff16868661114e565b60007f000000000000000000000000000000000000000000000000000000000000000073ffffffffffffffffffffffffffffffffffffffff16655af3107a400060405160006040518083038185875af1925050503d8060008114610ab0576040519150601f19603f3d011682016040523d82523d6000602084013e610ab5565b606091505b5050905080610b20576040517f08c379a000000000000000000000000000000000000000000000000000000000815260206004820152600f60248201527f7472616e73666572206661696c6564000000000000000000000000000000000060448201526064016103e1565b8573ffffffffffffffffffffffffffffffffffffffff16877f4ec90e965519d92681267467f775ada5bd214aa92c0dc93d90a5e880ce9ed02687604051610b6991815260200190565b60405180910390a350505050505050565b6040805160808101825260008082526020820181905291810182905260608101919091526040805160808101825260025473ffffffffffffffffffffffffffffffffffffffff908116808352600054610100900490911660208301526001548284015291517f70a08231000000000000000000000000000000000000000000000000000000008152306004820152909160608301916370a0823190602401602060405180830381865afa158015610c35573d6000803e3d6000fd5b505050506040513d601f19601f82011682018060405250810190610c5991906117d2565b9052919050565b600080610c6f610100846118fc565b90506000610c7f61010085611910565b60009283526003602052604090922054600190921b9182169091149392505050565b600080803373ffffffffffffffffffffffffffffffffffffffff7f00000000000000000000000000000000000000000000000000000000000000001614610d44576040517f08c379a000000000000000000000000000000000000000000000000000000000815260206004820152601860248201527f596f7520617265206e6f742074686520666163746f72792e000000000000000060448201526064016103e1565b60005460ff1615610dd7576040517f08c379a000000000000000000000000000000000000000000000000000000000815260206004820152602a60248201527f5468697320636f6e74726163742068617320616c7265616479206265656e206960448201527f6e697469616c697a65640000000000000000000000000000000000000000000060648201526084016103e1565b600080547fffffffffffffffffffffffffffffffffffffffffffffffffffffffffffffff0016600117905573ffffffffffffffffffffffffffffffffffffffff8716610e4f576040517f87a873e800000000000000000000000000000000000000000000000000000000815260040160405180910390fd5b73ffffffffffffffffffffffffffffffffffffffff8516610e9c576040517f87a873e800000000000000000000000000000000000000000000000000000000815260040160405180910390fd5b662386f26fc100003414610edc576040517f69640e7200000000000000000000000000000000000000000000000000000000815260040160405180910390fd5b600080547fffffffffffffffffffffff0000000000000000000000000000000000000000ff1661010073ffffffffffffffffffffffffffffffffffffffff8a811691909102919091178255600280547fffffffffffffffffffffffff00000000000000000000000000000000000000001688831617905560018890556040517f00000000000000000000000000000000000000000000000000000000000000009091169034908381818185875af1925050503d8060008114610fba576040519150601f19603f3d011682016040523d82523d6000602084013e610fbf565b606091505b505090508061102a576040517f08c379a000000000000000000000000000000000000000000000000000000000815260206004820152600f60248201527f7472616e73666572206661696c6564000000000000000000000000000000000060448201526064016103e1565b6000546001546002546040517fffffffffffffffffffffffffffffffffffffffff00000000000000000000000060609290921b9190911660208201527f69687cbee57d8aff8295dedc40ac17fd4fe0130939898f42e899776217172f2a92309261010090910473ffffffffffffffffffffffffffffffffffffffff1691603401604080517fffffffffffffffffffffffffffffffffffffffffffffffffffffffffffffffe0818403018152828252602083018c90529101604080517fffffffffffffffffffffffffffffffffffffffffffffffffffffffffffffffe08184030181529082905261111d9594939291611924565b60405180910390a1505060025473ffffffffffffffffffffffffffffffffffffffff16969295503094509192505050565b60405173ffffffffffffffffffffffffffffffffffffffff83166024820152604481018290526107d69084907fa9059cbb00000000000000000000000000000000000000000000000000000000906064015b604080517fffffffffffffffffffffffffffffffffffffffffffffffffffffffffffffffe08184030181529190526020810180517bffffffffffffffffffffffffffffffffffffffffffffffffffffffff167fffffffff00000000000000000000000000000000000000000000000000000000909316929092179091526112da565b60405173ffffffffffffffffffffffffffffffffffffffff808516602483015283166044820152606481018290526112809085907f23b872dd00000000000000000000000000000000000000000000000000000000906084016111a0565b50505050565b60008261129385846113e9565b14949350505050565b60006112aa610100836118fc565b905060006112ba61010084611910565b6000928352600360205260409092208054600190931b9092179091555050565b600061133c826040518060400160405280602081526020017f5361666545524332303a206c6f772d6c6576656c2063616c6c206661696c65648152508573ffffffffffffffffffffffffffffffffffffffff166114389092919063ffffffff16565b905080516000148061135d57508080602001905181019061135d9190611981565b6107d6576040517f08c379a000000000000000000000000000000000000000000000000000000000815260206004820152602a60248201527f5361666545524332303a204552433230206f7065726174696f6e20646964206e60448201527f6f7420737563636565640000000000000000000000000000000000000000000060648201526084016103e1565b600081815b845181101561142e5761141a8286838151811061140d5761140d6119a3565b602002602001015161144f565b915080611426816119d2565b9150506113ee565b5090505b92915050565b60606114478484600085611481565b949350505050565b600081831061146b57600082815260208490526040902061147a565b60008381526020839052604090205b9392505050565b606082471015611513576040517f08c379a000000000000000000000000000000000000000000000000000000000815260206004820152602660248201527f416464726573733a20696e73756666696369656e742062616c616e636520666f60448201527f722063616c6c000000000000000000000000000000000000000000000000000060648201526084016103e1565b6000808673ffffffffffffffffffffffffffffffffffffffff16858760405161153c9190611a0a565b60006040518083038185875af1925050503d8060008114611579576040519150601f19603f3d011682016040523d82523d6000602084013e61157e565b606091505b509150915061158f8783838761159a565b979650505050505050565b606083156116305782516000036116295773ffffffffffffffffffffffffffffffffffffffff85163b611629576040517f08c379a000000000000000000000000000000000000000000000000000000000815260206004820152601d60248201527f416464726573733a2063616c6c20746f206e6f6e2d636f6e747261637400000060448201526064016103e1565b5081611447565b61144783838151156116455781518083602001fd5b806040517f08c379a00000000000000000000000000000000000000000000000000000000081526004016103e19190611a26565b803573ffffffffffffffffffffffffffffffffffffffff8116811461169d57600080fd5b919050565b6000806000606084860312156116b757600080fd5b6116c084611679565b9250602084013591506116d560408501611679565b90509250925092565b6000806000806000608086880312156116f657600080fd5b8535945061170660208701611679565b935060408601359250606086013567ffffffffffffffff8082111561172a57600080fd5b818801915088601f83011261173e57600080fd5b81358181111561174d57600080fd5b8960208260051b850101111561176257600080fd5b9699959850939650602001949392505050565b60006020828403121561178757600080fd5b5035919050565b600080600080608085870312156117a457600080fd5b6117ad85611679565b9350602085013592506117c260408601611679565b9396929550929360600135925050565b6000602082840312156117e457600080fd5b5051919050565b60005b838110156118065781810151838201526020016117ee565b50506000910152565b600081518084526118278160208601602086016117eb565b601f017fffffffffffffffffffffffffffffffffffffffffffffffffffffffffffffffe0169290920160200192915050565b60408152600061186c604083018561180f565b828103602084015261187e818561180f565b95945050505050565b7f4e487b7100000000000000000000000000000000000000000000000000000000600052601160045260246000fd5b808202811582820484141761143257611432611887565b7f4e487b7100000000000000000000000000000000000000000000000000000000600052601260045260246000fd5b60008261190b5761190b6118cd565b500490565b60008261191f5761191f6118cd565b500690565b600073ffffffffffffffffffffffffffffffffffffffff808816835280871660208401525084604083015260a0606083015261196360a083018561180f565b8281036080840152611975818561180f565b98975050505050505050565b60006020828403121561199357600080fd5b8151801515811461147a57600080fd5b7f4e487b7100000000000000000000000000000000000000000000000000000000600052603260045260246000fd5b60007fffffffffffffffffffffffffffffffffffffffffffffffffffffffffffffffff8203611a0357611a03611887565b5060010190565b60008251611a1c8184602087016117eb565b9190910192915050565b60208152600061147a602083018461180f56fea26469706673582212201962b63f65e28316d0ee9c483d953a1370953b08a98127277538abd174175edb64736f6c63430008120033",
  "linkReferences": {},
  "deployedLinkReferences": {}
}