{
  "_format": "hh-sol-artifact-1",
  "contractName": "Standard",
  "sourceName": "contracts/templates/Standard.sol",
  "abi": [
    {
      "inputs": [
        {
          "internalType": "address",
          "name": "factory_",
          "type": "address"
        },
        {
          "internalType": "address",
          "name": "feePool_",
          "type": "address"
        }
      ],
      "stateMutability": "nonpayable",
      "type": "constructor"
    },
    {
      "inputs": [],
      "name": "AlreadyClaimed",
      "type": "error"
    },
    {
      "inputs": [],
      "name": "AlreadyInitialized",
      "type": "error"
    },
    {
      "inputs": [],
      "name": "AmountNotEnough",
      "type": "error"
    },
    {
      "inputs": [],
      "name": "IncorrectAmount",
      "type": "error"
    },
    {
      "inputs": [],
      "name": "InvalidProof",
      "type": "error"
    },
    {
      "inputs": [],
      "name": "NotZeroRequired",
      "type": "error"
    },
    {
      "inputs": [],
      "name": "TransferFailed",
      "type": "error"
    },
    {
      "anonymous": false,
      "inputs": [
        {
          "indexed": true,
          "internalType": "uint256",
          "name": "index",
          "type": "uint256"
        },
        {
          "indexed": true,
          "internalType": "address",
          "name": "account",
          "type": "address"
        },
        {
          "indexed": false,
          "internalType": "uint256",
          "name": "amount",
          "type": "uint256"
        }
      ],
      "name": "Claimed",
      "type": "event"
    },
    {
      "anonymous": false,
      "inputs": [
        {
          "indexed": false,
          "internalType": "address",
          "name": "deployedAddress",
          "type": "address"
        },
        {
          "indexed": false,
          "internalType": "address",
          "name": "owner",
          "type": "address"
        },
        {
          "indexed": false,
          "internalType": "bytes32",
          "name": "merkleRoot",
          "type": "bytes32"
        },
        {
          "indexed": false,
          "internalType": "bytes",
          "name": "airdropTokens",
          "type": "bytes"
        },
        {
          "indexed": false,
          "internalType": "bytes",
          "name": "args",
          "type": "bytes"
        }
      ],
      "name": "Deployed",
      "type": "event"
    },
    {
      "anonymous": false,
      "inputs": [
        {
          "indexed": false,
          "internalType": "uint256",
          "name": "amount",
          "type": "uint256"
        }
      ],
      "name": "WithdrawnClaimFee",
      "type": "event"
    },
    {
      "anonymous": false,
      "inputs": [
        {
          "indexed": false,
          "internalType": "bytes",
          "name": "tokens",
          "type": "bytes"
        },
        {
          "indexed": false,
          "internalType": "bytes",
          "name": "amounts",
          "type": "bytes"
        }
      ],
      "name": "WithdrawnDepositedTokens",
      "type": "event"
    },
    {
      "inputs": [
        {
          "internalType": "uint256",
          "name": "index_",
          "type": "uint256"
        },
        {
          "internalType": "address",
          "name": "account_",
          "type": "address"
        },
        {
          "internalType": "uint256",
          "name": "amount_",
          "type": "uint256"
        },
        {
          "internalType": "bytes32[]",
          "name": "merkleProof_",
          "type": "bytes32[]"
        }
      ],
      "name": "claim",
      "outputs": [],
      "stateMutability": "payable",
      "type": "function"
    },
    {
      "inputs": [],
      "name": "claimFee",
      "outputs": [
        {
          "internalType": "uint256",
          "name": "",
          "type": "uint256"
        }
      ],
      "stateMutability": "view",
      "type": "function"
    },
    {
      "inputs": [],
      "name": "factory",
      "outputs": [
        {
          "internalType": "address",
          "name": "",
          "type": "address"
        }
      ],
      "stateMutability": "view",
      "type": "function"
    },
    {
      "inputs": [],
      "name": "feePool",
      "outputs": [
        {
          "internalType": "address",
          "name": "",
          "type": "address"
        }
      ],
      "stateMutability": "view",
      "type": "function"
    },
    {
      "inputs": [
        {
          "internalType": "address",
          "name": "owner_",
          "type": "address"
        },
        {
          "internalType": "bytes32",
          "name": "merkleRoot_",
          "type": "bytes32"
        },
        {
          "internalType": "address",
          "name": "token_",
          "type": "address"
        },
        {
          "internalType": "uint256",
          "name": "depositAmount_",
          "type": "uint256"
        }
      ],
      "name": "initialize",
      "outputs": [
        {
          "internalType": "address",
          "name": "",
          "type": "address"
        },
        {
          "internalType": "uint256",
          "name": "",
          "type": "uint256"
        },
        {
          "internalType": "address",
          "name": "",
          "type": "address"
        }
      ],
      "stateMutability": "payable",
      "type": "function"
    },
    {
      "inputs": [
        {
          "internalType": "address",
          "name": "token_",
          "type": "address"
        },
        {
          "internalType": "uint256",
          "name": "amount_",
          "type": "uint256"
        },
        {
          "internalType": "address",
          "name": "to_",
          "type": "address"
        }
      ],
      "name": "initializeTransfer",
      "outputs": [],
      "stateMutability": "payable",
      "type": "function"
    },
    {
      "inputs": [
        {
          "internalType": "uint256",
          "name": "index_",
          "type": "uint256"
        }
      ],
      "name": "isClaimed",
      "outputs": [
        {
          "internalType": "bool",
          "name": "",
          "type": "bool"
        }
      ],
      "stateMutability": "view",
      "type": "function"
    },
    {
      "inputs": [],
      "name": "merkleRoot",
      "outputs": [
        {
          "internalType": "bytes32",
          "name": "",
          "type": "bytes32"
        }
      ],
      "stateMutability": "view",
      "type": "function"
    },
    {
      "inputs": [],
      "name": "owner",
      "outputs": [
        {
          "internalType": "address",
          "name": "",
          "type": "address"
        }
      ],
      "stateMutability": "view",
      "type": "function"
    },
    {
      "inputs": [],
      "name": "registrationFee",
      "outputs": [
        {
          "internalType": "uint256",
          "name": "",
          "type": "uint256"
        }
      ],
      "stateMutability": "view",
      "type": "function"
    },
    {
      "inputs": [],
      "name": "token",
      "outputs": [
        {
          "internalType": "address",
          "name": "",
          "type": "address"
        }
      ],
      "stateMutability": "view",
      "type": "function"
    },
    {
      "inputs": [],
      "name": "withdrawClaimFee",
      "outputs": [],
      "stateMutability": "nonpayable",
      "type": "function"
    },
    {
      "inputs": [],
      "name": "withdrawDepositedToken",
      "outputs": [],
      "stateMutability": "nonpayable",
      "type": "function"
    }
  ],
  "bytecode": "0x60c06040523480156200001157600080fd5b506040516200191438038062001914833981016040819052620000349162000069565b6001600160a01b0391821660a05216608052620000a1565b80516001600160a01b03811681146200006457600080fd5b919050565b600080604083850312156200007d57600080fd5b62000088836200004c565b915062000098602084016200004c565b90509250929050565b60805160a051611831620000e360003960008181610254015281816106850152610b05015260008181610220015281816109920152610d4f01526118316000f3fe6080604052600436106100d25760003560e01c80638da5cb5b1161007f578063ae2e933b11610059578063ae2e933b1461020e578063c45a015514610242578063e2b4b2f714610276578063fc0c546a146102c057600080fd5b80638da5cb5b1461016d57806399d32fc4146101c45780639e34070f146101de57600080fd5b806328fb0cfe116100b057806328fb0cfe146101315780632e7ba6ef146101445780632eb4a7ab1461015757600080fd5b80630a6f3de5146100d757806314c44e09146100ee5780631d9e8e121461011c575b600080fd5b3480156100e357600080fd5b506100ec6102ed565b005b3480156100fa57600080fd5b50610109662386f26fc1000081565b6040519081526020015b60405180910390f35b34801561012857600080fd5b506100ec61044f565b6100ec61013f366004611464565b61066d565b6100ec6101523660046114a0565b610739565b34801561016357600080fd5b5061010960015481565b34801561017957600080fd5b5060005461019f90610100900473ffffffffffffffffffffffffffffffffffffffff1681565b60405173ffffffffffffffffffffffffffffffffffffffff9091168152602001610113565b3480156101d057600080fd5b50610109655af3107a400081565b3480156101ea57600080fd5b506101fe6101f9366004611537565b610aa8565b6040519015158152602001610113565b34801561021a57600080fd5b5061019f7f000000000000000000000000000000000000000000000000000000000000000081565b34801561024e57600080fd5b5061019f7f000000000000000000000000000000000000000000000000000000000000000081565b610289610284366004611550565b610ae9565b6040805173ffffffffffffffffffffffffffffffffffffffff94851681526020810193909352921691810191909152606001610113565b3480156102cc57600080fd5b5060025461019f9073ffffffffffffffffffffffffffffffffffffffff1681565b600054610100900473ffffffffffffffffffffffffffffffffffffffff163314610378576040517f08c379a000000000000000000000000000000000000000000000000000000000815260206004820152601660248201527f596f7520617265206e6f7420746865206f776e65722e0000000000000000000060448201526064015b60405180910390fd5b60008054604051479291610100900473ffffffffffffffffffffffffffffffffffffffff169083908381818185875af1925050503d80600081146103d8576040519150601f19603f3d011682016040523d82523d6000602084013e6103dd565b606091505b5050905080610418576040517f90b8ec1800000000000000000000000000000000000000000000000000000000815260040160405180910390fd5b6040518281527fc826917a6ae5f60ff74f22aaae3b0a4cbd4211c8f3124e45fb1022f923e4de229060200160405180910390a15050565b600054610100900473ffffffffffffffffffffffffffffffffffffffff1633146104d5576040517f08c379a000000000000000000000000000000000000000000000000000000000815260206004820152601660248201527f596f7520617265206e6f7420746865206f776e65722e00000000000000000000604482015260640161036f565b6002546040517f70a0823100000000000000000000000000000000000000000000000000000000815230600482015260009173ffffffffffffffffffffffffffffffffffffffff16906370a0823190602401602060405180830381865afa158015610544573d6000803e3d6000fd5b505050506040513d601f19601f820116820180604052508101906105689190611594565b60005460025491925061059a9173ffffffffffffffffffffffffffffffffffffffff9081169161010090041683610f10565b60025460405160609190911b7fffffffffffffffffffffffffffffffffffffffff0000000000000000000000001660208201527f10fdc0514e1fb0e46d51d3841247ac530b9646974579b5d84fb026eae8bdeedf90603401604080517fffffffffffffffffffffffffffffffffffffffffffffffffffffffffffffffe0818403018152828252602083018590529101604080517fffffffffffffffffffffffffffffffffffffffffffffffffffffffffffffffe081840301815290829052610662929161161b565b60405180910390a150565b3073ffffffffffffffffffffffffffffffffffffffff7f0000000000000000000000000000000000000000000000000000000000000000161461070c576040517f08c379a000000000000000000000000000000000000000000000000000000000815260206004820152601860248201527f596f7520617265206e6f742074686520666163746f72792e0000000000000000604482015260640161036f565b81156107345761073473ffffffffffffffffffffffffffffffffffffffff8416338385610fe4565b505050565b61074285610aa8565b15610779576040517f646cf55800000000000000000000000000000000000000000000000000000000815260040160405180910390fd5b6002546040517f70a08231000000000000000000000000000000000000000000000000000000008152306004820152849173ffffffffffffffffffffffffffffffffffffffff16906370a0823190602401602060405180830381865afa1580156107e7573d6000803e3d6000fd5b505050506040513d601f19601f8201168201806040525081019061080b9190611594565b1015610843576040517fcb6e851c00000000000000000000000000000000000000000000000000000000815260040160405180910390fd5b610854655af3107a40006002611678565b341461088c576040517f69640e7200000000000000000000000000000000000000000000000000000000815260040160405180910390fd5b60408051602081018790527fffffffffffffffffffffffffffffffffffffffff000000000000000000000000606087901b16918101919091526054810184905260009060740160405160208183030381529060405280519060200120905061092b838380806020026020016040519081016040528093929190818152602001838360200280828437600092019190915250506001549150849050611048565b610961576040517f09bde33900000000000000000000000000000000000000000000000000000000815260040160405180910390fd5b61096a8661105e565b60025461098e9073ffffffffffffffffffffffffffffffffffffffff168686610f10565b60007f000000000000000000000000000000000000000000000000000000000000000073ffffffffffffffffffffffffffffffffffffffff16655af3107a400060405160006040518083038185875af1925050503d8060008114610a0e576040519150601f19603f3d011682016040523d82523d6000602084013e610a13565b606091505b5050905080610a4e576040517f90b8ec1800000000000000000000000000000000000000000000000000000000815260040160405180910390fd5b8573ffffffffffffffffffffffffffffffffffffffff16877f4ec90e965519d92681267467f775ada5bd214aa92c0dc93d90a5e880ce9ed02687604051610a9791815260200190565b60405180910390a350505050505050565b600080610ab7610100846116be565b90506000610ac7610100856116d2565b60009283526003602052604090922054600190921b9182169091149392505050565b600080803373ffffffffffffffffffffffffffffffffffffffff7f00000000000000000000000000000000000000000000000000000000000000001614610b8c576040517f08c379a000000000000000000000000000000000000000000000000000000000815260206004820152601860248201527f596f7520617265206e6f742074686520666163746f72792e0000000000000000604482015260640161036f565b60005460ff1615610bc9576040517f0dc149f000000000000000000000000000000000000000000000000000000000815260040160405180910390fd5b600080547fffffffffffffffffffffffffffffffffffffffffffffffffffffffffffffff0016600117905573ffffffffffffffffffffffffffffffffffffffff8716610c41576040517f87a873e800000000000000000000000000000000000000000000000000000000815260040160405180910390fd5b73ffffffffffffffffffffffffffffffffffffffff8516610c8e576040517f87a873e800000000000000000000000000000000000000000000000000000000815260040160405180910390fd5b662386f26fc100003414610cce576040517f69640e7200000000000000000000000000000000000000000000000000000000815260040160405180910390fd5b600080547fffffffffffffffffffffff0000000000000000000000000000000000000000ff1661010073ffffffffffffffffffffffffffffffffffffffff8a811691909102919091178255600280547fffffffffffffffffffffffff00000000000000000000000000000000000000001688831617905560018890556040517f00000000000000000000000000000000000000000000000000000000000000009091169034908381818185875af1925050503d8060008114610dac576040519150601f19603f3d011682016040523d82523d6000602084013e610db1565b606091505b5050905080610dec576040517f90b8ec1800000000000000000000000000000000000000000000000000000000815260040160405180910390fd5b6000546001546002546040517fffffffffffffffffffffffffffffffffffffffff00000000000000000000000060609290921b9190911660208201527f69687cbee57d8aff8295dedc40ac17fd4fe0130939898f42e899776217172f2a92309261010090910473ffffffffffffffffffffffffffffffffffffffff1691603401604080517fffffffffffffffffffffffffffffffffffffffffffffffffffffffffffffffe0818403018152828252602083018c90529101604080517fffffffffffffffffffffffffffffffffffffffffffffffffffffffffffffffe081840301815290829052610edf95949392916116e6565b60405180910390a1505060025473ffffffffffffffffffffffffffffffffffffffff16969295503094509192505050565b60405173ffffffffffffffffffffffffffffffffffffffff83166024820152604481018290526107349084907fa9059cbb00000000000000000000000000000000000000000000000000000000906064015b604080517fffffffffffffffffffffffffffffffffffffffffffffffffffffffffffffffe08184030181529190526020810180517bffffffffffffffffffffffffffffffffffffffffffffffffffffffff167fffffffff000000000000000000000000000000000000000000000000000000009093169290921790915261109c565b60405173ffffffffffffffffffffffffffffffffffffffff808516602483015283166044820152606481018290526110429085907f23b872dd0000000000000000000000000000000000000000000000000000000090608401610f62565b50505050565b60008261105585846111ab565b14949350505050565b600061106c610100836116be565b9050600061107c610100846116d2565b6000928352600360205260409092208054600190931b9092179091555050565b60006110fe826040518060400160405280602081526020017f5361666545524332303a206c6f772d6c6576656c2063616c6c206661696c65648152508573ffffffffffffffffffffffffffffffffffffffff166111fa9092919063ffffffff16565b905080516000148061111f57508080602001905181019061111f9190611743565b610734576040517f08c379a000000000000000000000000000000000000000000000000000000000815260206004820152602a60248201527f5361666545524332303a204552433230206f7065726174696f6e20646964206e60448201527f6f74207375636365656400000000000000000000000000000000000000000000606482015260840161036f565b600081815b84518110156111f0576111dc828683815181106111cf576111cf611765565b6020026020010151611211565b9150806111e881611794565b9150506111b0565b5090505b92915050565b60606112098484600085611243565b949350505050565b600081831061122d57600082815260208490526040902061123c565b60008381526020839052604090205b9392505050565b6060824710156112d5576040517f08c379a000000000000000000000000000000000000000000000000000000000815260206004820152602660248201527f416464726573733a20696e73756666696369656e742062616c616e636520666f60448201527f722063616c6c0000000000000000000000000000000000000000000000000000606482015260840161036f565b6000808673ffffffffffffffffffffffffffffffffffffffff1685876040516112fe91906117cc565b60006040518083038185875af1925050503d806000811461133b576040519150601f19603f3d011682016040523d82523d6000602084013e611340565b606091505b50915091506113518783838761135c565b979650505050505050565b606083156113f25782516000036113eb5773ffffffffffffffffffffffffffffffffffffffff85163b6113eb576040517f08c379a000000000000000000000000000000000000000000000000000000000815260206004820152601d60248201527f416464726573733a2063616c6c20746f206e6f6e2d636f6e7472616374000000604482015260640161036f565b5081611209565b61120983838151156114075781518083602001fd5b806040517f08c379a000000000000000000000000000000000000000000000000000000000815260040161036f91906117e8565b803573ffffffffffffffffffffffffffffffffffffffff8116811461145f57600080fd5b919050565b60008060006060848603121561147957600080fd5b6114828461143b565b9250602084013591506114976040850161143b565b90509250925092565b6000806000806000608086880312156114b857600080fd5b853594506114c86020870161143b565b935060408601359250606086013567ffffffffffffffff808211156114ec57600080fd5b818801915088601f83011261150057600080fd5b81358181111561150f57600080fd5b8960208260051b850101111561152457600080fd5b9699959850939650602001949392505050565b60006020828403121561154957600080fd5b5035919050565b6000806000806080858703121561156657600080fd5b61156f8561143b565b9350602085013592506115846040860161143b565b9396929550929360600135925050565b6000602082840312156115a657600080fd5b5051919050565b60005b838110156115c85781810151838201526020016115b0565b50506000910152565b600081518084526115e98160208601602086016115ad565b601f017fffffffffffffffffffffffffffffffffffffffffffffffffffffffffffffffe0169290920160200192915050565b60408152600061162e60408301856115d1565b828103602084015261164081856115d1565b95945050505050565b7f4e487b7100000000000000000000000000000000000000000000000000000000600052601160045260246000fd5b80820281158282048414176111f4576111f4611649565b7f4e487b7100000000000000000000000000000000000000000000000000000000600052601260045260246000fd5b6000826116cd576116cd61168f565b500490565b6000826116e1576116e161168f565b500690565b600073ffffffffffffffffffffffffffffffffffffffff808816835280871660208401525084604083015260a0606083015261172560a08301856115d1565b828103608084015261173781856115d1565b98975050505050505050565b60006020828403121561175557600080fd5b8151801515811461123c57600080fd5b7f4e487b7100000000000000000000000000000000000000000000000000000000600052603260045260246000fd5b60007fffffffffffffffffffffffffffffffffffffffffffffffffffffffffffffffff82036117c5576117c5611649565b5060010190565b600082516117de8184602087016115ad565b9190910192915050565b60208152600061123c60208301846115d156fea2646970667358221220fb0855614dd6d8151c1e0f8c3791282e34839a3e89d9a3c65171efa6ce64188d64736f6c63430008120033",
  "linkReferences": {},
  "deployedLinkReferences": {}
}