{
  "_format": "hh-sol-artifact-1",
  "contractName": "MerkleAirdropStandard",
  "sourceName": "contracts/templates/MerkleAirdropStandard.sol",
  "abi": [
    {
      "inputs": [
        {
          "internalType": "address",
          "name": "factory_",
          "type": "address"
        },
        {
          "internalType": "address",
          "name": "feePool_",
          "type": "address"
        },
        {
          "internalType": "contract IPermit2",
          "name": "permit_",
          "type": "address"
        }
      ],
      "stateMutability": "nonpayable",
      "type": "constructor"
    },
    {
      "inputs": [],
      "name": "AlreadyClaimed",
      "type": "error"
    },
    {
      "inputs": [],
      "name": "AmountNotEnough",
      "type": "error"
    },
    {
      "inputs": [],
      "name": "IncorrectAmount",
      "type": "error"
    },
    {
      "inputs": [],
      "name": "InvalidProof",
      "type": "error"
    },
    {
      "inputs": [],
      "name": "NotZeroRequired",
      "type": "error"
    },
    {
      "anonymous": false,
      "inputs": [
        {
          "indexed": true,
          "internalType": "uint256",
          "name": "index",
          "type": "uint256"
        },
        {
          "indexed": true,
          "internalType": "address",
          "name": "account",
          "type": "address"
        },
        {
          "indexed": false,
          "internalType": "uint256",
          "name": "amount",
          "type": "uint256"
        }
      ],
      "name": "Claimed",
      "type": "event"
    },
    {
      "anonymous": false,
      "inputs": [
        {
          "indexed": false,
          "internalType": "address",
          "name": "deployedAddress",
          "type": "address"
        },
        {
          "indexed": false,
          "internalType": "address",
          "name": "owner",
          "type": "address"
        },
        {
          "indexed": false,
          "internalType": "bytes32",
          "name": "merkleRoot",
          "type": "bytes32"
        },
        {
          "indexed": false,
          "internalType": "bytes",
          "name": "airdropTokens",
          "type": "bytes"
        },
        {
          "indexed": false,
          "internalType": "bytes",
          "name": "args",
          "type": "bytes"
        }
      ],
      "name": "Deployed",
      "type": "event"
    },
    {
      "inputs": [],
      "name": "Permit2",
      "outputs": [
        {
          "internalType": "contract IPermit2",
          "name": "",
          "type": "address"
        }
      ],
      "stateMutability": "view",
      "type": "function"
    },
    {
      "inputs": [
        {
          "internalType": "uint256",
          "name": "index_",
          "type": "uint256"
        },
        {
          "internalType": "address",
          "name": "account_",
          "type": "address"
        },
        {
          "internalType": "uint256",
          "name": "amount_",
          "type": "uint256"
        },
        {
          "internalType": "bytes32[]",
          "name": "merkleProof",
          "type": "bytes32[]"
        }
      ],
      "name": "claim",
      "outputs": [],
      "stateMutability": "payable",
      "type": "function"
    },
    {
      "inputs": [],
      "name": "claimFee",
      "outputs": [
        {
          "internalType": "uint256",
          "name": "",
          "type": "uint256"
        }
      ],
      "stateMutability": "view",
      "type": "function"
    },
    {
      "inputs": [
        {
          "internalType": "uint256",
          "name": "depositAmount_",
          "type": "uint256"
        },
        {
          "internalType": "uint256",
          "name": "nonce_",
          "type": "uint256"
        },
        {
          "internalType": "uint256",
          "name": "deadline_",
          "type": "uint256"
        },
        {
          "internalType": "bytes",
          "name": "signature_",
          "type": "bytes"
        }
      ],
      "name": "depositAirdropToken",
      "outputs": [],
      "stateMutability": "nonpayable",
      "type": "function"
    },
    {
      "inputs": [],
      "name": "depositedAmount",
      "outputs": [
        {
          "internalType": "uint256",
          "name": "",
          "type": "uint256"
        }
      ],
      "stateMutability": "view",
      "type": "function"
    },
    {
      "inputs": [],
      "name": "factory",
      "outputs": [
        {
          "internalType": "address",
          "name": "",
          "type": "address"
        }
      ],
      "stateMutability": "view",
      "type": "function"
    },
    {
      "inputs": [],
      "name": "feePool",
      "outputs": [
        {
          "internalType": "address",
          "name": "",
          "type": "address"
        }
      ],
      "stateMutability": "view",
      "type": "function"
    },
    {
      "inputs": [],
      "name": "getAirdropInfo",
      "outputs": [
        {
          "components": [
            {
              "internalType": "address",
              "name": "token",
              "type": "address"
            },
            {
              "internalType": "address",
              "name": "owner",
              "type": "address"
            },
            {
              "internalType": "bytes32",
              "name": "merkleRoot",
              "type": "bytes32"
            },
            {
              "internalType": "uint256",
              "name": "depositedAmount",
              "type": "uint256"
            },
            {
              "internalType": "uint256",
              "name": "stockAmount",
              "type": "uint256"
            }
          ],
          "internalType": "struct MerkleAirdropStandard.AirdopInfo",
          "name": "",
          "type": "tuple"
        }
      ],
      "stateMutability": "view",
      "type": "function"
    },
    {
      "inputs": [
        {
          "internalType": "address",
          "name": "owner_",
          "type": "address"
        },
        {
          "internalType": "bytes32",
          "name": "merkleRoot_",
          "type": "bytes32"
        },
        {
          "internalType": "address",
          "name": "token_",
          "type": "address"
        },
        {
          "internalType": "uint256",
          "name": "depositAmount_",
          "type": "uint256"
        },
        {
          "internalType": "uint256",
          "name": "nonce_",
          "type": "uint256"
        },
        {
          "internalType": "uint256",
          "name": "deadline_",
          "type": "uint256"
        },
        {
          "internalType": "bytes",
          "name": "signature_",
          "type": "bytes"
        }
      ],
      "name": "initialize",
      "outputs": [
        {
          "internalType": "address",
          "name": "",
          "type": "address"
        },
        {
          "internalType": "uint256",
          "name": "",
          "type": "uint256"
        },
        {
          "internalType": "uint256",
          "name": "",
          "type": "uint256"
        },
        {
          "internalType": "uint256",
          "name": "",
          "type": "uint256"
        },
        {
          "internalType": "bytes",
          "name": "",
          "type": "bytes"
        },
        {
          "internalType": "address",
          "name": "",
          "type": "address"
        }
      ],
      "stateMutability": "payable",
      "type": "function"
    },
    {
      "inputs": [
        {
          "internalType": "address",
          "name": "token_",
          "type": "address"
        },
        {
          "internalType": "uint256",
          "name": "amount_",
          "type": "uint256"
        },
        {
          "internalType": "uint256",
          "name": "nonce_",
          "type": "uint256"
        },
        {
          "internalType": "uint256",
          "name": "deadline_",
          "type": "uint256"
        },
        {
          "internalType": "bytes",
          "name": "signature_",
          "type": "bytes"
        },
        {
          "internalType": "address",
          "name": "to_",
          "type": "address"
        }
      ],
      "name": "initializeTransfer",
      "outputs": [],
      "stateMutability": "payable",
      "type": "function"
    },
    {
      "inputs": [
        {
          "internalType": "uint256",
          "name": "index_",
          "type": "uint256"
        }
      ],
      "name": "isClaimed",
      "outputs": [
        {
          "internalType": "bool",
          "name": "",
          "type": "bool"
        }
      ],
      "stateMutability": "view",
      "type": "function"
    },
    {
      "inputs": [],
      "name": "merkleRoot",
      "outputs": [
        {
          "internalType": "bytes32",
          "name": "",
          "type": "bytes32"
        }
      ],
      "stateMutability": "view",
      "type": "function"
    },
    {
      "inputs": [],
      "name": "owner",
      "outputs": [
        {
          "internalType": "address",
          "name": "",
          "type": "address"
        }
      ],
      "stateMutability": "view",
      "type": "function"
    },
    {
      "inputs": [],
      "name": "registrationFee",
      "outputs": [
        {
          "internalType": "uint256",
          "name": "",
          "type": "uint256"
        }
      ],
      "stateMutability": "view",
      "type": "function"
    },
    {
      "inputs": [],
      "name": "token",
      "outputs": [
        {
          "internalType": "address",
          "name": "",
          "type": "address"
        }
      ],
      "stateMutability": "view",
      "type": "function"
    },
    {
      "inputs": [],
      "name": "totalClaimed",
      "outputs": [
        {
          "internalType": "uint256",
          "name": "",
          "type": "uint256"
        }
      ],
      "stateMutability": "view",
      "type": "function"
    },
    {
      "inputs": [],
      "name": "withdrawDepositedToken",
      "outputs": [],
      "stateMutability": "nonpayable",
      "type": "function"
    }
  ],
  "bytecode": "0x60e06040523480156200001157600080fd5b50604051620020ca380380620020ca83398101604081905262000034916200006b565b6001600160a01b0392831660c05290821660a05216608052620000bf565b6001600160a01b03811681146200006857600080fd5b50565b6000806000606084860312156200008157600080fd5b83516200008e8162000052565b6020850151909350620000a18162000052565b6040850151909250620000b48162000052565b809150509250925092565b60805160a05160c051611fb1620001196000396000818161036701528181610b9101526112780152600081816103330152818161092c0152610e62015260008181610219015281816111e9015261137e0152611fb16000f3fe60806040526004361061010e5760003560e01c80638da5cb5b116100a5578063ae2e933b11610074578063d54ad2a111610059578063d54ad2a114610389578063ed7418801461039f578063fc0c546a146103b257600080fd5b8063ae2e933b14610321578063c45a01551461035557600080fd5b80638da5cb5b1461028557806399d32fc4146102b75780639e34070f146102d15780639f7dd0501461030157600080fd5b80632eb4a7ab116100e15780632eb4a7ab1461018057806332f088731461019657806339514480146102075780638adaf73f1461026057600080fd5b806314c44e09146101135780631d01364c146101415780631d9e8e12146101565780632e7ba6ef1461016d575b600080fd5b34801561011f57600080fd5b5061012e662386f26fc1000081565b6040519081526020015b60405180910390f35b34801561014d57600080fd5b5061012e6103df565b34801561016257600080fd5b5061016b610485565b005b61016b61017b3660046118a6565b6105d2565b34801561018c57600080fd5b5061012e60015481565b3480156101a257600080fd5b506101ab610a5a565b6040516101389190600060a08201905073ffffffffffffffffffffffffffffffffffffffff8084511683528060208501511660208401525060408301516040830152606083015160608301526080830151608083015292915050565b34801561021357600080fd5b5061023b7f000000000000000000000000000000000000000000000000000000000000000081565b60405173ffffffffffffffffffffffffffffffffffffffff9091168152602001610138565b61027361026e36600461196c565b610b71565b60405161013896959493929190611af1565b34801561029157600080fd5b5060005461023b90610100900473ffffffffffffffffffffffffffffffffffffffff1681565b3480156102c357600080fd5b5061012e655af3107a400081565b3480156102dd57600080fd5b506102f16102ec366004611b49565b6110a8565b6040519015158152602001610138565b34801561030d57600080fd5b5061016b61031c366004611bab565b6110e9565b34801561032d57600080fd5b5061023b7f000000000000000000000000000000000000000000000000000000000000000081565b34801561036157600080fd5b5061023b7f000000000000000000000000000000000000000000000000000000000000000081565b34801561039557600080fd5b5061012e60035481565b61016b6103ad366004611c0c565b611260565b3480156103be57600080fd5b5060025461023b9073ffffffffffffffffffffffffffffffffffffffff1681565b6003546002546040517f70a082310000000000000000000000000000000000000000000000000000000081523060048201526000929173ffffffffffffffffffffffffffffffffffffffff16906370a0823190602401602060405180830381865afa158015610452573d6000803e3d6000fd5b505050506040513d601f19601f820116820180604052508101906104769190611c8e565b6104809190611cd6565b905090565b600054610100900473ffffffffffffffffffffffffffffffffffffffff163314610510576040517f08c379a000000000000000000000000000000000000000000000000000000000815260206004820152601660248201527f596f7520617265206e6f7420746865206f776e65722e0000000000000000000060448201526064015b60405180910390fd5b6000546002546040517f70a082310000000000000000000000000000000000000000000000000000000081523060048201526105d092610100900473ffffffffffffffffffffffffffffffffffffffff9081169216906370a0823190602401602060405180830381865afa15801561058c573d6000803e3d6000fd5b505050506040513d601f19601f820116820180604052508101906105b09190611c8e565b60025473ffffffffffffffffffffffffffffffffffffffff1691906113f8565b565b6105db856110a8565b15610612576040517f646cf55800000000000000000000000000000000000000000000000000000000815260040160405180910390fd5b6002546040517f70a08231000000000000000000000000000000000000000000000000000000008152306004820152849173ffffffffffffffffffffffffffffffffffffffff16906370a0823190602401602060405180830381865afa158015610680573d6000803e3d6000fd5b505050506040513d601f19601f820116820180604052508101906106a49190611c8e565b10156106dc576040517fcb6e851c00000000000000000000000000000000000000000000000000000000815260040160405180910390fd5b6106ed655af3107a40006002611ce9565b3414610725576040517f69640e7200000000000000000000000000000000000000000000000000000000815260040160405180910390fd5b60408051602081018790527fffffffffffffffffffffffffffffffffffffffff000000000000000000000000606087901b1691810191909152605481018490526000906074016040516020818303038152906040528051906020012090506107c483838080602002602001604051908101604052809392919081815260200183836020028082843760009201919091525050600154915084905061148a565b6107fa576040517f09bde33900000000000000000000000000000000000000000000000000000000815260040160405180910390fd5b610803866114a0565b83600360008282546108159190611cd6565b909155505060025461083e9073ffffffffffffffffffffffffffffffffffffffff1686866113f8565b6000805460405161010090910473ffffffffffffffffffffffffffffffffffffffff1690655af3107a4000908381818185875af1925050503d80600081146108a2576040519150601f19603f3d011682016040523d82523d6000602084013e6108a7565b606091505b5050905080610912576040517f08c379a000000000000000000000000000000000000000000000000000000000815260206004820152600f60248201527f7472616e73666572206661696c656400000000000000000000000000000000006044820152606401610507565b60405173ffffffffffffffffffffffffffffffffffffffff7f00000000000000000000000000000000000000000000000000000000000000001690655af3107a400090600081818185875af1925050503d806000811461098e576040519150601f19603f3d011682016040523d82523d6000602084013e610993565b606091505b50508091505080610a00576040517f08c379a000000000000000000000000000000000000000000000000000000000815260206004820152600f60248201527f7472616e73666572206661696c656400000000000000000000000000000000006044820152606401610507565b8573ffffffffffffffffffffffffffffffffffffffff16877f4ec90e965519d92681267467f775ada5bd214aa92c0dc93d90a5e880ce9ed02687604051610a4991815260200190565b60405180910390a350505050505050565b6040805160a0810182526000808252602082018190529181018290526060810182905260808101919091526040805160a08101825260025473ffffffffffffffffffffffffffffffffffffffff908116825260005461010090041660208201526001549181019190915260608101610ad06103df565b81526002546040517f70a0823100000000000000000000000000000000000000000000000000000000815230600482015260209092019173ffffffffffffffffffffffffffffffffffffffff909116906370a0823190602401602060405180830381865afa158015610b46573d6000803e3d6000fd5b505050506040513d601f19601f82011682018060405250810190610b6a9190611c8e565b9052919050565b60008080806060813373ffffffffffffffffffffffffffffffffffffffff7f00000000000000000000000000000000000000000000000000000000000000001614610c18576040517f08c379a000000000000000000000000000000000000000000000000000000000815260206004820152601860248201527f596f7520617265206e6f742074686520666163746f72792e00000000000000006044820152606401610507565b60005460ff1615610cab576040517f08c379a000000000000000000000000000000000000000000000000000000000815260206004820152602a60248201527f5468697320636f6e74726163742068617320616c7265616479206265656e206960448201527f6e697469616c697a6564000000000000000000000000000000000000000000006064820152608401610507565b600080547fffffffffffffffffffffffffffffffffffffffffffffffffffffffffffffff0016600117905573ffffffffffffffffffffffffffffffffffffffff8d16610d23576040517f87a873e800000000000000000000000000000000000000000000000000000000815260040160405180910390fd5b73ffffffffffffffffffffffffffffffffffffffff8b16610d70576040517f87a873e800000000000000000000000000000000000000000000000000000000815260040160405180910390fd5b662386f26fc100003414610db0576040517f69640e7200000000000000000000000000000000000000000000000000000000815260040160405180910390fd5b600060405180608001604052808c81526020018b81526020018a81526020018981525090508d600060016101000a81548173ffffffffffffffffffffffffffffffffffffffff021916908373ffffffffffffffffffffffffffffffffffffffff1602179055508b600260006101000a81548173ffffffffffffffffffffffffffffffffffffffff021916908373ffffffffffffffffffffffffffffffffffffffff1602179055508c60018190555060007f000000000000000000000000000000000000000000000000000000000000000073ffffffffffffffffffffffffffffffffffffffff163460405160006040518083038185875af1925050503d8060008114610ed8576040519150601f19603f3d011682016040523d82523d6000602084013e610edd565b606091505b5050905080610f48576040517f08c379a000000000000000000000000000000000000000000000000000000000815260206004820152600f60248201527f7472616e73666572206661696c656400000000000000000000000000000000006044820152606401610507565b6000546001546002546040517fffffffffffffffffffffffffffffffffffffffff00000000000000000000000060609290921b9190911660208201527f69687cbee57d8aff8295dedc40ac17fd4fe0130939898f42e899776217172f2a92309261010090910473ffffffffffffffffffffffffffffffffffffffff1691603401604080517fffffffffffffffffffffffffffffffffffffffffffffffffffffffffffffffe0818403018152828252885160208a810151938b015160608c01519395611017959394919201611d00565b604080517fffffffffffffffffffffffffffffffffffffffffffffffffffffffffffffffe0818403018152908290526110539594939291611d2f565b60405180910390a15060025481516020830151604084015160609094015173ffffffffffffffffffffffffffffffffffffffff9093169950909750955090935091503090509750975097509750975097915050565b6000806110b761010084611dbb565b905060006110c761010085611dcf565b60009283526004602052604090922054600190921b9182169091149392505050565b600054610100900473ffffffffffffffffffffffffffffffffffffffff16331461116f576040517f08c379a000000000000000000000000000000000000000000000000000000000815260206004820152601660248201527f596f7520617265206e6f7420746865206f776e65722e000000000000000000006044820152606401610507565b6040805160a08101825260025473ffffffffffffffffffffffffffffffffffffffff9081166060830190815260808301899052825260208083018890528284018790528351808501855230815290810189905292517f30f28b7a0000000000000000000000000000000000000000000000000000000081527f0000000000000000000000000000000000000000000000000000000000000000909116926330f28b7a9261122792909190339088908890600401611de3565b600060405180830381600087803b15801561124157600080fd5b505af1158015611255573d6000803e3d6000fd5b505050505050505050565b3073ffffffffffffffffffffffffffffffffffffffff7f000000000000000000000000000000000000000000000000000000000000000016146112ff576040517f08c379a000000000000000000000000000000000000000000000000000000000815260206004820152601860248201527f596f7520617265206e6f742074686520666163746f72792e00000000000000006044820152606401610507565b85156113ef576040805160a08101825273ffffffffffffffffffffffffffffffffffffffff89811660608301908152608083018a9052825260208083018990528284018890528351808501855285831681529081018a905292517f30f28b7a0000000000000000000000000000000000000000000000000000000081527f0000000000000000000000000000000000000000000000000000000000000000909116926330f28b7a926113bc92909190339089908990600401611de3565b600060405180830381600087803b1580156113d657600080fd5b505af11580156113ea573d6000803e3d6000fd5b505050505b50505050505050565b6040805173ffffffffffffffffffffffffffffffffffffffff8416602482015260448082018490528251808303909101815260649091019091526020810180517bffffffffffffffffffffffffffffffffffffffffffffffffffffffff167fa9059cbb000000000000000000000000000000000000000000000000000000001790526114859084906114de565b505050565b60008261149785846115ed565b14949350505050565b60006114ae61010083611dbb565b905060006114be61010084611dcf565b6000928352600460205260409092208054600190931b9092179091555050565b6000611540826040518060400160405280602081526020017f5361666545524332303a206c6f772d6c6576656c2063616c6c206661696c65648152508573ffffffffffffffffffffffffffffffffffffffff1661163c9092919063ffffffff16565b90508051600014806115615750808060200190518101906115619190611ec3565b611485576040517f08c379a000000000000000000000000000000000000000000000000000000000815260206004820152602a60248201527f5361666545524332303a204552433230206f7065726174696f6e20646964206e60448201527f6f742073756363656564000000000000000000000000000000000000000000006064820152608401610507565b600081815b84518110156116325761161e8286838151811061161157611611611ee5565b6020026020010151611653565b91508061162a81611f14565b9150506115f2565b5090505b92915050565b606061164b8484600085611685565b949350505050565b600081831061166f57600082815260208490526040902061167e565b60008381526020839052604090205b9392505050565b606082471015611717576040517f08c379a000000000000000000000000000000000000000000000000000000000815260206004820152602660248201527f416464726573733a20696e73756666696369656e742062616c616e636520666f60448201527f722063616c6c00000000000000000000000000000000000000000000000000006064820152608401610507565b6000808673ffffffffffffffffffffffffffffffffffffffff1685876040516117409190611f4c565b60006040518083038185875af1925050503d806000811461177d576040519150601f19603f3d011682016040523d82523d6000602084013e611782565b606091505b50915091506117938783838761179e565b979650505050505050565b6060831561183457825160000361182d5773ffffffffffffffffffffffffffffffffffffffff85163b61182d576040517f08c379a000000000000000000000000000000000000000000000000000000000815260206004820152601d60248201527f416464726573733a2063616c6c20746f206e6f6e2d636f6e74726163740000006044820152606401610507565b508161164b565b61164b83838151156118495781518083602001fd5b806040517f08c379a00000000000000000000000000000000000000000000000000000000081526004016105079190611f68565b803573ffffffffffffffffffffffffffffffffffffffff811681146118a157600080fd5b919050565b6000806000806000608086880312156118be57600080fd5b853594506118ce6020870161187d565b935060408601359250606086013567ffffffffffffffff808211156118f257600080fd5b818801915088601f83011261190657600080fd5b81358181111561191557600080fd5b8960208260051b850101111561192a57600080fd5b9699959850939650602001949392505050565b7f4e487b7100000000000000000000000000000000000000000000000000000000600052604160045260246000fd5b600080600080600080600060e0888a03121561198757600080fd5b6119908861187d565b9650602088013595506119a56040890161187d565b9450606088013593506080880135925060a0880135915060c088013567ffffffffffffffff808211156119d757600080fd5b818a0191508a601f8301126119eb57600080fd5b8135818111156119fd576119fd61193d565b604051601f82017fffffffffffffffffffffffffffffffffffffffffffffffffffffffffffffffe0908116603f01168101908382118183101715611a4357611a4361193d565b816040528281528d6020848701011115611a5c57600080fd5b82602086016020830137600060208483010152809550505050505092959891949750929550565b60005b83811015611a9e578181015183820152602001611a86565b50506000910152565b60008151808452611abf816020860160208601611a83565b601f017fffffffffffffffffffffffffffffffffffffffffffffffffffffffffffffffe0169290920160200192915050565b600073ffffffffffffffffffffffffffffffffffffffff808916835287602084015286604084015285606084015260c06080840152611b3360c0840186611aa7565b915080841660a084015250979650505050505050565b600060208284031215611b5b57600080fd5b5035919050565b60008083601f840112611b7457600080fd5b50813567ffffffffffffffff811115611b8c57600080fd5b602083019150836020828501011115611ba457600080fd5b9250929050565b600080600080600060808688031215611bc357600080fd5b853594506020860135935060408601359250606086013567ffffffffffffffff811115611bef57600080fd5b611bfb88828901611b62565b969995985093965092949392505050565b600080600080600080600060c0888a031215611c2757600080fd5b611c308861187d565b9650602088013595506040880135945060608801359350608088013567ffffffffffffffff811115611c6157600080fd5b611c6d8a828b01611b62565b9094509250611c80905060a0890161187d565b905092959891949750929550565b600060208284031215611ca057600080fd5b5051919050565b7f4e487b7100000000000000000000000000000000000000000000000000000000600052601160045260246000fd5b8082018082111561163657611636611ca7565b808202811582820484141761163657611636611ca7565b848152836020820152826040820152608060608201526000611d256080830184611aa7565b9695505050505050565b600073ffffffffffffffffffffffffffffffffffffffff808816835280871660208401525084604083015260a06060830152611d6e60a0830185611aa7565b8281036080840152611d808185611aa7565b98975050505050505050565b7f4e487b7100000000000000000000000000000000000000000000000000000000600052601260045260246000fd5b600082611dca57611dca611d8c565b500490565b600082611dde57611dde611d8c565b500690565b6000610100611e13838951805173ffffffffffffffffffffffffffffffffffffffff168252602090810151910152565b6020880151604084015260408801516060840152611e546080840188805173ffffffffffffffffffffffffffffffffffffffff168252602090810151910152565b73ffffffffffffffffffffffffffffffffffffffff861660c08401528060e08401528381840152506101208385828501376000838501820152601f9093017fffffffffffffffffffffffffffffffffffffffffffffffffffffffffffffffe01690910190910195945050505050565b600060208284031215611ed557600080fd5b8151801515811461167e57600080fd5b7f4e487b7100000000000000000000000000000000000000000000000000000000600052603260045260246000fd5b60007fffffffffffffffffffffffffffffffffffffffffffffffffffffffffffffffff8203611f4557611f45611ca7565b5060010190565b60008251611f5e818460208701611a83565b9190910192915050565b60208152600061167e6020830184611aa756fea26469706673582212207711627d2c25493088d7631cbe88ac69740a6e07311f2e3df53a8882341b9f3764736f6c63430008120033",
  "linkReferences": {},
  "deployedLinkReferences": {}
}