{
  "_format": "hh-sol-artifact-1",
  "contractName": "MerkleAirdropStandard",
  "sourceName": "contracts/templates/MerkleAirdropStandard.sol",
  "abi": [
    {
      "inputs": [
        {
          "internalType": "address",
          "name": "factory_",
          "type": "address"
        },
        {
          "internalType": "address",
          "name": "feePool_",
          "type": "address"
        },
        {
          "internalType": "contract IPermit2",
          "name": "permit_",
          "type": "address"
        }
      ],
      "stateMutability": "nonpayable",
      "type": "constructor"
    },
    {
      "inputs": [],
      "name": "AlreadyClaimed",
      "type": "error"
    },
    {
      "inputs": [],
      "name": "AmountNotEnough",
      "type": "error"
    },
    {
      "inputs": [],
      "name": "IncorrectAmount",
      "type": "error"
    },
    {
      "inputs": [],
      "name": "InvalidProof",
      "type": "error"
    },
    {
      "inputs": [],
      "name": "NotZeroRequired",
      "type": "error"
    },
    {
      "anonymous": false,
      "inputs": [
        {
          "indexed": true,
          "internalType": "uint256",
          "name": "index",
          "type": "uint256"
        },
        {
          "indexed": true,
          "internalType": "address",
          "name": "account",
          "type": "address"
        },
        {
          "indexed": false,
          "internalType": "uint256",
          "name": "amount",
          "type": "uint256"
        }
      ],
      "name": "Claimed",
      "type": "event"
    },
    {
      "anonymous": false,
      "inputs": [
        {
          "indexed": false,
          "internalType": "address",
          "name": "deployedAddress",
          "type": "address"
        },
        {
          "indexed": false,
          "internalType": "address",
          "name": "owner",
          "type": "address"
        },
        {
          "indexed": false,
          "internalType": "bytes32",
          "name": "merkleRoot",
          "type": "bytes32"
        },
        {
          "indexed": false,
          "internalType": "bytes",
          "name": "airdropTokens",
          "type": "bytes"
        },
        {
          "indexed": false,
          "internalType": "bytes",
          "name": "args",
          "type": "bytes"
        }
      ],
      "name": "Deployed",
      "type": "event"
    },
    {
      "inputs": [],
      "name": "Permit2",
      "outputs": [
        {
          "internalType": "contract IPermit2",
          "name": "",
          "type": "address"
        }
      ],
      "stateMutability": "view",
      "type": "function"
    },
    {
      "inputs": [
        {
          "internalType": "uint256",
          "name": "index_",
          "type": "uint256"
        },
        {
          "internalType": "address",
          "name": "account_",
          "type": "address"
        },
        {
          "internalType": "uint256",
          "name": "amount_",
          "type": "uint256"
        },
        {
          "internalType": "bytes32[]",
          "name": "merkleProof",
          "type": "bytes32[]"
        }
      ],
      "name": "claim",
      "outputs": [],
      "stateMutability": "payable",
      "type": "function"
    },
    {
      "inputs": [],
      "name": "claimFee",
      "outputs": [
        {
          "internalType": "uint256",
          "name": "",
          "type": "uint256"
        }
      ],
      "stateMutability": "view",
      "type": "function"
    },
    {
      "inputs": [
        {
          "internalType": "uint256",
          "name": "depositAmount_",
          "type": "uint256"
        },
        {
          "internalType": "uint256",
          "name": "nonce_",
          "type": "uint256"
        },
        {
          "internalType": "uint256",
          "name": "deadline_",
          "type": "uint256"
        },
        {
          "internalType": "bytes",
          "name": "signature_",
          "type": "bytes"
        }
      ],
      "name": "depositAirdropToken",
      "outputs": [],
      "stateMutability": "nonpayable",
      "type": "function"
    },
    {
      "inputs": [],
      "name": "depositedAmount",
      "outputs": [
        {
          "internalType": "uint256",
          "name": "",
          "type": "uint256"
        }
      ],
      "stateMutability": "view",
      "type": "function"
    },
    {
      "inputs": [],
      "name": "factory",
      "outputs": [
        {
          "internalType": "address",
          "name": "",
          "type": "address"
        }
      ],
      "stateMutability": "view",
      "type": "function"
    },
    {
      "inputs": [],
      "name": "feePool",
      "outputs": [
        {
          "internalType": "address",
          "name": "",
          "type": "address"
        }
      ],
      "stateMutability": "view",
      "type": "function"
    },
    {
      "inputs": [],
      "name": "getAirdropInfo",
      "outputs": [
        {
          "components": [
            {
              "internalType": "address",
              "name": "token",
              "type": "address"
            },
            {
              "internalType": "address",
              "name": "owner",
              "type": "address"
            },
            {
              "internalType": "bytes32",
              "name": "merkleRoot",
              "type": "bytes32"
            },
            {
              "internalType": "uint256",
              "name": "depositedAmount",
              "type": "uint256"
            },
            {
              "internalType": "uint256",
              "name": "stockAmount",
              "type": "uint256"
            }
          ],
          "internalType": "struct MerkleAirdropStandard.AirdopInfo",
          "name": "",
          "type": "tuple"
        }
      ],
      "stateMutability": "view",
      "type": "function"
    },
    {
      "inputs": [
        {
          "internalType": "address",
          "name": "owner_",
          "type": "address"
        },
        {
          "internalType": "bytes32",
          "name": "merkleRoot_",
          "type": "bytes32"
        },
        {
          "internalType": "address",
          "name": "token_",
          "type": "address"
        },
        {
          "internalType": "uint256",
          "name": "depositAmount_",
          "type": "uint256"
        },
        {
          "internalType": "uint256",
          "name": "nonce_",
          "type": "uint256"
        },
        {
          "internalType": "uint256",
          "name": "deadline_",
          "type": "uint256"
        },
        {
          "internalType": "bytes",
          "name": "signature_",
          "type": "bytes"
        }
      ],
      "name": "initialize",
      "outputs": [
        {
          "internalType": "address",
          "name": "",
          "type": "address"
        },
        {
          "internalType": "uint256",
          "name": "",
          "type": "uint256"
        },
        {
          "internalType": "uint256",
          "name": "",
          "type": "uint256"
        },
        {
          "internalType": "uint256",
          "name": "",
          "type": "uint256"
        },
        {
          "internalType": "bytes",
          "name": "",
          "type": "bytes"
        },
        {
          "internalType": "address",
          "name": "",
          "type": "address"
        }
      ],
      "stateMutability": "payable",
      "type": "function"
    },
    {
      "inputs": [
        {
          "internalType": "address",
          "name": "token_",
          "type": "address"
        },
        {
          "internalType": "uint256",
          "name": "amount_",
          "type": "uint256"
        },
        {
          "internalType": "uint256",
          "name": "nonce_",
          "type": "uint256"
        },
        {
          "internalType": "uint256",
          "name": "deadline_",
          "type": "uint256"
        },
        {
          "internalType": "bytes",
          "name": "signature_",
          "type": "bytes"
        },
        {
          "internalType": "address",
          "name": "to_",
          "type": "address"
        }
      ],
      "name": "initializeTransfer",
      "outputs": [],
      "stateMutability": "payable",
      "type": "function"
    },
    {
      "inputs": [
        {
          "internalType": "uint256",
          "name": "index_",
          "type": "uint256"
        }
      ],
      "name": "isClaimed",
      "outputs": [
        {
          "internalType": "bool",
          "name": "",
          "type": "bool"
        }
      ],
      "stateMutability": "view",
      "type": "function"
    },
    {
      "inputs": [],
      "name": "merkleRoot",
      "outputs": [
        {
          "internalType": "bytes32",
          "name": "",
          "type": "bytes32"
        }
      ],
      "stateMutability": "view",
      "type": "function"
    },
    {
      "inputs": [],
      "name": "owner",
      "outputs": [
        {
          "internalType": "address",
          "name": "",
          "type": "address"
        }
      ],
      "stateMutability": "view",
      "type": "function"
    },
    {
      "inputs": [],
      "name": "registrationFee",
      "outputs": [
        {
          "internalType": "uint256",
          "name": "",
          "type": "uint256"
        }
      ],
      "stateMutability": "view",
      "type": "function"
    },
    {
      "inputs": [],
      "name": "token",
      "outputs": [
        {
          "internalType": "address",
          "name": "",
          "type": "address"
        }
      ],
      "stateMutability": "view",
      "type": "function"
    },
    {
      "inputs": [],
      "name": "totalClaimed",
      "outputs": [
        {
          "internalType": "uint256",
          "name": "",
          "type": "uint256"
        }
      ],
      "stateMutability": "view",
      "type": "function"
    },
    {
      "inputs": [],
      "name": "withdrawCollectedEther",
      "outputs": [],
      "stateMutability": "nonpayable",
      "type": "function"
    },
    {
      "inputs": [],
      "name": "withdrawDepositedToken",
      "outputs": [],
      "stateMutability": "nonpayable",
      "type": "function"
    }
  ],
  "bytecode": "0x60e06040523480156200001157600080fd5b50604051620022353803806200223583398101604081905262000034916200006b565b6001600160a01b0392831660c05290821660a05216608052620000bf565b6001600160a01b03811681146200006857600080fd5b50565b6000806000606084860312156200008157600080fd5b83516200008e8162000052565b6020850151909350620000a18162000052565b6040850151909250620000b48162000052565b809150509250925092565b60805160a05160c05161211c620001196000396000818161038201528181610bc101526113e301526000818161034e0152818161095c0152610e920152600081816102340152818161121901526114e9015261211c6000f3fe6080604052600436106101295760003560e01c806399d32fc4116100a5578063c45a015511610074578063ea72a36d11610059578063ea72a36d146103ba578063ed741880146103cf578063fc0c546a146103e257600080fd5b8063c45a015514610370578063d54ad2a1146103a457600080fd5b806399d32fc4146102d25780639e34070f146102ec5780639f7dd0501461031c578063ae2e933b1461033c57600080fd5b80632eb4a7ab116100fc57806339514480116100e157806339514480146102225780638adaf73f1461027b5780638da5cb5b146102a057600080fd5b80632eb4a7ab1461019b57806332f08873146101b157600080fd5b806314c44e091461012e5780631d01364c1461015c5780631d9e8e12146101715780632e7ba6ef14610188575b600080fd5b34801561013a57600080fd5b50610149662386f26fc1000081565b6040519081526020015b60405180910390f35b34801561016857600080fd5b5061014961040f565b34801561017d57600080fd5b506101866104b5565b005b610186610196366004611a11565b610602565b3480156101a757600080fd5b5061014960015481565b3480156101bd57600080fd5b506101c6610a8a565b6040516101539190600060a08201905073ffffffffffffffffffffffffffffffffffffffff8084511683528060208501511660208401525060408301516040830152606083015160608301526080830151608083015292915050565b34801561022e57600080fd5b506102567f000000000000000000000000000000000000000000000000000000000000000081565b60405173ffffffffffffffffffffffffffffffffffffffff9091168152602001610153565b61028e610289366004611ad7565b610ba1565b60405161015396959493929190611c5c565b3480156102ac57600080fd5b5060005461025690610100900473ffffffffffffffffffffffffffffffffffffffff1681565b3480156102de57600080fd5b50610149655af3107a400081565b3480156102f857600080fd5b5061030c610307366004611cb4565b6110d8565b6040519015158152602001610153565b34801561032857600080fd5b50610186610337366004611d16565b611119565b34801561034857600080fd5b506102567f000000000000000000000000000000000000000000000000000000000000000081565b34801561037c57600080fd5b506102567f000000000000000000000000000000000000000000000000000000000000000081565b3480156103b057600080fd5b5061014960035481565b3480156103c657600080fd5b50610186611290565b6101866103dd366004611d77565b6113cb565b3480156103ee57600080fd5b506002546102569073ffffffffffffffffffffffffffffffffffffffff1681565b6003546002546040517f70a082310000000000000000000000000000000000000000000000000000000081523060048201526000929173ffffffffffffffffffffffffffffffffffffffff16906370a0823190602401602060405180830381865afa158015610482573d6000803e3d6000fd5b505050506040513d601f19601f820116820180604052508101906104a69190611df9565b6104b09190611e41565b905090565b600054610100900473ffffffffffffffffffffffffffffffffffffffff163314610540576040517f08c379a000000000000000000000000000000000000000000000000000000000815260206004820152601660248201527f596f7520617265206e6f7420746865206f776e65722e0000000000000000000060448201526064015b60405180910390fd5b6000546002546040517f70a0823100000000000000000000000000000000000000000000000000000000815230600482015261060092610100900473ffffffffffffffffffffffffffffffffffffffff9081169216906370a0823190602401602060405180830381865afa1580156105bc573d6000803e3d6000fd5b505050506040513d601f19601f820116820180604052508101906105e09190611df9565b60025473ffffffffffffffffffffffffffffffffffffffff169190611563565b565b61060b856110d8565b15610642576040517f646cf55800000000000000000000000000000000000000000000000000000000815260040160405180910390fd5b6002546040517f70a08231000000000000000000000000000000000000000000000000000000008152306004820152849173ffffffffffffffffffffffffffffffffffffffff16906370a0823190602401602060405180830381865afa1580156106b0573d6000803e3d6000fd5b505050506040513d601f19601f820116820180604052508101906106d49190611df9565b101561070c576040517fcb6e851c00000000000000000000000000000000000000000000000000000000815260040160405180910390fd5b61071d655af3107a40006002611e54565b3414610755576040517f69640e7200000000000000000000000000000000000000000000000000000000815260040160405180910390fd5b60408051602081018790527fffffffffffffffffffffffffffffffffffffffff000000000000000000000000606087901b1691810191909152605481018490526000906074016040516020818303038152906040528051906020012090506107f48383808060200260200160405190810160405280939291908181526020018383602002808284376000920191909152505060015491508490506115f5565b61082a576040517f09bde33900000000000000000000000000000000000000000000000000000000815260040160405180910390fd5b6108338661160b565b83600360008282546108459190611e41565b909155505060025461086e9073ffffffffffffffffffffffffffffffffffffffff168686611563565b6000805460405161010090910473ffffffffffffffffffffffffffffffffffffffff1690655af3107a4000908381818185875af1925050503d80600081146108d2576040519150601f19603f3d011682016040523d82523d6000602084013e6108d7565b606091505b5050905080610942576040517f08c379a000000000000000000000000000000000000000000000000000000000815260206004820152600f60248201527f7472616e73666572206661696c656400000000000000000000000000000000006044820152606401610537565b60405173ffffffffffffffffffffffffffffffffffffffff7f00000000000000000000000000000000000000000000000000000000000000001690655af3107a400090600081818185875af1925050503d80600081146109be576040519150601f19603f3d011682016040523d82523d6000602084013e6109c3565b606091505b50508091505080610a30576040517f08c379a000000000000000000000000000000000000000000000000000000000815260206004820152600f60248201527f7472616e73666572206661696c656400000000000000000000000000000000006044820152606401610537565b8573ffffffffffffffffffffffffffffffffffffffff16877f4ec90e965519d92681267467f775ada5bd214aa92c0dc93d90a5e880ce9ed02687604051610a7991815260200190565b60405180910390a350505050505050565b6040805160a0810182526000808252602082018190529181018290526060810182905260808101919091526040805160a08101825260025473ffffffffffffffffffffffffffffffffffffffff908116825260005461010090041660208201526001549181019190915260608101610b0061040f565b81526002546040517f70a0823100000000000000000000000000000000000000000000000000000000815230600482015260209092019173ffffffffffffffffffffffffffffffffffffffff909116906370a0823190602401602060405180830381865afa158015610b76573d6000803e3d6000fd5b505050506040513d601f19601f82011682018060405250810190610b9a9190611df9565b9052919050565b60008080806060813373ffffffffffffffffffffffffffffffffffffffff7f00000000000000000000000000000000000000000000000000000000000000001614610c48576040517f08c379a000000000000000000000000000000000000000000000000000000000815260206004820152601860248201527f596f7520617265206e6f742074686520666163746f72792e00000000000000006044820152606401610537565b60005460ff1615610cdb576040517f08c379a000000000000000000000000000000000000000000000000000000000815260206004820152602a60248201527f5468697320636f6e74726163742068617320616c7265616479206265656e206960448201527f6e697469616c697a6564000000000000000000000000000000000000000000006064820152608401610537565b600080547fffffffffffffffffffffffffffffffffffffffffffffffffffffffffffffff0016600117905573ffffffffffffffffffffffffffffffffffffffff8d16610d53576040517f87a873e800000000000000000000000000000000000000000000000000000000815260040160405180910390fd5b73ffffffffffffffffffffffffffffffffffffffff8b16610da0576040517f87a873e800000000000000000000000000000000000000000000000000000000815260040160405180910390fd5b662386f26fc100003414610de0576040517f69640e7200000000000000000000000000000000000000000000000000000000815260040160405180910390fd5b600060405180608001604052808c81526020018b81526020018a81526020018981525090508d600060016101000a81548173ffffffffffffffffffffffffffffffffffffffff021916908373ffffffffffffffffffffffffffffffffffffffff1602179055508b600260006101000a81548173ffffffffffffffffffffffffffffffffffffffff021916908373ffffffffffffffffffffffffffffffffffffffff1602179055508c60018190555060007f000000000000000000000000000000000000000000000000000000000000000073ffffffffffffffffffffffffffffffffffffffff163460405160006040518083038185875af1925050503d8060008114610f08576040519150601f19603f3d011682016040523d82523d6000602084013e610f0d565b606091505b5050905080610f78576040517f08c379a000000000000000000000000000000000000000000000000000000000815260206004820152600f60248201527f7472616e73666572206661696c656400000000000000000000000000000000006044820152606401610537565b6000546001546002546040517fffffffffffffffffffffffffffffffffffffffff00000000000000000000000060609290921b9190911660208201527f69687cbee57d8aff8295dedc40ac17fd4fe0130939898f42e899776217172f2a92309261010090910473ffffffffffffffffffffffffffffffffffffffff1691603401604080517fffffffffffffffffffffffffffffffffffffffffffffffffffffffffffffffe0818403018152828252885160208a810151938b015160608c01519395611047959394919201611e6b565b604080517fffffffffffffffffffffffffffffffffffffffffffffffffffffffffffffffe0818403018152908290526110839594939291611e9a565b60405180910390a15060025481516020830151604084015160609094015173ffffffffffffffffffffffffffffffffffffffff9093169950909750955090935091503090509750975097509750975097915050565b6000806110e761010084611f26565b905060006110f761010085611f3a565b60009283526004602052604090922054600190921b9182169091149392505050565b600054610100900473ffffffffffffffffffffffffffffffffffffffff16331461119f576040517f08c379a000000000000000000000000000000000000000000000000000000000815260206004820152601660248201527f596f7520617265206e6f7420746865206f776e65722e000000000000000000006044820152606401610537565b6040805160a08101825260025473ffffffffffffffffffffffffffffffffffffffff9081166060830190815260808301899052825260208083018890528284018790528351808501855230815290810189905292517f30f28b7a0000000000000000000000000000000000000000000000000000000081527f0000000000000000000000000000000000000000000000000000000000000000909116926330f28b7a9261125792909190339088908890600401611f4e565b600060405180830381600087803b15801561127157600080fd5b505af1158015611285573d6000803e3d6000fd5b505050505050505050565b600054610100900473ffffffffffffffffffffffffffffffffffffffff163314611316576040517f08c379a000000000000000000000000000000000000000000000000000000000815260206004820152601660248201527f596f7520617265206e6f7420746865206f776e65722e000000000000000000006044820152606401610537565b604051600090339047908381818185875af1925050503d8060008114611358576040519150601f19603f3d011682016040523d82523d6000602084013e61135d565b606091505b50509050806113c8576040517f08c379a000000000000000000000000000000000000000000000000000000000815260206004820152600f60248201527f5769746864726177206661696c656400000000000000000000000000000000006044820152606401610537565b50565b3073ffffffffffffffffffffffffffffffffffffffff7f0000000000000000000000000000000000000000000000000000000000000000161461146a576040517f08c379a000000000000000000000000000000000000000000000000000000000815260206004820152601860248201527f596f7520617265206e6f742074686520666163746f72792e00000000000000006044820152606401610537565b851561155a576040805160a08101825273ffffffffffffffffffffffffffffffffffffffff89811660608301908152608083018a9052825260208083018990528284018890528351808501855285831681529081018a905292517f30f28b7a0000000000000000000000000000000000000000000000000000000081527f0000000000000000000000000000000000000000000000000000000000000000909116926330f28b7a9261152792909190339089908990600401611f4e565b600060405180830381600087803b15801561154157600080fd5b505af1158015611555573d6000803e3d6000fd5b505050505b50505050505050565b6040805173ffffffffffffffffffffffffffffffffffffffff8416602482015260448082018490528251808303909101815260649091019091526020810180517bffffffffffffffffffffffffffffffffffffffffffffffffffffffff167fa9059cbb000000000000000000000000000000000000000000000000000000001790526115f0908490611649565b505050565b6000826116028584611758565b14949350505050565b600061161961010083611f26565b9050600061162961010084611f3a565b6000928352600460205260409092208054600190931b9092179091555050565b60006116ab826040518060400160405280602081526020017f5361666545524332303a206c6f772d6c6576656c2063616c6c206661696c65648152508573ffffffffffffffffffffffffffffffffffffffff166117a79092919063ffffffff16565b90508051600014806116cc5750808060200190518101906116cc919061202e565b6115f0576040517f08c379a000000000000000000000000000000000000000000000000000000000815260206004820152602a60248201527f5361666545524332303a204552433230206f7065726174696f6e20646964206e60448201527f6f742073756363656564000000000000000000000000000000000000000000006064820152608401610537565b600081815b845181101561179d576117898286838151811061177c5761177c612050565b60200260200101516117be565b9150806117958161207f565b91505061175d565b5090505b92915050565b60606117b684846000856117f0565b949350505050565b60008183106117da5760008281526020849052604090206117e9565b60008381526020839052604090205b9392505050565b606082471015611882576040517f08c379a000000000000000000000000000000000000000000000000000000000815260206004820152602660248201527f416464726573733a20696e73756666696369656e742062616c616e636520666f60448201527f722063616c6c00000000000000000000000000000000000000000000000000006064820152608401610537565b6000808673ffffffffffffffffffffffffffffffffffffffff1685876040516118ab91906120b7565b60006040518083038185875af1925050503d80600081146118e8576040519150601f19603f3d011682016040523d82523d6000602084013e6118ed565b606091505b50915091506118fe87838387611909565b979650505050505050565b6060831561199f5782516000036119985773ffffffffffffffffffffffffffffffffffffffff85163b611998576040517f08c379a000000000000000000000000000000000000000000000000000000000815260206004820152601d60248201527f416464726573733a2063616c6c20746f206e6f6e2d636f6e74726163740000006044820152606401610537565b50816117b6565b6117b683838151156119b45781518083602001fd5b806040517f08c379a000000000000000000000000000000000000000000000000000000000815260040161053791906120d3565b803573ffffffffffffffffffffffffffffffffffffffff81168114611a0c57600080fd5b919050565b600080600080600060808688031215611a2957600080fd5b85359450611a39602087016119e8565b935060408601359250606086013567ffffffffffffffff80821115611a5d57600080fd5b818801915088601f830112611a7157600080fd5b813581811115611a8057600080fd5b8960208260051b8501011115611a9557600080fd5b9699959850939650602001949392505050565b7f4e487b7100000000000000000000000000000000000000000000000000000000600052604160045260246000fd5b600080600080600080600060e0888a031215611af257600080fd5b611afb886119e8565b965060208801359550611b10604089016119e8565b9450606088013593506080880135925060a0880135915060c088013567ffffffffffffffff80821115611b4257600080fd5b818a0191508a601f830112611b5657600080fd5b813581811115611b6857611b68611aa8565b604051601f82017fffffffffffffffffffffffffffffffffffffffffffffffffffffffffffffffe0908116603f01168101908382118183101715611bae57611bae611aa8565b816040528281528d6020848701011115611bc757600080fd5b82602086016020830137600060208483010152809550505050505092959891949750929550565b60005b83811015611c09578181015183820152602001611bf1565b50506000910152565b60008151808452611c2a816020860160208601611bee565b601f017fffffffffffffffffffffffffffffffffffffffffffffffffffffffffffffffe0169290920160200192915050565b600073ffffffffffffffffffffffffffffffffffffffff808916835287602084015286604084015285606084015260c06080840152611c9e60c0840186611c12565b915080841660a084015250979650505050505050565b600060208284031215611cc657600080fd5b5035919050565b60008083601f840112611cdf57600080fd5b50813567ffffffffffffffff811115611cf757600080fd5b602083019150836020828501011115611d0f57600080fd5b9250929050565b600080600080600060808688031215611d2e57600080fd5b853594506020860135935060408601359250606086013567ffffffffffffffff811115611d5a57600080fd5b611d6688828901611ccd565b969995985093965092949392505050565b600080600080600080600060c0888a031215611d9257600080fd5b611d9b886119e8565b9650602088013595506040880135945060608801359350608088013567ffffffffffffffff811115611dcc57600080fd5b611dd88a828b01611ccd565b9094509250611deb905060a089016119e8565b905092959891949750929550565b600060208284031215611e0b57600080fd5b5051919050565b7f4e487b7100000000000000000000000000000000000000000000000000000000600052601160045260246000fd5b808201808211156117a1576117a1611e12565b80820281158282048414176117a1576117a1611e12565b848152836020820152826040820152608060608201526000611e906080830184611c12565b9695505050505050565b600073ffffffffffffffffffffffffffffffffffffffff808816835280871660208401525084604083015260a06060830152611ed960a0830185611c12565b8281036080840152611eeb8185611c12565b98975050505050505050565b7f4e487b7100000000000000000000000000000000000000000000000000000000600052601260045260246000fd5b600082611f3557611f35611ef7565b500490565b600082611f4957611f49611ef7565b500690565b6000610100611f7e838951805173ffffffffffffffffffffffffffffffffffffffff168252602090810151910152565b6020880151604084015260408801516060840152611fbf6080840188805173ffffffffffffffffffffffffffffffffffffffff168252602090810151910152565b73ffffffffffffffffffffffffffffffffffffffff861660c08401528060e08401528381840152506101208385828501376000838501820152601f9093017fffffffffffffffffffffffffffffffffffffffffffffffffffffffffffffffe01690910190910195945050505050565b60006020828403121561204057600080fd5b815180151581146117e957600080fd5b7f4e487b7100000000000000000000000000000000000000000000000000000000600052603260045260246000fd5b60007fffffffffffffffffffffffffffffffffffffffffffffffffffffffffffffffff82036120b0576120b0611e12565b5060010190565b600082516120c9818460208701611bee565b9190910192915050565b6020815260006117e96020830184611c1256fea26469706673582212201c2dad3d81e219f01d65b64d38ab804d7fedec975bf71246d2be65c75e7db69b64736f6c63430008120033",
  "linkReferences": {},
  "deployedLinkReferences": {}
}