{
  "_format": "hh-sol-artifact-1",
  "contractName": "MerkleAirdropStandard",
  "sourceName": "contracts/templates/MerkleAirdropStandard.sol",
  "abi": [
    {
      "inputs": [
        {
          "internalType": "address",
          "name": "factory_",
          "type": "address"
        },
        {
          "internalType": "address",
          "name": "feePool_",
          "type": "address"
        }
      ],
      "stateMutability": "nonpayable",
      "type": "constructor"
    },
    {
      "inputs": [],
      "name": "AlreadyClaimed",
      "type": "error"
    },
    {
      "inputs": [],
      "name": "AmountNotEnough",
      "type": "error"
    },
    {
      "inputs": [],
      "name": "IncorrectAmount",
      "type": "error"
    },
    {
      "inputs": [],
      "name": "InvalidProof",
      "type": "error"
    },
    {
      "inputs": [],
      "name": "NotZeroRequired",
      "type": "error"
    },
    {
      "anonymous": false,
      "inputs": [
        {
          "indexed": true,
          "internalType": "uint256",
          "name": "index",
          "type": "uint256"
        },
        {
          "indexed": true,
          "internalType": "address",
          "name": "account",
          "type": "address"
        },
        {
          "indexed": false,
          "internalType": "uint256",
          "name": "amount",
          "type": "uint256"
        }
      ],
      "name": "Claimed",
      "type": "event"
    },
    {
      "anonymous": false,
      "inputs": [
        {
          "indexed": false,
          "internalType": "address",
          "name": "deployedAddress",
          "type": "address"
        },
        {
          "indexed": false,
          "internalType": "address",
          "name": "owner",
          "type": "address"
        },
        {
          "indexed": false,
          "internalType": "bytes32",
          "name": "merkleRoot",
          "type": "bytes32"
        },
        {
          "indexed": false,
          "internalType": "bytes",
          "name": "airdropTokens",
          "type": "bytes"
        },
        {
          "indexed": false,
          "internalType": "bytes",
          "name": "args",
          "type": "bytes"
        }
      ],
      "name": "Deployed",
      "type": "event"
    },
    {
      "inputs": [
        {
          "internalType": "uint256",
          "name": "index_",
          "type": "uint256"
        },
        {
          "internalType": "address",
          "name": "account_",
          "type": "address"
        },
        {
          "internalType": "uint256",
          "name": "amount_",
          "type": "uint256"
        },
        {
          "internalType": "bytes32[]",
          "name": "merkleProof_",
          "type": "bytes32[]"
        }
      ],
      "name": "claim",
      "outputs": [],
      "stateMutability": "payable",
      "type": "function"
    },
    {
      "inputs": [],
      "name": "claimFee",
      "outputs": [
        {
          "internalType": "uint256",
          "name": "",
          "type": "uint256"
        }
      ],
      "stateMutability": "view",
      "type": "function"
    },
    {
      "inputs": [],
      "name": "factory",
      "outputs": [
        {
          "internalType": "address",
          "name": "",
          "type": "address"
        }
      ],
      "stateMutability": "view",
      "type": "function"
    },
    {
      "inputs": [],
      "name": "feePool",
      "outputs": [
        {
          "internalType": "address",
          "name": "",
          "type": "address"
        }
      ],
      "stateMutability": "view",
      "type": "function"
    },
    {
      "inputs": [],
      "name": "getAirdropInfo",
      "outputs": [
        {
          "components": [
            {
              "internalType": "address",
              "name": "token",
              "type": "address"
            },
            {
              "internalType": "address",
              "name": "owner",
              "type": "address"
            },
            {
              "internalType": "bytes32",
              "name": "merkleRoot",
              "type": "bytes32"
            },
            {
              "internalType": "uint256",
              "name": "stockAmount",
              "type": "uint256"
            }
          ],
          "internalType": "struct MerkleAirdropStandard.AirdopInfo",
          "name": "",
          "type": "tuple"
        }
      ],
      "stateMutability": "view",
      "type": "function"
    },
    {
      "inputs": [
        {
          "internalType": "address",
          "name": "owner_",
          "type": "address"
        },
        {
          "internalType": "bytes32",
          "name": "merkleRoot_",
          "type": "bytes32"
        },
        {
          "internalType": "address",
          "name": "token_",
          "type": "address"
        },
        {
          "internalType": "uint256",
          "name": "depositAmount_",
          "type": "uint256"
        }
      ],
      "name": "initialize",
      "outputs": [
        {
          "internalType": "address",
          "name": "",
          "type": "address"
        },
        {
          "internalType": "uint256",
          "name": "",
          "type": "uint256"
        },
        {
          "internalType": "address",
          "name": "",
          "type": "address"
        }
      ],
      "stateMutability": "payable",
      "type": "function"
    },
    {
      "inputs": [
        {
          "internalType": "address",
          "name": "token_",
          "type": "address"
        },
        {
          "internalType": "uint256",
          "name": "amount_",
          "type": "uint256"
        },
        {
          "internalType": "address",
          "name": "to_",
          "type": "address"
        }
      ],
      "name": "initializeTransfer",
      "outputs": [],
      "stateMutability": "payable",
      "type": "function"
    },
    {
      "inputs": [
        {
          "internalType": "uint256",
          "name": "index_",
          "type": "uint256"
        }
      ],
      "name": "isClaimed",
      "outputs": [
        {
          "internalType": "bool",
          "name": "",
          "type": "bool"
        }
      ],
      "stateMutability": "view",
      "type": "function"
    },
    {
      "inputs": [],
      "name": "merkleRoot",
      "outputs": [
        {
          "internalType": "bytes32",
          "name": "",
          "type": "bytes32"
        }
      ],
      "stateMutability": "view",
      "type": "function"
    },
    {
      "inputs": [],
      "name": "owner",
      "outputs": [
        {
          "internalType": "address",
          "name": "",
          "type": "address"
        }
      ],
      "stateMutability": "view",
      "type": "function"
    },
    {
      "inputs": [],
      "name": "registrationFee",
      "outputs": [
        {
          "internalType": "uint256",
          "name": "",
          "type": "uint256"
        }
      ],
      "stateMutability": "view",
      "type": "function"
    },
    {
      "inputs": [],
      "name": "token",
      "outputs": [
        {
          "internalType": "address",
          "name": "",
          "type": "address"
        }
      ],
      "stateMutability": "view",
      "type": "function"
    },
    {
      "inputs": [],
      "name": "withdrawDepositedToken",
      "outputs": [],
      "stateMutability": "nonpayable",
      "type": "function"
    }
  ],
  "bytecode": "0x60c06040523480156200001157600080fd5b50604051620019ff380380620019ff83398101604081905262000034916200006e565b60016000556001600160a01b0391821660a05216608052620000a6565b80516001600160a01b03811681146200006957600080fd5b919050565b600080604083850312156200008257600080fd5b6200008d8362000051565b91506200009d6020840162000051565b90509250929050565b60805160a051611917620000e8600039600081816102a6015281816104a40152610b1f015260008181610272015281816108a40152610dc201526119176000f3fe6080604052600436106100d25760003560e01c80638da5cb5b1161007f578063ae2e933b11610059578063ae2e933b14610260578063c45a015514610294578063e2b4b2f7146102c8578063fc0c546a1461031257600080fd5b80638da5cb5b146101bf57806399d32fc4146102165780639e34070f1461023057600080fd5b80632e7ba6ef116100b05780632e7ba6ef1461012f5780632eb4a7ab1461014257806332f088731461015857600080fd5b806314c44e09146100d75780631d9e8e121461010557806328fb0cfe1461011c575b600080fd5b3480156100e357600080fd5b506100f2662386f26fc1000081565b6040519081526020015b60405180910390f35b34801561011157600080fd5b5061011a61033f565b005b61011a61012a366004611578565b61048c565b61011a61013d3660046115b4565b610558565b34801561014e57600080fd5b506100f260025481565b34801561016457600080fd5b5061016d6109dc565b6040516100fc9190600060808201905073ffffffffffffffffffffffffffffffffffffffff80845116835280602085015116602084015250604083015160408301526060830151606083015292915050565b3480156101cb57600080fd5b506001546101f190610100900473ffffffffffffffffffffffffffffffffffffffff1681565b60405173ffffffffffffffffffffffffffffffffffffffff90911681526020016100fc565b34801561022257600080fd5b506100f2655af3107a400081565b34801561023c57600080fd5b5061025061024b36600461164b565b610ac2565b60405190151581526020016100fc565b34801561026c57600080fd5b506101f17f000000000000000000000000000000000000000000000000000000000000000081565b3480156102a057600080fd5b506101f17f000000000000000000000000000000000000000000000000000000000000000081565b6102db6102d6366004611664565b610b03565b6040805173ffffffffffffffffffffffffffffffffffffffff948516815260208101939093529216918101919091526060016100fc565b34801561031e57600080fd5b506003546101f19073ffffffffffffffffffffffffffffffffffffffff1681565b600154610100900473ffffffffffffffffffffffffffffffffffffffff1633146103ca576040517f08c379a000000000000000000000000000000000000000000000000000000000815260206004820152601660248201527f596f7520617265206e6f7420746865206f776e65722e0000000000000000000060448201526064015b60405180910390fd5b6001546003546040517f70a0823100000000000000000000000000000000000000000000000000000000815230600482015261048a92610100900473ffffffffffffffffffffffffffffffffffffffff9081169216906370a0823190602401602060405180830381865afa158015610446573d6000803e3d6000fd5b505050506040513d601f19601f8201168201806040525081019061046a91906116a8565b60035473ffffffffffffffffffffffffffffffffffffffff169190610fb1565b565b3073ffffffffffffffffffffffffffffffffffffffff7f0000000000000000000000000000000000000000000000000000000000000000161461052b576040517f08c379a000000000000000000000000000000000000000000000000000000000815260206004820152601860248201527f596f7520617265206e6f742074686520666163746f72792e000000000000000060448201526064016103c1565b81156105535761055373ffffffffffffffffffffffffffffffffffffffff8416338385611085565b505050565b6105606110e9565b61056985610ac2565b156105a0576040517f646cf55800000000000000000000000000000000000000000000000000000000815260040160405180910390fd5b6003546040517f70a08231000000000000000000000000000000000000000000000000000000008152306004820152849173ffffffffffffffffffffffffffffffffffffffff16906370a0823190602401602060405180830381865afa15801561060e573d6000803e3d6000fd5b505050506040513d601f19601f8201168201806040525081019061063291906116a8565b101561066a576040517fcb6e851c00000000000000000000000000000000000000000000000000000000815260040160405180910390fd5b61067b655af3107a400060026116f0565b34146106b3576040517f69640e7200000000000000000000000000000000000000000000000000000000815260040160405180910390fd5b60408051602081018790527fffffffffffffffffffffffffffffffffffffffff000000000000000000000000606087901b16918101919091526054810184905260009060740160405160208183030381529060405280519060200120905061075283838080602002602001604051908101604052809392919081815260200183836020028082843760009201919091525050600254915084905061115c565b610788576040517f09bde33900000000000000000000000000000000000000000000000000000000815260040160405180910390fd5b61079186611172565b6003546107b59073ffffffffffffffffffffffffffffffffffffffff168686610fb1565b600154604051600091610100900473ffffffffffffffffffffffffffffffffffffffff1690655af3107a4000908381818185875af1925050503d806000811461081a576040519150601f19603f3d011682016040523d82523d6000602084013e61081f565b606091505b505090508061088a576040517f08c379a000000000000000000000000000000000000000000000000000000000815260206004820152600f60248201527f7472616e73666572206661696c6564000000000000000000000000000000000060448201526064016103c1565b60405173ffffffffffffffffffffffffffffffffffffffff7f00000000000000000000000000000000000000000000000000000000000000001690655af3107a400090600081818185875af1925050503d8060008114610906576040519150601f19603f3d011682016040523d82523d6000602084013e61090b565b606091505b50508091505080610978576040517f08c379a000000000000000000000000000000000000000000000000000000000815260206004820152600f60248201527f7472616e73666572206661696c6564000000000000000000000000000000000060448201526064016103c1565b8573ffffffffffffffffffffffffffffffffffffffff16877f4ec90e965519d92681267467f775ada5bd214aa92c0dc93d90a5e880ce9ed026876040516109c191815260200190565b60405180910390a350506109d56001600055565b5050505050565b6040805160808101825260008082526020820181905291810182905260608101919091526040805160808101825260035473ffffffffffffffffffffffffffffffffffffffff908116808352600154610100900490911660208301526002548284015291517f70a08231000000000000000000000000000000000000000000000000000000008152306004820152909160608301916370a0823190602401602060405180830381865afa158015610a97573d6000803e3d6000fd5b505050506040513d601f19601f82011682018060405250810190610abb91906116a8565b9052919050565b600080610ad161010084611736565b90506000610ae16101008561174a565b60009283526004602052604090922054600190921b9182169091149392505050565b600080803373ffffffffffffffffffffffffffffffffffffffff7f00000000000000000000000000000000000000000000000000000000000000001614610ba6576040517f08c379a000000000000000000000000000000000000000000000000000000000815260206004820152601860248201527f596f7520617265206e6f742074686520666163746f72792e000000000000000060448201526064016103c1565b60015460ff1615610c39576040517f08c379a000000000000000000000000000000000000000000000000000000000815260206004820152602a60248201527f5468697320636f6e74726163742068617320616c7265616479206265656e206960448201527f6e697469616c697a65640000000000000000000000000000000000000000000060648201526084016103c1565b600180547fffffffffffffffffffffffffffffffffffffffffffffffffffffffffffffff00168117905573ffffffffffffffffffffffffffffffffffffffff8716610cb0576040517f87a873e800000000000000000000000000000000000000000000000000000000815260040160405180910390fd5b73ffffffffffffffffffffffffffffffffffffffff8516610cfd576040517f87a873e800000000000000000000000000000000000000000000000000000000815260040160405180910390fd5b662386f26fc100003414610d3d576040517f69640e7200000000000000000000000000000000000000000000000000000000815260040160405180910390fd5b600180547fffffffffffffffffffffff0000000000000000000000000000000000000000ff1661010073ffffffffffffffffffffffffffffffffffffffff8a81169190910291909117909155600380547fffffffffffffffffffffffff00000000000000000000000000000000000000001687831617905560028790556040516000917f0000000000000000000000000000000000000000000000000000000000000000169034908381818185875af1925050503d8060008114610e1d576040519150601f19603f3d011682016040523d82523d6000602084013e610e22565b606091505b5050905080610e8d576040517f08c379a000000000000000000000000000000000000000000000000000000000815260206004820152600f60248201527f7472616e73666572206661696c6564000000000000000000000000000000000060448201526064016103c1565b6001546002546003546040517fffffffffffffffffffffffffffffffffffffffff00000000000000000000000060609290921b9190911660208201527f69687cbee57d8aff8295dedc40ac17fd4fe0130939898f42e899776217172f2a92309261010090910473ffffffffffffffffffffffffffffffffffffffff1691603401604080517fffffffffffffffffffffffffffffffffffffffffffffffffffffffffffffffe0818403018152828252602083018c90529101604080517fffffffffffffffffffffffffffffffffffffffffffffffffffffffffffffffe081840301815290829052610f8095949392916117cc565b60405180910390a1505060035473ffffffffffffffffffffffffffffffffffffffff16969295503094509192505050565b60405173ffffffffffffffffffffffffffffffffffffffff83166024820152604481018290526105539084907fa9059cbb00000000000000000000000000000000000000000000000000000000906064015b604080517fffffffffffffffffffffffffffffffffffffffffffffffffffffffffffffffe08184030181529190526020810180517bffffffffffffffffffffffffffffffffffffffffffffffffffffffff167fffffffff00000000000000000000000000000000000000000000000000000000909316929092179091526111b0565b60405173ffffffffffffffffffffffffffffffffffffffff808516602483015283166044820152606481018290526110e39085907f23b872dd0000000000000000000000000000000000000000000000000000000090608401611003565b50505050565b600260005403611155576040517f08c379a000000000000000000000000000000000000000000000000000000000815260206004820152601f60248201527f5265656e7472616e637947756172643a207265656e7472616e742063616c6c0060448201526064016103c1565b6002600055565b60008261116985846112bf565b14949350505050565b600061118061010083611736565b905060006111906101008461174a565b6000928352600460205260409092208054600190931b9092179091555050565b6000611212826040518060400160405280602081526020017f5361666545524332303a206c6f772d6c6576656c2063616c6c206661696c65648152508573ffffffffffffffffffffffffffffffffffffffff1661130e9092919063ffffffff16565b90508051600014806112335750808060200190518101906112339190611829565b610553576040517f08c379a000000000000000000000000000000000000000000000000000000000815260206004820152602a60248201527f5361666545524332303a204552433230206f7065726174696f6e20646964206e60448201527f6f7420737563636565640000000000000000000000000000000000000000000060648201526084016103c1565b600081815b8451811015611304576112f0828683815181106112e3576112e361184b565b6020026020010151611325565b9150806112fc8161187a565b9150506112c4565b5090505b92915050565b606061131d8484600085611357565b949350505050565b6000818310611341576000828152602084905260409020611350565b60008381526020839052604090205b9392505050565b6060824710156113e9576040517f08c379a000000000000000000000000000000000000000000000000000000000815260206004820152602660248201527f416464726573733a20696e73756666696369656e742062616c616e636520666f60448201527f722063616c6c000000000000000000000000000000000000000000000000000060648201526084016103c1565b6000808673ffffffffffffffffffffffffffffffffffffffff16858760405161141291906118b2565b60006040518083038185875af1925050503d806000811461144f576040519150601f19603f3d011682016040523d82523d6000602084013e611454565b606091505b509150915061146587838387611470565b979650505050505050565b606083156115065782516000036114ff5773ffffffffffffffffffffffffffffffffffffffff85163b6114ff576040517f08c379a000000000000000000000000000000000000000000000000000000000815260206004820152601d60248201527f416464726573733a2063616c6c20746f206e6f6e2d636f6e747261637400000060448201526064016103c1565b508161131d565b61131d838381511561151b5781518083602001fd5b806040517f08c379a00000000000000000000000000000000000000000000000000000000081526004016103c191906118ce565b803573ffffffffffffffffffffffffffffffffffffffff8116811461157357600080fd5b919050565b60008060006060848603121561158d57600080fd5b6115968461154f565b9250602084013591506115ab6040850161154f565b90509250925092565b6000806000806000608086880312156115cc57600080fd5b853594506115dc6020870161154f565b935060408601359250606086013567ffffffffffffffff8082111561160057600080fd5b818801915088601f83011261161457600080fd5b81358181111561162357600080fd5b8960208260051b850101111561163857600080fd5b9699959850939650602001949392505050565b60006020828403121561165d57600080fd5b5035919050565b6000806000806080858703121561167a57600080fd5b6116838561154f565b9350602085013592506116986040860161154f565b9396929550929360600135925050565b6000602082840312156116ba57600080fd5b5051919050565b7f4e487b7100000000000000000000000000000000000000000000000000000000600052601160045260246000fd5b8082028115828204841417611308576113086116c1565b7f4e487b7100000000000000000000000000000000000000000000000000000000600052601260045260246000fd5b60008261174557611745611707565b500490565b60008261175957611759611707565b500690565b60005b83811015611779578181015183820152602001611761565b50506000910152565b6000815180845261179a81602086016020860161175e565b601f017fffffffffffffffffffffffffffffffffffffffffffffffffffffffffffffffe0169290920160200192915050565b600073ffffffffffffffffffffffffffffffffffffffff808816835280871660208401525084604083015260a0606083015261180b60a0830185611782565b828103608084015261181d8185611782565b98975050505050505050565b60006020828403121561183b57600080fd5b8151801515811461135057600080fd5b7f4e487b7100000000000000000000000000000000000000000000000000000000600052603260045260246000fd5b60007fffffffffffffffffffffffffffffffffffffffffffffffffffffffffffffffff82036118ab576118ab6116c1565b5060010190565b600082516118c481846020870161175e565b9190910192915050565b602081526000611350602083018461178256fea264697066735822122017b6d0ea0ad57d643c58836df455ca20568e7b346f18f60755aeae2a9e46e61764736f6c63430008120033",
  "linkReferences": {},
  "deployedLinkReferences": {}
}